:020000040000FA
:040000000DEF00F010
:040008009CEFACF0CD
:06001800FF00EAEFB4F066
:10FEC800002020202020202020202020202020204A
:10FED8002000484F52495A4F4E54414C2056332E19
:10FEE80033002043414D42494F205445524D494328
:10FEF8004F0020205245464C4543544F4D455452DF
:10FF08004F00202052452D43414C49425241522135
:10FF1800004E4956454C20424154455249413A0009
:10FF28002050524F5049454441442044453A004DE1
:10FF3800696469656E646F202E2E2E2E004341522F
:10FF480047414E444F202E2E2E004D696469656E40
:10FF5800646F202E2E2E0047454F4D45545249417F
:10FF68002033300047454F4D4554524941203135E3
:10FF7800002020202020534C482D303436002020EB
:10FF880020202053455249414C3A004D49444120D4
:10FF9800424C414E434F3A0053454C454343494F29
:10FFA8004E453A004D494441204E4547524F3A008C
:10FFB8002020202020202041494D00494E46494E0E
:10FFC80049545900696E66696E697479004E414EEC
:10FFD80000696E66006E616E003A3A002575003160
:10FFE80000320034003700380061006200630064AA
:08FFF80000650025003900003E
:020000040001F9
:10000000000E0001F46F010EF76F29EF84F0000E6F
:10001000C46F000EC36F6000A3F3D9FF6000A7F3A5
:10002000DAFF190EDE6E010EDD6EC30E3E6E000E9F
:100030003F6E0CECA2F03FBE29EF80F03F5007E18D
:10004000020E3E5CD8B027EF80F029EF80F030EF51
:1000500080F0000E0001E96F000EE86F74EF84F08D
:1000600009ECBBF0600004F06DF0600008F06EF089
:1000700060000CF06FF0600010F070F0000189512A
:100080008A11D8B446EF80F048EF80F079EF80F025
:10009000000E516E000E506E000E536EC70E526E63
:1000A00034ECB9F0000E516E000E506E000E536E1F
:1000B000CD0E526E34ECB9F0000E516E000E506E43
:1000C000000E536ED20E526E34ECB9F0000E516E2B
:1000D000000E506E000E536ED70E526E34ECB9F017
:1000E000000E0001846F000E836F000E8A6F000EF9
:1000F000896FCEA27EEF80F081EF80F0010E82EF5B
:1001000080F0000E9C6F9C51D8A489EF80F08BEF9B
:1001100080F094EF80F08B518C11D8B492EF80F086
:1001200094EF80F017EF83F0000EC46F000EC36FE2
:100130006000A3F3D9FF6000A7F3DAFF290EDE6E9B
:10014000010EDD6EC30E546E000E556E39EC95F047
:1001500055BEB6EF80F0555007E1020E545CD8B0A2
:10016000B4EF80F0B6EF80F0B8EF80F029EF80F0C8
:1001700003ECBCF0600004F0C9F0600008F0CAF0C5
:10018000000E196E000E1A6E000E1B6E000E1C6E15
:100190006000B4F115F06000B8F116F06000BCF139
:1001A00017F06000C0F118F08CEC8DF0600054F096
:1001B000ECF0600058F0EDF060005CF0EEF06000F4
:1001C00060F0EFF02A0E196E8E0E1A6EE20E1B6EA4
:1001D000390E1C6E6000B4F115F06000B8F116F035
:1001E0006000BCF117F06000C0F118F08CEC8DF0ED
:1001F000600054F032F0600058F033F060005CF0C2
:1002000034F0600060F035F06000B4F119F0600087
:10021000B8F11AF06000BCF11BF06000C0F11CF0F6
:100220006000B0F315F06000B4F316F06000B8F3AE
:1002300017F06000BCF318F08CEC8DF0600054F007
:100240002EF0600058F02FF060005CF030F060009D
:1002500060F031F00EEC8BF06000B8F0F0F0600070
:10026000BCF0F1F06000C0F0F2F06000C4F0F3F018
:10027000600024F307F0600028F308F0096A0A6AB6
:10028000000E3BECA5F060001CF019F0600020F0BF
:100290001AF0600024F01BF0600028F01CF0D20E71
:1002A000326EC70E336E660E346E3F0E356E6000D2
:1002B000C0F32EF06000C4F32FF06000C8F330F0FC
:1002C0006000CCF331F00EEC8BF06000B8F015F06C
:1002D0006000BCF016F06000C0F017F06000C4F0E1
:1002E00018F08CEC8DF0600054F046F0600058F08F
:1002F00047F060005CF048F0600060F049F028ECE6
:10030000ADF0600018F1C9F060001CF1CAF0000106
:100310009C51D8B48EEF81F090EF81F0BCEF81F06A
:10032000F451D8A496EF81F098EF81F0BCEF81F002
:10033000000EC46F000EC36F6000A3F3D9FF60000E
:10034000A7F3DAFF390EDE6E010EDD6EC30E586EB6
:10035000000E596E11EC88F059BEBAEF81F0595079
:1003600007E1020E585CD8B0B8EF81F0BAEF81F027
:10037000BCEF81F029EF80F000018B518C11D8B4D3
:10038000C4EF81F0C6EF81F0EBEF81F0000EC46F97
:10039000000EC36F6000A3F3D9FF6000A7F3DAFF7C
:1003A000460EDE6E010EDD6EC30EE36F000EE46FCF
:1003B00075EC84F00001E4BFE9EF81F0E45107E15E
:1003C000020EE35DD8B0E7EF81F0E9EF81F0EBEFEB
:1003D00081F029EF80F0C00E016E030E026EFD0E5B
:1003E000036EFF0E046E000E066E010E056E35ECF8
:1003F000AEF001500210D8A400EF82F002EF82F0BC
:10040000D5EF82F0000E196E000E1A6E000E1B6EF4
:10041000400E1C6E6000C4F215F06000C8F216F0C9
:100420006000CCF217F06000D0F218F08CEC8DF088
:10043000600054F02EF0600058F02FF060005CF087
:1004400030F0600060F031F0000E326E000E336E5E
:10045000A80E346EC10E356E0EEC8BF06000B8F055
:10046000B1F06000BCF0B2F06000C0F0B3F060002A
:10047000C4F0B4F0000E016E000E026EA00E036E0A
:10048000400E046E6000C4F205F06000C8F206F091
:100490006000CCF207F06000D0F208F0B3ECADF0F1
:1004A000D8B055EF82F057EF82F07DEF82F0600018
:1004B000C4F201F06000C8F202F06000CCF203F078
:1004C0006000D0F204F0000E056E000E066E200EE5
:1004D000076E410E086EB3ECADF0D8B072EF82F04B
:1004E00074EF82F07DEF82F0000E0001B16F000E1C
:1004F000B26FA00EB36F400EB46F0001B4BF85EFB2
:1005000082F083EF82F08DEF82F0000EB16F000E6B
:10051000B26F000EB36F000EB46F6000C4F246F00D
:100520006000C8F247F06000CCF248F06000D0F202
:1005300049F028ECADF0600018F17BF060001CF190
:100540007CF0F50E566E000E576EE40E586EFF0EE0
:10055000596E6000ECF15AF06000F0F15BF0C9EC0C
:10056000B7F0D40E056E010E066EE20E076EFF0E9A
:10057000086E9BECB6F0D40E0F6E010E106EF50EE9
:10058000116E000E126E34ECBAF0D40E0F6E010E26
:10059000106EE20E116EFF0E126E34ECBAF0D40E35
:1005A000056E010E066E4EECB8F090ECBAF0000E3F
:1005B00000018C6F000E8B6FD40E016E010E026E67
:1005C000000E046E000E036E000E066E080E056E21
:1005D00027ECA6F0E6ECB9F0F40E012401014C6F13
:1005E000010E02204D6F000E03204E6F000E0420FE
:1005F0004F6F6000A3F3D9FF6000A7F3DAFF5A0E34
:10060000DE6E010EDD6EE6ECB9F0015001014C5DCD
:1006100002504D5903504E5904504F59D8A013EF72
:1006200083F015EF83F017EF83F029EF80F0000ED1
:100630000001C46F000EC36F6000A3F3D9FF600018
:10064000A7F3DAFF5C0EDE6E010EDD6EC30E2E6EBA
:10065000000E2F6E27ECA3F02FBE3AEF83F02F5041
:1006600007E1020E2E5CD8B038EF83F03AEF83F04A
:100670003CEF83F029EF80F016ECBBF0600004F053
:100680002EF0600008F02FF060000CF030F06000F9
:1006900010F031F0000E326E000E336E200E346E0C
:1006A000C10E356E0EEC8BF06000B8F0B1F060005A
:1006B000BCF0B2F06000C0F0B3F06000C4F0B4F081
:1006C000EC0E196ED10E1A6E350E1B6E420E1C6E9C
:1006D0006000C4F215F06000C8F216F06000CCF2C1
:1006E00017F06000D0F218F08CEC8DF0600054F040
:1006F0002EF0600058F02FF060005CF030F06000E9
:1007000060F031F0BC0E326E740E336E910E346EAA
:10071000C00E356E0EEC8BF06000B8F0B1F06000EA
:10072000BCF0B2F06000C0F0B3F06000C4F0B4F010
:10073000010E01014425446F000E4521456F000E56
:100740004621466F000E4721476F47BFB3EF83F046
:1007500047514611451109E1C90E445DD8A0B3EFD8
:1007600083F0B5EF83F00EEF84F00001B4BFBDEF6E
:1007700083F0BBEF83F0C5EF83F0000EB16F000E86
:10078000B26F000EB36F000EB46F000E016E000E5C
:10079000026EC60E036E420E046E6000C4F205F0D7
:1007A0006000C8F206F06000CCF207F06000D0F202
:1007B00008F0B3ECADF0D8B0E0EF83F0E2EF83F0F7
:1007C000EBEF83F0000E0001B16F000EB26FC60EAA
:1007D000B36F420EB46F6000C4F246F06000C8F21E
:1007E00047F06000CCF248F06000D0F249F028EC0D
:1007F000ADF0600018F150F060001CF151F0000EF7
:10080000536ECF0E526E34ECB9F0000E0101446FFE
:10081000000E456F000E466F000E476F000E000180
:10082000F76F6000A3F3D9FF6000A7F3DAFF660E4D
:10083000DE6E010EDD6EF751D8A421EF84F023EFB8
:1008400084F007EF80F0000EE96F010EE86F74EF9F
:1008500084F06000A3F3D9FF6000A7F3DAFF6F0014
:1008600078FFEAF06F0074FFEBF0EB51000AD8B4A8
:1008700040EF84F0010AD8B447EF84F066EF84F0CB
:10088000EA51000AD8B407EF80F066EF84F0EA512D
:10089000190AD8B415EF80F0300AD8B4A2EF80F06E
:1008A000100AD8B4A6EF81F07F0AD8B4D4EF81F053
:1008B0001C0AD8B403EF83F0060AD8B426EF83F0FD
:1008C0003A0AD8B41BEF84F066EF84F06000A3F31B
:1008D000D9FF6000A7F3DAFF000EDE6E000EDD6EBA
:1008E000000EE96F030EE86F1200B3EF87F0C00E41
:1008F000016E030E026EE70E036EFF0E046E000E15
:10090000066E010E056E35ECAEF001500210D8A453
:100910008CEF84F08EEF84F0BCEF84F003ECAAF04F
:10092000000E0001B66F000EB56F60008FF3D9FFA7
:10093000600093F3DAFF8F0EDE6E000EDD6EB50EF3
:100940005C6E000E5D6E7AECABF05DBEB3EF84F0D2
:100950005D5007E1020E5C5CD8B0B1EF84F0B3EFFC
:1009600084F0BAEF84F0000E0001E46F000EE36F34
:1009700010EF88F0A2EF87F0C00E016E030E026E3A
:10098000E90E036EFF0E046E000E066E010E056E7C
:1009900035ECAEF001500210D8A4D1EF84F0D3EFC3
:1009A00084F0FAEF84F06BEC9FF0000E0001B66F5C
:1009B000000EB56F60008FF3D9FF600093F3DAFF8C
:1009C000930EDE6E000EDD6EB50E5C6E000E5D6E7B
:1009D0007AECABF05DBEF8EF84F05D5007E1020EFB
:1009E0005C5CD8B0F6EF84F0F8EF84F0BAEF84F0F6
:1009F000B3EF84F0C00E016E030E026EE80E036EBC
:100A0000FE0E046E000E066E010E056E35ECAEF0A5
:100A100001500210D8A40FEF85F011EF85F038EFE8
:100A200085F04AEC98F0000E0001B66F000EB56F2D
:100A300060008FF3D9FF600093F3DAFF970EDE6E4C
:100A4000000EDD6EB50E5C6E000E5D6E7AECABF0E6
:100A50005DBE36EF85F05D5007E1020E5C5CD8B0FC
:100A600034EF85F036EF85F0BAEF84F0B3EF84F021
:100A7000C00E016E030E026EEB0E036EFF0E046ECF
:100A8000000E066E010E056E35ECAEF00150021040
:100A9000D8A44DEF85F04FEF85F076EF85F0B7ECF9
:100AA00099F0000E0001B66F000EB56F60008FF375
:100AB000D9FF600093F3DAFF9B0EDE6E000EDD6E51
:100AC000B50E5C6E000E5D6E7AECABF05DBE74EF41
:100AD00085F05D5007E1020E5C5CD8B072EF85F0E6
:100AE00074EF85F0BAEF84F0B3EF84F0C00E016EBE
:100AF000030E026E770E036EFF0E046E000E066E7E
:100B0000010E056E35ECAEF001500210D8A48BEF4B
:100B100085F08DEF85F0B4EF85F091EC9CF0000E40
:100B20000001B66F000EB56F60008FF3D9FF600053
:100B300093F3DAFF9F0EDE6E000EDD6EB50E5C6E77
:100B4000000E5D6E7AECABF05DBEB2EF85F05D50ED
:100B500007E1020E5C5CD8B0B0EF85F0B2EF85F033
:100B6000BAEF84F0B3EF84F0C00E016E030E026E94
:100B7000840E036EFF0E046E000E066E010E056EEF
:100B800035ECAEF001500210D8A4C9EF85F0CBEFE0
:100B900085F0F2EF85F07BECA8F0000E0001B66F57
:100BA000000EB56F60008FF3D9FF600093F3DAFF9A
:100BB000A30EDE6E000EDD6EB50E5C6E000E5D6E79
:100BC0007AECABF05DBEF0EF85F05D5007E1020E10
:100BD0005C5CD8B0EEEF85F0F0EF85F0BAEF84F012
:100BE000B3EF84F0C00E016E030E026EED0E036EC5
:100BF000FF0E046E000E066E010E056E35ECAEF0B3
:100C000001500210D8A407EF86F009EF86F030EF0C
:100C100086F03FECA9F0000E0001B66F000EB56F34
:100C200060008FF3D9FF600093F3DAFFA90EDE6E48
:100C3000000EDD6EB50E5C6E000E5D6E7AECABF0F4
:100C40005DBE2EEF86F05D5007E1020E5C5CD8B011
:100C50002CEF86F02EEF86F0BAEF84F0B3EF84F03D
:100C6000C00E016E030E026EEF0E036EFF0E046ED9
:100C7000000E066E010E056E35ECAEF0015002104E
:100C8000D8A445EF86F047EF86F06EEF86F0FEECD5
:100C90009DF0000E0001B66F000EB56F60008FF37F
:100CA000D9FF600093F3DAFFAD0EDE6E000EDD6E4D
:100CB000B50E5C6E000E5D6E7AECABF05DBE6CEF57
:100CC00086F05D5007E1020E5C5CD8B06AEF86F0FA
:100CD0006CEF86F0BAEF84F0B3EF84F0C00E016ED3
:100CE000030E026EF10E036EFF0E046E000E066E12
:100CF000010E056E35ECAEF001500210D8A483EF62
:100D000086F085EF86F0ACEF86F0DDEC96F0000E15
:100D10000001B66F000EB56F60008FF3D9FF600061
:100D200093F3DAFFB10EDE6E000EDD6EB50E5C6E73
:100D3000000E5D6E7AECABF05DBEAAEF86F05D5002
:100D400007E1020E5C5CD8B0A8EF86F0AAEF86F04F
:100D5000BAEF84F0B3EF84F0C00E016E030E026EA2
:100D6000F30E036EFF0E046E000E066E010E056E8E
:100D700035ECAEF001500210D8A4C1EF86F0C3EFFD
:100D800086F0EAEF86F0F3ECA6F0000E0001B66FF5
:100D9000000EB56F60008FF3D9FF600093F3DAFFA8
:100DA000B50EDE6E000EDD6EB50E5C6E000E5D6E75
:100DB0007AECABF05DBEE8EF86F05D5007E1020E25
:100DC0005C5CD8B0E6EF86F0E8EF86F0BAEF84F02E
:100DD000B3EF84F0C00E016E030E026EF50E036ECB
:100DE000FF0E046E000E066E010E056E35ECAEF0C1
:100DF00001500210D8A4FFEF86F001EF87F028EF32
:100E000087F024EC9BF0000E0001B66F000EB56F6A
:100E100060008FF3D9FF600093F3DAFFB90EDE6E46
:100E2000000EDD6EB50E5C6E000E5D6E7AECABF002
:100E30005DBE26EF87F05D5007E1020E5C5CD8B026
:100E400024EF87F026EF87F0BAEF84F0B3EF84F059
:100E5000C00E016E030E026EF70E036EFF0E046EDF
:100E6000000E066E010E056E35ECAEF0015002105C
:100E7000D8A43DEF87F03FEF87F066EF87F0B7EC3F
:100E8000A7F0000E0001B66F000EB56F60008FF383
:100E9000D9FF600093F3DAFFBD0EDE6E000EDD6E4B
:100EA000B50E5C6E000E5D6E7AECABF05DBE64EF6D
:100EB00087F05D5007E1020E5C5CD8B062EF87F00E
:100EC00064EF87F0BAEF84F0B3EF84F0C00E016EE8
:100ED000030E026EF90E036EFF0E046E000E066E18
:100EE000010E056E35ECAEF001500210D8A47BEF78
:100EF00087F07DEF87F0BAEF84F0000E0001B66F47
:100F0000000EB56F60008FF3D9FF600093F3DAFF36
:100F1000C00EDE6E000EDD6EB50E5C6E000E5D6EF8
:100F20007AECABF05DBEA0EF87F05D5007E1020EFA
:100F30005C5CD8B09EEF87F0A0EF87F0BAEF84F04A
:100F4000B3EF84F060008FF3D9FF600093F3DAFF12
:100F5000000EDE6E000EDD6E000E0001E46F020E6C
:100F6000E36F10EF88F060008FF3D9FF600093F318
:100F7000DAFF6F0078FFE5F06F0074FFE6F0000124
:100F8000E651000AD8B4C7EF87F002EF88F0E551C8
:100F9000000AD8B477EF84F08F0AD8B49FEF84F0BA
:100FA0001C0AD8B4E4EF84F0040AD8B422EF85F028
:100FB0000C0AD8B460EF85F0040AD8B49EEF85F02F
:100FC0003C0AD8B4DCEF85F00A0AD8B41AEF86F0F0
:100FD000040AD8B458EF86F01C0AD8B496EF86F00D
:100FE000040AD8B4D4EF86F00C0AD8B412EF87F014
:100FF000040AD8B450EF87F07D0AD8B48CEF87F09C
:1010000002EF88F060008FF3D9FF600093F3DAFFFE
:10101000000EDE6E000EDD6E000EE46F030EE36F59
:101020001200B1EF8AF003010805D8A41AEF88F086
:101030001CEF88F04BEF88F003ECAAF0C7ECAAF0A5
:10104000000E0001B86F000EB76F600063F1D9FFAA
:10105000600067F1DAFF4C0EDE6E000EDD6EB70E3B
:10106000096E000E0A6EAAECAFF00ABE43EF88F0DC
:101070000A5007E1020E095CD8B041EF88F043EF57
:1010800088F049EF88F0000E596E000E586E0DEF93
:101090008BF0A1EF8AF0020E0819D8A452EF88F065
:1010A00054EF88F07DEF88F06BEC9FF0C7ECAAF06E
:1010B000000E0001B86F000EB76F600063F1D9FF3A
:1010C000600067F1DAFF500EDE6E000EDD6EB70EC7
:1010D000096E000E0A6EAAECAFF00ABE7BEF88F034
:1010E0000A5007E1020E095CD8B079EF88F07BEF77
:1010F00088F049EF88F043EF88F0030E0819D8A470
:1011000084EF88F086EF88F0AFEF88F04AEC98F033
:10111000C7ECAAF0000E0001B86F000EB76F6000B8
:1011200063F1D9FF600067F1DAFF550EDE6E000E45
:10113000DD6EB70E096E000E0A6EAAECAFF00ABEA5
:10114000ADEF88F00A5007E1020E095CD8B0ABEFB2
:1011500088F0ADEF88F049EF88F043EF88F0040E97
:101160000819D8A4B6EF88F0B8EF88F0E1EF88F05E
:10117000B7EC99F0C7ECAAF0000E0001B86F000EB2
:10118000B76F600063F1D9FF600067F1DAFF5A0EB4
:10119000DE6E000EDD6EB70E096E000E0A6EAAEC52
:1011A000AFF00ABEDFEF88F00A5007E1020E095CDB
:1011B000D8B0DDEF88F0DFEF88F049EF88F043EF3B
:1011C00088F0050E0819D8A4E8EF88F0EAEF88F057
:1011D00013EF89F091EC9CF0C7ECAAF0000E00012F
:1011E000B86F000EB76F600063F1D9FF600067F160
:1011F000DAFF5F0EDE6E000EDD6EB70E096E000EBA
:101200000A6EAAECAFF00ABE11EF89F00A5007E1AE
:10121000020E095CD8B00FEF89F011EF89F049EFA9
:1012200088F043EF88F0060E0819D8A41AEF89F069
:101230001CEF89F045EF89F07BECA8F0C7ECAAF031
:10124000000E0001B86F000EB76F600063F1D9FFA8
:10125000600067F1DAFF640EDE6E000EDD6EB70E21
:10126000096E000E0A6EAAECAFF00ABE43EF89F0D9
:101270000A5007E1020E095CD8B041EF89F043EF54
:1012800089F049EF88F043EF88F0070E0819D8A4D9
:101290004CEF89F04EEF89F077EF89F03FECA9F041
:1012A000C7ECAAF0000E0001B86F000EB76F600027
:1012B00063F1D9FF600067F1DAFF6A0EDE6E000E9F
:1012C000DD6EB70E096E000E0A6EAAECAFF00ABE14
:1012D00075EF89F00A5007E1020E095CD8B073EF90
:1012E00089F075EF89F049EF88F043EF88F0080E38
:1012F0000819D8A47EEF89F080EF89F0A9EF89F072
:10130000FEEC9DF0C7ECAAF0000E0001B86F000ED5
:10131000B76F600063F1D9FF600067F1DAFF6F0E0D
:10132000DE6E000EDD6EB70E096E000E0A6EAAECC0
:10133000AFF00ABEA7EF89F00A5007E1020E095C80
:10134000D8B0A5EF89F0A7EF89F049EF88F043EF17
:1013500088F00A0E0819D8A4B0EF89F0B2EF89F02E
:10136000DBEF89F0DDEC96F0C7ECAAF0000E00018F
:10137000B86F000EB76F600063F1D9FF600067F1CE
:10138000DAFF730EDE6E000EDD6EB70E096E000E14
:101390000A6EAAECAFF00ABED9EF89F00A5007E155
:1013A000020E095CD8B0D7EF89F0D9EF89F049EF88
:1013B00088F043EF88F00B0E0819D8A4E2EF89F00B
:1013C000E4EF89F00DEF8AF0F3ECA6F0C7ECAAF099
:1013D000000E0001B86F000EB76F600063F1D9FF17
:1013E000600067F1DAFF770EDE6E000EDD6EB70E7D
:1013F000096E000E0A6EAAECAFF00ABE0BEF8AF07F
:101400000A5007E1020E095CD8B009EF8AF00BEF31
:101410008AF049EF88F043EF88F00C0E0819D8A441
:1014200014EF8AF016EF8AF03FEF8AF024EC9BF07D
:10143000C7ECAAF0000E0001B86F000EB76F600095
:1014400063F1D9FF600067F1DAFF7B0EDE6E000EFC
:10145000DD6EB70E096E000E0A6EAAECAFF00ABE82
:101460003DEF8AF00A5007E1020E095CD8B03BEF6D
:101470008AF03DEF8AF049EF88F043EF88F00D0ED7
:101480000819D8A446EF8AF048EF8AF071EF8AF085
:10149000B7ECA7F0C7ECAAF0000E0001B86F000E81
:1014A000B76F600063F1D9FF600067F1DAFF7F0E6C
:1014B000DE6E000EDD6EB70E096E000E0A6EAAEC2F
:1014C000AFF00ABE6FEF8AF00A5007E1020E095C26
:1014D000D8B06DEF8AF06FEF8AF049EF88F043EFF4
:1014E00088F00E0E0819D8A478EF8AF07AEF8AF007
:1014F00049EF88F0C7ECAAF0000E0001B86F000EAB
:10150000B76F600063F1D9FF600067F1DAFF820E08
:10151000DE6E000EDD6EB70E096E000E0A6EAAECCE
:10152000AFF00ABE9FEF8AF00A5007E1020E095C95
:10153000D8B09DEF8AF09FEF8AF049EF88F043EF33
:1015400088F0600063F1D9FF600067F1DAFF000EF8
:10155000DE6E000EDD6E000E596E020E586E0DEF3F
:101560008BF0600063F1D9FF600067F1DAFF6F0074
:1015700078FF5AF06F0074FF5BF05B50000AD8B43C
:10158000C4EF8AF0FFEF8AF05A50000AD8B413EF84
:1015900088F04C0AD8B42FEF88F01C0AD8B467EF53
:1015A00088F0050AD8B499EF88F00F0AD8B4CBEFC9
:1015B00088F0050AD8B4FDEF88F03B0AD8B42FEFC5
:1015C00089F00E0AD8B461EF89F0050AD8B493EF18
:1015D00089F01C0AD8B4C5EF89F0040AD8B4F7EF33
:1015E00089F00C0AD8B429EF8AF0040AD8B45BEF6A
:1015F0008AF0FD0AD8B48BEF8AF0FFEF8AF0600022
:1016000063F1D9FF600067F1DAFF000EDE6E000EB5
:10161000DD6E000E596E030E586E12003150800BB5
:101620003A6E315031243C6E30AE19EF8BF01BEF27
:101630008BF01CEF8BF03C803C50D8B422EF8BF049
:1016400024EF8BF039EF8BF03C28D8A42AEF8BF0F5
:101650002CEF8BF034EF8BF0000E2E6E000E2F6E01
:10166000000E306E000E316E308E000E316E41EF86
:101670008BF0000E2E6E000E2F6E000E306E000EE0
:10168000316E3550800B3B6E3A503B18D8B44BEF5F
:101690008BF04DEF8BF04EEF8BF03A8C35503524BC
:1016A0003B6E34AE56EF8BF058EF8BF059EF8BF06A
:1016B0003B803B50D8B45FEF8BF061EF8BF076EF5F
:1016C0008BF03B28D8A467EF8BF069EF8BF071EFBC
:1016D0008BF0000E326E000E336E000E346E000E74
:1016E000356E348E000E356E7EEF8BF0000E326E4E
:1016F000000E336E000E346E000E356E3C503B5CB7
:10170000D8B085EF8BF087EF8BF0BDEF8BF03AAC64
:101710008CEF8BF08EEF8BF090EF8BF0800E3A1AFF
:101720006000F0F03DF06000ECF03CF06000F4F0A0
:101730003BF06000B8F03DF06000C8F02EF06000B3
:10174000F4F032F06000BCF03DF06000CCF02FF01F
:101750006000F4F033F06000C0F03DF06000D0F0C5
:1017600030F06000F4F034F06000C4F03DF0600050
:10177000D4F031F06000F4F035F0000E3D6E3C50D6
:101780006000ECF036F0376A365E000E375A37BE2E
:10179000D3EF8BF0375009E11A0E365CD8A0D3EFA7
:1017A0008BF0D5EF8BF00DEF8CF02E502F1030100A
:1017B0003110D8A4DEEF8BF0E1EF8BF0010EE2EFF9
:1017C0008BF0000E3D6E000E2E6E000E2F6E000E82
:1017D000306E000E316E6000ECF03CF016EF8CF0D5
:1017E0003DA0F5EF8BF0F7EF8BF0FDEF8BF0D8908D
:1017F0003D3001093D6EFFEF8BF0D8903D322EA0B9
:1018000004EF8CF006EF8CF007EF8CF03D8E313456
:10181000313230322F322E323C2A3B503C5CD8A041
:1018200014EF8CF016EF8CF0F0EF8BF03ABC1BEF5E
:101830008CF01DEF8CF05DEF8CF03C50D8A423EFC2
:101840008CF025EF8CF02FEF8CF0000E2E6E000E3A
:101850002F6E000E306E000E316E8BEF8DF0325019
:101860002E2633502F22345030223550312231A0D1
:101870003CEF8CF03EEF8CF0EAEF8CF03DA043EFB4
:101880008CF045EF8CF04BEF8CF0D8903D30010997
:101890003D6E4DEF8CF0D8903D322EA052EF8CF083
:1018A00054EF8CF055EF8CF03D8E313431323032C4
:1018B0002F322E323C2AEAEF8CF032502E5C33501D
:1018C0002F58345030583150800A366E3550800AC7
:1018D0003658D8B06EEF8CF070EF8CF09BEF8CF038
:1018E0002E50325C366E2F503358376E305034588D
:1018F000386E31503558396EFF0E36242E6EFF0E7D
:1019000037202F6EFF0E3820306EFF0E3920316EDB
:10191000800E3A1A3D6C3D50D8A491EF8CF093EFB5
:101920008CF0A3EF8CF0010E2E26000E2F22302219
:101930003122A3EF8CF032502E5E33502F5A3450A8
:10194000305A3550315A2E502F1030103110D8A443
:10195000ACEF8CF0AEEF8CF0E3EF8CF03D50D8A400
:10196000B4EF8CF0B6EF8CF0E3EF8CF0000E2E6E3F
:10197000000E2F6E000E306E000E316E8BEF8DF06C
:10198000D8902E362F36303631363DAECAEF8CF039
:10199000CCEF8CF0CDEF8CF02E803DA0D2EF8CF010
:1019A000D4EF8CF0D8EF8CF0D8803D36DAEF8CF0A5
:1019B000D8903D363C50D8B4E0EF8CF0E2EF8CF09C
:1019C000E3EF8CF03C0630AEE8EF8CF0EAEF8CF001
:1019D000C0EF8CF0000E3B6E3DAEF1EF8CF0F3EFFC
:1019E0008CF00CEF8DF06000F4F036F07F0E3616C0
:1019F000D8B4FDEF8CF0FFEF8CF003EF8DF0010E0B
:101A00003B6E0CEF8DF02EA008EF8DF00AEF8DF0FD
:101A10000CEF8DF0FFEF8CF03B50D8B412EF8DF04F
:101A200014EF8DF047EF8DF0010E2E26000E2F22C1
:101A30003022312231A01FEF8DF021EF8DF047EFE2
:101A40008DF06000B8F036F06000BCF037F0600058
:101A5000C0F038F06000C4F039F03934393238322F
:101A6000373236326000D8F02EF06000DCF02FF014
:101A70006000E0F030F06000E4F031F03C28D8B4D1
:101A800044EF8DF046EF8DF047EF8DF03C2A3C2877
:101A9000D8B44DEF8DF04FEF8DF057EF8DF03C50F7
:101AA000D8A455EF8DF057EF8DF069EF8DF0000E53
:101AB0002E6E000E2F6E000E306E000E316E3C50FA
:101AC000D8A465EF8DF067EF8DF069EF8DF0000E13
:101AD0003A6E3CA06EEF8DF070EF8DF073EF8DF0ED
:101AE000308E74EF8DF0309ED8903C30316E3AAE2F
:101AF0007CEF8DF07EEF8DF07FEF8DF0318E60000A
:101B0000B8F02EF06000BCF02FF06000C0F030F0B4
:101B10006000C4F031F012001850800B216E185094
:101B20001824276E17AE97EF8DF099EF8DF09AEF8E
:101B30008DF027802750D8B4A0EF8DF0A2EF8DF064
:101B4000B5EF8DF02728D8A4A8EF8DF0AAEF8DF07F
:101B5000B2EF8DF0000E156E000E166E000E176EB1
:101B6000000E186E178EBDEF8DF0000E156E000E74
:101B7000166E000E176E000E186E1C50800B211A88
:101B80001C501C24266E1BAEC8EF8DF0CAEF8DF0E2
:101B9000CBEF8DF026802650D8B4D1EF8DF0D3EF67
:101BA0008DF0E6EF8DF02628D8A4D9EF8DF0DBEF8D
:101BB0008DF0E3EF8DF0000E196E000E1A6E000E20
:101BC0001B6E000E1C6E1B8EEEEF8DF0000E196E5C
:101BD000000E1A6E000E1B6E000E1C6E2650D8B43E
:101BE000F4EF8DF0F6EF8DF0FEEF8DF02750D8A4D6
:101BF000FCEF8DF0FEEF8DF008EF8EF0000E156E0D
:101C0000000E166E000E176E000E186ED0EF8FF0DD
:101C10001B5015026F00CCFF2CF06F00D0FF2DF091
:101C20002C50226E236A246A256A2D50286E296A58
:101C30002A6A2B6A1A5016026F00CCFF2CF06F0034
:101C4000D0FF2DF02C502226000E23222422252204
:101C50002D502826000E29222A222B221950170245
:101C60006F00CCFF2CF06F00D0FF2DF02C502226FF
:101C7000000E2322242225222D502826000E292260
:101C80002A222B22600090F025F060008CF024F0D6
:101C9000600088F023F0226A195016026F00CCFF12
:101CA0002CF06F00D0FF2DF02C5022262D50232237
:101CB000000E2422000E25221A5015026F00CCFFC0
:101CC0002CF06F00D0FF2DF02C5022262D50232217
:101CD000000E2422000E2522600090F025F0600006
:101CE0008CF024F0600088F023F0226A195015026D
:101CF0006F00CCFF2CF06F00D0FF2DF02C5022266F
:101D00002D502322000E2422000E25221B501602E5
:101D10006F00CCFF2CF06F00D0FF2DF02C50282648
:101D20002D502922000E2A22000E2B221A501702B3
:101D30006F00CCFF2CF06F00D0FF2DF02C50282628
:101D40002D502922000E2A22000E2B221B50170292
:101D50006F00CCFF2CF06F00D0FF2DF02C501D6ECB
:101D60002D501E6E1F6A206A60007CF020F060001B
:101D700078F01FF0600074F01EF01D6A1D502826D8
:101D80001E5029221F502A2220502B22600088F04A
:101D90001DF060008CF01EF0600090F01FF06000FD
:101DA00094F020F0190EDAEF8EF0D89020321F3226
:101DB0001E321D32E82ED5EF8EF01D5028261E5003
:101DC00029221F502A2220502B22600090F025F05B
:101DD00060008CF024F0600088F023F0226A265026
:101DE00060009CF01DF01E6A1D26000E1E22820E51
:101DF0001D242C6EFF0E1E202D6E14EF8FF0D89038
:101E0000283629362A362B3625AE09EF8FF00BEF10
:101E10008FF00CEF8FF02880D890223623362436AE
:101E200025362C06D8A02D062AAE19EF8FF01BEF11
:101E30008FF0FFEF8EF0000E266E25AE22EF8FF0B2
:101E400024EF8FF048EF8FF0FF0E22141D6EFF0E6F
:101E500023141E6EFF0E24141F6E7F0E2514206E99
:101E60001D501E101F102010D8B439EF8FF03BEF1B
:101E70008FF03FEF8FF0010E266E48EF8FF028A015
:101E800044EF8FF046EF8FF048EF8FF03BEF8FF08D
:101E90002650D8B44EEF8FF050EF8FF07CEF8FF0DC
:101EA000010E2826000E29222A222B222BA05BEFCE
:101EB0008FF05DEF8FF07CEF8FF06000A0F01DF0F1
:101EC0006000A4F01EF06000A8F01FF06000ACF00D
:101ED00020F0203420321F321E321D32600074F098
:101EE00028F0600078F029F060007CF02AF06000B3
:101EF00080F02BF02C4A2D2A2DBE87EF8FF02D502D
:101F000008E12C28D8A087EF8FF089EF8FF093EFAE
:101F10008FF0000E286E000E296E800E2A6E7F0E46
:101F20002B6EC2EF8FF02DBEA0EF8FF02D5006E18B
:101F30002C04D8B09EEF8FF0A0EF8FF0ACEF8FF0B5
:101F4000000E286E000E296E000E2A6E000E2B6EFB
:101F5000000E216EC2EF8FF06000B0F027F0FF0E90
:101F60002816FF0E29167F0E2A16000E2B1627A004
:101F7000BCEF8FF0BEEF8FF0BFEF8FF02A8ED890BE
:101F800027302B6E21502B126000A0F015F060005E
:101F9000A4F016F06000A8F017F06000ACF018F0A4
:101FA00012000450800B116E04500424186E03AE0E
:101FB000DCEF8FF0DEEF8FF0DFEF8FF0188018503E
:101FC000D8B4E5EF8FF0E7EF8FF0FCEF8FF0182833
:101FD000D8A4EDEF8FF0EFEF8FF0F7EF8FF0000E5A
:101FE000016E000E026E000E036E000E046E038E74
:101FF000000E046E04EF90F0000E016E000E026EF3
:10200000000E036E000E046E0850800B111A08506B
:102010000824196E07AE0FEF90F011EF90F012EF59
:1020200090F019801950D8B418EF90F01AEF90F092
:102030002FEF90F01928D8A420EF90F022EF90F025
:102040002AEF90F0000E056E000E066E000E076E71
:10205000000E086E078E000E086E37EF90F0000E2F
:10206000056E000E066E000E076E000E086E05501F
:10207000061007100810D8A440EF90F042EF90F03F
:102080005EEF90F0000E016E000E026E000E036E09
:10209000000E046E800E03127F0E04121150041203
:1020A000600004F001F0600008F002F060000CF045
:1020B00003F0600010F004F0AFEF91F01850D8A4D6
:1020C00064EF90F066EF90F070EF90F0000E016E0C
:1020D000000E026E000E036E000E046EAFEF91F064
:1020E0001950600060F009F00A6A095E000E0A5A91
:1020F0007F0E0924126E000E0A20136E600004F099
:102100000DF0600008F00EF060000CF00FF06000C1
:1021100010F010F0000E016E000E026E000E036E45
:10212000000E046E000E146E000E156E000E166E7C
:10213000000E176E000E196ED6EF90F01950D8B43D
:10214000A4EF90F0A6EF90F0BDEF90F0D8900D3690
:102150000E360F361036D890013602360336043666
:1021600017AEB5EF90F0B7EF90F0B8EF90F00180B8
:10217000D890143615361636173605500D5C0650B5
:102180000E5807500F5808501058D8A0CAEF90F0BA
:10219000CCEF90F0D5EF90F0178C05500D5E065007
:1021A0000E5A07500F5A0850105A192A190E19645E
:1021B000DCEF90F0DEEF90F09EEF90F00D500E10FF
:1021C0000F101010D8B4E7EF90F0E9EF90F001EFA6
:1021D00091F0148001EF91F0D89001360236033669
:1021E000043617AEF6EF90F0F8EF90F0F9EF90F0BC
:1021F0000180D89014361536163617361206D8A038
:10220000130603AE06EF91F008EF91F0ECEF90F0BB
:10221000000E196E17AE0FEF91F011EF91F035EF40
:1022200091F0FF0E1414096EFF0E15140A6EFF0EC6
:1022300016140B6E7F0E17140C6E09500A100B103B
:102240000C10D8B426EF91F028EF91F02CEF91F01C
:10225000010E196E35EF91F001A031EF91F033EFDF
:1022600091F035EF91F028EF91F01950D8B43BEF91
:1022700091F03DEF91F069EF91F0010E0126000E13
:1022800002220322042204A048EF91F04AEF91F0C9
:1022900069EF91F0600004F009F0600008F00AF0C6
:1022A00060000CF00BF0600010F00CF00C340C32FD
:1022B0000B320A320932600024F001F0600028F08D
:1022C00002F060002CF003F0600030F004F0124ADD
:1022D000132A13BE74EF91F0135008E11228D8A00E
:1022E00074EF91F076EF91F081EF91F0000E136EA4
:1022F0001268000E016E000E026E000E036E000EDC
:10230000046E13BE8EEF91F0135006E11204D8B0A4
:102310008CEF91F08EEF91F09CEF91F0000E136E28
:10232000000E126E000E016E000E026E000E036EA5
:10233000000E046E000E116E600048F018F018A038
:10234000A4EF91F0A6EF91F0A9EF91F0038EAAEF20
:1023500091F0039ED8901830046E4EEF90F012006A
:10236000010E0001FC6F35EF93F0000EBA6F000E06
:10237000B96F6000E3F3D9FF6000E7F3DAFFF70E0F
:10238000DE6E010EDD6EB90E3E6E000E3F6E0CEC81
:10239000A2F03FBED7EF91F03F5007E1020E3E5C46
:1023A000D8B0D5EF91F0D7EF91F0D9EF91F07BEF66
:1023B00093F009ECBBF0600004F046F0600008F018
:1023C00047F060000CF048F0600010F049F028EC95
:1023D000ADF0600018F1BAF160001CF1BBF1000E25
:1023E000026E000E016E91ECB9F0000E026E000E4E
:1023F000016E74ECB9F0E6ECB9F0D00E01240101E5
:102400002C6F070E02202D6F000E03202E6F000E82
:1024100004202F6F6000E3F3D9FF6000E7F3DAFFD9
:10242000FD0EDE6E010EDD6EE6ECB9F0015001012D
:102430002C5D02502D5903502E5904502F59D8A00D
:1024400024EF92F026EF92F028EF92F07BEF93F0DA
:10245000000E0001BA6F000EB96F6000E3F3D9FF00
:102460006000E7F3DAFFFE0EDE6E010EDD6EB90EE0
:102470002E6E000E2F6E27ECA3F02FBE4BEF92F0C6
:102480002F5007E1020E2E5CD8B049EF92F04BEFCF
:1024900092F04DEF92F07BEF93F016ECBBF0600002
:1024A00004F02EF0600008F02FF060000CF030F027
:1024B000600010F031F0000E326E000E336E200E10
:1024C000346EC10E356E0EEC8BF06000B8F0B1F0DA
:1024D0006000BCF0B2F06000C0F0B3F06000C4F087
:1024E000B4F0EC0E196ED10E1A6E350E1B6E420E44
:1024F0001C6E6000C4F215F06000C8F216F06000B7
:10250000CCF217F06000D0F218F08CEC8DF0600087
:1025100054F02EF0600058F02FF060005CF030F0C6
:10252000600060F031F0BC0E326E740E336E910EAE
:10253000346EC00E356E0EEC8BF06000B8F0B1F06A
:102540006000BCF0B2F06000C0F0B3F06000C4F016
:10255000B4F00001B4BFB1EF92F0AFEF92F0B9EF79
:1025600092F0000EB16F000EB26F000EB36F000E4E
:10257000B46F000E016E000E026EC60E036E420EA8
:10258000046E6000C4F205F06000C8F206F060005E
:10259000CCF207F06000D0F208F0B3ECADF0D8B0A8
:1025A000D4EF92F0D6EF92F0DFEF92F0000E000140
:1025B000B16F000EB26FC60EB36F420EB46F600003
:1025C000C4F246F06000C8F247F06000CCF248F078
:1025D0006000D0F249F028ECADF0600018F150F046
:1025E00060001CF151F0000E536ECF0E526E34ECB1
:1025F000B9F0000E0001BA6F000EB96F6000E3F38E
:10260000D9FF6000E7F3DAFF060EDE6E020EDD6E24
:10261000B90EE86F000EE96F00EC80F00001E9BF31
:102620001DEF93F0E95107E1020EE85DD8B01BEF12
:1026300093F01DEF93F01FEF93F07BEF93F0000EFC
:10264000FC6F6000E3F3D9FF6000E7F3DAFF070EE9
:10265000DE6E020EDD6EFC51D8A431EF93F033EF45
:1026600093F0B5EF91F07BEF93F06000E3F3D9FFC7
:102670006000E7F3DAFF6F0078FFFAF06F0074FF95
:10268000FBF0FB51000AD8B450EF93F0010AD8B424
:1026900057EF93F0030AD8B466EF93F071EF93F01D
:1026A000FA51000AD8B4B5EF91F071EF93F0FA51F6
:1026B000F70AD8B4C3EF91F00A0AD8B414EF92F035
:1026C000030AD8B437EF92F071EF93F0FA51060A8B
:1026D000D8B408EF93F0010AD8B42BEF93F071EF60
:1026E00093F06000E3F3D9FF6000E7F3DAFF000E38
:1026F000DE6E000EDD6E1200010E0001D16F08EFDC
:1027000095F0BC84E6ECB9F0900E01240101146F41
:10271000010E0220156F000E0320166F000E04201C
:10272000176F600043F1D9FF600047F1DAFFE20E56
:10273000DE6E000EDD6EE6ECB9F001011451015CB5
:10274000155102581651035817510458D8B0ABEF21
:1027500093F0ADEF93F0B3EF93F0000E516E000ED7
:10276000506E38EF95F0000E0001936F010EE6EC0D
:10277000B9F001240101146F000E0220156F000E44
:102780000320166F000E0420176F600043F1D9FF7D
:10279000600047F1DAFFE60EDE6E000EDD6EE6EC5D
:1027A000B9F001011451015C15510258165103583A
:1027B00017510458D8B0DFEF93F0E1EF93F0E3EF57
:1027C00093F0ADEF93F0010E79ECB8F00001935166
:1027D000020D520EF324D96E030EF420DA6E60005F
:1027E00007F0DEFF60000BF0DDFF932B0F0E93650B
:1027F000FCEF93F0FEEF93F0B6EF93F0000E766FE0
:10280000000E756F010E936F9351020D520EF3245B
:10281000D96E030EF420DA6EDE507527DD50762374
:10282000932B0F0E936517EF94F019EF94F004EFCC
:1028300094F06000D4F101F06000D8F102F0000ED5
:10284000046E0F0E036E5FECB6F0600004F075F0DE
:10285000600008F076F0520E0001D26FB80ED36F10
:102860007E0ED46F3F0ED56F0A0ED66FD70ED76F80
:10287000A30ED86F3B0ED96F6000D4F107F0600053
:10288000D8F108F0096A0A6A000E3BECA5F0600076
:102890001CF069F0600020F06AF0600024F06BF03A
:1028A000600028F06CF0010E0001DA6F000EDB6FA3
:1028B000000EDC6F000EDD6F010E79ECB8F06000E9
:1028C00004F0A6F1600008F0A7F1600048F319F0E9
:1028D00060004CF31AF0600050F31BF0600054F3FA
:1028E0001CF06000A4F115F06000A8F116F0600083
:1028F000ACF117F06000B0F118F08CEC8DF06000D6
:1029000054F02EF0600058F02FF060005CF030F0D2
:10291000600060F031F0600058F319F060005CF383
:102920001AF0600060F31BF0600064F31CF06000BC
:1029300098F607F060009CF608F0096A0A6A000E33
:102940003BECA5F060001CF015F0600020F016F0E4
:10295000600024F017F0600028F018F08CEC8DF087
:10296000600054F032F0600058F033F060005CF02A
:1029700034F0600060F035F00EEC8BF06000B8F0E1
:1029800069F06000BCF06AF06000C0F06BF06000BD
:10299000C4F06CF0010E0001DA27000EDB23DC230B
:1029A000DD23DDBFE0EF94F0DD51DC110BE1580ECB
:1029B000DA5D020EDB59D8A0E0EF94F0E2EF94F07C
:1029C0005CEF94F0BC946000A4F146F06000A8F1C4
:1029D00047F06000ACF148F06000B0F149F028EC3D
:1029E000ADF0C80E46240001756F000E4720766FCB
:1029F000600043F1D9FF600047F1DAFF000EDE6EA0
:102A0000000EDD6E000E516E020E506E38EF95F026
:102A1000600043F1D9FF600047F1DAFF6F0078FFF3
:102A200052F06F0074FF53F05350000AD8B41BEFFC
:102A300095F02AEF95F05250000AD8B481EF93F048
:102A4000E20AD8B49BEF93F0040AD8B4CFEF93F026
:102A50002AEF95F0600043F1D9FF600047F1DAFFFB
:102A6000000EDE6E000EDD6E000E516E030E506E17
:102A70001200F70E0201646FCC0E656F920E666F46
:102A8000390E676FBC0E5C6F960E5D6FD00E5E6F79
:102A90003D0E5F6F870E606FA70E616F1F0E626F36
:102AA000400E636F000E586F000E596FA00E5A6FE4
:102AB000400E5B6FA9EF96F0000E0101EF6F000E64
:102AC000EE6F600053F1D9FF600057F1DAFF0E0E90
:102AD000DE6E010EDD6EEE0E506E010E516E7CEC60
:102AE00093F051BE7FEF95F0515007E1020E505C1C
:102AF000D8B07DEF95F07FEF95F085EF95F0000E63
:102B0000556E000E546EDCEF96F06000D4F107F0C5
:102B10006000D8F108F0096A0A6A000E3BECA5F0E3
:102B200060001CF065F0600020F066F0600024F0AA
:102B300067F0600028F068F000018751855D566EEF
:102B400088518659576E600058F107F060005CF1BB
:102B500008F0096A0A6A000E3BECA5F060001CF060
:102B6000DCF1600020F0DDF1600024F0DEF16000B7
:102B700028F0DFF1000E016E800E026ED90E036E9A
:102B8000430E046E600070F705F0600074F706F005
:102B9000600078F707F060007CF708F0D1EC8FF068
:102BA000600004F0F0F1600008F0F1F160000CF05A
:102BB000F2F1600010F0F3F16000C0F719F060006E
:102BC000C4F71AF06000C8F71BF06000CCF71CF0E7
:102BD00060001CF207F0600020F208F0096A0A6A3F
:102BE000000E3BECA5F060001CF015F0600020F03A
:102BF00016F0600024F017F0600028F018F08CEC5C
:102C00008DF0600054F042F0600058F043F0600036
:102C10005CF044F0600060F045F0000E3E6E000E87
:102C20003F6EF00E406E410E416E6CECB7F06000EE
:102C3000F8F059F06000FCF05AF0600000F15BF031
:102C4000600004F15CF0600094F119F0600098F10C
:102C50001AF060009CF11BF06000A0F11CF0600015
:102C6000C0F715F06000C4F716F06000C8F717F061
:102C70006000CCF718F08CEC8DF0600054F02EF072
:102C8000600058F02FF060005CF030F0600060F001
:102C900031F0600064F132F0600068F133F0600000
:102CA0006CF134F0600070F135F00EEC8BF06000E8
:102CB000B8F010F16000BCF011F16000C0F012F14A
:102CC0006000C4F013F110C165F011C166F012C1CB
:102CD00067F013C168F0600094F10DF0600098F1A6
:102CE0000EF060009CF10FF06000A0F110F08CEC91
:102CF000B5F0600034F065F0600038F066F0600018
:102D00003CF067F0600040F068F0600094F146F03D
:102D1000600098F147F060009CF148F06000A0F17D
:102D200049F028ECADF0600018F1B8F160001CF13A
:102D3000B9F1600053F1D9FF600057F1DAFF000EDE
:102D4000DE6E000EDD6E000E556E020E546EDCEF70
:102D500096F0600053F1D9FF600057F1DAFF6F0081
:102D600078FF56F06F0074FF57F05750000AD8B440
:102D7000C0EF96F0010AD8B4C7EF96F0CEEF96F008
:102D80005650000AD8B45CEF95F0CEEF96F056504E
:102D90000E0AD8B46BEF95F0CEEF96F0600053F1C9
:102DA000D9FF600057F1DAFF000EDE6E000EDD6E17
:102DB000000E556E030E546E1200F10E196E5C0E6D
:102DC0001A6E460E1B6E3A0E1C6E600024F307F05E
:102DD000600028F308F0096A0A6A000E3BECA5F0CF
:102DE00060001CF015F0600020F016F0600024F088
:102DF00017F0600028F018F08CEC8DF0600054F0B3
:102E0000CFF0600058F0D0F060005CF0D1F06000CE
:102E100060F0D2F0190E196E050E1A6E2F0E1B6E91
:102E2000340E1C6E600024F307F0600028F308F0F5
:102E3000096A0A6A000E3BECA5F060001CF015F070
:102E4000600020F016F0600024F017F0600028F019
:102E500018F08CEC8DF0600054F0D3F0600058F066
:102E6000D4F060005CF0D5F0600060F0D6F0600057
:102E700024F307F0600028F308F0096A0A6A000EDC
:102E80003BECA5F060001CF019F0600020F01AF097
:102E9000600024F01BF0600028F01CF060004CF390
:102EA00015F0600050F316F0600054F317F0600066
:102EB00058F318F08CEC8DF0600054F0D7F06000FF
:102EC00058F0D8F060005CF0D9F0600060F0DAF003
:102ED000600024F307F0600028F308F0096A0A6A2A
:102EE000000E3BECA5F060001CF019F0600020F033
:102EF0001AF0600024F01BF0600028F01CF0600065
:102F00003CF315F0600040F316F0600044F317F056
:102F1000600048F318F08CEC8DF0600054F042F043
:102F2000600058F043F060005CF044F0600060F036
:102F300045F0600024F307F0600028F308F0096A08
:102F40000A6A000E3BECA5F060001CF019F060006E
:102F500020F01AF0600024F01BF0600028F01CF054
:102F600060005CF315F0600060F316F0600064F33D
:102F700017F0600068F318F08CEC8DF0600054F0EE
:102F80003EF0600058F03FF060005CF040F0600000
:102F900060F041F06CECB7F06000F8F0DBF060003E
:102FA000FCF0DCF0600000F1DDF0600004F1DEF028
:102FB000430E196E480E1A6E9B0E1B6E3F0E1C6E52
:102FC000600024F307F0600028F308F0096A0A6A39
:102FD000000E3BECA5F060001CF015F0600020F046
:102FE00016F0600024F017F0600028F018F08CEC68
:102FF0008DF0600054F032F0600058F033F0600063
:103000005CF034F0600060F035F060006CF32EF09E
:10301000600070F32FF0600074F330F0600078F31C
:1030200031F00EEC8BF06000B8F0DFF06000BCF027
:10303000E0F06000C0F0E1F06000C4F0E2F0000EEB
:10304000326E000E336EDD0E346EC30E356E6000D0
:103050007CF32EF0600080F32FF0600084F330F0FA
:10306000600088F331F00EEC8BF06000B8F046F0B1
:103070006000BCF047F06000C0F048F06000C4F0B1
:1030800049F028ECADF0600018F1C9F060001CF1C7
:10309000CAF01200F10E196E5C0E1A6E460E1B6E0F
:1030A0003A0E1C6E600024F307F0600028F308F06D
:1030B000096A0A6A000E3BECA5F060001CF015F0EE
:1030C000600020F016F0600024F017F0600028F097
:1030D00018F08CEC8DF0600054F0CFF0600058F0E8
:1030E000D0F060005CF0D1F0600060F0D2F0190E1A
:1030F000196E050E1A6E2F0E1B6E340E1C6E6000BC
:1031000024F307F0600028F308F0096A0A6A000E49
:103110003BECA5F060001CF015F0600020F016F00C
:10312000600024F017F0600028F018F08CEC8DF0AF
:10313000600054F0D3F0600058F0D4F060005CF010
:10314000D5F0600060F0D6F0600024F307F0600076
:1031500028F308F0096A0A6A000E3BECA5F060004B
:103160001CF019F0600020F01AF0600024F01BF051
:10317000600028F01CF060004CF315F0600050F384
:1031800016F0600054F317F0600058F318F08CEC60
:103190008DF0600054F0D7F0600058F0D8F0600077
:1031A0005CF0D9F0600060F0DAF0600024F307F022
:1031B000600028F308F0096A0A6A000E3BECA5F0EB
:1031C00060001CF019F0600020F01AF0600024F09C
:1031D0001BF0600028F01CF060003CF315F060006C
:1031E00040F316F0600044F317F0600048F318F065
:1031F0008CEC8DF0600054F042F0600058F043F029
:1032000060005CF044F0600060F045F0600024F382
:1032100007F0600028F308F0096A0A6A000E3BEC28
:10322000A5F060001CF019F0600020F01AF06000BA
:1032300024F01BF0600028F01CF060005CF315F037
:10324000600060F316F0600064F317F0600068F34C
:1032500018F08CEC8DF0600054F03EF0600058F0F7
:103260003FF060005CF040F0600060F041F06CEC1A
:10327000B7F06000F8F0DBF06000FCF0DCF060001C
:1032800000F1DDF0600004F1DEF0430E196E480E2F
:103290001A6E9B0E1B6E3F0E1C6E600024F307F02F
:1032A000600028F308F0096A0A6A000E3BECA5F0FA
:1032B00060001CF015F0600020F016F0600024F0B3
:1032C00017F0600028F018F08CEC8DF0600054F0DE
:1032D00032F0600058F033F060005CF034F06000D1
:1032E00060F035F060006CF32EF0600070F32FF0AA
:1032F000600074F330F0600078F331F00EEC8BF086
:103300006000B8F0DFF06000BCF0E0F06000C0F0FA
:10331000E1F06000C4F0E2F0000E326E000E336E99
:10332000DD0E346EC30E356E60007CF32EF060004F
:1033300080F32FF0600084F330F0600088F331F008
:103340000EEC8BF06000B8F046F06000BCF047F087
:103350006000C0F048F06000C4F049F028ECADF027
:10336000600018F1C9F060001CF1CAF01200990E5B
:10337000196E460E1A6E2F0E1B6E3A0E1C6E6000F2
:1033800024F307F0600028F308F0096A0A6A000EC7
:103390003BECA5F060001CF015F0600020F016F08A
:1033A000600024F017F0600028F018F08CEC8DF02D
:1033B000600054F0CFF0600058F0D0F060005CF096
:1033C000D1F0600060F0D2F00D0E196ED70E1A6EBB
:1033D0001D0E1B6E340E1C6E600024F307F060009F
:1033E00028F308F0096A0A6A000E3BECA5F06000B9
:1033F0001CF015F0600020F016F0600024F017F0CB
:10340000600028F018F08CEC8DF0600054F0D3F0E0
:10341000600058F0D4F060005CF0D5F0600060F01F
:10342000D6F0600024F307F0600028F308F0096A82
:103430000A6A000E3BECA5F060001CF019F0600079
:1034400020F01AF0600024F01BF0600028F01CF05F
:1034500060004CF315F0600050F316F0600054F378
:1034600017F0600058F318F08CEC8DF0600054F009
:10347000D7F0600058F0D8F060005CF0D9F0600040
:1034800060F0DAF0600024F307F0600028F308F041
:10349000096A0A6A000E3BECA5F060001CF019F006
:1034A000600020F01AF0600024F01BF0600028F0AB
:1034B0001CF060003CF315F0600040F316F0600073
:1034C00044F317F0600048F318F08CEC8DF06000C6
:1034D00054F042F0600058F043F060005CF044F0BB
:1034E000600060F045F0600024F307F0600028F30E
:1034F00008F0096A0A6A000E3BECA5F060001CF0B7
:1035000019F0600020F01AF0600024F01BF0600059
:1035100028F01CF060005CF315F0600060F316F01A
:10352000600064F317F0600068F318F08CEC8DF025
:10353000600054F03EF0600058F03FF060005CF036
:1035400040F0600060F041F06CECB7F06000F8F023
:10355000DBF06000FCF0DCF0600000F1DDF060000A
:1035600004F1DEF0E30E196E8B0E1A6E8A0E1B6EDE
:103570003F0E1C6E600024F307F0600028F308F093
:10358000096A0A6A000E3BECA5F060001CF015F019
:10359000600020F016F0600024F017F0600028F0C2
:1035A00018F08CEC8DF0600054F032F0600058F0B0
:1035B00033F060005CF034F0600060F035F06000E3
:1035C0006CF32EF0600070F32FF0600074F330F0B5
:1035D000600078F331F00EEC8BF06000B8F0DFF0B3
:1035E0006000BCF0E0F06000C0F0E1F06000C4F00A
:1035F000E2F0000E326E800E336EC40E346EC30ED7
:10360000356E60007CF32EF0600080F32FF06000D8
:1036100084F330F0600088F331F00EEC8BF0600042
:10362000B8F046F06000BCF047F06000C0F048F031
:103630006000C4F049F028ECADF0600018F1C9F06A
:1036400060001CF1CAF01200FE0E196E5D0E1A6EBB
:103650009A0E1B6E370E1C6E600024F307F060009C
:1036600028F308F0096A0A6A000E3BECA5F0600036
:103670001CF015F0600020F016F0600024F017F048
:10368000600028F018F08CEC8DF0600054F0CFF062
:10369000600058F0D0F060005CF0D1F0600060F0A5
:1036A000D2F09B0E196E560E1A6EDF0E1B6E320E86
:1036B0001C6E600024F307F0600028F308F0096A2C
:1036C0000A6A000E3BECA5F060001CF015F06000EB
:1036D00020F016F0600024F017F0600028F018F0D9
:1036E0008CEC8DF0600054F0D3F0600058F0D4F012
:1036F00060005CF0D5F0600060F0D6F0600024F36C
:1037000007F0600028F308F0096A0A6A000E3BEC33
:10371000A5F060001CF019F0600020F01AF06000C5
:1037200024F01BF0600028F01CF060004CF315F052
:10373000600050F316F0600054F317F0600058F387
:1037400018F08CEC8DF0600054F0D7F0600058F069
:10375000D8F060005CF0D9F0600060F0DAF0600052
:1037600024F307F0600028F308F0096A0A6A000EE3
:103770003BECA5F060001CF019F0600020F01AF09E
:10378000600024F01BF0600028F01CF060003CF3A7
:1037900015F0600040F316F0600044F317F060008D
:1037A00048F318F08CEC8DF0600054F042F06000AB
:1037B00058F043F060005CF044F0600060F045F0C9
:1037C000600024F307F0600028F308F0096A0A6A31
:1037D000000E3BECA5F060001CF019F0600020F03A
:1037E0001AF0600024F01BF0600028F01CF060006C
:1037F0005CF315F0600060F316F0600064F317F0FE
:10380000600068F318F08CEC8DF0600054F03EF02E
:10381000600058F03FF060005CF040F0600060F045
:1038200041F06CECB7F06000F8F0DBF06000FCF009
:10383000DCF0600000F1DDF0600004F1DEF06B0E02
:10384000196E350E1A6ED10E1B6E3D0E1C6E600089
:1038500024F307F0600028F308F0096A0A6A000EF2
:103860003BECA5F060001CF015F0600020F016F0B5
:10387000600024F017F0600028F018F08CEC8DF058
:10388000600054F032F0600058F033F060005CF0FB
:1038900034F0600060F035F060006CF32EF06000F2
:1038A00070F32FF0600074F330F0600078F331F0C3
:1038B0000EEC8BF06000B8F0DFF06000BCF0E0F0E0
:1038C0006000C0F0E1F06000C4F0E2F0000E326E83
:1038D000000E336E440E346EC20E356E60007CF303
:1038E0002EF0600080F32FF0600084F330F0600071
:1038F00088F331F00EEC8BF06000B8F046F0600019
:10390000BCF047F06000C0F048F06000C4F049F03F
:1039100028ECADF0600018F1C9F060001CF1CAF0AD
:103920001200FE0E196E5D0E1A6E9A0E1B6E370E89
:103930001C6E600024F307F0600028F308F0096AA9
:103940000A6A000E3BECA5F060001CF015F0600068
:1039500020F016F0600024F017F0600028F018F056
:103960008CEC8DF0600054F0CFF0600058F0D0F097
:1039700060005CF0D1F0600060F0D2F09B0E196E38
:10398000560E1A6EDF0E1B6E320E1C6E600024F394
:1039900007F0600028F308F0096A0A6A000E3BECA1
:1039A000A5F060001CF015F0600020F016F060003B
:1039B00024F017F0600028F018F08CEC8DF0600017
:1039C00054F0D3F0600058F0D4F060005CF0D5F013
:1039D000600060F0D6F0600024F307F0600028F388
:1039E00008F0096A0A6A000E3BECA5F060001CF0C2
:1039F00019F0600020F01AF0600024F01BF0600065
:103A000028F01CF060004CF315F0600050F316F045
:103A1000600054F317F0600058F318F08CEC8DF050
:103A2000600054F0D7F0600058F0D8F060005CF00F
:103A3000D9F0600060F0DAF0600024F307F0600075
:103A400028F308F0096A0A6A000E3BECA5F0600052
:103A50001CF019F0600020F01AF0600024F01BF058
:103A6000600028F01CF060003CF315F0600040F3AB
:103A700016F0600044F317F0600048F318F08CEC87
:103A80008DF0600054F042F0600058F043F06000A8
:103A90005CF044F0600060F045F0600024F307F053
:103AA000600028F308F0096A0A6A000E3BECA5F0F2
:103AB00060001CF019F0600020F01AF0600024F0A3
:103AC0001BF0600028F01CF060005CF315F0600053
:103AD00060F316F0600064F317F0600068F318F00C
:103AE0008CEC8DF0600054F03EF0600058F03FF038
:103AF00060005CF040F0600060F041F06CECB7F00A
:103B00006000F8F0DBF06000FCF0DCF0600000F139
:103B1000DDF0600004F1DEF06B0E196E350E1A6EEA
:103B2000D10E1B6E3D0E1C6E600024F307F060008A
:103B300028F308F0096A0A6A000E3BECA5F0600061
:103B40001CF015F0600020F016F0600024F017F073
:103B5000600028F018F08CEC8DF0600054F032F02A
:103B6000600058F033F060005CF034F0600060F00A
:103B700035F060006CF32EF0600070F32FF0600001
:103B800074F330F0600078F331F00EEC8BF06000ED
:103B9000B8F0DFF06000BCF0E0F06000C0F0E1F0F1
:103BA0006000C4F0E2F0000E326E000E336E440E80
:103BB000346EC20E356E60007CF32EF0600080F330
:103BC0002FF0600084F330F0600088F331F00EECE9
:103BD0008BF06000B8F046F06000BCF047F0600089
:103BE000C0F048F06000C4F049F028ECADF060008F
:103BF00018F1C9F060001CF1CAF01200970E196E9E
:103C0000C60E1A6E9C0E1B6E390E1C6E600024F3DD
:103C100007F0600028F308F0096A0A6A000E3BEC1E
:103C2000A5F060001CF015F0600020F016F06000B8
:103C300024F017F0600028F018F08CEC8DF0600094
:103C400054F0CFF0600058F0D0F060005CF0D1F09C
:103C5000600060F0D2F0000E196EAF0E1A6EB80E52
:103C60001B6E330E1C6E600024F307F0600028F317
:103C700008F0096A0A6A000E3BECA5F060001CF02F
:103C800015F0600020F016F0600024F017F06000DE
:103C900028F018F08CEC8DF0600054F0D3F0600048
:103CA00058F0D4F060005CF0D5F0600060F0D6F021
:103CB000600024F307F0600028F308F0096A0A6A3C
:103CC000000E3BECA5F060001CF019F0600020F045
:103CD0001AF0600024F01BF0600028F01CF0600077
:103CE0004CF315F0600050F316F0600054F317F039
:103CF000600058F318F08CEC8DF0600054F0D7F0B1
:103D0000600058F0D8F060005CF0D9F0600060F01E
:103D1000DAF0600024F307F0600028F308F0096A85
:103D20000A6A000E3BECA5F060001CF019F0600080
:103D300020F01AF0600024F01BF0600028F01CF066
:103D400060003CF315F0600040F316F0600044F3AF
:103D500017F0600048F318F08CEC8DF0600054F020
:103D600042F0600058F043F060005CF044F0600006
:103D700060F045F0600024F307F0600028F308F0DD
:103D8000096A0A6A000E3BECA5F060001CF019F00D
:103D9000600020F01AF0600024F01BF0600028F0B2
:103DA0001CF060005CF315F0600060F316F060003A
:103DB00064F317F0600068F318F08CEC8DF060008D
:103DC00054F03EF0600058F03FF060005CF040F0CE
:103DD000600060F041F06CECB7F06000F8F0DBF0F0
:103DE0006000FCF0DCF0600000F1DDF0600004F148
:103DF000DEF0210E196EA50E1A6EE40E1B6E3E0E3D
:103E00001C6E600024F307F0600028F308F0096AD4
:103E10000A6A000E3BECA5F060001CF015F0600093
:103E200020F016F0600024F017F0600028F018F081
:103E30008CEC8DF0600054F032F0600058F033F0FC
:103E400060005CF034F0600060F035F060006CF30E
:103E50002EF0600070F32FF0600074F330F060001B
:103E600078F331F00EEC8BF06000B8F0DFF060001A
:103E7000BCF0E0F06000C0F0E1F06000C4F0E2F0FF
:103E8000000E326E000E336E210E346EC30E356E90
:103E900060007CF32EF0600080F32FF0600084F36C
:103EA00030F0600088F331F00EEC8BF06000B8F079
:103EB00046F06000BCF047F06000C0F048F06000E1
:103EC000C4F049F028ECADF0600018F1C9F06000D2
:103ED0001CF1CAF01200950E196E1D0E1A6E940E8A
:103EE0001B6E390E1C6E600024F307F0600028F38F
:103EF00008F0096A0A6A000E3BECA5F060001CF0AD
:103F000015F0600020F016F0600024F017F060005B
:103F100028F018F08CEC8DF0600054F0CFF06000C9
:103F200058F0D0F060005CF0D1F0600060F0D2F0AA
:103F30002D0E196EC40E1A6E9C0E1B6EB30E1C6EE7
:103F4000600024F307F0600028F308F0096A0A6AA9
:103F5000000E3BECA5F060001CF015F0600020F0B6
:103F600016F0600024F017F0600028F018F08CECD8
:103F70008DF0600054F0D3F0600058F0D4F0600091
:103F80005CF0D5F0600060F0D6F0600024F307F03C
:103F9000600028F308F0096A0A6A000E3BECA5F0FD
:103FA00060001CF019F0600020F01AF0600024F0AE
:103FB0001BF0600028F01CF060004CF315F060006E
:103FC00050F316F0600054F317F0600058F318F047
:103FD0008CEC8DF0600054F0D7F0600058F0D8F011
:103FE00060005CF0D9F0600060F0DAF0600024F36B
:103FF00007F0600028F308F0096A0A6A000E3BEC3B
:10400000A5F060001CF019F0600020F01AF06000CC
:1040100024F01BF0600028F01CF060003CF315F069
:10402000600040F316F0600044F317F0600048F3BE
:1040300018F08CEC8DF0600054F032F0600058F015
:1040400033F060005CF034F0600060F035F0600048
:1040500024F307F0600028F308F0096A0A6A000EEA
:104060003BECA5F060001CF019F0600020F01AF0A5
:10407000600024F01BF0600028F01CF060005CF38E
:1040800015F0600060F316F0600064F317F0600054
:1040900068F318F08CEC8DF0600054F02EF06000A6
:1040A00058F02FF060005CF030F0600060F031F00C
:1040B0000EEC8BF06000B8F0DBF06000BCF0DCF0E0
:1040C0006000C0F0DDF06000C4F0DEF0380E196E64
:1040D0001B0E1A6EFE0E1B6E3D0E1C6E600024F34E
:1040E00007F0600028F308F0096A0A6A000E3BEC4A
:1040F000A5F060001CF015F0600020F016F06000E4
:1041000024F017F0600028F018F08CEC8DF06000BF
:1041100054F032F0600058F033F060005CF034F09E
:10412000600060F035F060006CF32EF0600070F31A
:104130002FF0600074F330F0600078F331F00EEC93
:104140008BF06000B8F0DFF06000BCF0E0F06000E1
:10415000C0F0E1F06000C4F0E2F0000E326E000E3C
:10416000336E020E346EC30E356E60007CF32EF09B
:10417000600080F32FF0600084F330F0600088F37B
:1041800031F00EEC8BF06000B8F046F06000BCF04F
:1041900047F06000C0F048F06000C4F049F028EC3F
:1041A000ADF0600018F1C9F060001CF1CAF0120017
:1041B000000172BFDEEFA0F0E0EFA0F0E1EFA0F0B1
:1041C000739372BFEEEFA0F0725106E17105D8B0A3
:1041D000ECEFA0F0EEEFA0F0F4EFA0F0000E2F6EE9
:1041E000010E2E6EFAEFA0F06000C4F12EF0600018
:1041F000C8F12FF0600068F630F060006CF631F026
:10420000600078F032F060007CF033F0600080F005
:1042100034F0600084F035F0600088F036F0600023
:104220008CF037F0600090F038F0600094F039F0D6
:10423000000E3B6E1F0E3A6E000E0401E76FB7EFE3
:10424000A1F03A06D8A03B06C80E3A24D96E040E57
:104250003B20DA6E6000C8F001F06000CCF002F0A4
:104260006000D0F003F06000D4F004F06000D8F0FB
:1042700005F06000DCF006F06000E0F007F06000A0
:10428000E4F008F00A0E096E000E0A6E000E0B6EC6
:10429000000E0C6E000E0D6E000E0E6E000E0F6EF8
:1042A000000E106E8DECB0F0600004F026F060009F
:1042B00008F027F060000CF028F0600010F029F002
:1042C000600014F02AF0600018F02BF060001CF081
:1042D0002CF0600020F02DF02650300FDF6E2E06FF
:1042E000D8A02F063006D8A031066000C8F001F033
:1042F0006000CCF002F06000D0F003F06000D4F079
:1043000004F06000D8F005F06000DCF006F060001A
:10431000E0F007F06000E4F008F00A0E096E000E0D
:104320000A6E000E0B6E000E0C6E000E0D6E000E6F
:104330000E6E000E0F6E000E106EB6ECAEF060004A
:1043400004F032F0600008F033F060000CF034F05C
:10435000600010F035F0600014F036F0600018F0E6
:1043600037F060001CF038F0600020F039F03A506F
:104370003B10D8B4BEEFA1F0C0EFA1F0F1EFA1F077
:1043800032503310341035103610371038103910C1
:10439000D8A4CDEFA1F0CFEFA1F021EFA1F02FBE77
:1043A000DCEFA1F02F5006E12E04D8B0DAEFA1F037
:1043B000DCEFA1F021EFA1F031BEE7EFA1F0315029
:1043C00008E13004D8A0E7EFA1F0E9EFA1F0F1EFA8
:1043D000A1F0000173B3EFEFA1F0F1EFA1F021EF35
:1043E000A1F0600070F011F0600074F012F0C80EDF
:1043F0003A24136E040E3B20146E6000C0F015F0DA
:104400006000C4F016F01CECB0F0600044F01CF04A
:10441000600048F01DF01200FEEFA2F0480E436E5F
:10442000E10E446E7A0E456E3F0E466E0A0E476EE2
:10443000D70E486EA30E496E3C0E4A6E000E79EC04
:10444000B8F0600004F007F0600008F008F0096AB6
:104450000A6A000E3BECA5F060001CF069F06000F9
:1044600020F06AF0600024F06BF0600028F06CF03F
:10447000010E4B6E000E4C6E000E4D6E000E4E6E19
:10448000000E79ECB8F0600004F0AAF1600008F0CA
:10449000ABF160000CF119F0600010F11AF060004F
:1044A00014F11BF0600018F11CF06000A4F115F08D
:1044B0006000A8F116F06000ACF117F06000B0F1F8
:1044C00018F08CEC8DF0600054F02EF0600058F085
:1044D0002FF060005CF030F0600060F031F06000C0
:1044E0001CF119F0600020F11AF0600024F11BF0BB
:1044F000600028F11CF06000A8F607F06000ACF640
:1045000008F0096A0A6A000E3BECA5F060001CF096
:1045100015F0600020F016F0600024F017F0600045
:1045200028F018F08CEC8DF0600054F032F0600050
:1045300058F033F060005CF034F0600060F035F06B
:104540000EEC8BF06000B8F069F06000BCF06AF02F
:104550006000C0F06BF06000C4F06CF0010E4B2600
:10456000000E4C224D224E224EBEC2EFA2F04E5003
:104570004D104C1009E1C80E4B5CD8A0C2EFA2F060
:10458000C4EFA2F040EFA2F069C028F16AC029F19F
:104590006BC02AF16CC02BF16000A0F401F0600048
:1045A000A4F402F06000A8F403F06000ACF404F09E
:1045B0002D0E056EB20E066E9D0E076E400E086E35
:1045C000D1EC8FF0600004F028F1600008F029F1D0
:1045D00060000CF02AF1600010F02BF16000FBF09D
:1045E000D9FF6000FFF0DAFF000EDE6E000EDD6E18
:1045F000000E3F6E020E3E6E26EFA3F06000FBF051
:10460000D9FF6000FFF0DAFF6F0078FF40F06F0025
:1046100074FF41F04150000AD8B411EFA3F018EF35
:10462000A3F04050000AD8B40EEFA2F018EFA3F0A8
:104630006000FBF0D9FF6000FFF0DAFF000EDE6ED5
:10464000000EDD6E000E3F6E030E3E6E120008EF90
:10465000A4F0000E0001956F050EE6ECB9F0012400
:1046600001011C6F000E02201D6F000E03201E6F43
:10467000000E04201F6F6000BBF0D9FF6000BFF088
:10468000DAFF880EDE6E000EDD6EE6ECB9F0010199
:104690001C51015C1D5102581E5103581F510458F2
:1046A000D8B055EFA3F057EFA3F05DEFA3F0000EE5
:1046B0002F6E000E2E6E34EFA4F0060E79ECB8F0DB
:1046C00000019551020DCA0EF324D96E010EF4209B
:1046D000DA6E600007F0DEFF60000BF0DDFF952B67
:1046E000040E956576EFA3F078EFA3F02CEFA3F01E
:1046F000CA0E016E010E026E050E036E0EECACF0DA
:104700000101D051CE25306ED151CF21316ED25121
:104710003024016ED3513120026E000E046E030E60
:10472000036E5FECB6F0600004F037F0600008F054
:1047300038F06000DCF007F06000E0F008F0096A93
:104740000A6A000E3BECA5F060001CF015F060005A
:1047500020F016F0600024F017F0600028F018F048
:104760006F0E196E120E1A6E830E1B6E3A0E1C6EB1
:104770008CEC8DF0600054F033F0600058F034F0B1
:1047800060005CF035F0600060F036F06000CCF066
:1047900015F06000D0F016F06000D4F017F0600063
:1047A000D8F018F09A0E196E990E1A6E890E1B6EBB
:1047B000400E1C6E8CEC8DF0600054F020F1600017
:1047C00058F021F160005CF022F1600060F023F10C
:1047D000010123BFF0EFA3F0EEEFA3F0F8EFA3F099
:1047E000000E206F000E216F000E226F000E236F4F
:1047F0006000BBF0D9FF6000BFF0DAFF000EDE6E94
:10480000000EDD6E000E2F6E020E2E6E34EFA4F041
:104810006000BBF0D9FF6000BFF0DAFF6F0078FFE7
:1048200030F06F0074FF31F03150000AD8B41BEF44
:10483000A4F026EFA4F03050000AD8B429EFA3F07A
:10484000880AD8B445EFA3F026EFA4F06000BBF0CF
:10485000D9FF6000BFF0DAFF000EDE6E000EDD6EE5
:10486000000E2F6E030E2E6E12006000FBF0D9FFBB
:104870006000FFF0DAFF6F007BFFF6FF6F0077FF4D
:10488000F7FF000EF86E0800F550250AD8A44BEF8C
:10489000A4F04DEFA4F015EFA5F06000FBF0D9FFF8
:1048A0006000FFF0DAFFDE2A000EDD22000E0101BB
:1048B0009B6F000E9A6F9AC173F09BC174F0000158
:1048C000716972696000FBF0D9FF6000FFF0DAFFE8
:1048D0006F007BFFF6FF6F0077FFF7FF000EF86EAB
:1048E0000800F550750AD8A478EFA4F07AEFA4F088
:1048F000D3EFA4F06000FBF0D9FF6000FFF0DAFF17
:10490000DE2A000EDD22600003F1D9FF600007F10E
:10491000DAFF6F007CFF42F0020EDE266F007CFFA4
:1049200043F0000EDD2260000BF1D9FF60000FF1B3
:10493000DAFF6F0078FF44F06F0074FF45F060000D
:1049400010F146F0600014F147F0486A496A4A6A7B
:104950004B6A4C6A4D6A6000F0F01CF06000F4F0A5
:104960001DF0600018F11EF060001CF11FF06000E7
:1049700020F120F0600024F121F0600028F122F005
:1049800060002CF123F0600030F124F0600034F17D
:1049900025F0D8ECA0F0600070F03CF0600074F0FE
:1049A0003DF03AEFA5F06000FBF0D9FF6000FFF0AA
:1049B000DAFF6F007BFFF6FF6F0077FFF7FF000E57
:1049C000F86E0800F550250AD8A4E9EFA4F0EBEF43
:1049D000A4F006EFA5F06000FBF0D9FF6000FFF047
:1049E000DAFFDE2A000EDD22000E026E250E016EB9
:1049F0006000F0F003F06000F4F004F06AECB1F055
:104A0000000E3D6E010E3C6E3AEFA5F06000FBF02B
:104A1000D9FF6000FFF0DAFFDE2A000EDD22000E73
:104A20003D6E000E3C6E3AEFA5F06000FBF0D9FF42
:104A30006000FFF0DAFF6F007BFFF6FF6F0077FF8B
:104A4000F7FF000EF86E0800F550016E026A600074
:104A5000F0F003F06000F4F004F06AECB1F06000F4
:104A6000FBF0D9FF6000FFF0DAFFDE2A000EDD2246
:104A700000EFA5F012000F6E0F50D8B442EFA5F072
:104A800044EFA5F06EEFA5F00ABE4BEFA5F049EF9D
:104A9000A5F06EEFA5F060001CF00BF0600020F0B8
:104AA0000CF0600024F00DF0600028F00EF00B1EFA
:104AB0000C1E0D1E0E1E0B2A000E0C220D220E22A5
:104AC00060002CF011F0600030F012F0600034F063
:104AD00013F0600038F014F07AEFA5F060001CF0DD
:104AE00011F0600020F012F0600024F013F060007C
:104AF00028F014F00750081009100A10D8A483EF0A
:104B0000A5F085EFA5F08FEFA5F0000E076E000E63
:104B1000086E000E096E000E0A6E26EFA6F0960EC5
:104B2000106E99EFA5F0102AD89014321332123279
:104B30001132000E11140B6E000E12140C6E000ECA
:104B400013140D6EFE0E14140E6E0B500C100D107F
:104B50000E10D8A4AEEFA5F0B0EFA5F093EFA5F03E
:104B6000BEEFA5F0102A010E1126000E122213220C
:104B70001422D8901432133212321132000E111452
:104B80000B6E000E12140C6E000E13140D6EFF0E41
:104B900014140E6E0B500C100D100E10D8A4D3EF81
:104BA000A5F0D5EFA5F0B2EFA5F0DDEFA5F010066A
:104BB000D890113612361336143613BEE2EFA5F034
:104BC000E4EFA5F0ECEFA5F0020E1060EAEFA5F01F
:104BD000ECEFA5F0D7EFA5F010B0F1EFA5F0F3EFF3
:104BE000A5F0F4EFA5F0139ED8901032600040F0CD
:104BF0000BF00C6A0D6A0E6A60002CF00EF00D6A64
:104C00000C6A0B6A0B5011120C5012120D50131239
:104C10000E5014120F50D8B410EFA6F012EFA6F0F9
:104C20001AEFA6F00ABE19EFA6F017EFA6F01AEFDA
:104C3000A6F0148E600044F007F0600048F008F021
:104C400060004CF009F0600050F00AF012006000C3
:104C500004F00BF0600008F00CF005500610D8A42A
:104C600034EFA6F036EFA6F038EFA6F0F2EFA6F09C
:104C700060002FF0D9FF600033F0DAFF60000FF022
:104C8000DFFF05500B24076E06500C20086EFF0E48
:104C90000724D96EFF0E0820DA6E60000FF0DFFFE8
:104CA000065007E1030E055CD8B059EFA6F05BEFA4
:104CB000A6F05DEFA6F0F2EFA6F020EE01F00B50AB
:104CC000D9260C50DA2260000FF0DFFF20EE02F050
:104CD0000B50D9260C50DA2260000FF0DFFF055090
:104CE0000B24076E06500C20086EFE0E0724D96EAA
:104CF000FF0E0820DA6E60000FF0DFFF05500B2476
:104D0000076E06500C20086EFD0E0724D96EFF0EAC
:104D10000820DA6E60000FF0DFFF065007E1070E93
:104D2000055CD8B096EFA6F098EFA6F09AEFA6F043
:104D3000F2EFA6F020EE03F00B50D9260C50DA2249
:104D400060000FF0DFFF05500B24076E06500C20AB
:104D5000086EFC0E0724D96EFF0E0820DA6E600084
:104D60000FF0DFFF065007E1090E055CD8B0BBEF7E
:104D7000A6F0BDEFA6F0BFEFA6F0F2EFA6F0600040
:104D80002CF007F0600030F008F0071E081E074AFC
:104D9000082A030E0714096E0A6A09500B260A50E6
:104DA0000C220950055E0A50065AFC0E0516FF0E2D
:104DB0000616E9EFA6F060002FF0D9FF600033F08F
:104DC000DAFF60000FF0DFFF0506D8A006060B4AE9
:104DD0000C2A05500610D8A4F0EFA6F0F2EFA6F0CA
:104DE000DBEFA6F01200070E196E2F0E1A6EED0EF5
:104DF0001B6E380E1C6E600024F307F0600028F371
:104E000008F0096A0A6A000E3BECA5F060001CF08D
:104E100015F0600020F016F0600024F017F060003C
:104E200028F018F08CEC8DF0600054F050F0600029
:104E300058F051F060005CF052F0600060F053F008
:104E4000440E196EEA0E1A6E9B0E1B6E3D0E1C6E02
:104E5000600024F307F0600028F308F0096A0A6A8A
:104E6000000E3BECA5F060001CF015F0600020F097
:104E700016F0600024F017F0600028F018F08CECB9
:104E80008DF0600054F042F0600058F043F0600094
:104E90005CF044F0600060F045F0600024F307F03F
:104EA000600028F308F0096A0A6A000E3BECA5F0DE
:104EB00060001CF019F0600020F01AF0600024F08F
:104EC0001BF0600028F01CF0600040F115F060005D
:104ED00044F116F0600048F117F060004CF118F052
:104EE0008CEC8DF0600054F03EF0600058F03FF024
:104EF00060005CF040F0600060F041F06CECB7F0F6
:104F00006000F8F054F06000FCF055F0600000F133
:104F100056F0600004F157F0000E326E000E336E52
:104F2000200E346E410E356E600050F12EF06000A0
:104F300054F12FF0600058F130F060005CF131F076
:104F40000EEC8BF06000B8F046F06000BCF047F06B
:104F50006000C0F048F06000C4F049F028ECADF00B
:104F6000600018F1C9F060001CF1CAF01200D60E02
:104F7000196E460E1A6EBE0E1B6E380E1C6E600049
:104F800024F307F0600028F308F0096A0A6A000EAB
:104F90003BECA5F060001CF015F0600020F016F06E
:104FA000600024F017F0600028F018F08CEC8DF011
:104FB000600054F050F0600058F051F060005CF078
:104FC00052F0600060F053F0F40E196E800E1A6E0D
:104FD0008B0E1B6E3A0E1C6E600024F307F060000F
:104FE00028F308F0096A0A6A000E3BECA5F060009D
:104FF0001CF015F0600020F016F0600024F017F0AF
:10500000600028F018F08CEC8DF0600054F032F065
:10501000600058F033F060005CF034F0600060F045
:1050200035F0600024F307F0600028F308F0096A07
:105030000A6A000E3BECA5F060001CF019F060005D
:1050400020F01AF0600024F01BF0600028F01CF043
:10505000600040F115F0600044F116F0600048F186
:1050600017F060004CF118F08CEC8DF0600054F0FB
:105070002EF0600058F02FF060005CF030F060001F
:1050800060F031F00EEC8BF06000B8F054F060008E
:10509000BCF055F06000C0F056F06000C4F057F06E
:1050A000000E326E000E336EA80E346EC10E356ED9
:1050B000600050F12EF0600054F12FF0600058F1C4
:1050C00030F060005CF131F00EEC8BF06000B8F075
:1050D00046F06000BCF047F06000C0F048F06000AF
:1050E000C4F049F028ECADF0600018F1C9F06000A0
:1050F0001CF1CAF01200D60E196E460E1A6EBE0EC4
:105100001B6E380E1C6E600024F307F0600028F35D
:1051100008F0096A0A6A000E3BECA5F060001CF07A
:1051200015F0600020F016F0600024F017F0600029
:1051300028F018F08CEC8DF0600054F050F0600016
:1051400058F051F060005CF052F0600060F053F0F5
:10515000F40E196E800E1A6E8B0E1B6E3A0E1C6EBC
:10516000600024F307F0600028F308F0096A0A6A77
:10517000000E3BECA5F060001CF015F0600020F084
:1051800016F0600024F017F0600028F018F08CECA6
:105190008DF0600054F032F0600058F033F06000A1
:1051A0005CF034F0600060F035F0600024F307F04C
:1051B000600028F308F0096A0A6A000E3BECA5F0CB
:1051C00060001CF019F0600020F01AF0600024F07C
:1051D0001BF0600028F01CF0600040F115F060004A
:1051E00044F116F0600048F117F060004CF118F03F
:1051F0008CEC8DF0600054F02EF0600058F02FF031
:1052000060005CF030F0600060F031F00EEC8BF08C
:105210006000B8F054F06000BCF055F06000C0F0E1
:1052200056F06000C4F057F0000E326E000E336E80
:10523000A80E346EC10E356E600050F12EF0600085
:1052400054F12FF0600058F130F060005CF131F063
:105250000EEC8BF06000B8F046F06000BCF047F058
:105260006000C0F048F06000C4F049F028ECADF0F8
:10527000600018F1C9F060001CF1CAF01200AA0E1B
:10528000196E4C0E1A6EB70E1B6E380E1C6E600037
:1052900024F307F0600028F308F0096A0A6A000E98
:1052A0003BECA5F060001CF015F0600020F016F05B
:1052B000600024F017F0600028F018F08CEC8DF0FE
:1052C000600054F050F0600058F051F060005CF065
:1052D00052F0600060F053F0B30E196E1C0E1A6E9F
:1052E0005F0E1B6E3C0E1C6E600024F307F0600026
:1052F00028F308F0096A0A6A000E3BECA5F060008A
:105300001CF015F0600020F016F0600024F017F09B
:10531000600028F018F08CEC8DF0600054F032F052
:10532000600058F033F060005CF034F0600060F032
:1053300035F0600024F307F0600028F308F0096AF4
:105340000A6A000E3BECA5F060001CF019F060004A
:1053500020F01AF0600024F01BF0600028F01CF030
:10536000600040F115F0600044F116F0600048F173
:1053700017F060004CF118F08CEC8DF0600054F0E8
:105380002EF0600058F02FF060005CF030F060000C
:1053900060F031F00EEC8BF06000B8F054F060007B
:1053A000BCF055F06000C0F056F06000C4F057F05B
:1053B000000E326E000E336ED80E346EC10E356E96
:1053C000600050F12EF0600054F12FF0600058F1B1
:1053D00030F060005CF131F00EEC8BF06000B8F062
:1053E00046F06000BCF047F06000C0F048F060009C
:1053F000C4F049F028ECADF0600018F1C9F060008D
:105400001CF1CAF01200580E196E7D0E1A6EB50E00
:105410001B6EB80E1C6E600024F307F0600028F3CA
:1054200008F0096A0A6A000E3BECA5F060001CF067
:1054300015F0600020F016F0600024F017F0600016
:1054400028F018F08CEC8DF0600054F050F0600003
:1054500058F051F060005CF052F0600060F053F0E2
:10546000920E196EA20E1A6E1E0E1B6E3F0E1C6E51
:10547000600024F307F0600028F308F0096A0A6A64
:10548000000E3BECA5F060001CF015F0600020F071
:1054900016F0600024F017F0600028F018F08CEC93
:1054A0008DF0600054F032F0600058F033F060008E
:1054B0005CF034F0600060F035F0600024F307F039
:1054C000600028F308F0096A0A6A000E3BECA5F0B8
:1054D00060001CF019F0600020F01AF0600024F069
:1054E0001BF0600028F01CF0600040F115F0600037
:1054F00044F116F0600048F117F060004CF118F02C
:105500008CEC8DF0600054F02EF0600058F02FF01D
:1055100060005CF030F0600060F031F00EEC8BF079
:105520006000B8F054F06000BCF055F06000C0F0CE
:1055300056F06000C4F057F0000E326E800E336EED
:10554000970E346EC30E356E600050F12EF0600081
:1055500054F12FF0600058F130F060005CF131F050
:105560000EEC8BF06000B8F046F06000BCF047F045
:105570006000C0F048F06000C4F049F028ECADF0E5
:10558000600018F1C9F060001CF1CAF012000001BF
:10559000834B842BDBECBAF0000183058411D8A483
:1055A000D4EFAAF0D6EFAAF006EFABF0C9C081F0B5
:1055B000CAC082F0600024F350F0600028F351F07C
:1055C000000E536EC70E526E34ECB9F0000E516EE1
:1055D000000E506E000E536ECD0E526E34ECB9F0CC
:1055E000000E516E000E506E000E536ED20E526EB3
:1055F00034ECB9F0600024F350F0600028F351F06F
:10560000000E536ED70E526E34ECB9F0020E00014C
:1056100083198411D8A40FEFABF011EFABF03AEF80
:10562000ABF0C9C07FF0CAC080F0600024F350F036
:10563000600028F351F0000E536ECD0E526E34EC24
:10564000B9F000017F518125016E80518221026EE7
:10565000000E046E020E036E7CECB3F0600004F0EA
:1056600050F0600008F051F0000E536ED70E526EED
:1056700034ECB9F0030E000183198411D8A443EF70
:10568000ABF045EFABF079EFABF0C9C07DF0CAC02D
:105690007EF0600024F350F0600028F351F0000E1B
:1056A000536ED20E526E34ECB9F000017F51812559
:1056B000556E80518221566E7D515524016E7E516A
:1056C0005620026E000E046E030E036E7CECB3F0E7
:1056D000600004F050F0600008F051F0000E536ECE
:1056E000D70E526E34ECB9F0000E0001846F000E3C
:1056F000836F1200E1EFABF0DBECBAF09C0E566E5C
:10570000020E576EE40E586EFF0E596E600024F3C1
:105710005AF0600028F35BF0C9ECB7F0D40E056EC8
:10572000010E066EE10E076EFF0E086E9BECB6F0E2
:10573000D40E0F6E010E106E9C0E116E020E126EC4
:1057400034ECBAF0D40E056E010E066E4EECB8F0D5
:10575000000E0101E16F000EE06F600073F1D9FFF0
:10576000600077F1DAFF400EDE6E000EDD6EE00EB7
:10577000096E010E0A6EAAECAFF00ABECBEFABF0D9
:105780000A5007E1020E095CD8B0C9EFABF0CBEFCD
:10579000ABF0D1EFABF0000E5D6E000E5C6E0DEF66
:1057A000ACF0600073F1D9FF600077F1DAFF000E12
:1057B000DE6E000EDD6E000E5D6E020E5C6E0DEF95
:1057C000ACF0600073F1D9FF600077F1DAFF6F0091
:1057D00078FF5EF06F0074FF5FF05F50000AD8B48E
:1057E000F4EFABF0FFEFABF05E50000AD8B47CEF03
:1057F000ABF0400AD8B4B7EFABF0FFEFABF060000E
:1058000073F1D9FF600077F1DAFF000EDE6E000E53
:10581000DD6E000E5D6E030E5C6E1200000E0F6EEC
:1058200092EFACF00F280E6E88EFACF00F50020D27
:105830006F00CCFF04F06F00D0FF05F0045001248E
:10584000D96E05500220DA6E0E50020D6F00CCFFAB
:1058500008F06F00D0FF09F008500124E16E0950F4
:105860000220E26EDE50E65CDE50E658D8B03BEF38
:10587000ACF03DEFACF087EFACF00F50020D6F00D5
:10588000CCFF04F06F00D0FF05F004500124D96E66
:1058900005500220DA6E6F0078FF0CF06F0074FF85
:1058A0000DF00E50020D6F00CCFF04F06F00D0FF22
:1058B00005F004500124D96E05500220DA6E0F5015
:1058C000020D6F00CCFF06F06F00D0FF07F006500E
:1058D0000124E16E07500220E26E6F007BFFE6FFBD
:1058E0006F0077FFE5FF0E50020D6F00CCFF04F054
:1058F0006F00D0FF05F004500124D96E055002203E
:10590000DA6E600033F0DEFF600037F0DDFF0E2A54
:1059100003500E5CD8A08FEFACF091EFACF016EF17
:10592000ACF00F2A03500F5CD8A099EFACF09BEFBE
:10593000ACF012EFACF01200390196A7A2EFACF078
:10594000A4EFACF0BBEFACF0A6A7A9EFACF0ABEFC7
:10595000ACF0BBEFACF002D8B9EFACF00500FA6EDA
:105960000201D951FD6EDA51FE6EDB51FF6EFA5025
:10597000120027EFADF096A5C0EFACF0C2EFACF08F
