:020000040000FA
:040000000DEF00F010
:0400080015EFD4F02C
:06001800FF00B0EFD6F07E
:10FCDE00004A616E4665624D61724170724D617986
:10FCEE004A756E4A756C4175675365704F63744EF5
:10FCFE006F764465630030313233343536373839F8
:10FD0E00414243444546001F1C1F1E1F1E1F1F1E3F
:10FD1E001F1E1F31323334353637386162636460EB
:10FD2E0042A20D5633360100000000587DB5B89240
:10FD3E00A21E3F008097C32DC49CB3951D943938E5
:10FD4E001BFE3D000002C319052F34F15C46BA4379
:10FD5E00489B3F0000DDC30DD71D3499462FBAE3F3
:10FD6E008B8A3F0080C4C39B56DF32FE5D9AB76B11
:10FD7E0035D13D000044C200000000D646BE38F426
:10FD8E00808B3A0000A8C100000000AA4CB738B31F
:10FD9E001C5F3C0000D8C100AFB83397C69CB92198
:10FDAE00A5E43E000021C319052F34F15C46BA4389
:10FDBE00489B3F0000DDC300000000072FED3844D4
:10FDCE00EA9BBD000020419B56DF32FE5D9AB76B69
:10FDDE0035D13D000044C200000000D646BE38F4C6
:10FDEE00808B3A0000A8C120202020202020202037
:10FDFE002020202020202000234552522C424C4F00
:10FE0E0051554541444F2300484F52495A4F4E5485
:10FE1E00414C2056332E33002043414D42494F2052
:10FE2E005445524D49434F0020205245464C4543C0
:10FE3E00544F4D4554524F00253034752D253032D8
:10FE4E00752D2530327500202052452D43414C49E9
:10FE5E004252415221004E4956454C204241544592
:10FE6E005249413A002050524F5049454441442096
:10FE7E0044453A00234552522C464F524D41544F61
:10FE8E0023004D696469656E646F202E2E2E2E0040
:10FE9E00234552522C454550524F4D23004341525B
:10FEAE0047414E444F202E2E2E004D696469656EDB
:10FEBE00646F202E2E2E0047454F4D45545249411A
:10FECE002033300047454F4D45545249412031357E
:10FEDE00002020202020534C482D30343600202086
:10FEEE0020202053455249414C3A004D494441206F
:10FEFE00424C414E434F3A00536570203139203207
:10FF0E003032360053454C454343494F4E453A0037
:10FF1E004D494441204E4547524F3A002020202063
:10FF2E0020202041494D00234552522C50494E234A
:10FF3E0000494E46494E49545900696E66696E69CC
:10FF4E0074790023562C332E362C004E4F4E4523FB
:10FF5E00002C4445462C002C43414C2C00234F4B87
:10FF6E0023002347432C0023474E2C002347542CB9
:10FF7E0000252E3845004E4F4E4500253034580092
:10FF8E00494E46004E414E00696E66006E616E002F
:10FF9E0023452C0023472C00234B2C00256C750089
:10FFAE006C58006C65006C66006C78004743004B23
:10FFBE004300534300474E00534E004654004754EF
:10FFCE00005354003A3A002575002A0047004B00B2
:10FFDE004C005000510053005600310032003400E6
:10FFEE0037003800610062006300640025003900AC
:01FFFE000002
:020000040001F9
:100000005D505E10D8B407EF80F009EF80F019EF73
:1000100080F0600077F1D9FF60007BF1DAFF6000CB
:100020006FF1DEFF600073F1DDFF19EF80F05B4AD6
:100030005C2A010E0001766F60006FF1D9FF60004D
:1000400073F1DAFF200EDE18D8B429EF80F02CEF20
:1000500080F0010E2DEF80F0000E7B6F7C6B7B51EA
:100060007C11D8A436EF80F038EF80F05EEF80F09E
:10007000F70E606FFF0E616F60006FF1D9FF6000D7
:1000800073F1DAFFDF50626F62517B6F7C6B60004F
:10009000ECF163F06000F0F164F0605163276151AE
:1000A0006423645109E1050E635DD8A05AEF80F026
:1000B0005CEF80F05EEF80F0000E766F6000D8F1AC
:1000C00066F0676B66516711D8A469EF80F06BEF3B
:1000D00080F017EF80F0000E786F2D0E7B197C11E9
:1000E000D8A475EF80F077EF80F07DEF80F0010EFF
:1000F000786F5B4A5C2A89EF80F02B0E7B197C11AC
:10010000D8A485EF80F087EF80F089EF80F079EF59
:1001100080F0000E816F8EEF80F0812B81515B2487
:10012000D96E000E5C20DA6EDF50D8B49AEF80F002
:100130009CEF80F0D2EF80F081515B24D96E000EED
:100140005C20DA6EDF50606F480E8125F66EF76A2C
:10015000FF0EF722F86A000EF8220800F550601929
:10016000D8B4B5EF80F0B7EF80F08DEF80F081511B
:100170005B24D96E000E5C20DA6EDF50606F3F0E9C
:100180008125F66EF76AFF0EF722F86A000EF82254
:100190000800F5506019D8B4D0EF80F0D2EF80F0AD
:1001A0008DEF80F0020E8165D8EF80F0DAEF80F0FD
:1001B0000AEF81F0000E7D6F000E7E6F800E7F6F64
:1001C0007F0E806F5D505E10D8B4E9EF80F0EBEFEA
:1001D00080F02BEF89F0080E8119D8B4F2EF80F08F
:1001E000F4EF80F0F6EF80F0030E816F81515B2415
:1001F000606F000E5C20616F600077F1D9FF6000D6
:100200007BF1DAFF600083F1DEFF600087F1DDFF44
:100210002BEF89F0000E816F0FEF81F0812B815160
:100220005B24D96E000E5C20DA6EDF50D8B41BEF71
:1002300081F01DEF81F053EF81F081515B24D96E85
:10024000000E5C20DA6EDF50606F9A0E8125F66E2C
:10025000F76AFF0EF722F86A000EF8220800F55040
:100260006019D8B436EF81F038EF81F00EEF81F0ED
:1002700081515B24D96E000E5C20DA6EDF50606F16
:10028000920E8125F66EF76AFF0EF722F86A000ECD
:10029000F8220800F5506019D8B451EF81F053EFFF
:1002A00081F00EEF81F0030E8119D8A45AEF81F08E
:1002B0005CEF81F0D5EF81F0050E016EFE0E026E4F
:1002C000A3ECEBF0600004F07DF0600008F07EF03D
:1002D00060000CF07FF0600010F080F05D505E1068
:1002E000D8B475EF81F077EF81F02BEF89F0000142
:1002F00081515B26000E5C2260006FF1D9FF600027
:1003000073F1DAFF280EDE18D8A489EF81F08BEFA5
:1003100081F0C7EF81F0000E816F90EF81F0812BAB
:1003200081515B24D96E000E5C20DA6EDF50D8B4A8
:100330009CEF81F09EEF81F0ADEF81F081515B2465
:10034000D96E000E5C20DA6E290EDE18D8A4ABEF51
:1003500081F0ADEF81F08FEF81F081515B24D96E98
:10036000000E5C20DA6E290EDE18D8A4BAEF81F0F8
:10037000BCEF81F0C7EF81F08151606F616B010EBE
:100380006027000E612360515B2661515C22600092
:1003900077F1D9FF60007BF1DAFF60006FF1DEFFDB
:1003A000600073F1DDFF2BEF89F0000E7C6F000E13
:1003B0007B6F000E7D6F000E7E6F000E7F6F000E54
:1003C000806F000E7A6F000E796F000E816FEAEF7A
:1003D00081F0812B81515B24D96E000E5C20DA6E96
:1003E000300EDE18D8B4F7EF81F0F9EF81F0E9EFC5
:1003F00081F08151D8B4FFEF81F001EF82F0A8EFD6
:1004000085F081515B24D96E000E5C20DA6E780E87
:10041000DE18D8B40EEF82F010EF82F01FEF82F0FA
:1004200081515B24D96E000E5C20DA6E580EDE1806
:10043000D8A41DEF82F01FEF82F0A8EF85F0815164
:10044000606F616B010E6027000E612360515B26B7
:1004500061515C22000E816F2FEF82F0812B815160
:100460005B24D96E000E5C20DA6E300EDE18D8B434
:100470003CEF82F03EEF82F02EEF82F0000E816FB3
:1004800081515B24D96E000E5C20DA6E700EDE188E
:10049000D8B44DEF82F04FEF82F0E2EF83F081515C
:1004A0005B24D96E000E5C20DA6E500EDE18D8A4E4
:1004B0005CEF82F05EEF82F060EF82F0E2EF83F0BB
:1004C00081515B24D96E000E5C20DA6E2E0EDE1890
:1004D000D8A46DEF82F06FEF82F073EF82F078892D
:1004E000812BE2EF83F081515B24D96E000E5C20FA
:1004F000DA6EDF50606F6051016E026AF5ECE3F076
:1005000001500210D8B487EF82F089EF82F007EF34
:1005100083F0000E0001776FD00E606FFF0E616FE9
:1005200081515B24D96E000E5C20DA6EDF50626F61
:10053000636B605162276151632363510AE10A0EC4
:10054000625DD8A0A6EF82F0A9EF82F0010EAAEFBB
:1005500082F0000E686F696B68516911D8B4B3EF0F
:1005600082F0B5EF82F0C0EF82F081515B24D96E4A
:10057000000E5C20DA6EDF50D00F776FD1EF82F083
:1005800081515B24D96E000E5C20DA6EDF50606F03
:100590006051076E086A77ECE5F00750C90F00015B
:1005A000776F7CBFDFEF82F07C5107E1080E7B5D47
:1005B000D8B0DDEF82F0DFEF82F0FFEF82F07B5109
:1005C0000708606FD8906037D89060376000DCF122
:1005D00061F0626B636B646B602BF4EF82F0D89018
:1005E0006137623763376437602FEFEF82F0615114
:1005F0007D1362517E1363517F13645180137B4BD3
:100600007C2B040E7927000E7A2311EF83F0000E65
:100610005B6E000E5C6E000E5D6E000E5E6E59EF3E
:1006200089F0812B40EF82F081515B24D96E000E5E
:100630005C20DA6E700EDE18D8B421EF83F023EF61
:1006400083F0E9EF83F081515B24D96E000E5C20CA
:10065000DA6E500EDE18D8A430EF83F032EF83F05C
:1006600034EF83F0E9EF83F081515B24D96E000E03
:100670005C20DA6E300EDE18D8A441EF83F043EF31
:1006800083F052EF83F07B517C11D8A44AEF83F0C2
:100690004CEF83F052EF83F0FC0E7927FF0E7A23A4
:1006A000E0EF83F081515B24D96E000E5C20DA6E9E
:1006B000DF50606F6051016E026AF5ECE3F00150AB
:1006C0000210D8B466EF83F068EF83F0E0EF83F0B8
:1006D000000E0001776FD00E606FFF0E616F8151C9
:1006E0005B24D96E000E5C20DA6EDF50626F636BA4
:1006F000605162276151632363510AE10A0E625D12
:10070000D8A085EF83F088EF83F0010E89EF83F0A6
:10071000000E6A6F6B6B6A516B11D8B492EF83F065
:1007200094EF83F09FEF83F081515B24D96E000E2C
:100730005C20DA6EDF50D00F776FB0EF83F081511D
:100740005B24D96E000E5C20DA6EDF50606F605162
:10075000076E086A77ECE5F00750C90F0001776F64
:100760007CBFBEEF83F07C5107E1080E7B5DD8B003
:10077000BCEF83F0BEEF83F0DEEF83F07B51070820
:10078000606FD8906037D89060376000DCF161F01E
:10079000626B636B646B602BD3EF83F0D89061372F
:1007A000623763376437602FCEEF83F061517D137A
:1007B00062517E1363517F13645180137B4B7C2BFA
:1007C0000001812B78B9E7EF83F0E9EF83F014EFB4
:1007D00083F081515B24D96E000E5C20DA6E700EBE
:1007E000DE18D8B4F6EF83F0F8EF83F011EF84F061
:1007F00081515B24D96E000E5C20DA6E500EDE183B
:10080000D8B405EF84F007EF84F011EF84F0000E08
:100810005B6E000E5C6E000E5D6E000E5E6E59EF3C
:1008200089F0812B81515B24D96E000E5C20DA6E39
:100830002B0EDE18D8A41FEF84F021EF84F024EFF4
:1008400084F0812B35EF84F081515B24D96E000E4A
:100850005C20DA6E2D0EDE18D8A431EF84F033EF71
:1008600084F035EF84F07887812B81515B26000E70
:100870005C22000E816F3EEF84F0812B81515B245E
:10088000D96E000E5C20DA6E300EDE18D8B44BEF55
:1008900084F04DEF84F03DEF84F0000E7C6F000E8D
:1008A0007B6F84EF84F08151D8B459EF84F05BEF13
:1008B00084F06DEF84F06000ECF101F06000F0F185
:1008C00002F0000E046E0A0E036E47ECEBF06000BF
:1008D00004F07BF0600008F07CF0D00E0001606F47
:1008E000FF0E616F81515B24D96E000E5C20DA6EC1
:1008F000DF50626F636B6051622761516323625105
:100900007B2763517C23812BD00E606FFF0E616FBC
:1009100081515B24D96E000E5C20DA6EDF50626F6D
:10092000636B605162276151632363510AE10A0ED0
:10093000625DD8A09EEF84F0A1EF84F0010EA2EFDB
:1009400084F0000E6C6F6D6B6C516D11D8A4ABEF21
:1009500084F0ADEF84F053EF84F08151D8A4B3EF6D
:1009600084F0B5EF84F0BFEF84F0000E5B6E000EF4
:100970005C6E000E5D6E000E5E6E59EF89F078A71A
:10098000C4EF84F0C6EF84F0CAEF84F07B6D7C1F67
:10099000D8B07C2B7B5179277C517A235D505E1037
:1009A000D8B4D5EF84F0D7EF84F0E9EF84F081512B
:1009B0005B24606F000E5C20616F600077F1D9FFEF
:1009C00060007BF1DAFF600083F1DEFF600087F1F9
:1009D000DDFF7D517E117F118011D8A4F2EF84F0EC
:1009E000F4EF84F0FEEF84F0000E5B6E000E5C6EA0
:1009F000000E5D6E000E5E6E59EF89F0FF0E7D15E4
:100A0000606F000E7E15616F000E7F15626F000E25
:100A10008015636F63516211611109E1810E605DA0
:100A2000D8A015EF85F017EF85F029EF85F0000EBF
:100A30007D27010E7E23000E7F23000E802329EFE9
:100A400085F0D8907D377E377F3780377907D8A0FB
:100A50007A0780AF2EEF85F030EF85F021EF85F03B
:100A60007AAF3CEF85F0830E795DFF0E7A59D8B0EE
:100A70003CEF85F03EEF85F04AEF85F0FF0E7A6F90
:100A8000810E796F000E7D6F000E7E6F000E7F6FFE
:100A9000000E806F810E791908E17A29D8B453EFDE
:100AA00085F055EF85F05DEF85F0D8907D377E3786
:100AB0007F3780377907D8A07A077ABF69EF85F04A
:100AC0007A5109E1800E795DD8A069EF85F06BEF6E
:100AD00085F077EF85F0000E7D6F000E7E6F000EC3
:100AE0007F6F000E806F000E7A6F800E796F090E97
:100AF000606FD89080337F337E337D33602F79EF02
:100B000085F0FF0E7D17FF0E7E177F0E7F17000EFC
:100B100080177F0E7925606F000E7A21616FFF0EBE
:100B20006015626F636B646B656B170ED8906237EC
:100B3000633764376537E82E96EF85F062517D1391
:100B400063517E1364517F13655180132BEF89F03D
:100B500078B9ADEF85F0AFEF85F0C3EF85F06000B9
:100B60006FF1D9FF600073F1DAFF2E0EDE18D8A402
:100B7000BCEF85F0BEEF85F0C3EF85F078895B4A66
:100B80005C2AA8EF85F0D00E606FFF0E616F6000E9
:100B90006FF1D9FF600073F1DAFFDF50626F636BB2
:100BA000605162276151632363510AE10A0E625D5D
:100BB000D8A0DDEF85F0E0EF85F0010EE1EF85F0E4
:100BC000000E6E6F6F6B6E516F11D8A4EAEF85F057
:100BD000ECEF85F0EEEF85F047EF86F07883090EB5
:100BE0007B197C11D8B4F7EF85F0F9EF85F03AEF77
:100BF00086F078A9FEEF85F000EF86F003EF86F02F
:100C00007907D8A07A077B4B7C2B6000F4F101F0C8
:100C10006000F8F102F06000FCF103F0600000F207
:100C200004F00A0E056E000E066E000E076E000E32
:100C3000086E30ECE4F0600004F07DF0600008F035
:100C40007EF060000CF07FF0600010F080F060003B
:100C50006FF1D9FF600073F1DAFFDF500001606FC0
:100C6000D00E602760517D27000E7E237F238023D6
:100C700043EF86F078B93FEF86F041EF86F043EF1F
:100C800086F0794B7A2B5B4A5C2AA8EF85F0000E40
:100C90007C6F000E7B6F60006FF1D9FF600073F115
:100CA000DAFF650EDE18D8B458EF86F05AEF86F0FA
:100CB00069EF86F060006FF1D9FF600073F1DAFF31
:100CC000450EDE18D8A467EF86F069EF86F071EF65
:100CD00087F05B4A5C2A60006FF1D9FF600073F116
:100CE000DAFF2D0EDE18D8A478EF86F07AEF86F0C2
:100CF0007FEF86F078875B4A5C2A90EF86F0600091
:100D00006FF1D9FF600073F1DAFF2B0EDE18D8A463
:100D10008CEF86F08EEF86F090EF86F05B4A5C2ACF
:100D200060006FF1D9FF600073F1DAFF300EDE185A
:100D3000D8B49DEF86F09FEF86F08EEF86F0D00E50
:100D40000001606FFF0E616F60006FF1D9FF6000FE
:100D500073F1DAFFDF50626F636B6051622761519C
:100D6000632363510AE10A0E625DD8A0BAEF86F0F0
:100D7000BDEF86F0010EBEEF86F0000E706F716B56
:100D800070517111D8B4C7EF86F0C9EF86F066EFE5
:100D900087F060006FF1D9FF600073F1DAFFDF5078
:100DA000606FD00E602760517B6F7C6B5B4A5C2A62
:100DB000D00E606FFF0E616F60006FF1D9FF6000B1
:100DC00073F1DAFFDF50626F636B6051622761512C
:100DD000632363510AE10A0E625DD8A0F2EF86F048
:100DE000F5EF86F0010EF6EF86F0000E726F736B72
:100DF00072517311D8B4FFEF86F001EF87F066EF00
:100E000087F060006FF1D9FF600073F1DAFFDF5007
:100E1000606FD00E60276000ECF101F06000F0F12F
:100E200002F0000E046E0A0E036E47ECEBF00001B8
:100E3000605101247B6F000E02207C6F5B4A5C2AAC
:100E4000D00E606FFF0E616F60006FF1D9FF600020
:100E500073F1DAFFDF50626F636B6051622761519B
:100E6000632363510AE10A0E625DD8A03AEF87F06E
:100E70003DEF87F0010E3EEF87F0000E746F756B4B
:100E800074517511D8B447EF87F049EF87F066EFDA
:100E900087F060006FF1D9FF600073F1DAFFDF5077
:100EA000606FD00E60276000ECF101F06000F0F19F
:100EB00002F0000E046E0A0E036E47ECEBF0000128
:100EC000605101247B6F000E02207C6F78A76BEFCE
:100ED00087F06DEF87F071EF87F07B6D7C1FD8B0E6
:100EE0007C2B7B5179277C517A235D505E10D8B4DE
:100EF0007CEF87F07EEF87F091EF87F078A383EFA8
:100F000087F085EF87F091EF87F0600077F1D9FFE8
:100F100060007BF1DAFF60006FF1DEFF600073F1CB
:100F2000DDFF6000F4F107F06000F8F108F0600008
:100F3000FCF109F0600000F20AF0000ECEECCBF0FC
:100F400060001CF07DF0600020F07EF0600024F076
:100F50007FF0600028F080F06000F4F101F06000A4
:100F6000F8F102F06000FCF103F0600000F204F020
:100F7000000E056E000E066E000E076E000E086E67
:100F8000FCECDFF0D8A0C7EF87F0C9EF87F0D3EF14
:100F900087F0000E5B6E000E5C6E000E5D6E000E44
:100FA0005E6E59EF89F000017ABFDBEF87F0D9EF71
:100FB00087F080EF88F0796D7A1FD8B07A2B08EF30
:100FC00088F06000F4F142F06000F8F143F0600056
:100FD000FCF144F0600000F245F0F90E466E020E9E
:100FE000476E150E486E500E496EA3ECB3F06000CC
:100FF00008F17DF060000CF17EF0600010F17FF0F0
:10100000600014F180F00001F60E7927FF0E7A23BC
:101010007ABF16EF88F07A5107E10A0E795DD8B0F1
:1010200014EF88F016EF88F0E1EF87F03EEF88F0DC
:101030006000F4F142F06000F8F143F06000FCF170
:1010400044F0600000F245F0000E466E000E476E60
:10105000200E486E410E496EA3ECB3F0600008F11B
:101060007DF060000CF17EF0600010F17FF0600018
:1010700014F180F000017907D8A07A0779517A112C
:10108000D8A445EF88F047EF88F018EF88F06000AB
:10109000F4F12EF06000F8F12FF06000FCF130F078
:1010A000600000F231F0000E326E000E336E800EE2
:1010B000346E000E356EAEECD5F0D8B062EF88F02D
:1010C00064EF88F02BEF89F0000178A16AEF88F0D7
:1010D0006CEF88F076EF88F0000E5B6E000E5C6EB1
:1010E000800E5D6E800E5E6E59EF89F0000E5B6EB5
:1010F000000E5C6E800E5D6E000E5E6E59EF89F024
:101100007ABF8BEF88F07A5108E17905D8A08BEF90
:1011100088F08DEF88F02BEF89F0B6EF88F0600053
:10112000F4F115F06000F8F116F06000FCF117F032
:10113000600000F218F0F90E196E020E1A6E150E0C
:101140001B6E500E1C6E5EECB1F0600054F07DF032
:10115000600058F07EF060005CF07FF0600060F0AE
:1011600080F00001F60E7927FF0E7A237A5107E10D
:101170000A0E795DD8B0BFEF88F0C1EF88F08FEF2D
:1011800088F0E9EF88F06000F4F115F06000F8F104
:1011900016F06000FCF117F0600000F218F0000E8D
:1011A000196E000E1A6E200E1B6E410E1C6E5EEC48
:1011B000B1F0600054F07DF0600058F07EF0600007
:1011C0005CF07FF0600060F080F000017907D8A04B
:1011D0007A0779517A11D8A4F0EF88F0F2EF88F00D
:1011E000C3EF88F0FF0E2E6EFF0E2F6E7F0E306E57
:1011F0007F0E316E6000F4F132F06000F8F133F0F0
:101200006000FCF134F0600000F235F0AEECD5F097
:10121000D8B00DEF89F00FEF89F02BEF89F00001C6
:1012200078A115EF89F017EF89F021EF89F0000E12
:101230005B6E000E5C6E800E5D6E800E5E6E59EF12
:1012400089F0000E5B6E000E5C6E800E5D6E000E0F
:101250005E6E59EF89F0000178A131EF89F033EF2C
:1012600089F04DEF89F06000F4F13EF06000F8F194
:101270003FF06000FCF140F0600000F241F0B7EC9C
:10128000E9F06000F8F07DF06000FCF07EF06000B6
:1012900000F17FF0600004F180F06000F4F15BF099
:1012A0006000F8F15CF06000FCF15DF0600000F2BD
:1012B0005EF01200000E01017D6FE0ECEAF06000CC
:1012C00004F024F2600008F025F260000CF026F231
:1012D000600010F027F20001FA51F82501011E6F9D
:1012E000000E0001F92101011F6FFF0E1E25D96EAE
:1012F000FF0E1F21DA6E000EDF6E010E0001F825D1
:1013000001016C6F000E0001F92101016D6F600099
:10131000B0F570F16000B4F571F17D2BCAEF89F082
:101320006000B3F5D9FF6000B7F5DAFF2C0EDE18C8
:10133000D8A49DEF89F09FEF89F0C8EF89F0600095
:10134000B3F5D9FF6000B7F5DAFF000EDF6E050ECA
:101350007D65ADEF89F0AFEF89F0B3EF89F043EC35
:10136000EDF05DEF91F0010E6C251E6F000E6D210A
:101370001F6F7D51020D700EF324D96E010EF42003
:10138000DA6E60007BF4DEFF60007FF4DDFF7D2B12
:101390006C4B6D2B6000B3F5D9FF6000B7F5DAFF39
:1013A000DF50D8A4D6EF89F0D8EF89F090EF89F01C
:1013B0006000C0F501F06000C4F502F0E60E036EB7
:1013C000FF0E046E74ECE2F001500210D8A4EBEFB3
:1013D00089F0EDEF89F03EEF8AF001017D05D8A498
:1013E000F4EF89F0F6EF89F03EEF8AF0DDECC1F022
:1013F000600004F06EF1600008F06FF1510E0C6EA9
:10140000FF0E0D6E22ECEDF06CECBFF001016E51A1
:101410006F11D8A40EEF8AF010EF8AF016EF8AF061
:101420005F0E526FFF0E536F1AEF8AF0650E526F08
:10143000FF0E536F600048F50CF060004CF50DF0A6
:1014400022ECEDF0480E0001E06F010EE16F890E15
:10145000E26FFF0EE36F6000B8F5E4F06000BCF5EA
:10146000E5F0F6ECE6F0480E056E010E066E3BEC7C
:10147000E3F0230E0CECE6F05DEF91F06000C0F5B8
:1014800001F06000C4F502F0DE0E036EFF0E046E84
:1014900074ECE2F001500210D8A451EF8AF053EF3F
:1014A0008AF098EF8AF0020E01017D19D8A45BEF53
:1014B0008AF05DEF8AF098EF8AF0040EB46563EF6E
:1014C0008AF065EF8AF06FEF8AF0000EB56F060EB6
:1014D0000C6EFE0E0D6E22ECEDF05DEF91F06000F3
:1014E000C8F50DF06000CCF50EF0AAECE5F00009AF
:1014F000D8B47DEF8AF07FEF8AF08CEF8AF0000E8F
:101500000101B46F010EB56F6B0E0C6EFF0E0D6E08
:1015100022ECEDF05DEF91F00101B42B000EB56F00
:10152000350E0C6EFF0E0D6E22ECEDF05DEF91F0BE
:101530006000C0F501F06000C4F502F0E20E036E39
:10154000FF0E046E74ECE2F001500210D8A4ABEF71
:101550008AF0ADEF8AF0C0EF8AF001017D05D8A4D2
:10156000B4EF8AF0B6EF8AF0C0EF8AF0000EB56FE4
:101570006B0E0C6EFF0E0D6E22ECEDF05DEF91F038
:101580006000C0F501F06000C4F502F0DA0E036EF1
:10159000FF0E046E74ECE2F001500210D8A4D3EFF9
:1015A0008AF0D5EF8AF047EF8BF0020E01017D192A
:1015B000D8A4DDEF8AF0DFEF8AF047EF8BF0600010
:1015C000C8F501F06000CCF502F0E4ECE1F00101B7
:1015D0007C6F7C29D8A4EFEF8AF0F1EF8AF0F3EF6B
:1015E0008AF0AFEF89F0A20E0C6EFF0E0D6E22ECAA
:1015F000EDF0210E01017C25F66EF76AFD0EF72253
:10160000F86A000EF8220800F5500CECE6F0000E27
:1016100001017E6F030E7E6510EF8BF012EF8BF0F1
:1016200014EF8BF042EF8BF02C0E0CECE6F0010186
:101630007E51040D6F00CCFF1EF16F00D0FF1FF133
:101640007C51100D400E206F050E216FF3502027A6
:10165000F45021231E512025D96E1F512121DA6E0D
:101660006F0078FFF4F06F0078FFF5F06F0078FFFF
:10167000F6F06F0078FFF7F0D7ECE9F001017E2B70
:101680000AEF8BF0230E0CECE6F05DEF91F06000BA
:10169000C0F501F06000C4F502F0820E036EFF0E8B
:1016A000046E74ECE2F001500210D8A45AEF8BF0F3
:1016B0005CEF8BF0DFEF8BF0030E01017D19D8A4F6
:1016C00064EF8BF066EF8BF0DFEF8BF06000C8F516
:1016D00001F06000CCF502F0E4ECE1F001017C6F78
:1016E0007C29D8B476EF8BF078EF8BF0AFEF89F0F0
:1016F0006000D0F50DF06000D4F50EF06E0E0F6EA8
:10170000010E106ED5ECD1F00009D8A48AEF8BF051
:101710008CEF8BF08EEF8BF0AFEF89F06000B0F6BE
:1017200050F16000B4F651F16000B8F5ACF1600022
:10173000BCF5ADF101017C51AFECBAF003ECECF07B
:101740006000B0F66EF16000B4F66FF1600040F535
:10175000ACF1600044F5ADF19E0E0C6EFF0E0D6E07
:1017600022ECEDF0210E01017C25F66EF76AFD0EEC
:10177000F722F86A000EF8220800F5500CECE6F0AB
:101780002C0E0CECE6F0480E0001E06F010EE16F4C
:10179000D50EE26FFF0EE36F6000B8F5E4F0600075
:1017A000BCF5E5F0F6ECE6F0480E056E010E066EAF
:1017B0003BECE3F0230E0CECE6F05DEF91F0600003
:1017C000C0F501F06000C4F502F0E40E036EFF0EF8
:1017D000046E74ECE2F001500210D8A4F2EF8BF02A
:1017E000F4EF8BF0AFEF8CF0060E01017D19D8A459
:1017F000FCEF8BF0FEEF8BF0AFEF8CF0B551D8A47F
:1018000004EF8CF006EF8CF00EEF8CF0060E0C6EF1
:10181000FE0E0D6E22ECEDF05DEF91F06000C8F56C
:1018200001F06000CCF502F0E4ECE1F001017C6F26
:101830007C29D8A41EEF8CF020EF8CF022EF8CF0E6
:10184000AFEF89F0000E7E6F030E7E652AEF8CF0FD
:101850002CEF8CF02EEF8CF05DEF8CF07E511E6F34
:101860001F6BD8901E371F37040E1E27000E1F2334
:10187000700E1E25D96E010E1F21DA6E6F0078FFE3
:1018800082F06F0074FF83F07E51040D5A0EF32432
:101890000001846F010EF420856FD7ECD9F00009A8
:1018A000D8A455EF8CF057EF8CF059EF8CF0AFEFD8
:1018B00089F001017E2B24EF8CF05A0E5D6E010E33
:1018C0005E6E41ECA9F00009D8A469EF8CF06BEFD3
:1018D0008CF06DEF8CF0AFEF89F00EECE5F0000EC0
:1018E00001017E6F030E7E6578EF8CF07AEF8CF04D
:1018F0007CEF8CF0ABEF8CF07E51040D5A0EF3248C
:10190000D96E010EF420DA6E7E51040D6F00CCFF0B
:101910001EF16F00D0FF1FF17C51100D400E206FA3
:10192000050E216FF3502027F45021231E5120254E
:10193000E16E1F512121E26E6F007BFFE6FF6F0019
:101940007BFFE6FF6F007BFFE6FF6F007BFFE6FF9C
:101950007E2B72EF8CF0F7ECE0F05DEF91F0600021
:10196000C0F501F06000C4F502F0900E036EFF0EAA
:10197000046E74ECE2F001500210D8A4C2EF8CF0B7
:10198000C4EF8CF077EF8DF0020E01017D19D8A421
:10199000CCEF8CF0CEEF8CF077EF8DF0B551D8A472
:1019A000D4EF8CF0D6EF8CF0DEEF8CF0060E0C6EE0
:1019B000FE0E0D6E22ECEDF05DEF91F06000C8F5CB
:1019C00001F06000CCF502F0D80E036EFF0E046E3D
:1019D00074ECE2F001500210D8A4F1EF8CF0F3EFB8
:1019E0008CF005EF8DF00EECE5F0400E016E050E6B
:1019F000026E350E036EFD0E046E000E066EC00EF6
:101A0000056E7AECE3F0ABEF8CF06000C8F501F006
:101A10006000CCF502F0E4ECE1F001017C6F7C2980
:101A2000D8A415EF8DF017EF8DF019EF8DF0AFEF13
:101A300089F00EECE5F0000E01017E6F030E7E656D
:101A400024EF8DF026EF8DF028EF8DF0ABEF8CF0CA
:101A50007C51100D350E1E6FFD0E1F6FF3501E27AB
:101A6000F4501F237E51040DF3501E27F4501F2302
:101A700060007BF4F6FF60007FF4F7FF000EF86E65
:101A800009006F00D4FF20F109006F00D4FF21F19D
:101A900009006F00D4FF22F109006F00D4FF23F189
:101AA0007E51040D6F00CCFF24F16F00D0FF25F1B3
:101AB0007C51100D400E266F050E276FF350262720
:101AC000F450272324512625D96E25512721DA6E7B
:101AD000600083F4DEFF600087F4DEFF60008BF4BB
:101AE000DEFF60008FF4DEFF7E2B1EEF8DF06000C6
:101AF000C0F501F06000C4F502F0C90E036EFF0EE0
:101B0000046E74ECE2F001500210D8A48AEF8DF05C
:101B10008CEF8DF0C1EF8DF001017D05D8A493EF1E
:101B20008DF095EF8DF0C1EF8DF0B551D8A49BEFFE
:101B30008DF09DEF8DF0A5EF8DF0060E0C6EFE0E74
:101B40000D6E22ECEDF05DEF91F00EECE5F00CC2C5
:101B500090F10DC291F10EC292F10FC293F110C239
:101B6000F9F111C2FAF112C2FBF113C2FCF114C275
:101B7000F5F115C2F6F116C2F7F117C2F8F1ABEFA5
:101B80008CF06000C0F501F06000C4F502F0BA0E00
:101B9000036EFF0E046E74ECE2F001500210D8A444
:101BA000D4EF8DF0D6EF8DF0E3EF8DF001017D05E0
:101BB000D8A4DDEF8DF0DFEF8DF0E3EF8DF027ECB3
:101BC000DDF05DEF91F06000C0F501F06000C4F55C
:101BD00002F0C30E036EFF0E046E74ECE2F00150CF
:101BE0000210D8A4F6EF8DF0F8EF8DF005EF8EF02F
:101BF00001017D05D8A4FFEF8DF001EF8EF005EF18
:101C00008EF02CECD7F05DEF91F06000C0F501F0A4
:101C10006000C4F502F0C00E036EFF0E046E74EC9B
:101C2000E2F001500210D8A418EF8EF01AEF8EF0F7
:101C3000AFEF8EF0020E01017D19D8A422EF8EF0D5
:101C400024EF8EF0AFEF8EF0B551D8A42AEF8EF0CE
:101C50002CEF8EF034EF8EF0060E0C6EFE0E0D6E35
:101C600022ECEDF05DEF91F06000C8F501F060004E
:101C7000CCF502F0840E036EFF0E046E74ECE2F0FD
:101C800001500210D8A447EF8EF049EF8EF071EFAB
:101C90008EF0020E186E000E176E000E196E000EFA
:101CA0001A6E6BECCEF00009D8A459EF8EF05BEF02
:101CB0008EF062EF8EF09E0E0101546FFE0E556F96
:101CC00067EF8EF06B0E0101546FFF0E556F6000D1
:101CD00050F50CF0600054F50DF022ECEDF05DEFE6
:101CE00091F06000C8F50DF06000CCF50EF0380EF4
:101CF0000F6E010E106E62ECC5F00009D8A483EFE0
:101D00008EF085EF8EF087EF8EF0AFEF89F0020E48
:101D1000186E000E176E380E196E010E1A6E6BECEF
:101D2000CEF00009D8A497EF8EF099EF8EF0A0EFD7
:101D30008EF09E0E0101566FFE0E576FA5EF8EF0CE
:101D40006B0E0101566FFF0E576F600058F50CF0D7
:101D500060005CF50DF022ECEDF05DEF91F06000BD
:101D6000C0F501F06000C4F502F0C60E036EFF0E70
:101D7000046E74ECE2F001500210D8A4C2EF8EF0B1
:101D8000C4EF8EF08AEF8FF0020E01017D19D8A406
:101D9000CCEF8EF0CEEF8EF08AEF8FF06000C8F5BA
:101DA00001F06000CCF502F09AECE6F0600004F07F
:101DB0006AF1600008F06BF10101B551D8A4E3EFBE
:101DC0008EF0E5EF8EF0EDEF8EF0060E0C6EFE0E4F
:101DD0000D6E22ECEDF05DEF91F06A516B11D8B40D
:101DE000F4EF8EF0F6EF8EF0AFEF89F06B5107E174
:101DF0000D0E6A5DD8B0FFEF8EF001EF8FF0AFEF00
:101E000089F06000C8F501F06000CCF502F0840EA6
:101E1000036EFF0E046E74ECE2F001500210D8A4C1
:101E200014EF8FF016EF8FF018EF8FF0AFEF89F00F
:101E3000280E016E010E026E000E046E000E036E7F
:101E4000000E066E100E056E9FECCDF06000A8F53A
:101E500028F1000E01017E6F59EF8FF07E5172253F
:101E6000D96E000E7321DA6EDF50FCECE7F000094A
:101E7000D8A43DEF8FF03FEF8FF041EF8FF0AFEF41
:101E800089F001017E517225D96E000E7321DA6E40
:101E90007E511E6F1F6B010E1E27000E1F23280E82
:101EA0001E25E16E010E1F21E26E6F007FFFE7FF2E
:101EB0007E2B6A517E5DD8A060EF8FF062EF8FF0CD
:101EC0002EEF8FF0010E186EEE0E176E280E196EA3
:101ED000010E1A6E6BECCEF00009D8A472EF8FF0F1
:101EE00074EF8FF07BEF8FF09E0E0101586FFE0EA6
:101EF000596F80EF8FF06B0E0101586FFF0E596F15
:101F0000600060F50CF0600064F50DF022ECEDF07F
:101F10005DEF91F06000C0F501F06000C4F502F0E3
:101F2000CC0E036EFF0E046E74ECE2F00150021052
:101F3000D8A49DEF8FF09FEF8FF0E3EF8FF00101BA
:101F40007D05D8A4A6EF8FF0A8EF8FF0E3EF8FF018
:101F50007A0E0C6EFF0E0D6E22ECEDF0600040F676
:101F6000F4F0600044F6F5F0600048F6F6F060002A
:101F70004CF6F7F0D7ECE9F02C0E0CECE6F0600034
:101F8000E4F7F4F06000E8F7F5F06000ECF7F6F045
:101F90006000F0F7F7F0D7ECE9F02C0E0CECE6F06F
:101FA0006000D4F7F4F06000D8F7F5F06000DCF7DB
:101FB000F6F06000E0F7F7F0D7ECE9F0230E0CEC58
:101FC000E6F05DEF91F06000C0F501F06000C4F54F
:101FD00002F0CF0E036EFF0E046E74ECE2F00150BF
:101FE0000210D8A4F6EF8FF0F8EF8FF085EF90F0A5
:101FF000040E01017D19D8A400EF90F002EF90F0DB
:1020000085EF90F0B551D8A408EF90F00AEF90F06A
:1020100012EF90F0060E0C6EFE0E0D6E22ECEDF03F
:102020005DEF91F0000E7E6F020E7E651AEF90F06C
:102030001CEF90F01EEF90F04DEF90F07E511E6F70
:102040001F6BD8901E371F37020E1E27000E1F234E
:10205000700E1E25D96E010E1F21DA6E6F0078FFFB
:1020600082F06F0074FF83F07E51040D5A0EF3244A
:102070000001846F010EF420856FD7ECD9F00009C0
:10208000D8A445EF90F047EF90F049EF90F0AFEF14
:1020900089F001017E2B14EF90F05A0E5B6E010E59
:1020A0005C6EC8ECCAF00009D8A459EF90F05BEF61
:1020B00090F05DEF90F0AFEF89F00EECE5F060008E
:1020C00068F590F160006CF591F1600070F592F1A7
:1020D000600074F593F1600078F5F9F160007CF52B
:1020E000FAF1600080F5FBF1600084F5FCF160001E
:1020F00088F5F5F160008CF5F6F1600090F5F7F1E8
:10210000600094F5F8F1ABEF8CF06000C0F501F0E1
:102110006000C4F502F0E00E036EFF0E046E74EC76
:10212000E2F001500210D8A498EF90F09AEF90F0EE
:1021300013EF91F0030E01017D19D8A4A2EF90F0E6
:10214000A4EF90F013EF91F0B551D8A4AAEF90F05E
:10215000ACEF90F0B4EF90F0060E0C6EFE0E0D6E2C
:1021600022ECEDF05DEF91F0040EB465BAEF90F063
:10217000BCEF90F0C6EF90F0000EB56F060E0C6E3F
:10218000FE0E0D6E22ECEDF05DEF91F06000C8F5F3
:102190000DF06000CCF50EF0AAECE5F00009D8A433
:1021A000D4EF90F0D6EF90F0EAEF90F00101B42B6D
:1021B000040EB465DEEF90F0E0EF90F0E2EF90F007
:1021C000000EB56F350E0C6EFF0E0D6E22ECEDF0AD
:1021D0005DEF91F0000E0101B46F6000D0F505F0E5
:1021E0006000D4F506F0FBECE2F00009D8A4FBEFA8
:1021F00090F0FDEF90F0FFEF90F0AFEF89F00EEC74
:10220000E5F0DE0E016E020E026E6000D0F503F006
:102210006000D4F504F0000E066E040E056E7AEC34
:10222000E3F0ABEF8CF06000C0F501F06000C4F5A6
:1022300002F0DC0E036EFF0E046E74ECE2F001504F
:102240000210D8A426EF91F028EF91F035EF91F02D
:1022500001017D05D8A42FEF91F031EF91F035EF1A
:1022600091F02CECD5F05DEF91F06000C0F501F03D
:102270006000C4F502F0BD0E036EFF0E046E74EC38
:10228000E2F001500210D8A448EF91F04AEF91F02B
:10229000AFEF89F001017D05D8A451EF91F053EF24
:1022A00091F0AFEF89F0000EB26F000EB36F6B0EBE
:1022B0000C6EFF0E0D6E22ECEDF01200000E000110
:1022C000976F000E966F6000C8F1A8F06000CCF127
:1022D000A9F06000D0F1AAF06000D4F1ABF0ABBF80
:1022E00076EF91F074EF91F094EF91F0000E976F0C
:1022F000010E966F6000A0F23EF06000A4F23FF085
:102300006000A8F240F06000ACF241F0B7ECE9F0F8
:102310006000F8F0A8F06000FCF0A9F0600000F1A7
:10232000AAF0600004F1ABF0000E0001AF6F000EE8
:10233000AE6F600050F69BF0600054F69CF0965132
:102340009711D8A4A6EF91F0A8EF91F0B0EF91F01B
:10235000010198A5AEEF91F0B0EF91F0CCEF91F0C4
:10236000000196519711D8A4B8EF91F0BAEF91F00F
:10237000C0EF91F0000E816F2B0E806FC4EF91F0D3
:10238000000E816F2D0E806F600000F23CF4AE4BAA
:10239000AF2B9B07D8A09C076000A0F201F0600063
:1023A000A4F202F06000A8F203F06000ACF204F0C6
:1023B0006CECD2F001040210D8A4E1EF91F0E3EF4D
:1023C00091F040EF92F0BF0E0001776FFF0E786F33
:1023D0007651796F7A6B7751792778517A237A51D0
:1023E0000AE11A0E795DD8A0F8EF91F0FBEF91F0B9
:1023F000010EFCEF91F0000E826F836B825183110E
:10240000D8B405EF92F007EF92F015EF92F03C0E82
:10241000AE25056E040EAF21066E8E0E076EFF0E02
:10242000086E69ECE4F021EF92F03C0EAE25056EEB
:10243000040EAF21066E960E076EFF0E086E69EC55
:10244000E4F00001FD0E9B27FF0E9C236000C0F10D
:1024500011F06000C4F112F03C0E136E040E146E05
:1024600060006CF215F0600070F216F087ECD8F0A6
:10247000600044F070F0600048F071F02BEF98F0CD
:102480006000A0F201F06000A4F202F06000A8F287
:1024900003F06000ACF204F06CECD2F001500210DA
:1024A000D8A455EF92F057EF92F097EF92F0BF0E4D
:1024B0000001776FFF0E786F7651796F7A6B7751E5
:1024C000792778517A237A510AE11A0E795DD8A0DA
:1024D0006CEF92F06FEF92F0010E70EF92F0000E41
:1024E000846F856B84518511D8B479EF92F07BEFBE
:1024F00092F089EF92F03C0EAE25056E040EAF21EE
:10250000066E920E076EFF0E086E69ECE4F021EF86
:1025100092F03C0EAE25056E040EAF21066E9A0EAB
:10252000076EFF0E086E69ECE4F021EF92F0000EEA
:102530000001B06F000EB16F800EB26F3F0EB36F2F
:10254000000EAD6F000EAC6F6000A0F201F06000F5
:10255000A4F202F06000A8F203F06000ACF204F014
:10256000000E056E000E066E000E076E000E086E61
:10257000FCECDFF0D8B0BFEF92F0C1EF92F068EF63
:1025800093F0E8EF92F06000C0F215F06000C4F242
:1025900016F06000C8F217F06000CCF218F0000EE0
:1025A000196E000E1A6E200E1B6E410E1C6E5EEC34
:1025B000B1F0600054F0B0F0600058F0B1F060008D
:1025C0005CF0B2F0600060F0B3F00001AC4BAD2BFA
:1025D0006000A0F22EF06000A4F22FF06000A8F2DC
:1025E00030F06000ACF231F0000E196E000E1A6E81
:1025F000200E1B6E410E1C6E6000C0F215F06000D4
:10260000C4F216F06000C8F217F06000CCF218F0C7
:102610005EECB1F0600054F032F0600058F033F03E
:1026200060005CF034F0600060F035F0AEECD5F0A6
:10263000D8B01DEF93F01FEF93F0C3EF92F047EF88
:1026400093F06000C0F242F06000C4F243F060001A
:10265000C8F244F06000CCF245F0000E466E000E69
:10266000476E200E486E410E496EA3ECB3F0600039
:1026700008F1B0F060000CF1B1F0600010F1B2F0C0
:10268000600014F1B3F00001AC07D8A0AD07600002
:10269000A0F22EF06000A4F22FF06000A8F230F05B
:1026A0006000ACF231F06000C0F232F06000C4F2C1
:1026B00033F06000C8F234F06000CCF235F0AEECDC
:1026C000D5F0D8A066EF93F068EF93F021EF93F088
:1026D0006000D8F107F0086A43ECE5F0075000010C
:1026E0009D6F600074F29AF0670E9D19D8A47BEF7D
:1026F00093F07DEF93F0A7EF93F0010196519711BE
:10270000D8A485EF93F087EF93F08BEF93F0000E52
:10271000976F010E966F97BF98EF93F0975106E170
:102720009605D8B096EF93F098EF93F09FEF93F063
:10273000000E0001996F060E986FB1EF93F06000E4
:1027400058F698F060005CF699F0B1EF93F0010153
:1027500097BFADEF93F0AFEF93F098EF93F09FEF4B
:1027600093F0670E00019D19D8A4B9EF93F0BBEF69
:1027700093F0ECEF93F0ADAFC9EF93F0FC0EAC5DCE
:10278000FF0EAD59D8A0C7EF93F0C9EF93F0EAEF71
:1027900093F0FF0E776FFF0E786F600060F279F0B4
:1027A000600064F27AF07751792778517A23AC513E
:1027B000795D7A51800A7B6FAD51800A7B59D8A030
:1027C000E4EF93F0E6EF93F0EAEF93F0660E9A6F82
:1027D000ECEF93F0650E9A6F600060F290F060008D
:1027E00064F291F0670E9D19D8A4F9EF93F0FBEF16
:1027F00093F00BEF94F0660E9A19D8A402EF94F0C0
:1028000004EF94F00DEF94F0ADBF0BEF94F009EFEF
:1028100094F00DEF94F0904B912B660E9A19D8A47A
:1028200014EF94F016EF94F036EF94F0ADBF1DEF77
:1028300094F01BEF94F029EF94F0000EB06F000EAF
:10284000B16F800EB26F3F0EB36F000EAD6F000E12
:10285000AC6F670E9D19D8B430EF94F032EF94F05E
:1028600036EF94F0AC519027AD519123000EA76F35
:10287000000EA66F6000A0F29EF06000A4F29FF030
:102880006000A8F2A0F06000ACF2A1F06000C0F21D
:102890007CF06000C4F27DF06000C8F27EF0600061
:1028A000CCF27FF001EF95F0600078F242F060002A
:1028B0007CF243F0600080F244F0600084F245F066
:1028C0006000C0F246F06000C4F247F06000C8F259
:1028D00048F06000CCF249F0A3ECB3F0600008F1DE
:1028E0005BF060000CF15CF0600010F15DF06000E6
:1028F00014F15EF00EECC3F060006CF1A2F0600029
:1029000070F1A3F0600074F1A4F0600078F1A5F01C
:10291000600088F23EF060008CF23FF0600090F2C0
:1029200040F0600094F241F0A1ECD4F06000F8F0C7
:1029300094F06000FCF095F0600078F23EF06000EA
:102940007CF23FF0600080F240F0600084F241F0E1
:102950006000C0F219F06000C4F21AF06000C8F222
:102960001BF06000CCF21CF0600088F215F06000F3
:102970008CF216F0600090F217F0600094F218F0FC
:102980005EECB1F0600054F042F0600058F043F0AB
:1029900060005CF044F0600060F045F03DECE6F073
:1029A0006000F8F09EF06000FCF09FF0600000F125
:1029B000A0F0600004F1A1F06000C0F242F06000FD
:1029C000C4F243F06000C8F244F06000CCF245F07D
:1029D000000E466E000E476E200E486E410E496E88
:1029E000A3ECB3F0600008F1B0F060000CF1B1F0BE
:1029F000600010F1B2F0600014F1B3F00001A64BDA
:102A0000A72B9051A65DA751800A776F9151800A3C
:102A10007759D8A00EEF95F010EF95F054EF94F0A1
:102A20006000C0F215F06000C4F216F06000C8F259
:102A300017F06000CCF218F0000E196E000E1A6E3E
:102A4000A00E1B6E400E1C6E5EECB1F0600054F0E8
:102A5000A2F0600058F0A3F060005CF0A4F0600009
:102A600060F0A5F0600078F22EF060007CF22FF0AC
:102A7000600080F230F0600084F231F0600088F293
:102A800032F060008CF233F0600090F234F06000BD
:102A900094F235F0AEECD5F0D8B051EF95F053EF9D
:102AA00095F05EEF95F0000E0001A26F000EA36F8F
:102AB000000EA46F000EA56F8FEF95F0600078F206
:102AC00001F060007CF202F0600080F203F0600030
:102AD00084F204F0600088F205F060008CF206F0E9
:102AE000600090F207F0600094F208F0FCECDFF078
:102AF000D8A07DEF95F07FEF95F08FEF95F0000176
:102B000094B185EF95F087EF95F08FEF95F0000E7B
:102B1000A26F000EA36F000EA46F000EA56F6000E1
:102B2000A0F22EF06000A4F22FF06000A8F230F0C6
:102B30006000ACF231F0600088F232F060008CF29C
:102B400033F0600090F234F0600094F235F0E0EC85
:102B5000AEF06000B8F09EF06000BCF09FF0600046
:102B6000C0F0A0F06000C4F0A1F06000F0F1B0F09F
:102B70006000F4F1B1F06000F8F1B2F06000FCF137
:102B8000B3F0650E00019A19D8B4C9EF95F0CBEFF8
:102B900095F0D3EF95F06000B0F292F06000B4F2DF
:102BA00093F0D7EF95F0000E936F000E926F000E2A
:102BB0008F6F000E8E6F000E8D6F000E8C6F000EEB
:102BC000A76F000EA66F06EF97F0600078F242F054
:102BD00060007CF243F0600080F244F0600084F218
:102BE00045F06000C0F246F06000C4F247F06000BB
:102BF000C8F248F06000CCF249F0A3ECB3F06000FA
:102C000008F15BF060000CF15CF0600010F15DF029
:102C1000600014F15EF00EECC3F060006CF1A2F005
:102C2000600070F1A3F0600074F1A4F0600078F12E
:102C3000A5F0600088F23EF060008CF23FF060008A
:102C400090F240F0600094F241F0A1ECD4F060000A
:102C5000F8F094F06000FCF095F0010198B933EFC2
:102C600096F035EF96F053EF96F0000194519511E0
:102C7000D8A43DEF96F03FEF96F053EF96F0670E35
:102C80009D19D8A446EF96F048EF96F053EF96F0D2
:102C900093BF4FEF96F04DEF96F053EF96F08C4BBD
:102CA0008D2B9EEF96F000018E518F11D8A45BEF13
:102CB00096F05DEF96F087EF96F093BF64EF96F095
:102CC00062EF96F087EF96F03C0EAE25D96E040EBB
:102CD000AF21DA6E2E0EDF6EAE4BAF2B9B07D8A066
:102CE0009C07000E8F6F010E8E6F87EF96F03C0EE3
:102CF000AE25D96E040EAF21DA6E300EDF6EAE4B0C
:102D0000AF2B9B07D8A09C078C07D8A08D078C51B0
:102D10008D11D8A48EEF96F090EF96F077EF96F0A5
:102D20003C0EAE25D96E040EAF21DA6E9451300FF1
:102D3000DF6EAE4BAF2B9B07D8A09C07600078F2EC
:102D40003EF060007CF23FF0600080F240F06000F6
:102D500084F241F06000C0F219F06000C4F21AF091
:102D60006000C8F21BF06000CCF21CF0600088F23A
:102D700015F060008CF216F0600090F217F0600021
:102D800094F218F05EECB1F0600054F042F0600094
:102D900058F043F060005CF044F0600060F045F0F3
:102DA0003DECE6F06000F8F09EF06000FCF09FF073
:102DB000600000F1A0F0600004F1A1F06000C0F23A
:102DC00042F06000C4F243F06000C8F244F06000DA
:102DD000CCF245F0000E466E000E476E200E486E97
:102DE000410E496EA3ECB3F0600008F1B0F0600052
:102DF0000CF1B1F0600010F1B2F0600014F1B3F02A
:102E000000019207D8A09307A64BA72B9051A65D6F
:102E1000A751800A776F9151800A7759D8B013EF84
:102E200097F015EF97F023EF97F0AFBF21EF97F0F2
:102E3000AF5109E14B0EAE5DD8A021EF97F023EF23
:102E400097F0E5EF95F08E518F11D8A42AEF97F007
:102E50002CEF97F03FEF97F0010198A932EF97F030
:102E600034EF97F03FEF97F03C0E0001AE25D96E9E
:102E7000040EAF21DA6E2E0EDF6EAE4BAF2B3C0E82
:102E80000001AE25D96E040EAF21DA6E000EDF6EA2
:102E9000650E9A19D8A44FEF97F051EF97F026EFEF
:102EA00092F0000EA76F4F0EA66F3C0EA625D96EAE
:102EB000040EA721DA6E000EDF6E000E976F000E73
:102EC000966FADBF68EF97F066EF97F070EF97F0F1
:102ED000000E976F010E966FAC6DAD1FD8B0AD2B85
:102EE000000E996F020E986FA7EF97F0A607D8A073
:102EF000A7073C0EA625D96E040EA721DA6E600046
:102F0000B0F201F06000B4F202F0000E046E0A0E9E
:102F1000036E9CECDEF00150300FDF6E6000B0F20B
:102F200001F06000B4F202F0000E046E0A0E036EAF
:102F3000C3ECDCF0600004F0ACF0600008F0ADF031
:102F400000019807D8A099079B07D8A09C07AC510F
:102F5000AD11D8A4AEEF97F0B0EF97F076EF97F001
:102F600099BFBDEF97F0995106E19805D8B0BBEF36
:102F700097F0BDEF97F076EF97F0A607D8A0A707D8
:102F800096519711D8A4C7EF97F0C9EF97F0CFEFFC
:102F900097F0000E876F2B0E866FD3EF97F0000E21
:102FA000876F2D0E866F3C0EA625D96E040EA721C5
:102FB000DA6E60001BF2DFFF9B07D8A09C07A60714
:102FC000D8A0A707BF0E776FFF0E786F7651796F85
:102FD0007A6B7751792778517A237A510AE11A0E60
:102FE000795DD8A0F6EF97F0F9EF97F0010EFAEFC0
:102FF00097F0000E8A6F8B6B8A518B11D8A403EF68
:1030000098F005EF98F00BEF98F0000E896F650EC1
:10301000886F0FEF98F0000E896F450E886F3C0E99
:10302000A625D96E040EA721DA6E600023F2DFFF19
:103030009B07D8A09C073C0EAE25056E040EAF2161
:10304000066E3C0EA625076E040EA721086E69ECDD
:10305000E4F026EF92F012006000DBF2D9FF60008E
:10306000DFF2DAFF6F007BFFF6FF6F0077FFF7FFFD
:10307000000EF86E0800F550250AD8A442EF98F02B
:1030800044EF98F0E3EF9DF06000DBF2D9FF6000C1
:10309000DFF2DAFFDE2A000EDD22000E0101956F5D
:1030A000000E946F94C198F195C199F19669976952
:1030B000000E0001C16F000EC06FB2EF98F0010169
:1030C00098816000DBF2D9FF6000DFF2DAFFDE2AD0
:1030D000000EDD22B2EF98F00101988361EF98F0C5
:1030E0000101988561EF98F00101988761EF98F0F0
:1030F0000101988961EF98F0000EC16F010EC06F59
:10310000B2EF98F06000DBF2D9FF6000DFF2DAFF87
:103110006F007BFFF6FF6F0077FFF7FF000EF86E82
:103120000800F550BA6FBB6BBB51000AD8B49BEFD7
:1031300098F07CEF98F0BA51200AD8B474EF98F068
:10314000030AD8B478EF98F0080AD8B470EF98F072
:10315000060AD8B45FEF98F01D0AD8B46CEF98F067
:103160007CEF98F00001C051C111D8B4BAEF98F0CB
:10317000BCEF98F082EF98F0010198A1C2EF98F0AF
:10318000C4EF98F0C5EF98F098936000DBF2D9FF98
:103190006000DFF2DAFF6F007BFFF6FF6F0077FF62
:1031A000F7FF000EF86E0800F5502A0AD8A4DBEFEE
:1031B00098F0DDEF98F010EF99F06000DBF2D9FFA6
:1031C0006000DFF2DAFFDE2A000EDD226000E3F2AB
:1031D000D9FF6000E7F2DAFF6F007CFFBAF0020E61
:1031E000DE266F007CFFBBF0000EDD226000EBF2FC
:1031F000D9FF6000EFF2DAFF6F0078FF94F16F0003
:1032000074FF95F195BF09EF99F007EF99F062EF20
:1032100099F09881946D951FD8B0952B62EF99F035
:103220006000DBF2D9FF6000DFF2DAFF6F0078FFA9
:1032300008F06F0074FF09F0BAECCCF0600020F0E9
:1032400094F1600024F095F12FEF99F06000DBF22B
:10325000D9FF6000DFF2DAFFDE2A000EDD22D00E99
:103260000001BA6FFF0EBB6F6000DBF2D9FF600098
:10327000DFF2DAFF6F007BFFF6FF6F0077FFF7FFEB
:10328000000EF86E0800F550BC6FBD6BBA51BC273C
:10329000BB51BD23BD510AE10A0EBC5DD8A053EF5E
:1032A00099F056EF99F0010E57EF99F0000EC26FAA
:1032B000C36BC251C311D8A460EF99F062EF99F0CB
:1032C00026EF99F06000DBF2D9FF6000DFF2DAFF51
:1032D0006F007BFFF6FF6F0077FFF7FF000EF86EC1
:1032E0000800F5502E0AD8A478EF99F07AEF99F0FB
:1032F00019EF9AF0000E0101976F000E966F6000B3
:10330000DBF2D9FF6000DFF2DAFFDE2A000EDD22F9
:103310006000DBF2D9FF6000DFF2DAFF6F007BFFB5
:10332000F6FF6F0077FFF7FF000EF86E0800F5500C
:103330002A0AD8A49EEF99F0A0EF99F0C7EF99F070
:103340006000DBF2D9FF6000DFF2DAFFDE2A000E58
:10335000DD226000E3F2D9FF6000E7F2DAFF6F00E0
:103360007CFFBAF0020EDE266F007CFFBBF0000E81
:10337000DD226000EBF2D9FF6000EFF2DAFF6F00B0
:1033800078FF96F16F0074FF97F119EF9AF06000E3
:10339000DBF2D9FF6000DFF2DAFF6F0078FF08F0A0
:1033A0006F0074FF09F0BAECCCF0600020F096F1E9
:1033B000600024F097F1E6EF99F06000DBF2D9FFAE
:1033C0006000DFF2DAFFDE2A000EDD22D00E0001FF
:1033D000BA6FFF0EBB6F6000DBF2D9FF6000DFF257
:1033E000DAFF6F007BFFF6FF6F0077FFF7FF000E3D
:1033F000F86E0800F550BC6FBD6BBA51BC27BB51CD
:10340000BD23BD510AE10A0EBC5DD8A00AEF9AF0B7
:103410000DEF9AF0010E0EEF9AF0000EC46FC56B1F
:10342000C451C511D8A417EF9AF019EF9AF0DDEF47
:1034300099F06000DBF2D9FF6000DFF2DAFF6F0085
:103440007BFFF6FF6F0077FFF7FF000EF86E0800B6
:10345000F550076E086A43ECE5F007500001CC6FA9
:10346000CC51D8B436EF9AF038EF9AF082EF9AF058
:103470006000DBF2D9FF6000DFF2DAFF6F0078FF57
:10348000BAF06F0074FFBBF0010EBA27000EBB2329
:103490006000EBF2F6FF6000EFF2F7FF000EF86E4F
:1034A0000800F550076E086A43ECE5F0075000018C
:1034B000CD6FCD51D8B45FEF9AF061EF9AF082EF03
:1034C0009AF06000DBF2D9FF6000DFF2DAFF6F00F4
:1034D00078FFBAF06F0074FFBBF0020EBA27000E3F
:1034E000BB236000EBF2F6FF6000EFF2F7FF000E87
:1034F000F86E0800F550076E086A43ECE5F00750D7
:103500000001CE6F650ECC19D8A489EF9AF08BEF2D
:103510009AF0E7EF9AF06000DBF2D9FF6000DFF28B
:10352000DAFF6F007BFFF6FF6F0077FFF7FF000EFB
:10353000F86E08006F00D4FFD7F06000DBF2D9FF0F
:103540006000DFF2DAFFDE2A000EDD226000E3F227
:10355000D9FF6000E7F2DAFF6F007CFFBAF0040EDB
:10356000DE266F007CFFBBF0000EDD226000EBF278
:10357000D9FF6000EFF2DAFF6F0078FFC8F06F004C
:1035800078FFC9F06F0078FFCAF06F0078FFCBF0CA
:103590006000D0F270F06000D4F271F0600020F3AF
:1035A00072F0600024F373F0600028F374F06000A0
:1035B0002CF375F060005CF376F05EEC91F0600047
:1035C000C0F1B4F06000C4F1B5F008EF9EF0CC0E8D
:1035D000016E000E026EB10E036EFF0E046E000E41
:1035E000066E020E056E90ECD0F001500210D8A4C9
:1035F000FCEF9AF0FEEF9AF09FEF9BF06000DBF299
:10360000D9FF6000DFF2DAFF6F0078FFBAF06F00D9
:1036100074FFBBF0010E0001BA27000EBB2360004F
:10362000EBF2F6FF6000EFF2F7FF000EF86E080015
:103630006F00D4FFD7F0BF0EBA6FFF0EBB6F6000F4
:10364000DBF2D9FF6000DFF2DAFF6F007BFFF6FFED
:103650006F0077FFF7FF000EF86E0800F550BC6FA3
:10366000BD6BBA51BC27BB51BD23BD510AE11A0E37
:10367000BC5DD8A03EEF9BF041EF9BF0010E42EF06
:103680009BF0000EC66FC76BC651C711D8B44BEF85
:103690009BF04DEF9BF071EF9BF06000E3F2D9FFE0
:1036A0006000E7F2DAFF6F007CFFBAF0040EDE265E
:1036B0006F007CFFBBF0000EDD226000EBF2D9FF53
:1036C0006000EFF2DAFF6F0078FFC8F06F0078FF5C
:1036D000C9F06F0078FFCAF06F0078FFCBF093EF6E
:1036E0009BF06000E3F2D9FF6000E7F2DAFF6F00C1
:1036F0007CFFBAF0040EDE266F007CFFBBF0000EEC
:10370000DD226000EBF2D9FF6000EFF2DAFF6F001C
:1037100078FFC8F06F0078FFC9F06F0078FFCAF03B
:103720006F0078FFCBF0020E6000DBF2D9FF600083
:10373000DFF2DAFFDE26000EDD22C8EF9AF060002D
:10374000DBF2D9FF6000DFF2DAFF6F007BFFF6FFEC
:103750006F0077FFF7FF000EF86E0800F550750A4E
:10376000D8A4B5EF9BF0B7EF9BF011EF9CF0600091
:10377000DBF2D9FF6000DFF2DAFFDE2A000EDD2285
:103780006000E3F2D9FF6000E7F2DAFF6F007CFF30
:10379000BAF0020EDE266F007CFFBBF0000EDD22C9
:1037A0006000EBF2D9FF6000EFF2DAFF6F0078FF04
:1037B000BCF06F0074FFBDF06000F0F2CFF060006D
:1037C000F4F2D0F00001D16BD26BD36BD46BD56B1C
:1037D000D66B6000D0F21CF06000D4F21DF06000E7
:1037E0003CF31EF0600040F31FF0600044F320F053
:1037F000600048F321F060004CF322F0600050F3C9
:1038000023F0600054F324F0600058F325F0A9EC95
:10381000C0F0600070F0B4F0600074F0B5F008EF34
:103820009EF06000DBF2D9FF6000DFF2DAFF6F008C
:1038300078FF01F06F0074FF02F0AB0E036EFF0E15
:10384000046E000E066E020E056E90ECD0F0015074
:103850000210D8A42EEF9CF030EF9CF06BEF9CF0A0
:10386000020E6000DBF2D9FF6000DFF2DAFFDE2635
:10387000000EDD226000E3F2D9FF6000E7F2DAFF1C
:103880006F007CFFBAF0040EDE266F007CFFBBF0F9
:10389000000EDD226000EBF2D9FF6000EFF2DAFFEC
:1038A0006F0078FFBCF06F0078FFBDF06F0078FF0D
:1038B000BEF06F0078FFBFF00001BC51CF6FBD516B
:1038C000D06FBE51D16FBF51D26FD36BD46BD56B5C
:1038D000D66BE9EF9BF06000DBF2D9FF6000DFF20E
:1038E000DAFF6F007BFFF6FF6F0077FFF7FF000E38
:1038F000F86E0800F550780AD8B481EF9CF083EF99
:103900009CF09BEF9CF06000DBF2D9FF6000DFF2DF
:10391000DAFF6F007BFFF6FF6F0077FFF7FF000E07
:10392000F86E0800F550580AD8A499EF9CF09BEF68
:103930009CF00AEF9DF06000DBF2D9FF6000DFF23F
:10394000DAFF6F007BFFF6FF6F0077FFF7FF000ED7
:10395000F86E08006F00D4FFD7F06000DBF2D9FFEB
:103960006000DFF2DAFFDE2A000EDD226000E3F203
:10397000D9FF6000E7F2DAFF6F007CFFBAF0020EB9
:10398000DE266F007CFFBBF0000EDD226000EBF254
:10399000D9FF6000EFF2DAFF6F0078FFBCF06F0034
:1039A00074FFBDF06000F0F2CFF06000F4F2D0F0F0
:1039B0000001D16BD26BD36BD46BD56BD66B60002F
:1039C000D0F21CF06000D4F21DF060003CF31EF059
:1039D000600040F31FF0600044F320F0600048F303
:1039E00021F060004CF322F0600050F323F06000FF
:1039F00054F324F0600058F325F060005CF326F0E7
:103A00004DECBCF0600070F0B4F0600074F0B5F004
:103A100008EF9EF06000DBF2D9FF6000DFF2DAFF12
:103A20006F0078FF01F06F0074FF02F0B70E036EB5
:103A3000FF0E046E000E066E020E056E90ECD0F0C6
:103A400001500210D8B427EF9DF029EF9DF048EF08
:103A50009DF06000DBF2D9FF6000DFF2DAFF6F005B
:103A600078FF01F06F0074FF02F0AE0E036EFF0EE0
:103A7000046E000E066E020E056E90ECD0F0015042
:103A80000210D8A446EF9DF048EF9DF09FEF9DF007
:103A90006000DBF2D9FF6000DFF2DAFF6F0078FF31
:103AA000BAF06F0074FFBBF0010E0001BA27000EE0
:103AB000BB236000EBF2F6FF6000EFF2F7FF000EB1
:103AC000F86E08006F00D4FFD7F0020E6000DBF242
:103AD000D9FF6000DFF2DAFFDE26000EDD22600093
:103AE000E3F2D9FF6000E7F2DAFF6F007CFFBAF083
:103AF000040EDE266F007CFFBBF0000EDD226000AE
:103B0000EBF2D9FF6000EFF2DAFF6F0078FFBCF054
:103B10006F0078FFBDF06F0078FFBEF06F0078FF98
:103B2000BFF0BC51CF6FBD51D06FBE51D16FBF51EF
:103B3000D26FD36BD46BD56BD66BDFEF9CF060008C
:103B4000DBF2D9FF6000DFF2DAFF6F007BFFF6FFE8
:103B50006F0077FFF7FF000EF86E0800F550250A9A
:103B6000D8A4B5EF9DF0B7EF9DF0D3EF9DF06000C6
:103B7000DBF2D9FF6000DFF2DAFFDE2A000EDD2281
:103B8000000E026E250E016E6000D0F203F06000A0
:103B9000D4F204F0B1ECDAF0000E0001B56F010EC2
:103BA000B46F08EF9EF06000DBF2D9FF6000DFF237
:103BB000DAFFDE2A000EDD22000E0001B56F000ED6
:103BC000B46F08EF9EF06000DBF2D9FF6000DFF217
:103BD000DAFF6F007BFFF6FF6F0077FFF7FF000E45
:103BE000F86E0800F550016E026A6000D0F203F032
:103BF0006000D4F204F0B1ECDAF06000DBF2D9FF3F
:103C00006000DFF2DAFFDE2A000EDD22CCEF9DF04D
:103C10001200000E0101106F010E116F41EFA2F0B2
:103C2000000EEC6F000EEB6F6000F7F3D9FF600041
:103C3000FBF3DAFF1A0EDE6E010EDD6EEB0E5B6E2D
:103C4000010E5C6E85ECC6F05CBE32EF9EF05C50FF
:103C500007E1020E5B5CD8B030EF9EF032EF9EF0D1
:103C600039EF9EF0000E0001FE6F000EFD6F8DEF2C
:103C7000A2F040ECECF0600004F08CF1600008F081
:103C80008DF160000CF08EF1600010F08FF10101F9
:103C9000AE51AF11D8B44FEF9EF051EF9EF082EFCE
:103CA0009EF0000E496E000E486E000E4B6EC70E61
:103CB0004A6E96ECE9F0000E496E000E486E000E5A
:103CC0004B6ECD0E4A6E96ECE9F0000E496E000E7A
:103CD000486E000E4B6ED20E4A6E96ECE9F0000E66
:103CE000496E000E486E000E4B6ED70E4A6E96EC73
:103CF000E9F0000E0101A76F000EA66F000EAF6F76
:103D0000000EAE6FCEA287EF9EF08AEF9EF0010EFE
:103D10008BEF9EF0000EC86FC851D8A492EF9EF0B2
:103D200094EF9EF09DEF9EF0B051B111D8B49BEF8F
:103D30009EF09DEF9EF02EEFA1F0000EEC6F000EB6
:103D4000EB6F6000F7F3D9FF6000FBF3DAFF2A0E98
:103D5000DE6E010EDD6EEB0E5B6E010E5C6E0BEC2B
:103D6000B9F05CBEBFEF9EF05C5007E1020E5B5CF9
:103D7000D8B0BDEF9EF0BFEF9EF0C1EF9EF032EFE6
:103D80009EF058ECEDF0600004F0ACF1600008F03B
:103D9000ADF1600030F619F0600034F61AF0600002
:103DA00038F61BF060003CF61CF0600040F615F0A1
:103DB000600044F616F0600048F617F060004CF61C
:103DC00018F05EECB1F0600054F008F1600058F0BB
:103DD00009F160005CF00AF1600060F00BF1600036
:103DE00030F619F0600034F61AF0600038F61BF077
:103DF00060003CF61CF06000E4F715F06000E8F7A6
:103E000016F06000ECF717F06000F0F718F05EECC9
:103E1000B1F0600054F032F0600058F033F0600010
:103E20005CF034F0600060F035F0600030F619F0BE
:103E3000600034F61AF0600038F61BF060003CF6C3
:103E40001CF0600020F415F0600024F416F060000F
:103E500028F417F060002CF418F05EECB1F060006C
:103E600054F02EF0600058F02FF060005CF030F05D
:103E7000600060F031F0E0ECAEF06000B8F00CF102
:103E80006000BCF00DF16000C0F00EF16000C4F005
:103E90000FF16000B0F607F06000B4F608F0096AB0
:103EA0000A6A000ECEECCBF060001CF019F0600046
:103EB00020F01AF0600024F01BF0600028F01CF0E5
:103EC0006000D4F732F06000D8F733F06000DCF720
:103ED00034F06000E0F735F0600030F42EF0600060
:103EE00034F42FF0600038F430F060003CF431F02E
:103EF000E0ECAEF06000B8F015F06000BCF016F039
:103F00006000C0F017F06000C4F018F05EECB1F093
:103F1000600054F03EF0600058F03FF060005CF04C
:103F200040F0600060F041F0A1ECD4F06000F8F0E7
:103F3000ACF16000FCF0ADF10101C851D8B4A3EFC1
:103F40009FF0A5EF9FF0D1EF9FF01051D8A4ABEFF9
:103F50009FF0ADEF9FF0D1EF9FF0000EEC6F000EE1
:103F6000EB6F6000F7F3D9FF6000FBF3DAFF3A0E66
:103F7000DE6E010EDD6EEB0E5D6E010E5E6E43ECCD
:103F8000A6F05EBECFEF9FF05E5007E1020E5D5CD3
:103F9000D8B0CDEF9FF0CFEF9FF0D1EF9FF032EF91
:103FA0009EF00101B051B111D8B4D9EF9FF0DBEF11
:103FB0009FF001EFA0F0000EEC6F000EEB6F6000C1
:103FC000F7F3D9FF6000FBF3DAFF470EDE6E010E58
:103FD000DD6EEB0E0001F86F010EF96F8EECA2F0B2
:103FE0000001F9BFFFEF9FF0F95107E1020EF85D04
:103FF000D8B0FDEF9FF0FFEF9FF001EFA0F032EFA0
:104000009EF08C0E016E040E026EFC0E036EFF0E0F
:10401000046E000E066E010E056E90ECD0F001509D
:104020000210D8A416EFA0F018EFA0F0ECEFA0F06B
:10403000000E196E000E1A6E000E1B6E400E1C6EE6
:10404000600074F715F0600078F716F060007CF7F8
:1040500017F0600080F718F05EECB1F0600054F0EB
:104060002EF0600058F02FF060005CF030F060003F
:1040700060F031F0000E326E000E336EA80E346E1A
:10408000C10E356EE0ECAEF06000B8F0DDF160001E
:10409000BCF0DEF16000C0F0DFF16000C4F0E0F1E0
:1040A000000E2E6E000E2F6EA00E306E400E316E82
:1040B000600074F732F0600078F733F060007CF74E
:1040C00034F0600080F735F0AEECD5F0D8B06BEF8F
:1040D000A0F06DEFA0F093EFA0F0600074F72EF069
:1040E000600078F72FF060007CF730F0600080F718
:1040F00031F0000E326E000E336E200E346E410E23
:10410000356EAEECD5F0D8B088EFA0F08AEFA0F015
:1041100093EFA0F0000E0101DD6F000EDE6FA00E28
:10412000DF6F400EE06F0101E0BF9BEFA0F099EF61
:10413000A0F0A3EFA0F0000EDD6F000EDE6F000E0A
:10414000DF6F000EE06F600074F73EF0600078F7FC
:104150003FF060007CF740F0600080F741F0A1EC98
:10416000D4F06000F8F0DAF26000FCF0DBF2020E4E
:104170000001E06F010EE16FD50EE26FFF0EE36FFD
:10418000600068FBE4F060006CFBE5F0F6ECE6F044
:10419000CE0E056E030E066ED30E076EFF0E086E72
:1041A00069ECE4F0CE0E0F6E030E106E020E116E6F
:1041B000010E126E30ECEBF0CE0E0F6E030E106E91
:1041C000D30E116EFF0E126E30ECEBF0CE0E056EBC
:1041D000030E066E3BECE3F0B8ECEBF0000E0101D1
:1041E000B16F000EB06FCE0E016E030E026E000EA8
:1041F000046E000E036E000E066E080E056E9FEC38
:10420000CDF0E0ECEAF0F40E01240201746F010E2F
:104210000220756F000E0320766F000E0420776F6A
:104220006000F7F3D9FF6000FBF3DAFF5B0EDE6E90
:10423000010EDD6EE0ECEAF001500201745D025007
:1042400075590350765904507759D8A02AEFA1F038
:104250002CEFA1F02EEFA1F032EF9EF0000E010145
:10426000EC6F000EEB6F6000F7F3D9FF6000FBF31B
:10427000DAFF5D0EDE6E010EDD6EEB0E2E6E010EB0
:104280002F6EB1ECC8F02FBE51EFA1F02F5007E117
:10429000020E2E5CD8B04FEFA1F051EFA1F053EF1A
:1042A000A1F032EF9EF04DECECF0600004F02EF047
:1042B000600008F02FF060000CF030F0600010F0AB
:1042C00031F0000E326E000E336E200E346EC10ED1
:1042D000356EE0ECAEF06000B8F0DDF16000BCF0EF
:1042E000DEF16000C0F0DFF16000C4F0E0F1EC0E40
:1042F000196ED10E1A6E350E1B6E420E1C6E6000CA
:1043000074F715F0600078F716F060007CF717F08E
:10431000600080F718F05EECB1F0600054F02EF011
:10432000600058F02FF060005CF030F0600060F04A
:1043300031F0BC0E326E740E336E910E346EC00EC0
:10434000356EE0ECAEF06000B8F0DDF16000BCF07E
:10435000DEF16000C0F0DFF16000C4F0E0F1010EBA
:1043600002017025706F000E7121716F000E7221B5
:10437000726F000E7321736F73BFCAEFA1F0735198
:104380007211711109E1C90E705DD8A0CAEFA1F0D8
:10439000CCEFA1F025EFA2F00101E0BFD4EFA1F036
:1043A000D2EFA1F0DCEFA1F0000EDD6F000EDE6FAA
:1043B000000EDF6F000EE06F000E2E6E000E2F6EEF
:1043C000C60E306E420E316E600074F732F060003F
:1043D00078F733F060007CF734F0600080F735F058
:1043E000AEECD5F0D8B0F7EFA1F0F9EFA1F002EF05
:1043F000A2F0000E0101DD6F000EDE6FC60EDF6F52
:10440000420EE06F600074F73EF0600078F73FF016
:1044100060007CF740F0600080F741F0A1ECD4F040
:104420006000F8F048F06000FCF049F0000E4B6EC0
:10443000CF0E4A6E96ECE9F0000E0201706F000E8E
:10444000716F000E726F000E736F000E0101116F1D
:104450006000F7F3D9FF6000FBF3DAFF670EDE6E52
:10446000010EDD6E1151D8A438EFA2F03AEFA2F0A0
:1044700010EF9EF0000E0001FE6F010EFD6F8DEF3C
:10448000A2F06000F7F3D9FF6000FBF3DAFF6F00E2
:1044900078FF00F16F0074FF01F10151000AD8B4F8
:1044A00058EFA2F0010AD8B45FEFA2F07EEFA2F0BD
:1044B0000051000AD8B410EF9EF07EEFA2F0005138
:1044C0001A0AD8B41EEF9EF0300AD8B4ABEF9EF0B3
:1044D000100AD8B4BBEF9FF07D0AD8B4E9EF9FF083
:1044E0001C0AD8B41AEFA1F0060AD8B43DEFA1F027
:1044F0003A0AD8B432EFA2F07EEFA2F06000F7F3F0
:10450000D9FF6000FBF3DAFF000EDE6E000EDD6EF9
:10451000000E0001FE6F030EFD6F1200E5EFA5F027
:104520008C0E016E040E026EE80E036EFF0E046E1A
:10453000000E066E010E056E90ECD0F001500210D8
:10454000D8A4A5EFA2F0A7EFA2F0D6EFA2F091ECCD
:10455000EDF0000E0101E26F000EE16F6000E3F389
:10456000D9FF6000E7F3DAFF8F0EDE6E000EDD6E1E
:10457000E10E0001F46F010EF56F3DECD1F000018A
:10458000F5BFCEEFA2F0F55107E1020EF45DD8B011
:10459000CCEFA2F0CEEFA2F0D4EFA2F0000EF96FB4
:1045A000000EF86F42EFA6F0D4EFA5F08C0E016E6E
:1045B000040E026EEA0E036EFF0E046E000E066E0F
:1045C000010E056E90ECD0F001500210D8A4EBEF74
:1045D000A2F0EDEFA2F016EFA3F0A1ECEDF0000ECB
:1045E0000101E26F000EE16F6000E3F3D9FF6000AC
:1045F000E7F3DAFF930EDE6E000EDD6EE10E0001D2
:10460000F46F010EF56F3DECD1F00001F5BF14EF32
:10461000A3F0F55107E1020EF45DD8B012EFA3F05C
:1046200014EFA3F0D4EFA2F0CEEFA2F08C0E016E47
:10463000040E026E240E036EFE0E046E000E066E55
:10464000010E056E90ECD0F001500210D8A42BEFB3
:10465000A3F02DEFA3F056EFA3F079ECEDF0000EF0
:104660000101E26F000EE16F6000E3F3D9FF60002B
:10467000E7F3DAFF970EDE6E000EDD6EE10E00014D
:10468000F46F010EF56F3DECD1F00001F5BF54EF72
:10469000A3F0F55107E1020EF45DD8B052EFA3F09C
:1046A00054EFA3F0D4EFA2F0CEEFA2F08C0E016E87
:1046B000040E026EEC0E036EFF0E046E000E066E0C
:1046C000010E056E90ECD0F001500210D8A46BEFF3
:1046D000A3F06DEFA3F096EFA3F081ECEDF0000EE8
:1046E0000101E26F000EE16F6000E3F3D9FF6000AB
:1046F000E7F3DAFF9B0EDE6E000EDD6EE10E0001C9
:10470000F46F010EF56F3DECD1F00001F5BF94EFB1
:10471000A3F0F55107E1020EF45DD8B092EFA3F0DB
:1047200094EFA3F0D4EFA2F0CEEFA2F08C0E016EC6
:10473000040E026EDD0E036EFE0E046E000E066E9B
:10474000010E056E90ECD0F001500210D8A4ABEF32
:10475000A3F0ADEFA3F0D6EFA3F099ECEDF0000ECF
:104760000101E26F000EE16F6000E3F3D9FF60002A
:10477000E7F3DAFF9F0EDE6E000EDD6EE10E000144
:10478000F46F010EF56F3DECD1F00001F5BFD4EFF1
:10479000A3F0F55107E1020EF45DD8B0D2EFA3F01B
:1047A000D4EFA3F0D4EFA2F0CEEFA2F08C0E016E06
:1047B000040E026E100E036EFF0E046E000E066EE7
:1047C000010E056E90ECD0F001500210D8A4EBEF72
:1047D000A3F0EDEFA3F016EFA4F089ECEDF0000EDE
:1047E0000101E26F000EE16F6000E3F3D9FF6000AA
:1047F000E7F3DAFFA30EDE6E000EDD6EE10E0001C0
:10480000F46F010EF56F3DECD1F00001F5BF14EF30
:10481000A4F0F55107E1020EF45DD8B012EFA4F058
:1048200014EFA4F0D4EFA2F0CEEFA2F08C0E016E44
:10483000040E026EEE0E036EFF0E046E000E066E88
:10484000010E056E90ECD0F001500210D8A42BEFB1
:10485000A4F02DEFA4F056EFA4F08DECEDF0000ED7
:104860000101E26F000EE16F6000E3F3D9FF600029
:10487000E7F3DAFFA90EDE6E000EDD6EE10E000139
:10488000F46F010EF56F3DECD1F00001F5BF54EF70
:10489000A4F0F55107E1020EF45DD8B052EFA4F098
:1048A00054EFA4F0D4EFA2F0CEEFA2F08C0E016E84
:1048B000040E026EF00E036EFF0E046E000E066E06
:1048C000010E056E90ECD0F001500210D8A46BEFF1
:1048D000A4F06DEFA4F096EFA4F09DECEDF0000EC7
:1048E0000101E26F000EE16F6000E3F3D9FF6000A9
:1048F000E7F3DAFFAD0EDE6E000EDD6EE10E0001B5
:10490000F46F010EF56F3DECD1F00001F5BF94EFAF
:10491000A4F0F55107E1020EF45DD8B092EFA4F0D7
:1049200094EFA4F0D4EFA2F0CEEFA2F08C0E016EC3
:10493000040E026EF20E036EFF0E046E000E066E83
:10494000010E056E90ECD0F001500210D8A4ABEF30
:10495000A4F0ADEFA4F0D6EFA4F075ECEDF0000EEE
:104960000101E26F000EE16F6000E3F3D9FF600028
:10497000E7F3DAFFB10EDE6E000EDD6EE10E000130
:10498000F46F010EF56F3DECD1F00001F5BFD4EFEF
:10499000A4F0F55107E1020EF45DD8B0D2EFA4F017
:1049A000D4EFA4F0D4EFA2F0CEEFA2F08C0E016E03
:1049B000040E026EF40E036EFF0E046E000E066E01
:1049C000010E056E90ECD0F001500210D8A4EBEF70
:1049D000A4F0EDEFA4F016EFA5F07DECEDF0000EE5
:1049E0000101E26F000EE16F6000E3F3D9FF6000A8
:1049F000E7F3DAFFB50EDE6E000EDD6EE10E0001AC
:104A0000F46F010EF56F3DECD1F00001F5BF14EF2E
:104A1000A5F0F55107E1020EF45DD8B012EFA5F054
:104A200014EFA5F0D4EFA2F0CEEFA2F08C0E016E41
:104A3000040E026EF60E036EFF0E046E000E066E7E
:104A4000010E056E90ECD0F001500210D8A42BEFAF
:104A5000A5F02DEFA5F056EFA5F095ECEDF0000ECA
:104A60000101E26F000EE16F6000E3F3D9FF600027
:104A7000E7F3DAFFB90EDE6E000EDD6EE10E000127
:104A8000F46F010EF56F3DECD1F00001F5BF54EF6E
:104A9000A5F0F55107E1020EF45DD8B052EFA5F094
:104AA00054EFA5F0D4EFA2F0CEEFA2F08C0E016E81
:104AB000040E026EF80E036EFF0E046E000E066EFC
:104AC000010E056E90ECD0F001500210D8A46BEFEF
:104AD000A5F06DEFA5F096EFA5F085ECEDF0000EDA
:104AE0000101E26F000EE16F6000E3F3D9FF6000A7
:104AF000E7F3DAFFBD0EDE6E000EDD6EE10E0001A3
:104B0000F46F010EF56F3DECD1F00001F5BF94EFAD
:104B1000A5F0F55107E1020EF45DD8B092EFA5F0D3
:104B200094EFA5F0D4EFA2F0CEEFA2F08C0E016EC0
:104B3000040E026EB20E036EFF0E046E000E066EC1
:104B4000010E056E90ECD0F001500210D8A4ABEF2E
:104B5000A5F0ADEFA5F0D4EFA2F0000E0101E26FD9
:104B6000000EE16F6000E3F3D9FF6000E7F3DAFFC6
:104B7000C00EDE6E000EDD6EE10E0001F46F010E60
:104B8000F56F3DECD1F00001F5BFD2EFA5F0F55186
:104B900007E1020EF45DD8B0D0EFA5F0D2EFA5F09A
:104BA000D4EFA2F0CEEFA2F06000E3F3D9FF6000F3
:104BB000E7F3DAFF000EDE6E000EDD6E000E000180
:104BC000F96F020EF86F42EFA6F06000E3F3D9FF31
:104BD0006000E7F3DAFF6F0078FFFAF06F0074FF10
:104BE000FBF00001FB51000AD8B4F9EFA5F034EF57
:104BF000A6F0FA51000AD8B490EFA2F08F0AD8B408
:104C0000B8EFA2F01C0AD8B4FEEFA2F0040AD8B4A0
:104C10003EEFA3F00C0AD8B47EEFA3F0040AD8B498
:104C2000BEEFA3F03C0AD8B4FEEFA3F00A0AD8B452
:104C30003EEFA4F0040AD8B47EEFA4F01C0AD8B466
:104C4000BEEFA4F0040AD8B4FEEFA4F00C0AD8B466
:104C50003EEFA5F0040AD8B47EEFA5F07D0AD8B4E3
:104C6000BCEFA5F034EFA6F06000E3F3D9FF6000DD
:104C7000E7F3DAFF000EDE6E000EDD6E000EF96F58
:104C8000030EF86F1200E3EFA8F004010805D8A4A2
:104C90004CEFA6F04EEFA6F07DEFA6F091ECEDF014
:104CA000DDECCFF0000E0101E46F000EE36F600059
:104CB00077F1D9FF60007BF1DAFF4C0EDE6E000E5B
:104CC000DD6EE30E096E010E0A6E15ECD8F00ABE19
:104CD00075EFA6F00A5007E1020E095CD8B073EF39
:104CE000A6F075EFA6F07BEFA6F0000E5E6E000E4C
:104CF0005D6E40EFA9F0D3EFA8F0020E0819D8A41A
:104D000084EFA6F086EFA6F0AFEFA6F0A1ECEDF0F1
:104D1000DDECCFF0000E0101E46F000EE36F6000E8
:104D200077F1D9FF60007BF1DAFF500EDE6E000EE6
:104D3000DD6EE30E096E010E0A6E15ECD8F00ABEA8
:104D4000ADEFA6F00A5007E1020E095CD8B0ABEF58
:104D5000A6F0ADEFA6F07BEFA6F075EFA6F0030E80
:104D60000819D8A4B6EFA6F0B8EFA6F0E1EFA6F0C8
:104D700079ECEDF0DDECCFF0000E0101E46F000EF8
:104D8000E36F600077F1D9FF60007BF1DAFF550E29
:104D9000DE6E000EDD6EE30E096E010E0A6E15EC7E
:104DA000D8F00ABEDFEFA6F00A5007E1020E095C58
:104DB000D8B0DDEFA6F0DFEFA6F07BEFA6F075EF41
:104DC000A6F0040E0819D8A4E8EFA6F0EAEFA6F0C2
:104DD00013EFA7F081ECEDF0DDECCFF0000E010158
:104DE000E46F000EE36F600077F1D9FF60007BF1A4
:104DF000DAFF5A0EDE6E000EDD6EE30E096E010E56
:104E00000A6E15ECD8F00ABE11EFA7F00A5007E1C0
:104E1000020E095CD8B00FEFA7F011EFA7F07BEFFF
:104E2000A6F075EFA6F0050E0819D8A41AEFA7F0A2
:104E30001CEFA7F045EFA7F099ECEDF0DDECCFF01B
:104E4000000E0101E46F000EE36F600077F1D9FFFF
:104E500060007BF1DAFF5F0EDE6E000EDD6EE30EAA
:104E6000096E010E0A6E15ECD8F00ABE43EFA7F0EA
:104E70000A5007E1020E095CD8B041EFA7F043EFFA
:104E8000A7F07BEFA6F075EFA6F0060E0819D8A4E0
:104E90004CEFA7F04EEFA7F077EFA7F089ECEDF01D
:104EA000DDECCFF0000E0101E46F000EE36F600057
:104EB00077F1D9FF60007BF1DAFF640EDE6E000E41
:104EC000DD6EE30E096E010E0A6E15ECD8F00ABE17
:104ED00075EFA7F00A5007E1020E095CD8B073EF36
:104EE000A7F075EFA7F07BEFA6F075EFA6F0070E21
:104EF0000819D8A47EEFA7F080EFA7F0A9EFA7F0DC
:104F00008DECEDF0DDECCFF0000E0101E46F000E52
:104F1000E36F600077F1D9FF60007BF1DAFF6A0E82
:104F2000DE6E000EDD6EE30E096E010E0A6E15ECEC
:104F3000D8F00ABEA7EFA7F00A5007E1020E095CFD
:104F4000D8B0A5EFA7F0A7EFA7F07BEFA6F075EF1D
:104F5000A6F0080E0819D8A4B0EFA7F0B2EFA7F09A
:104F6000DBEFA7F09DECEDF0DDECCFF0000E0101E2
:104F7000E46F000EE36F600077F1D9FF60007BF112
:104F8000DAFF6F0EDE6E000EDD6EE30E096E010EAF
:104F90000A6E15ECD8F00ABED9EFA7F00A5007E167
:104FA000020E095CD8B0D7EFA7F0D9EFA7F07BEFDE
:104FB000A6F075EFA6F00A0E0819D8A4E2EFA7F044
:104FC000E4EFA7F00DEFA8F075ECEDF0DDECCFF01D
:104FD000000E0101E46F000EE36F600077F1D9FF6E
:104FE00060007BF1DAFF730EDE6E000EDD6EE30E05
:104FF000096E010E0A6E15ECD8F00ABE0BEFA8F090
:105000000A5007E1020E095CD8B009EFA8F00BEFD7
:10501000A8F07BEFA6F075EFA6F00B0E0819D8A448
:1050200014EFA8F016EFA8F03FEFA8F07DECEDF03C
:10503000DDECCFF0000E0101E46F000EE36F6000C5
:1050400077F1D9FF60007BF1DAFF770EDE6E000E9C
:10505000DD6EE30E096E010E0A6E15ECD8F00ABE85
:105060003DEFA8F00A5007E1020E095CD8B03BEF13
:10507000A8F03DEFA8F07BEFA6F075EFA6F00C0EC0
:105080000819D8A446EFA8F048EFA8F071EFA8F0EF
:1050900095ECEDF0DDECCFF0000E0101E46F000EB9
:1050A000E36F600077F1D9FF60007BF1DAFF7B0EE0
:1050B000DE6E000EDD6EE30E096E010E0A6E15EC5B
:1050C000D8F00ABE6FEFA8F00A5007E1020E095CA3
:1050D000D8B06DEFA8F06FEFA8F07BEFA6F075EFFA
:1050E000A6F00D0E0819D8A478EFA8F07AEFA8F072
:1050F000A3EFA8F085ECEDF0DDECCFF0000E0101A0
:10510000E46F000EE36F600077F1D9FF60007BF180
:10511000DAFF7F0EDE6E000EDD6EE30E096E010E0D
:105120000A6E15ECD8F00ABEA1EFA8F00A5007E10C
:10513000020E095CD8B09FEFA8F0A1EFA8F07BEFBA
:10514000A6F075EFA6F00E0E0819D8A4AAEFA8F0E5
:10515000ACEFA8F07BEFA6F0DDECCFF0000E010184
:10516000E46F000EE36F600077F1D9FF60007BF120
:10517000DAFF820EDE6E000EDD6EE30E096E010EAA
:105180000A6E15ECD8F00ABED1EFA8F00A5007E17C
:10519000020E095CD8B0CFEFA8F0D1EFA8F07BEFFA
:1051A000A6F075EFA6F0600077F1D9FF60007BF103
:1051B000DAFF000EDE6E000EDD6E000E5E6E020E79
:1051C0005D6E40EFA9F0600077F1D9FF60007BF1E0
:1051D000DAFF6F0078FF60F06F0074FF61F000018C
:1051E0006151000AD8B4F7EFA8F032EFA9F060518E
:1051F000000AD8B445EFA6F04C0AD8B461EFA6F087
:105200001C0AD8B499EFA6F0050AD8B4CBEFA6F0E3
:105210000F0AD8B4FDEFA6F0050AD8B42FEFA7F017
:105220003B0AD8B461EFA7F00E0AD8B493EFA7F009
:10523000050AD8B4C5EFA7F01C0AD8B4F7EFA7F059
:10524000040AD8B429EFA8F00C0AD8B45BEFA8F090
:10525000040AD8B48DEFA8F0FD0AD8B4BDEFA8F0C9
:1052600032EFA9F0600077F1D9FF60007BF1DAFF3F
:10527000000EDE6E000EDD6E000E5E6E030E5D6EC5
:105280001200600074F13EF0600078F13FF0000E13
:10529000406E000E416E160E426E440E436EE2ECFE
:1052A000BDF00009D8B457EFA9F059EFA9F071EF9C
:1052B000A9F0600074F13EF0600078F13FF0000E5C
:1052C000406E600E416E860E426E450E436EE2ECFD
:1052D000BDF00009D8A46FEFA9F071EFA9F074EF49
:1052E000A9F0000E32EFACF0600077F1D9FF60005A
:1052F0007BF1DAFF6F0078FF01F06F0078FF02F0BA
:105300006F0078FF03F06F0078FF04F0000E056E69
:10531000000E066E000E076E000E086EFCECDFF04D
:10532000D8A095EFA9F097EFA9F031EFAAF020EE01
:1053300004F05D50D9265E50DA226F0078FF01F04C
:105340006F0078FF02F06F0078FF03F06F0078FFC6
:1053500004F0000E056E000E066E000E076E000EC5
:10536000086EFCECDFF0D8B0B8EFA9F0BAEFA9F006
:105370002EEFAAF020EE08F05D50D9265E50DA221A
:105380006F0078FF3EF06F0078FF3FF06F0078FF0E
:1053900040F06F0078FF41F0B7ECE9F06000F8F002
:1053A00042F06000FCF043F0600000F144F0600067
:1053B00004F145F0000E196E000E1A6E000E1B6E01
:1053C000400E1C6E20EE04F05D50D9265E50DA22AD
:1053D0006F0078FF15F06F0078FF16F06F0078FF10
:1053E00017F06F0078FF18F05EECB1F0600054F039
:1053F00046F0600058F047F060005CF048F0600054
:1054000060F049F0A3ECB3F0600008F190F06000A8
:105410000CF191F0600010F192F0600014F193F043
:10542000600074F160F0600078F161F0600040F2BB
:1054300062F0600044F263F0600048F264F06000E3
:105440004CF265F0A5ECE0F00009D8A42AEFAAF030
:105450002CEFAAF02EEFAAF071EFA9F0010E32EFB7
:10546000ACF0000E196E000E1A6E400E1B6E400E50
:105470001C6E600077F1D9FF60007BF1DAFF6F00EE
:1054800078FF15F06F0078FF16F06F0078FF17F0C7
:105490006F0078FF18F05EECB1F0600054F08CF013
:1054A000600058F08DF060005CF08EF0600060F0FD
:1054B0008FF020EE04F05D50D9265E50DA226F00A6
:1054C00078FF19F06F0078FF1AF06F0078FF1BF07B
:1054D0006F0078FF1CF020EE04F05D50D9265E507E
:1054E000DA226F0078FF15F06F0078FF16F06F007A
:1054F00078FF17F06F0078FF18F05EECB1F06000F5
:1055000054F03EF0600058F03FF060005CF040F076
:10551000600060F041F020EE08F05D50D9265E504A
:10552000DA226F0078FF19F06F0078FF1AF06F0031
:1055300078FF1BF06F0078FF1CF0600030F215F070
:10554000600034F216F0600038F217F060003CF2B0
:1055500018F05EECB1F0600054F042F0600058F0DA
:1055600043F060005CF044F0600060F045F03DEC1A
:10557000E6F06000F8F094F06000FCF095F0600058
:1055800000F196F0600004F197F0600050F201F035
:10559000600054F202F0600058F203F060005CF228
:1055A00004F050ECE9F00009D8A4D9EFAAF0DBEF41
:1055B000AAF0DDEFAAF071EFA9F0000197BFE5EFC7
:1055C000AAF0E3EFAAF0E7EFAAF02EEFAAF060004E
:1055D00050F23EF0600054F23FF0600058F240F0AC
:1055E00060005CF241F033ECACF06000F8F098F051
:1055F0006000FCF099F0600000F19AF0600004F1A6
:105600009BF020EE04F05D50D9265E50DA22030EA6
:10561000DBBE0DEFABF00FEFABF04BEFABF060008C
:1056200060F232F0600064F233F0600068F234F04F
:1056300060006CF235F020EE04F05D50D9265E502B
:10564000DA226F0078FF2EF06F0078FF2FF06F00E6
:1056500078FF30F06F0078FF31F0E0ECAEF06000E2
:10566000B8F03EF06000BCF03FF06000C0F040F0E9
:105670006000C4F041F0B7ECE9F06000F8F098F099
:105680006000FCF099F0600000F19AF0600004F115
:105690009BF077EFABF0600060F23EF0600064F2E8
:1056A0003FF0600068F240F060006CF241F020EEE4
:1056B00004F05D50D9265E50DA226F0078FF42F088
:1056C0006F0078FF43F06F0078FF44F06F0078FFC1
:1056D00045F03DECE6F06000F8F098F06000FCF07A
:1056E00099F0600000F19AF0600004F19BF0600016
:1056F00060F242F0600064F243F0600068F244F04F
:1057000060006CF245F0000E196E000E1A6E400E2D
:105710001B6E400E1C6E600077F1D9FF60007BF1BC
:10572000DAFF6F0078FF15F06F0078FF16F06F005A
:1057300078FF17F06F0078FF18F05EECB1F06000B2
:1057400054F046F0600058F047F060005CF048F01C
:10575000600060F049F0A3ECB3F0600008F190F055
:1057600060000CF191F0600010F192F0600014F113
:1057700093F0600074F160F0600078F161F0600017
:1057800040F262F0600044F263F0600048F264F0BE
:1057900060004CF265F0A5ECE0F00009D8A4D3EF6E
