:020000040000FA
:040000000DEF00F010
:04000800F6EFC6F059
:06001800FF008FEFC9F0AC
:10FD2200004A616E4665624D61724170724D617941
:10FD32004A756E4A756C4175675365704F63744EB0
:10FD42006F764465630030313233343536373839B3
:10FD52004142434445460031323334353637386107
:10FD62006263645633360100000000587DB5B892D4
:10FD7200A21E3F008097C32DC49CB3951D943938B1
:10FD82001BFE3D000002C319052F34F15C46BA4345
:10FD9200489B3F0000DDC30DD71D3499462FBAE3BF
:10FDA2008B8A3F0080C4C39B56DF32FE5D9AB76BDD
:10FDB20035D13D000044C200000000D646BE38F4F2
:10FDC200808B3A0000A8C100000000AA4CB738B3EB
:10FDD2001C5F3C0000D8C100AFB83397C69CB92164
:10FDE200A5E43E000021C319052F34F15C46BA4355
:10FDF200489B3F0000DDC300000000072FED3844A0
:10FE0200EA9BBD000020419B56DF32FE5D9AB76B34
:10FE120035D13D000044C200000000D646BE38F491
:10FE2200808B3A0000A8C120202020202020202002
:10FE32002020202020202000234552522C424C4FCB
:10FE420051554541444F2300484F52495A4F4E5451
:10FE5200414C2056332E33002043414D42494F201E
:10FE62005445524D49434F0020205245464C45438C
:10FE7200544F4D4554524F00202052452D43414C82
:10FE8200494252415221004E4956454C204241546A
:10FE9200455249413A002050524F5049454441444D
:10FEA2002044453A00234552522C464F524D41546C
:10FEB2004F23004D696469656E646F202E2E2E2ECD
:10FEC20000234552522C454550524F4D2300434189
:10FED2005247414E444F202E2E2E004D69646965D3
:10FEE2006E646F202E2E2E0047454F4D45545249C9
:10FEF200412033300047454F4D455452494120314E
:10FF020035002020202020534C482D30343600204C
:10FF12002020202053455249414C3A004D4944414A
:10FF220020424C414E434F3A0053657020313820F5
:10FF3200323032360053454C454343494F4E453AE1
:10FF4200004D494441204E4547524F3A002020205F
:10FF52002020202041494D00234552522C50494E29
:10FF62002300494E46494E49545900696E66696EEE
:10FF72006974790023562C332E362C002C444546C6
:10FF82002C002C43414C2C00234F4B23002347547D
:10FF92002C00252E3845002530345800494E4600A5
:10FFA2004E414E00696E66006E616E0023452C0064
:10FFB20023472C00234B2C00256C75006C58006CD9
:10FFC20065006C66006C78004B4300475400535444
:10FFD200003A3A002575002A0047004B004C0050B9
:10FFE200005100530056003100320034003700380F
:0EFFF200006100620063006400250039000019
:020000040001F9
:100000003C503D10D8B407EF80F009EF80F019EFB5
:1000100080F06000F3F0D9FF6000F7F0DAFF6000D5
:10002000EBF0DEFF6000EFF0DDFF19EF80F03A4A01
:100030003B2A010E546E6000EBF0D9FF6000EFF038
:10004000DAFF200EDE18D8B428EF80F02BEF80F016
:10005000010E2CEF80F0000E596E5A6A59505A105A
:10006000D8A435EF80F037EF80F05DEF80F0F70E29
:100070003E6EFF0E3F6E6000EBF0D9FF6000EFF0C8
:10008000DAFFDF50406E4050596E5A6A600064F1EA
:1000900041F0600068F142F03E5041263F5042225C
:1000A000425009E1050E415CD8A059EF80F05BEFAA
:1000B00080F05DEF80F0000E546E600050F144F06F
:1000C000456A44504510D8A468EF80F06AEF80F08C
:1000D00017EF80F0000E566E2D0E59185A10D8A446
:1000E00074EF80F076EF80F07CEF80F0010E566EBA
:1000F0003A4A3B2A88EF80F02B0E59185A10D8A4A0
:1001000084EF80F086EF80F088EF80F078EF80F069
:10011000000E5F6E8DEF80F05F2A5F503A24D96E3B
:10012000000E3B20DA6EDF50D8B499EF80F09BEFE1
:1001300080F0D1EF80F05F503A24D96E000E3B2062
:10014000DA6EDF503E6E6D0E5F24F66EF76AFF0EBC
:10015000F722F86A000EF8220800F5503E18D8B4CD
:10016000B4EF80F0B6EF80F08CEF80F05F503A246F
:10017000D96E000E3B20DA6EDF503E6E640E5F24B7
:10018000F66EF76AFF0EF722F86A000EF8220800F2
:10019000F5503E18D8B4CFEF80F0D1EF80F08CEF5F
:1001A00080F0020E5F64D7EF80F0D9EF80F009EFA6
:1001B00081F0000E5B6E000E5C6E800E5D6E7F0E39
:1001C0005E6E3C503D10D8B4E8EF80F0EAEF80F06E
:1001D00018EF89F0080E5F18D8B4F1EF80F0F3EF54
:1001E00080F0F5EF80F0030E5F6E5F503A243E6EB4
:1001F000000E3B203F6E6000F3F0D9FF6000F7F087
:10020000DAFF6000FBF0DEFF6000FFF0DDFF18EFBB
:1002100089F0000E5F6E0EEF81F05F2A5F503A2486
:10022000D96E000E3B20DA6EDF50D8B41AEF81F0A1
:100230001CEF81F052EF81F05F503A24D96E000E2E
:100240003B20DA6EDF503E6EAA0E5F24F66EF76A30
:10025000FF0EF722F86A000EF8220800F5503E184B
:10026000D8B435EF81F037EF81F00DEF81F05F50BA
:100270003A24D96E000E3B20DA6EDF503E6EA20E9D
:100280005F24F66EF76AFF0EF722F86A000EF82276
:100290000800F5503E18D8B450EF81F052EF81F0CD
:1002A0000DEF81F0030E5F18D8A459EF81F05BEFDA
:1002B00081F0D3EF81F0390E016EFE0E026E44EC38
:1002C000DCF0600004F05BF0600008F05CF06000BF
:1002D0000CF05DF0600010F05EF03C503D10D8B4C2
:1002E00074EF81F076EF81F018EF89F05F503A26D5
:1002F000000E3B226000EBF0D9FF6000EFF0DAFF68
:10030000280EDE18D8A487EF81F089EF81F0C5EFC1
:1003100081F0000E5F6E8EEF81F05F2A5F503A240D
:10032000D96E000E3B20DA6EDF50D8B49AEF81F020
:100330009CEF81F0ABEF81F05F503A24D96E000E54
:100340003B20DA6E290EDE18D8A4A9EF81F0ABEFBE
:1003500081F08DEF81F05F503A24D96E000E3B2082
:10036000DA6E290EDE18D8A4B8EF81F0BAEF81F06A
:10037000C5EF81F05F503E6E3F6A010E3E26000ED3
:100380003F223E503A263F503B226000F3F0D9FF17
:100390006000F7F0DAFF6000EBF0DEFF6000EFF0E6
:1003A000DDFF18EF89F0000E5A6E000E596E000E38
:1003B0005B6E000E5C6E000E5D6E000E5E6E000EDB
:1003C000586E000E576E000E5F6EE8EF81F05F2AE8
:1003D0005F503A24D96E000E3B20DA6E300EDE18E4
:1003E000D8B4F5EF81F0F7EF81F0E7EF81F05F50DF
:1003F000D8B4FDEF81F0FFEF81F0A0EF85F05F5002
:100400003A24D96E000E3B20DA6E780EDE18D8B48E
:100410000CEF82F00EEF82F01DEF82F05F503A2475
:10042000D96E000E3B20DA6E580EDE18D8A41BEFF2
:1004300082F01DEF82F0A0EF85F05F503E6E3F6AC4
:10044000010E3E26000E3F223E503A263F503B22F0
:10045000000E5F6E2DEF82F05F2A5F503A24D96E56
:10046000000E3B20DA6E300EDE18D8B43AEF82F080
:100470003CEF82F02CEF82F0000E5F6E5F503A246A
:10048000D96E000E3B20DA6E700EDE18D8B44BEF3A
:1004900082F04DEF82F0DBEF83F05F503A24D96EAB
:1004A000000E3B20DA6E500EDE18D8A45AEF82F010
:1004B0005CEF82F05EEF82F0DBEF83F05F503A2476
:1004C000D96E000E3B20DA6E2E0EDE18D8A46BEF2C
:1004D00082F06DEF82F071EF82F056885F2ADBEFD9
:1004E00083F05F503A24D96E000E3B20DA6EDF5065
:1004F0003E6E3E50016E026ADDECD4F001500210F7
:10050000D8B485EF82F087EF82F003EF83F0000E1E
:10051000556ED00E3E6EFF0E3F6E5F503A24D96E80
:10052000000E3B20DA6EDF50406E416A3E5040269E
:100530003F50412241500AE10A0E405CD8A0A3EF8F
:1005400082F0A6EF82F0010EA7EF82F0000E466E59
:10055000476A46504710D8B4B0EF82F0B2EF82F04D
:10056000BDEF82F05F503A24D96E000E3B20DA6E68
:10057000DF50D00F556ECDEF82F05F503A24D96E28
:10058000000E3B20DA6EDF503E6E3E50076E086A6A
:100590005FECD6F00750C90F556E5ABEDBEF82F004
:1005A0005A5007E1080E595CD8B0D9EF82F0DBEF62
:1005B00082F0FBEF82F0595007083E6ED8903E362D
:1005C000D8903E36600054F13FF0406A416A426A7A
:1005D0003E2AF0EF82F0D8903F3640364136423620
:1005E0003E2EEBEF82F03F505B1240505C124150C8
:1005F0005D1242505E12594A5A2A040E5726000EC6
:1006000058220DEF83F0000E3A6E000E3B6E000E86
:100610003C6E000E3D6E45EF89F05F2A3EEF82F0A2
:100620005F503A24D96E000E3B20DA6E700EDE1851
:10063000D8B41DEF83F01FEF83F0E2EF83F05F503B
:100640003A24D96E000E3B20DA6E500EDE18D8A484
:100650002CEF83F02EEF83F030EF83F0E2EF83F0A6
:100660005F503A24D96E000E3B20DA6E300EDE1851
:10067000D8A43DEF83F03FEF83F04EEF83F0595065
:100680005A10D8A446EF83F048EF83F04EEF83F082
:10069000FC0E5726FF0E5822DAEF83F05F503A2403
:1006A000D96E000E3B20DA6EDF503E6E3E50016E7A
:1006B000026ADDECD4F001500210D8B462EF83F08E
:1006C00064EF83F0DAEF83F0000E556ED00E3E6ECD
:1006D000FF0E3F6E5F503A24D96E000E3B20DA6E5B
:1006E000DF50406E416A3E5040263F50412241500B
:1006F0000AE10A0E405CD8A080EF83F083EF83F01C
:10070000010E84EF83F0000E486E496A485049108C
:10071000D8B48DEF83F08FEF83F09AEF83F05F50C2
:100720003A24D96E000E3B20DA6EDF50D00F556EA2
:10073000AAEF83F05F503A24D96E000E3B20DA6EA8
:10074000DF503E6E3E50076E086A5FECD6F00750F1
:10075000C90F556E5ABEB8EF83F05A5007E1080E24
:10076000595CD8B0B6EF83F0B8EF83F0D8EF83F0E0
:10077000595007083E6ED8903E36D8903E366000FD
:1007800054F13FF0406A416A426A3E2ACDEF83F05D
:10079000D8903F364036413642363E2EC8EF83F081
:1007A0003F505B1240505C1241505D1242505E124D
:1007B000594A5A2A5F2A56B8E0EF83F0E2EF83F0F5
:1007C00010EF83F05F503A24D96E000E3B20DA6EB2
:1007D000700EDE18D8B4EFEF83F0F1EF83F00AEF7C
:1007E00084F05F503A24D96E000E3B20DA6E500E32
:1007F000DE18D8B4FEEF83F000EF84F00AEF84F047
:10080000000E3A6E000E3B6E000E3C6E000E3D6E0A
:1008100045EF89F05F2A5F503A24D96E000E3B20E5
:10082000DA6E2B0EDE18D8A418EF84F01AEF84F0DD
:100830001DEF84F05F2A2EEF84F05F503A24D96ECA
:10084000000E3B20DA6E2D0EDE18D8A42AEF84F0BD
:100850002CEF84F02EEF84F056865F2A5F503A2604
:10086000000E3B22000E5F6E37EF84F05F2A5F5070
:100870003A24D96E000E3B20DA6E300EDE18D8B462
:1008800044EF84F046EF84F036EF84F0000E5A6EA9
:10089000000E596E7CEF84F05F50D8B452EF84F0B4
:1008A00054EF84F066EF84F0600064F101F06000C2
:1008B00068F102F0000E046E0A0E036E16ECDCF016
:1008C000600004F059F0600008F05AF0D00E3E6E5F
:1008D000FF0E3F6E5F503A24D96E000E3B20DA6E59
:1008E000DF50406E416A3E5040263F50412240500A
:1008F000592641505A225F2AD00E3E6EFF0E3F6E9F
:100900005F503A24D96E000E3B20DA6EDF50406E05
:10091000416A3E5040263F50412241500AE10A0EB2
:10092000405CD8A096EF84F099EF84F0010E9AEF26
:1009300084F0000E4A6E4B6A4A504B10D8A4A3EFC5
:1009400084F0A5EF84F04CEF84F05F50D8A4ABEFB7
:1009500084F0ADEF84F0B7EF84F0000E3A6E000E35
:100960003B6E000E3C6E000E3D6E45EF89F056A6C4
:10097000BCEF84F0BEEF84F0C2EF84F0596C5A1ED5
:10098000D8B05A2A595057265A5058223C503D1038
:10099000D8B4CDEF84F0CFEF84F0E1EF84F05F5076
:1009A0003A243E6E000E3B203F6E6000F3F0D9FF0C
:1009B0006000F7F0DAFF6000FBF0DEFF6000FFF0A0
:1009C000DDFF5B505C105D105E10D8A4EAEF84F090
:1009D000ECEF84F0F6EF84F0000E3A6E000E3B6E02
:1009E000000E3C6E000E3D6E45EF89F0FF0E5B146D
:1009F0003E6E000E5C143F6E000E5D14406E000EE5
:100A00005E14416E415040103F1009E1810E3E5C82
:100A1000D8A00DEF85F00FEF85F021EF85F0000EE7
:100A20005B26010E5C22000E5D22000E5E2221EF8D
:100A300085F0D8905B365C365D365E365706D8A0BA
:100A400058065EAE26EF85F028EF85F019EF85F0A9
:100A500058AE34EF85F0830E575CFF0E5858D8B06F
:100A600034EF85F036EF85F042EF85F0FF0E586EDB
:100A7000810E576E000E5B6E000E5C6E000E5D6E9A
:100A8000000E5E6E810E571808E15828D8B44BEF5F
:100A900085F04DEF85F055EF85F0D8905B365C36EC
:100AA0005D365E365706D8A0580658BE61EF85F011
:100AB000585009E1800E575CD8A061EF85F063EFD4
:100AC00085F06FEF85F0000E5B6E000E5C6E000E21
:100AD0005D6E000E5E6E000E586E800E576E090E33
:100AE0003E6ED8905E325D325C325B323E2E71EFEC
:100AF00085F0FF0E5B16FF0E5C167F0E5D16000E76
:100B00005E167F0E57243E6E000E58203F6EFF0E7D
:100B10003E14406E416A426A436A170ED8904036CE
:100B2000413642364336E82E8EEF85F040505B1258
:100B300041505C1242505D1243505E1218EF89F032
:100B400056B8A5EF85F0A7EF85F0BBEF85F0600004
:100B5000EBF0D9FF6000EFF0DAFF2E0EDE18D8A41C
:100B6000B4EF85F0B6EF85F0BBEF85F056883A4AD2
:100B70003B2AA0EF85F0D00E3E6EFF0E3F6E600068
:100B8000EBF0D9FF6000EFF0DAFFDF50406E416A12
:100B90003E5040263F50412241500AE10A0E405C3F
:100BA000D8A0D5EF85F0D8EF85F0010ED9EF85F00C
:100BB000000E4C6E4D6A4C504D10D8A4E2EF85F0FB
:100BC000E4EF85F0E6EF85F03EEF86F05682090E01
:100BD00059185A10D8B4EFEF85F0F1EF85F031EFE6
:100BE00086F056A8F6EF85F0F8EF85F0FBEF85F07C
:100BF0005706D8A05806594A5A2A60006CF101F0ED
:100C0000600070F102F0600074F103F0600078F1B0
:100C100004F00A0E056E000E066E000E076E000E42
:100C2000086E18ECD5F0600004F05BF0600008F08E
:100C30005CF060000CF05DF0600010F05EF06000B1
:100C4000EBF0D9FF6000EFF0DAFFDF503E6ED00E20
:100C50003E263E505B26000E5C225D225E223AEF6D
:100C600086F056B836EF86F038EF86F03AEF86F029
:100C7000574A582A3A4A3B2AA0EF85F0000E5A6E8E
:100C8000000E596E6000EBF0D9FF6000EFF0DAFF64
:100C9000650EDE18D8B44FEF86F051EF86F060EFA6
:100CA00086F06000EBF0D9FF6000EFF0DAFF450E50
:100CB000DE18D8A45EEF86F060EF86F065EF87F06F
:100CC0003A4A3B2A6000EBF0D9FF6000EFF0DAFF10
:100CD0002D0EDE18D8A46FEF86F071EF86F076EF58
:100CE00086F056863A4A3B2A87EF86F06000EBF0A2
:100CF000D9FF6000EFF0DAFF2B0EDE18D8A483EFE7
:100D000086F085EF86F087EF86F03A4A3B2A60004E
:100D1000EBF0D9FF6000EFF0DAFF300EDE18D8B448
:100D200094EF86F096EF86F085EF86F0D00E3E6E5B
:100D3000FF0E3F6E6000EBF0D9FF6000EFF0DAFFCE
:100D4000DF50406E416A3E5040263F5041224150A4
:100D50000AE10A0E405CD8A0B0EF86F0B3EF86F04F
:100D6000010EB4EF86F0000E4E6E4F6A4E504F10DB
:100D7000D8B4BDEF86F0BFEF86F05AEF87F0600081
:100D8000EBF0D9FF6000EFF0DAFFDF503E6ED00EDF
:100D90003E263E50596E5A6A3A4A3B2AD00E3E6E63
:100DA000FF0E3F6E6000EBF0D9FF6000EFF0DAFF5E
:100DB000DF50406E416A3E5040263F504122415034
:100DC0000AE10A0E405CD8A0E8EF86F0EBEF86F06F
:100DD000010EECEF86F0000E506E516A505051102B
:100DE000D8B4F5EF86F0F7EF86F05AEF87F06000A1
:100DF000EBF0D9FF6000EFF0DAFFDF503E6ED00E6F
:100E00003E26600064F101F0600068F102F0000E1F
:100E1000046E0A0E036E16ECDCF03E500124596E8F
:100E2000000E02205A6E3A4A3B2AD00E3E6EFF0E4A
:100E30003F6E6000EBF0D9FF6000EFF0DAFFDF50AB
:100E4000406E416A3E5040263F50412241500AE1E7
:100E50000A0E405CD8A02FEF87F032EF87F0010E2A
:100E600033EF87F0000E526E536A52505310D8B4CD
:100E70003CEF87F03EEF87F05AEF87F06000EBF031
:100E8000D9FF6000EFF0DAFFDF503E6ED00E3E2655
:100E9000600064F101F0600068F102F0000E046E81
:100EA0000A0E036E16ECDCF03E500124596E000E63
:100EB00002205A6E56A65FEF87F061EF87F065EF6C
:100EC00087F0596C5A1ED8B05A2A595057265A5092
:100ED00058223C503D10D8B470EF87F072EF87F085
:100EE00085EF87F056A277EF87F079EF87F085EFEF
:100EF00087F06000F3F0D9FF6000F7F0DAFF6000E0
:100F0000EBF0DEFF6000EFF0DDFF60006CF107F05A
:100F1000600070F108F0600074F109F0600078F191
:100F20000AF0000E69ECBFF060001CF05BF060009E
:100F300020F05CF0600024F05DF0600028F05EF0CE
:100F400060006CF101F0600070F102F0600074F17B
:100F500003F0600078F104F0000E056E000E066EDE
:100F6000000E076E000E086E3AECD1F0D8A0BBEF71
:100F700087F0BDEF87F0C7EF87F0000E3A6E000EE6
:100F80003B6E000E3C6E000E3D6E45EF89F058BE84
:100F9000CEEF87F0CCEF87F070EF88F0576C581EDB
:100FA000D8B0582AFAEF87F060006CF101F06000C9
:100FB00070F102F0600074F103F0600078F104F069
:100FC000F90E056E020E066E150E076E500E086EB7
:100FD00007ECACF0600004F05BF0600008F05CF03F
:100FE00060000CF05DF0600010F05EF0F60E572629
:100FF000FF0E582258BE08EF88F0585007E10A0E3D
:10100000575CD8B006EF88F008EF88F0D4EF87F08F
:101010002FEF88F060006CF101F0600070F102F0D9
:10102000600074F103F0600078F104F0000E056ECA
:10103000000E066E200E076E410E086E07ECACF037
:10104000600004F05BF0600008F05CF060000CF001
:101050005DF0600010F05EF05706D8A058065750BB
:101060005810D8A436EF88F038EF88F00AEF88F0EF
:1010700060006CF12EF0600070F12FF0600074F1F0
:1010800030F0600078F131F0000E326E000E336EF9
:10109000800E346E000E356E0DECC8F0D8B053EFF4
:1010A00088F055EF88F018EF89F056A05AEF88F0D5
:1010B0005CEF88F066EF88F0000E3A6E000E3B6E33
:1010C000800E3C6E800E3D6E45EF89F0000E3A6E4C
:1010D000000E3B6E800E3C6E000E3D6E45EF89F0BB
:1010E00058BE7BEF88F0585008E15704D8A07BEF3A
:1010F00088F07DEF88F018EF89F0A5EF88F06000A8
:101100006CF115F0600070F116F0600074F117F0EA
:10111000600078F118F0F90E196E020E1A6E150EB5
:101120001B6E500E1C6EC2ECA9F0600054F05BF018
:10113000600058F05CF060005CF05DF0600060F012
:101140005EF0F60E5726FF0E5822585007E10A0EA1
:10115000575CD8B0AEEF88F0B0EF88F07FEF88F042
:10116000D7EF88F060006CF115F0600070F116F0B8
:10117000600074F117F0600078F118F0000E196E3D
:10118000000E1A6E200E1B6E410E1C6EC2ECA9F0F2
:10119000600054F05BF0600058F05CF060005CF0C0
:1011A0005DF0600060F05EF05706D8A0580657501A
:1011B0005810D8A4DEEF88F0E0EF88F0B2EF88F0A6
:1011C000FF0E2E6EFF0E2F6E7F0E306E7F0E316E75
:1011D00060006CF132F0600070F133F0600074F187
:1011E00034F0600078F135F00DECC8F0D8B0FBEFCA
:1011F00088F0FDEF88F018EF89F056A002EF89F033
:1012000004EF89F00EEF89F0000E3A6E000E3B6E8F
:10121000800E3C6E800E3D6E45EF89F0000E3A6EFA
:10122000000E3B6E800E3C6E000E3D6E45EF89F069
:1012300056A01DEF89F01FEF89F039EF89F06000AB
:101240006CF101F0600070F102F0600074F103F0E5
:10125000600078F104F056ECDAF0600004F05BF026
:10126000600008F05CF060000CF05DF0600010F0D1
:101270005EF060006CF13AF0600070F13BF06000ED
:1012800074F13CF0600078F13DF01200000E0001B6
:101290007B6F000E7A6F600028F18CF060002CF1FB
:1012A0008DF0600030F18EF0600034F18FF08FBF70
:1012B0005EEF89F05CEF89F07CEF89F0000E7B6FC8
:1012C000010E7A6F600030F201F0600034F202F03B
:1012D000600038F203F060003CF204F056ECDAF003
:1012E000600004F08CF0600008F08DF060000CF0FD
:1012F0008EF0600010F08FF0000E0001936F000E72
:10130000926F6000FCF47FF0600000F580F07A518D
:101310007B11D8A48EEF89F090EF89F098EF89F0D7
:10132000010143A596EF89F098EF89F0B4EF89F0B9
:1013300000017A517B11D8A4A0EF89F0A2EF89F0C7
:10134000A8EF89F0000E656F2B0E646FACEF89F08B
:10135000000E656F2D0E646F600090F19AF4924B51
:10136000932B7F07D8A08007600030F201F0600067
:1013700034F202F0600038F203F060003CF204F056
:101380004DECC5F001040210D8A4C9EF89F0CBEFF1
:1013900089F028EF8AF0BF0E4F6EFF0E506E4E5050
:1013A000516E526A4F5051265050522252500AE10B
:1013B0001A0E515CD8A0DFEF89F0E2EF89F0010E40
:1013C000E3EF89F0000E0001666F676B66516711ED
:1013D000D8B4EDEF89F0EFEF89F0FDEF89F09A0EC8
:1013E0009225056E040E9321066E9E0E076EFF0E6B
:1013F000086E51ECD5F009EF8AF09A0E9225056E31
:10140000040E9321066EA60E076EFF0E086E51ECB9
:10141000D5F00001FD0E7F27FF0E8023600020F134
:1014200011F0600024F112F09A0E136E040E146E87
:101430006000FCF115F0600000F216F0EDECCAF06F
:10144000600044F048F0600048F049F013EF90F07D
:10145000600030F201F0600034F202F0600038F217
:1014600003F060003CF204F04DECC5F001500210B6
:10147000D8A43DEF8AF03FEF8AF07FEF8AF0BF0EED
:101480004F6EFF0E506E4E50516E526A4F505126A5
:101490005050522252500AE11A0E515CD8A053EF1C
:1014A0008AF056EF8AF0010E57EF8AF0000E000125
:1014B000686F696B68516911D8B461EF8AF063EFA6
:1014C0008AF071EF8AF09A0E9225056E040E932130
:1014D000066EA20E076EFF0E086E51ECD5F009EFF6
:1014E0008AF09A0E9225056E040E9321066EAA0EBE
:1014F000076EFF0E086E51ECD5F009EF8AF0000E72
:101500000001946F000E956F800E966F3F0E976FDF
:10151000000E916F000E906F600030F201F06000DD
:1015200034F202F0600038F203F060003CF204F0A4
:10153000000E056E000E066E000E076E000E086EA1
:101540003AECD1F0D8B0A7EF8AF0A9EF8AF050EFCB
:101550008BF0D0EF8AF0600050F215F0600054F28A
:1015600016F0600058F217F060005CF218F0000E00
:10157000196E000E1A6E200E1B6E410E1C6EC2EC10
:10158000A9F0600054F094F0600058F095F060000D
:101590005CF096F0600060F097F00001904B912BAA
:1015A000600030F22EF0600034F22FF0600038F26C
:1015B00030F060003CF231F0000E196E000E1A6E31
:1015C000200E1B6E410E1C6E600050F215F0600084
:1015D00054F216F0600058F217F060005CF218F058
:1015E000C2ECA9F0600054F032F0600058F033F023
:1015F00060005CF034F0600060F035F00DECC8F095
:10160000D8B005EF8BF007EF8BF0ABEF8AF02FEF40
:101610008BF0600050F201F0600054F202F06000C4
:1016200058F203F060005CF204F0000E056E000E4C
:10163000066E200E076E410E086E07ECACF06000DF
:1016400004F094F0600008F095F060000CF096F063
:10165000600010F097F000019007D8A0910760009B
:1016600030F22EF0600034F22FF0600038F230F0EB
:1016700060003CF231F0600050F232F0600054F251
:1016800033F0600058F234F060005CF235F00DEC9D
:10169000C8F0D8A04EEF8BF050EF8BF009EF8BF035
:1016A000600038F107F0086A2BECD6F00750000113
:1016B000816F600004F27EF0670E8119D8A463EF99
:1016C0008BF065EF8BF08FEF8BF0010141514211F0
:1016D000D8A46DEF8BF06FEF8BF073EF8BF0000EF3
:1016E000426F010E416F42BF80EF8BF0425106E125
:1016F0004105D8B07EEF8BF080EF8BF087EF8BF059
:10170000000E00017D6F060E7C6F99EF8BF060007C
:1017100004F57CF0600008F57DF099EF8BF0010195
:1017200042BF95EF8BF097EF8BF080EF8BF087EF58
:101730008BF0670E00018119D8A4A1EF8BF0A3EF05
:101740008BF0D4EF8BF091AFB1EF8BF0FC0E905D8E
:10175000FF0E9159D8A0AFEF8BF0B1EF8BF0D2EF25
:101760008BF0FF0E4F6EFF0E506E6000F0F151F0E7
:101770006000F4F152F04F505126505052229051D7
:10178000515C5250800A536E9151800A5358D8A030
:10179000CCEF8BF0CEEF8BF0D2EF8BF0660E7E6F3E
:1017A000D4EF8BF0650E7E6F6000F0F174F0600096
:1017B000F4F175F0670E8119D8A4E1EF8BF0E3EF37
:1017C0008BF0F3EF8BF0660E7E19D8A4EAEF8BF066
:1017D000ECEF8BF0F5EF8BF091BFF3EF8BF0F1EFC7
:1017E0008BF0F5EF8BF0744B752B660E7E19D8A439
:1017F000FCEF8BF0FEEF8BF01EEF8CF091BF05EF4E
:101800008CF003EF8CF011EF8CF0000E946F000E53
:10181000956F800E966F3F0E976F000E916F000EC2
:10182000906F670E8119D8B418EF8CF01AEF8CF016
:101830001EEF8CF09051742791517523000E8B6F21
:10184000000E8A6F600030F282F0600034F283F0A4
:10185000600038F284F060003CF285F0600050F2E5
:1018600060F0600054F261F0600058F262F06000D5
:101870005CF263F0E9EF8CF0600008F201F06000C8
:101880000CF202F0600010F203F0600014F204F0B9
:10189000600050F205F0600054F206F0600058F26B
:1018A00007F060005CF208F007ECACF0600004F0B8
:1018B0001AF0600008F01BF060000CF01CF06000F3
:1018C00010F01DF0E6ECB9F0600068F086F0600002
:1018D0006CF087F0600070F088F0600074F089F0C0
:1018E000600018F23EF060001CF23FF0600020F251
:1018F00040F0600024F241F082ECC7F06000F8F0A4
:1019000078F06000FCF079F0600008F23EF06000D2
:101910000CF23FF0600010F240F0600014F241F071
:10192000600050F219F0600054F21AF0600058F2B2
:101930001BF060005CF21CF0600018F215F0600013
:101940001CF216F0600020F217F0600024F218F08C
:10195000C2ECA9F0600054F042F0600058F043F08F
:1019600060005CF044F0600060F045F054ECD7F0AB
:101970006000F8F082F06000FCF083F0600000F19D
:1019800084F0600004F185F0600050F201F0600026
:1019900054F202F0600058F203F060005CF204F0D0
:1019A000000E056E000E066E200E076E410E086ECC
:1019B00007ECACF0600004F094F0600008F095F0E3
:1019C00060000CF096F0600010F097F000018A4B78
:1019D0008B2B74518A5D8B51800A4F6E7551800A32
:1019E0004F58D8A0F6EF8CF0F8EF8CF03CEF8CF06D
:1019F000600050F215F0600054F216F0600058F2EA
:101A000017F060005CF218F0000E196E000E1A6EEE
:101A1000A00E1B6E400E1C6EC2ECA9F0600054F0CC
:101A200086F0600058F087F060005CF088F060009D
:101A300060F089F0600008F22EF060000CF22FF0E8
:101A4000600010F230F0600014F231F0600018F223
:101A500032F060001CF233F0600020F234F06000DD
:101A600024F235F00DECC8F0D8B039EF8DF03BEF33
:101A70008DF046EF8DF0000E0001866F000E876F2F
:101A8000000E886F000E896F77EF8DF0600008F20E
:101A900001F060000CF202F0600010F203F0600050
:101AA00014F204F0600018F205F060001CF206F079
:101AB000600020F207F0600024F208F03AECD1F068
:101AC000D8A065EF8DF067EF8DF077EF8DF0000116
:101AD00078B16DEF8DF06FEF8DF077EF8DF0000E38
:101AE000866F000E876F000E886F000E896F600092
:101AF00030F22EF0600034F22FF0600038F230F057
:101B000060003CF231F0600018F232F060001CF22C
:101B100033F0600020F234F0600024F235F044EC41
:101B2000A7F06000B8F082F06000BCF083F06000C5
:101B3000C0F084F06000C4F085F0600080F194F0A3
:101B4000600084F195F0600088F196F060008CF1FF
:101B500097F0650E00017E19D8B4B1EF8DF0B3EFA8
:101B60008DF0BBEF8DF0600040F276F0600044F243
:101B700077F0BFEF8DF0000E776F000E766F000EDE
:101B8000736F000E726F000E716F000E706F000E9B
:101B90008B6F000E8A6FEEEF8EF0600008F201F09E
:101BA00060000CF202F0600010F203F0600014F22A
:101BB00004F0600050F205F0600054F206F060009E
:101BC00058F207F060005CF208F007ECACF060003F
:101BD00004F01AF0600008F01BF060000CF01CF03C
:101BE000600010F01DF0E6ECB9F0600068F086F0DF
:101BF00060006CF087F0600070F088F0600074F0B6
:101C000089F0600018F23EF060001CF23FF06000C6
:101C100020F240F0600024F241F082ECC7F0600056
:101C2000F8F078F06000FCF079F0010143B91BEFA7
:101C30008EF01DEF8EF03BEF8EF0000178517911A0
:101C4000D8A425EF8EF027EF8EF03BEF8EF0670ED5
:101C50008119D8A42EEF8EF030EF8EF03BEF8EF08E
:101C600077BF37EF8EF035EF8EF03BEF8EF0704B95
:101C7000712B86EF8EF0000172517311D8A443EFDF
:101C80008EF045EF8EF06FEF8EF077BF4CEF8EF059
:101C90004AEF8EF06FEF8EF09A0E9225D96E040EF9
:101CA0009321DA6E2E0EDF6E924B932B7F07D8A016
:101CB0008007000E736F010E726F6FEF8EF09A0E39
:101CC0009225D96E040E9321DA6E300EDF6E924BA0
:101CD000932B7F07D8A080077007D8A07107705199
:101CE0007111D8A476EF8EF078EF8EF05FEF8EF062
:101CF0009A0E9225D96E040E9321DA6E7851300F28
:101D0000DF6E924B932B7F07D8A08007600008F20C
:101D10003EF060000CF23FF0600010F240F0600016
:101D200014F241F0600050F219F0600054F21AF021
:101D3000600058F21BF060005CF21CF0600018F2CA
:101D400015F060001CF216F0600020F217F0600041
:101D500024F218F0C2ECA9F0600054F042F06000E8
:101D600058F043F060005CF044F0600060F045F033
:101D700054ECD7F06000F8F082F06000FCF083F0E3
:101D8000600000F184F0600004F185F0600050F222
:101D900001F0600054F202F0600058F203F06000BD
:101DA0005CF204F0000E056E000E066E200E076E4B
:101DB000410E086E07ECACF0600004F094F0600097
:101DC00008F095F060000CF096F0600010F097F0CD
:101DD00000017607D8A077078A4B8B2B74518A5D58
:101DE0008B51800A4F6E7551800A4F58D8B0FBEF67
:101DF0008EF0FDEF8EF00BEF8FF093BF09EF8FF0B9
:101E0000935109E14B0E925DD8A009EF8FF00BEFD3
:101E10008FF0CDEF8DF072517311D8A412EF8FF0C7
:101E200014EF8FF027EF8FF0010143A91AEF8FF025
:101E30001CEF8FF027EF8FF09A0E00019225D96EDC
:101E4000040E9321DA6E2E0EDF6E924B932B9A0EB8
:101E500000019225D96E040E9321DA6E000EDF6E1A
:101E6000650E7E19D8A437EF8FF039EF8FF00EEFA3
:101E70008AF0000E8B6F4F0E8A6F9A0E8A25D96EEC
:101E8000040E8B21DA6E000EDF6E000E7B6F000EEB
:101E90007A6F91BF50EF8FF04EEF8FF058EF8FF0C9
:101EA000000E7B6F010E7A6F906D911FD8B0912B51
:101EB000000E7D6F020E7C6F8FEF8FF08A07D8A027
:101EC0008B079A0E8A25D96E040E8B21DA6E60007C
:101ED00040F201F0600044F202F0000E046E0A0EBF
:101EE000036ED8ECCFF00150300FDF6E600040F28F
:101EF00001F0600044F202F0000E046E0A0E036E60
:101F0000BAECCEF0600004F090F0600008F091F0C0
:101F100000017C07D8A07D077F07D8A080079051DB
:101F20009111D8A496EF8FF098EF8FF05EEF8FF0BD
:101F30007DBFA5EF8FF07D5106E17C05D8B0A3EF02
:101F40008FF0A5EF8FF05EEF8FF08A07D8A08B0798
:101F50007A517B11D8A4AFEF8FF0B1EF8FF0B7EFCC
:101F60008FF0000E6B6F2B0E6A6FBBEF8FF0000EC1
:101F70006B6F2D0E6A6F9A0E8A25D96E040E8B2117
:101F8000DA6E6000ABF1DFFF7F07D8A080078A0719
:101F9000D8A08B07BF0E4F6EFF0E506E4E50516E85
:101FA000526A4F5051265050522252500AE11A0E96
:101FB000515CD8A0DEEF8FF0E1EF8FF0010EE2EF81
:101FC0008FF0000E6E6F6F6B6E516F11D8A4EBEF38
:101FD0008FF0EDEF8FF0F3EF8FF0000E6D6F650E69
:101FE0006C6FF7EF8FF0000E6D6F450E6C6F9A0EF1
:101FF0008A25D96E040E8B21DA6E6000B3F1DFFF03
:102000007F07D8A080079A0E9225056E040E9321B3
:10201000066E9A0E8A25076E040E8B21086E51EC0F
:10202000D5F00EEF8AF01200000E0101F06F7FEC88
:10203000DBF0600004F024F2600008F025F260009C
:102040000CF026F2600010F027F20001E851E625BE
:10205000E96F000EE721EA6FFF0EE925D96EFF0E4A
:10206000EA21DA6E000EDF6E010EE6250101EB6F4C
:10207000000E0001E7210101EC6F6000ACF7DFF119
:102080006000B0F7E0F1F02B84EF90F06000AFF764
:10209000D9FF6000B3F7DAFF2C0EDE18D8A453EF97
:1020A00090F055EF90F082EF90F06000AFF7D9FF1D
:1020B0006000B3F7DAFF000EDF6E050EF06563EF28
:1020C00090F065EF90F069EF90F0DFECDDF02DEF30
:1020D00096F0010EEB250001E96F000E0101EC21E5
:1020E0000001EA6F0101F051020DDF0EF324D96EF9
:1020F000010EF420DA6E6000A7F3DEFF6000ABF3A0
:10210000DDFFF02BEB4BEC2B6000AFF7D9FF60004D
:10211000B3F7DAFFDF50D8A490EF90F092EF90F091
:1021200046EF90F060007CF701F0600080F702F06D
:10213000E70E036EFF0E046E60ECD3F00150021048
:10214000D8A4A5EF90F0A7EF90F0F8EF90F0010180
:10215000F005D8A4AEEF90F0B0EF90F0F8EF90F06B
:10216000B5ECB8F0600004F0EDF1600008F0EEF1BD
:10217000760E0C6EFF0E0D6EB5ECDDF044ECB6F095
:102180000101ED51EE11D8A4C8EF90F0CAEF90F024
:10219000D0EF90F07E0ECD6FFF0ECE6FD4EF90F0AB
:1021A000840ECD6FFF0ECE6F600034F70CF0600030
:1021B00038F70DF0B5ECDDF0C30E0001B86F010E7D
:1021C000B96F990EBA6FFF0EBB6F6000B4F7BCF029
:1021D0006000B8F7BDF00DECD8F0C30E056E010E2F
:1021E000066EE6ECD3F0230EF4ECD6F02DEF96F06D
:1021F00060007CF701F0600080F702F0DF0E036EF4
:10220000FF0E046E60ECD3F001500210D8A40BEF67
:1022100091F00DEF91F052EF91F0020E0101F019E3
:10222000D8A415EF91F017EF91F052EF91F0040E52
:102230006F651DEF91F01FEF91F029EF91F0000E07
:10224000706F3A0E0C6EFE0E0D6EB5ECDDF02DEFDC
:1022500096F0600084F70DF0600088F70EF092ECC5
:10226000D6F00009D8B437EF91F039EF91F046EF8E
:1022700091F0000E01016F6F010E706F8A0E0C6EEF
:10228000FF0E0D6EB5ECDDF02DEF96F001016F2B1A
:10229000000E706F5A0E0C6EFF0E0D6EB5ECDDF079
:1022A0002DEF96F060007CF701F0600080F702F0FF
:1022B000E30E036EFF0E046E60ECD3F001500210CB
:1022C000D8A465EF91F067EF91F07AEF91F00101FA
:1022D000F005D8A46EEF91F070EF91F07AEF91F0E5
:1022E000000E706F8A0E0C6EFF0E0D6EB5ECDDF0F9
:1022F0002DEF96F060007CF701F0600080F702F0AF
:10230000DB0E036EFF0E046E60ECD3F00150021082
:10231000D8A48DEF91F08FEF91F002EF92F0020EC2
:102320000101F019D8A497EF91F099EF91F002EF25
:1023300092F0600084F701F0600088F702F0D0ECC2
:10234000D2F00101EF6FEF29D8A4A9EF91F0ABEF24
:1023500091F0ADEF91F065EF90F0B20E0C6EFF0EC4
:102360000D6EB5ECDDF0590E0101EF25F66EF76A42
:10237000FD0EF722F86A000EF8220800F550F4EC82
:10238000D6F0000E0101F16F030EF165CAEF91F076
:10239000CCEF91F0CEEF91F0FDEF91F02C0EF4EC3C
:1023A000D6F00101F151040D6F00CCFFE9F06F0090
:1023B000D0FFEAF0EF51100D3C0E0001EB6F050E5F
:1023C000EC6FF350EB27F450EC23E951EB25D96E79
:1023D000EA51EC21DA6E6F0078FFCAF06F0078FFE7
:1023E000CBF06F0078FFCCF06F0078FFCDF076EC8B
:1023F000DAF00101F12BC4EF91F0230EF4ECD6F0EA
:102400002DEF96F060007CF701F0600080F702F09D
:10241000970E036EFF0E046E60ECD3F001500210B5
:10242000D8A415EF92F017EF92F09AEF92F0030E06
:102430000101F019D8A41FEF92F021EF92F09AEF6A
:1024400092F0600084F701F0600088F702F0D0ECB1
:10245000D2F00101EF6FEF29D8B431EF92F033EFF2
:1024600092F065EF90F060008CF70DF0600090F74F
:102470000EF0ED0E0F6E010E106EB6ECC4F00009FA
:10248000D8A445EF92F047EF92F049EF92F065EF54
:1024900090F06000DCF3CBF16000E0F3CCF1600081
:1024A000B4F7F7F06000B8F7F8F00101EF5111EC64
:1024B000B3F0A4ECDCF06000DCF3EDF16000E0F3DD
:1024C000EEF160002CF7F7F0600030F7F8F0AE0E98
:1024D0000C6EFF0E0D6EB5ECDDF0590E0101EF250F
:1024E000F66EF76AFD0EF722F86A000EF822080071
:1024F000F550F4ECD6F02C0EF4ECD6F0C30E00013F
:10250000B86F010EB96FD60EBA6FFF0EBB6F6000C9
:10251000B4F7BCF06000B8F7BDF00DECD8F0C30E16
:10252000056E010E066EE6ECD3F0230EF4ECD6F049
:102530002DEF96F060007CF701F0600080F702F06C
:10254000E50E036EFF0E046E60ECD3F00150021036
:10255000D8A4ADEF92F0AFEF92F05EEF93F0060EDD
:102560000101F019D8A4B7EF92F0B9EF92F05EEF45
:1025700093F07051D8A4BFEF92F0C1EF92F0C9EF81
:1025800092F03A0E0C6EFE0E0D6EB5ECDDF02DEFF6
:1025900096F0600084F701F0600088F702F0D0EC5C
:1025A000D2F00101EF6FEF29D8A4D9EF92F0DBEF61
:1025B00092F0DDEF92F065EF90F0000EF16F030EF8
:1025C000F165E5EF92F0E7EF92F0E9EF92F01AEFA4
:1025D00093F0F1510001E96FEA6BD890E937EA37DF
:1025E000040EE927000EEA23DF0EE925D96E010E5D
:1025F000EA21DA6E6F0078FF60F06F0074FF61F01F
:102600000101F151040DCF0EF3240001626F010EA0
:10261000F420636FCEECCBF00009D8A412EF93F056
:1026200014EF93F016EF93F065EF90F00101F12BAA
:10263000DFEF92F0F6ECD5F0000E0101F16F030E22
:10264000F16525EF93F027EF93F029EF93F05AEF20
:1026500093F0F151040DCF0EF324D96E010EF42046
:10266000DA6EF151040D6F00CCFFE9F06F00D0FF7E
:10267000EAF0EF51100D3C0E0001EB6F050EEC6F10
:10268000F350EB27F450EC23E951EB25E16EEA51CE
:10269000EC21E26E6F007BFFE6FF6F007BFFE6FF41
:1026A0006F007BFFE6FF6F007BFFE6FF0101F12B70
:1026B0001FEF93F0E3ECD1F02DEF96F060007CF784
:1026C00001F0600080F702F0A00E036EFF0E046EB2
:1026D00060ECD3F001500210D8A471EF93F073EFC7
:1026E00093F02CEF94F0020E0101F019D8A47BEFC7
:1026F00093F07DEF93F02CEF94F07051D8A483EF1A
:1027000093F085EF93F08DEF93F03A0E0C6EFE0E82
:102710000D6EB5ECDDF02DEF96F0600084F701F062
:10272000600088F702F0D90E036EFF0E046E60ECB5
:10273000D3F001500210D8A4A0EF93F0A2EF93F0D1
:10274000B4EF93F0F6ECD5F03C0E016E050E026E80
:10275000690E036EFD0E046E000E066EC00E056E51
:1027600025ECD4F05AEF93F0600084F701F060009C
:1027700088F702F0D0ECD2F00101EF6FEF29D8A476
:10278000C4EF93F0C6EF93F0C8EF93F065EF90F0CD
:10279000F6ECD5F0000E0101F16F030EF165D3EFF9
:1027A00093F0D5EF93F0D7EF93F05AEF93F0EF510A
:1027B000100D690E0001E96FFD0EEA6FF350E92775
:1027C000F450EA230101F151040DF3500001E9270F
:1027D000F450EA236000A7F3F6FF6000ABF3F7FFC5
:1027E000000EF86E09006F00D4FFEBF009006F00D7
:1027F000D4FFECF009006F00D4FFEDF009006F008A
:10280000D4FFEEF00101F151040D6F00CCFFEFF0A9
:102810006F00D0FFF0F0EF51100D3C0E0001F16F92
:10282000050EF26FF350F127F450F223EF51F1252A
:10283000D96EF051F221DA6E6000AFF3DEFF600076
:10284000B3F3DEFF6000B7F3DEFF6000BBF3DEFF33
:102850000101F12BCDEF93F060007CF701F06000F7
:1028600080F702F0CD0E036EFF0E046E60ECD3F025
:1028700001500210D8A43FEF94F041EF94F085EF9F
:1028800094F00101F005D8A448EF94F04AEF94F0D9
:1028900085EF94F08F0E0C6EFF0E0D6EB5ECDDF033
:1028A0006000D4F4CAF06000D8F4CBF06000DCF42F
:1028B000CCF06000E0F4CDF076ECDAF02C0EF4EC25
:1028C000D6F06000E8F7CAF06000ECF7CBF06000EB
:1028D000F0F7CCF06000F4F7CDF076ECDAF02C0EE7
:1028E000F4ECD6F06000D8F7CAF06000DCF7CBF06B
:1028F0006000E0F7CCF06000E4F7CDF076ECDAF0C1
:10290000230EF4ECD6F02DEF96F060007CF701F08A
:10291000600080F702F0D00E036EFF0E046E60ECD4
:10292000D3F001500210D8A498EF94F09AEF94F0ED
:1029300055EF95F0040E0101F019D8A4A2EF94F020
:10294000A4EF94F055EF95F07051D8A4AAEF94F04D
:10295000ACEF94F0B4EF94F03A0E0C6EFE0E0D6EE8
:10296000B5ECDDF02DEF96F0000EF16F020EF16583
:10297000BCEF94F0BEEF94F0C0EF94F0F1EF94F060
:10298000F1510001E96FEA6BD890E937EA37020E9E
:10299000E927000EEA23DF0EE925D96E010EEA21B0
:1029A000DA6E6F0078FF60F06F0074FF61F0010174
:1029B000F151040DCF0EF3240001626F010EF420DB
:1029C000636FCEECCBF00009D8A4E9EF94F0EBEF05
:1029D00094F0EDEF94F065EF90F00101F12BB6EF7C
:1029E00094F060005CF72EF0600060F72FF060005C
:1029F00064F730F0600068F731F0000E326E000EC0
:102A0000336E000E346E3F0E356E0DECC8F0D8A05C
:102A10000CEF95F00EEF95F065EF90F0000E2E6E36
:102A2000000E2F6EC00E306E3F0E316E60005CF7F0
:102A300032F0600060F733F0600064F734F060005B
:102A400068F735F00DECC8F0D8B029EF95F02BEF12
:102A500095F02DEF95F065EF90F0F6ECD5F0600075
:102A60003CF735F1600040F736F1600044F737F18C
:102A7000600048F738F160004CF7FAF1600050F759
:102A8000FBF1600054F7FCF1600058F7FDF16000C5
:102A90005CF7F6F1600060F7F7F1600064F7F8F1B9
:102AA000600068F7F9F15AEF93F060007CF701F0ED
:102AB000600080F702F0E10E036EFF0E046E60EC22
:102AC000D3F001500210D8A468EF95F06AEF95F0AA
:102AD000E3EF95F0030E0101F019D8A472EF95F021
:102AE00074EF95F0E3EF95F07051D8A47AEF95F07C
:102AF0007CEF95F084EF95F03A0E0C6EFE0E0D6EA5
:102B0000B5ECDDF02DEF96F0040E6F658AEF95F0D1
:102B10008CEF95F096EF95F0000E706F3A0E0C6EFC
:102B2000FE0E0D6EB5ECDDF02DEF96F0600084F733
:102B30000DF0600088F70EF092ECD6F00009D8A4F2
:102B4000A4EF95F0A6EF95F0BAEF95F001016F2B89
:102B5000040E6F65AEEF95F0B0EF95F0B2EF95F023
:102B6000000E706F5A0E0C6EFF0E0D6EB5ECDDF0A0
:102B70002DEF96F0000E01016F6F60008CF705F0ED
:102B8000600090F706F0A6ECD3F00009D8A4CBEFD4
:102B900095F0CDEF95F0CFEF95F065EF90F0F6EC76
:102BA000D5F0910E016E010E026E60008CF703F0FD
:102BB000600090F704F0000E066E040E056E25EC22
:102BC000D4F05AEF93F060007CF701F0600080F7DA
:102BD00002F0DD0E036EFF0E046E60ECD3F00150C8
:102BE0000210D8A4F6EF95F0F8EF95F005EF96F007
:102BF0000101F005D8A4FFEF95F001EF96F005EF85
:102C000096F08FECC8F02DEF96F060007CF701F0A5
:102C1000600080F702F0CA0E036EFF0E046E60ECD7
:102C2000D3F001500210D8A418EF96F01AEF96F0E6
:102C300065EF90F00101F005D8A421EF96F023EFA5
:102C400096F065EF90F0000E6D6F000E6E6F8A0EBD
:102C50000C6EFF0E0D6EB5ECDDF0120060005BF146
:102C6000D9FF60005FF1DAFF6F007BFFF6FF6F00B6
:102C700077FFF7FF000EF86E0800F550250AD8A47C
:102C800044EF96F046EF96F0E3EF9BF060005BF1C7
:102C9000D9FF60005FF1DAFFDE2A000EDD22000EB0
:102CA0000101406F000E3F6F3FC143F140C144F14D
:102CB00041694269000E0001996F000E986FB4EFF0
:102CC00096F00101438160005BF1D9FF60005FF184
:102CD000DAFFDE2A000EDD22B4EF96F00101438315
:102CE00063EF96F00101438563EF96F0010143879E
:102CF00063EF96F00101438963EF96F0000E996F40
:102D0000010E986FB4EF96F060005BF1D9FF6000A0
:102D10005FF1DAFF6F007BFFF6FF6F0077FFF7FFD1
:102D2000000EF86E0800F5505A6E5B6A5B50000AA0
:102D3000D8B49DEF96F07EEF96F05A50200AD8B4A2
:102D400076EF96F0030AD8B47AEF96F0080AD8B472
:102D500072EF96F0060AD8B461EF96F01D0AD8B467
:102D60006EEF96F07EEF96F0000198519911D8B46D
:102D7000BCEF96F0BEEF96F084EF96F0010143A110
:102D8000C4EF96F0C6EF96F0C7EF96F0439360005D
:102D90005BF1D9FF60005FF1DAFF6F007BFFF6FFA8
:102DA0006F0077FFF7FF000EF86E0800F5502A0A53
:102DB000D8A4DDEF96F0DFEF96F012EF97F0600009
:102DC0005BF1D9FF60005FF1DAFFDE2A000EDD2241
:102DD000600063F1D9FF600067F1DAFF6F007CFFEC
:102DE0005AF0020EDE266F007CFF5BF0000EDD2243
:102DF00060006BF1D9FF60006FF1DAFF6F0078FFC0
:102E00003FF16F0074FF40F140BF0BEF97F009EF07
:102E100097F064EF97F043813F6D401FD8B0402B8F
:102E200064EF97F060005BF1D9FF60005FF1DAFFBB
:102E30006F0078FF08F06F0074FF09F055ECC0F0E8
:102E4000600020F03FF1600024F040F131EF97F096
:102E500060005BF1D9FF60005FF1DAFFDE2A000E4F
:102E6000DD22D00E5A6EFF0E5B6E60005BF1D9FF63
:102E700060005FF1DAFF6F007BFFF6FF6F0077FF06
:102E8000F7FF000EF86E0800F5505C6E5D6A5A5050
:102E90005C265B505D225D500AE10A0E5C5CD8A0A6
:102EA00054EF97F057EF97F0010E58EF97F0000EA0
:102EB00000019A6F9B6B9A519B11D8A462EF97F017
:102EC00064EF97F028EF97F060005BF1D9FF6000A6
:102ED0005FF1DAFF6F007BFFF6FF6F0077FFF7FF10
:102EE000000EF86E0800F5502E0AD8A47AEF97F07D
:102EF0007CEF97F01BEF98F0000E0101426F000E7F
:102F0000416F60005BF1D9FF60005FF1DAFFDE2AFC
:102F1000000EDD2260005BF1D9FF60005FF1DAFF97
:102F20006F007BFFF6FF6F0077FFF7FF000EF86E74
:102F30000800F5502A0AD8A4A0EF97F0A2EF97F066
:102F4000C9EF97F060005BF1D9FF60005FF1DAFF35
:102F5000DE2A000EDD22600063F1D9FF600067F118
:102F6000DAFF6F007CFF5AF0020EDE266F007CFF56
:102F70005BF0000EDD2260006BF1D9FF60006FF1A5
:102F8000DAFF6F0078FF41F16F0074FF42F11BEF31
:102F900098F060005BF1D9FF60005FF1DAFF6F002D
:102FA00078FF08F06F0074FF09F055ECC0F0600086
:102FB00020F041F1600024F042F1E8EF97F060006A
:102FC0005BF1D9FF60005FF1DAFFDE2A000EDD223F
:102FD000D00E5A6EFF0E5B6E60005BF1D9FF600091
:102FE0005FF1DAFF6F007BFFF6FF6F0077FFF7FFFF
:102FF000000EF86E0800F5505C6E5D6A5A505C2653
:103000005B505D225D500AE10A0E5C5CD8A00BEFBC
:1030100098F00EEF98F0010E0FEF98F0000E0001FF
:103020009C6F9D6B9C519D11D8A419EF98F01BEFDC
:1030300098F0DFEF97F060005BF1D9FF60005FF17F
:10304000DAFF6F007BFFF6FF6F0077FFF7FF000EE0
:10305000F86E0800F550076E086A2BECD6F00750A2
:103060000001A46FA451D8B438EF98F03AEF98F06B
:1030700084EF98F060005BF1D9FF60005FF1DAFF48
:103080006F0078FF5AF06F0074FF5BF0010E5A2654
:10309000000E5B2260006BF1F6FF60006FF1F7FF3E
:1030A000000EF86E0800F550076E086A2BECD6F09B
:1030B00007500001A56FA551D8B461EF98F063EFF8
:1030C00098F084EF98F060005BF1D9FF60005FF149
:1030D000DAFF6F0078FF5AF06F0074FF5BF0020EAA
:1030E0005A26000E5B2260006BF1F6FF60006FF164
:1030F000F7FF000EF86E0800F550076E086A2BEC1B
:10310000D6F007500001A66F650EA419D8A48BEF66
:1031100098F08DEF98F0E9EF98F060005BF1D9FF3F
:1031200060005FF1DAFF6F007BFFF6FF6F0077FF53
:10313000F7FF000EF86E08006F00D4FFAFF06000DC
:103140005BF1D9FF60005FF1DAFFDE2A000EDD22BD
:10315000600063F1D9FF600067F1DAFF6F007CFF68
:103160005AF0040EDE266F007CFF5BF0000EDD22BD
:1031700060006BF1D9FF60006FF1DAFF6F0078FF3C
:10318000A0F06F0078FFA1F06F0078FFA2F06F0051
:1031900078FFA3F0600050F148F0600054F149F06E
:1031A000600080F24AF0600084F24BF0600088F228
:1031B0004CF060008CF24DF06000BCF24EF046EC3A
:1031C00089F0600020F154F0600024F155F008EF20
:1031D0009CF0A40E016E000E026EC10E036EFF0E77
:1031E000046E000E066E020E056E71ECC3F0015007
:1031F0000210D8A4FEEF98F000EF99F0A1EF99F03B
:1032000060005BF1D9FF60005FF1DAFF6F0078FFCB
:103210005AF06F0074FF5BF0010E5A26000E5B221D
:1032200060006BF1F6FF60006FF1F7FF000EF86EC3
:1032300008006F00D4FFAFF0BF0E5A6EFF0E5B6E3A
:1032400060005BF1D9FF60005FF1DAFF6F007BFF88
:10325000F6FF6F0077FFF7FF000EF86E0800F550DD
:103260005C6E5D6A5A505C265B505D225D500AE1DF
:103270001A0E5C5CD8A03FEF99F042EF99F0010E76
:1032800043EF99F0000E00019E6F9F6B9E519F11BE
:10329000D8B44DEF99F04FEF99F073EF99F06000CB
:1032A00063F1D9FF600067F1DAFF6F007CFF5AF02D
:1032B000040EDE266F007CFF5BF0000EDD22600056
:1032C0006BF1D9FF60006FF1DAFF6F0078FFA0F0BB
:1032D0006F0078FFA1F06F0078FFA2F06F0078FF19
:1032E000A3F095EF99F0600063F1D9FF600067F1FA
:1032F000DAFF6F007CFF5AF0040EDE266F007CFFC1
:103300005BF0000EDD2260006BF1D9FF60006FF111
:10331000DAFF6F0078FFA0F06F0078FFA1F06F0078
:1033200078FFA2F06F0078FFA3F0020E60005BF15F
:10333000D9FF60005FF1DAFFDE26000EDD22CAEF62
:1033400098F060005BF1D9FF60005FF1DAFF6F0079
:103350007BFFF6FF6F0077FFF7FF000EF86E0800A7
:10336000F550750AD8A4B7EF99F0B9EF99F013EFBB
:103370009AF060005BF1D9FF60005FF1DAFFDE2AAE
:10338000000EDD22600063F1D9FF600067F1DAFF13
:103390006F007CFF5AF0020EDE266F007CFF5BF0B0
:1033A000000EDD2260006BF1D9FF60006FF1DAFFE3
:1033B0006F0078FF5CF06F0074FF5DF0600070F1EB
:1033C000A7F0600074F1A8F00001A96BAA6BAB6BC9
:1033D000AC6BAD6BAE6B600050F11CF0600054F153
:1033E0001DF060009CF21EF06000A0F21FF0600073
:1033F000A4F220F06000A8F221F06000ACF222F00C
:103400006000B0F223F06000B4F224F06000B8F283
:1034100025F081ECB7F0600070F054F0600074F0BB
:1034200055F008EF9CF060005BF1D9FF60005FF1A0
:10343000DAFF6F0078FF01F06F0074FF02F0BB0E3F
:10344000036EFF0E046E000E066E020E056E71EC2A
:10345000C3F001500210D8A430EF9AF032EF9AF086
:103460006DEF9AF0020E60005BF1D9FF60005FF132
:10347000DAFFDE26000EDD22600063F1D9FF600076
:1034800067F1DAFF6F007CFF5AF0040EDE266F0052
:103490007CFF5BF0000EDD2260006BF1D9FF600065
:1034A0006FF1DAFF6F0078FF5CF06F0078FF5DF07E
:1034B0006F0078FF5EF06F0078FF5FF05C500001F6
:1034C000A76F5D50A86F5E50A96F5F50AA6FAB6B7E
:1034D000AC6BAD6BAE6BEBEF99F060005BF1D9FFBD
:1034E00060005FF1DAFF6F007BFFF6FF6F0077FF90
:1034F000F7FF000EF86E0800F550780AD8B483EF95
:103500009AF085EF9AF09DEF9AF060005BF1D9FF99
:1035100060005FF1DAFF6F007BFFF6FF6F0077FF5F
:10352000F7FF000EF86E0800F550580AD8A49BEF7C
:103530009AF09DEF9AF00CEF9BF060005BF1D9FFE1
:1035400060005FF1DAFF6F007BFFF6FF6F0077FF2F
:10355000F7FF000EF86E08006F00D4FFAFF06000B8
:103560005BF1D9FF60005FF1DAFFDE2A000EDD2299
:10357000600063F1D9FF600067F1DAFF6F007CFF44
:103580005AF0020EDE266F007CFF5BF0000EDD229B
:1035900060006BF1D9FF60006FF1DAFF6F0078FF18
:1035A0005CF06F0074FF5DF0600070F1A7F06000E8
:1035B00074F1A8F00001A96BAA6BAB6BAC6BAD6B9F
:1035C000AE6B600050F11CF0600054F11DF0600023
:1035D0009CF21EF06000A0F21FF06000A4F220F048
:1035E0006000A8F221F06000ACF222F06000B0F2BE
:1035F00023F06000B4F224F06000B8F225F060001F
:10360000BCF226F0AFECB4F0600070F054F0600053
:1036100074F055F008EF9CF060005BF1D9FF60009A
:103620005FF1DAFF6F0078FF01F06F0074FF02F0C6
:10363000C70E036EFF0E046E000E066E020E056EC0
:1036400071ECC3F001500210D8B429EF9BF02BEFBE
:103650009BF04AEF9BF060005BF1D9FF60005FF1E7
:10366000DAFF6F0078FF01F06F0074FF02F0BE0E0A
:10367000036EFF0E046E000E066E020E056E71ECF8
:10368000C3F001500210D8A448EF9BF04AEF9BF022
:10369000A1EF9BF060005BF1D9FF60005FF1DAFF02
:1036A0006F0078FF5AF06F0074FF5BF0010E5A262E
:1036B000000E5B2260006BF1F6FF60006FF1F7FF18
:1036C000000EF86E08006F00D4FFAFF0020E60002D
:1036D0005BF1D9FF60005FF1DAFFDE26000EDD222C
:1036E000600063F1D9FF600067F1DAFF6F007CFFD3
:1036F0005AF0040EDE266F007CFF5BF0000EDD2228
:1037000060006BF1D9FF60006FF1DAFF6F0078FFA6
:103710005CF06F0078FF5DF06F0078FF5EF06F0087
:1037200078FF5FF05C500001A76F5D50A86F5E509E
:10373000A96F5F50AA6FAB6BAC6BAD6BAE6BE1EF7B
:103740009AF060005BF1D9FF60005FF1DAFF6F0073
:103750007BFFF6FF6F0077FFF7FF000EF86E0800A3
:10376000F550250AD8A4B7EF9BF0B9EF9BF0D4EF42
:103770009BF060005BF1D9FF60005FF1DAFFDE2AA9
:10378000000EDD22000E026E250E016E600050F16B
:1037900003F0600054F104F0A8ECCCF0000E556E7C
:1037A000010E546E08EF9CF060005BF1D9FF6000E1
:1037B0005FF1DAFFDE2A000EDD22000E556E000EEC
:1037C000546E08EF9CF060005BF1D9FF60005FF180
:1037D000DAFF6F007BFFF6FF6F0077FFF7FF000E49
:1037E000F86E0800F550016E026A600050F103F0B7
:1037F000600054F104F0A8ECCCF060005BF1D9FF5C
:1038000060005FF1DAFFDE2A000EDD22CEEF9BF0D2
:103810001200000E0001E66F010EE76F45EFA0F009
:10382000000E0101BA6F000EB96F600053F3D9FFAB
:10383000600057F3DAFF1A0EDE6E010EDD6EB90E70
:103840003E6E010E3F6E37ECBCF03FBE33EF9CF096
:103850003F5007E1020E3E5CD8B031EF9CF033EFF1
:103860009CF03AEF9CF0000E0001D56F000ED46F73
:1038700090EFA0F0D2ECDCF0600004F02DF16000DD
:1038800008F02EF160000CF02FF1600010F030F124
:1038900001016B516C11D8B450EF9CF052EF9CF0C9
:1038A00083EF9CF0000E496E000E486E000E4B6ECA
:1038B000C70E4A6E35ECDAF0000E496E000E486E07
:1038C000000E4B6ECD0E4A6E35ECDAF0000E496EEE
:1038D000000E486E000E4B6ED20E4A6E35ECDAF0DA
:1038E000000E496E000E486E000E4B6ED70E4A6EEB
:1038F00035ECDAF0000E0101646F000E636F000E0C
:103900006C6F000E6B6FCEA288EF9CF08BEF9CF07B
:10391000010E8CEF9CF0000E836F8351D8A493EFBF
:103920009CF095EF9CF09FEF9CF00001F951FA118B
:10393000D8B49DEF9CF09FEF9CF034EF9FF0000E09
:103940000101BA6F000EB96F600053F3D9FF600038
:1039500057F3DAFF2A0EDE6E010EDD6EB90E5B6ED6
:10396000010E5C6E6CECB1F05CBEC2EF9CF05C5082
:1039700007E1020E5B5CD8B0C0EF9CF0C2EF9CF098
:10398000C4EF9CF033EF9CF0F4ECDDF0600004F049
:10399000F7F0600008F0F8F06000B4F419F060008F
:1039A000B8F41AF06000BCF41BF06000C0F41CF026
:1039B0006000D4F415F06000D8F416F06000DCF478
:1039C00017F06000E0F418F0C2ECA9F0600054F0C9
:1039D000DEF0600058F0DFF060005CF0E0F06000C6
:1039E00060F0E1F06000B4F419F06000B8F41AF08F
:1039F0006000BCF41BF06000C0F41CF06000E8F74D
:103A000015F06000ECF716F06000F0F717F06000BA
:103A1000F4F718F0C2ECA9F0600054F032F0600046
:103A200058F033F060005CF034F0600060F035F086
:103A30006000B4F419F06000B8F41AF06000BCF44F
:103A40001BF06000C0F41CF0600078F315F060001B
:103A50007CF316F0600080F317F0600084F318F038
:103A6000C2ECA9F0600054F02EF0600058F02FF086
:103A700060005CF030F0600060F031F044ECA7F0E2
:103A80006000B8F0E2F06000BCF0E3F06000C0F06D
:103A9000E4F06000C4F0E5F06000DCF307F06000E3
:103AA000E0F308F0096A0A6A000E69ECBFF06000F2
:103AB0001CF019F0600020F01AF0600024F01BF0F8
:103AC000600028F01CF06000D8F732F06000DCF7EE
:103AD00033F06000E0F734F06000E4F735F06000A8
:103AE00088F32EF060008CF32FF0600090F330F03C
:103AF000600094F331F044ECA7F06000B8F015F0EA
:103B00006000BCF016F06000C0F017F06000C4F078
:103B100018F0C2ECA9F0600054F03EF0600058F0DC
:103B20003FF060005CF040F0600060F041F082EC3B
:103B3000C7F06000F8F0F7F06000FCF0F8F0010169
:103B40008351D8B4A6EF9DF0A8EF9DF0D6EF9DF07D
:103B50000001E651D8A4AFEF9DF0B1EF9DF0D6EF94
:103B60009DF0000E0101BA6F000EB96F600053F3B3
:103B7000D9FF600057F3DAFF3A0EDE6E010EDD6EFC
:103B8000B90E5D6E010E5E6E46ECA4F05EBED4EF23
:103B90009DF05E5007E1020E5D5CD8B0D2EF9DF063
:103BA000D4EF9DF0D6EF9DF033EF9CF00001F9517A
:103BB000FA11D8B4DEEF9DF0E0EF9DF007EF9EF034
:103BC000000E0101BA6F000EB96F600053F3D9FF08
:103BD000600057F3DAFF470EDE6E010EDD6EB90EA0
:103BE0000001CF6F010ED06F91ECA0F00001D0BFAB
:103BF00005EF9EF0D05107E1020ECF5DD8B003EF84
:103C00009EF005EF9EF007EF9EF033EF9CF0640E00
:103C1000016E030E026EFD0E036EFF0E046E000EAB
:103C2000066E010E056E71ECC3F001500210D8A4AF
:103C30001CEF9EF01EEF9EF0F2EF9EF0000E196E4C
:103C4000000E1A6E000E1B6E400E1C6E600064F6B5
:103C500015F0600068F616F060006CF617F0600072
:103C600070F618F0C2ECA9F0600054F02EF060007D
:103C700058F02FF060005CF030F0600060F031F040
:103C8000000E326E000E336EA80E346EC10E356E0D
:103C900044ECA7F06000B8F099F16000BCF09AF134
:103CA0006000C0F09BF16000C4F09CF1000E2E6E2D
:103CB000000E2F6EA00E306E400E316E600064F666
:103CC00032F0600068F633F060006CF634F06000AB
:103CD00070F635F00DECC8F0D8B071EF9EF073EFD0
:103CE0009EF099EF9EF0600064F62EF0600068F69A
:103CF0002FF060006CF630F0600070F631F0000ECE
:103D0000326E000E336E200E346E410E356E0DECA9
:103D1000C8F0D8B08EEF9EF090EF9EF099EF9EF035
:103D2000000E0101996F000E9A6FA00E9B6F400E5E
:103D30009C6F01019CBFA1EF9EF09FEF9EF0A9EF49
:103D40009EF0000E996F000E9A6F000E9B6F000E92
:103D50009C6F600064F63EF0600068F63FF0600023
:103D60006CF640F0600070F641F082ECC7F0600045
:103D7000F8F05BF16000FCF05CF1D80E0001B86F68
:103D8000000EB96FD60EBA6FFF0EBB6F60006CF5F8
:103D9000BCF0600070F5BDF00DECD8F0EA0E056ED9
:103DA000020E066ED40E076EFF0E086E51ECD5F0B3
:103DB000EA0E0F6E020E106ED80E116E000E126E0D
:103DC000FFECDBF0EA0E0F6E020E106ED40E116ED9
:103DD000FF0E126EFFECDBF0EA0E056E020E066EB1
:103DE000E6ECD3F059ECDCF0000E0001FA6F000EA7
:103DF000F96FEA0E016E020E026E000E046E000EE6
:103E0000036E000E066E080E056E3AECC1F07FECF4
:103E1000DBF0F40E01240201846F010E0220856F95
:103E2000000E0320866F000E0420876F600053F39E
:103E3000D9FF600057F3DAFF5B0EDE6E010EDD6E18
:103E40007FECDBF001500201845D02508559035084
:103E5000865904508759D8A030EF9FF032EF9FF079
:103E600034EF9FF033EF9CF0000E0101BA6F000EAB
:103E7000B96F600053F3D9FF600057F3DAFF5D0EAE
:103E8000DE6E010EDD6EB90E2E6E010E2F6E52EC3F
:103E9000BDF02FBE57EF9FF02F5007E1020E2E5CB2
:103EA000D8B055EF9FF057EF9FF059EF9FF033EFE9
:103EB0009CF0DFECDCF0600004F02EF0600008F015
:103EC0002FF060000CF030F0600010F031F0000EC8
:103ED000326E000E336E200E346EC10E356E44EC21
:103EE000A7F06000B8F099F16000BCF09AF16000B2
:103EF000C0F09BF16000C4F09CF1EC0E196ED10E85
:103F00001A6E350E1B6E420E1C6E600064F615F0C4
:103F1000600068F616F060006CF617F0600070F64E
:103F200018F0C2ECA9F0600054F02EF0600058F0D8
:103F30002FF060005CF030F0600060F031F0BC0EFB
:103F4000326E740E336E910E346EC00E356E44ECCC
:103F5000A7F06000B8F099F16000BCF09AF1600041
:103F6000C0F09BF16000C4F09CF1010E0101292515
:103F7000296F000E2A212A6F000E2B212B6F000EB5
:103F80002C212C6F2CBFD0EF9FF02C512B112A111C
:103F900009E1C90E295DD8A0D0EF9FF0D2EF9FF0C4
:103FA0002AEFA0F09CBFD9EF9FF0D7EF9FF0E1EF91
:103FB0009FF0000E996F000E9A6F000E9B6F000E1F
:103FC0009C6F000E2E6E000E2F6EC60E306E420ECF
:103FD000316E600064F632F0600068F633F0600025
:103FE0006CF634F0600070F635F00DECC8F0D8B027
:103FF000FCEF9FF0FEEF9FF007EFA0F0000E010135
:10400000996F000E9A6FC60E9B6F420E9C6F6000F8
:1040100064F63EF0600068F63FF060006CF640F039
:10402000600070F641F082ECC7F06000F8F048F0F4
:104030006000FCF049F0000E4B6ECF0E4A6E35EC7E
:10404000DAF0000E0101296F000E2A6F000E2B6FAF
:10405000000E2C6F000E0001E76F600053F3D9FFD4
:10406000600057F3DAFF670EDE6E010EDD6EE7517A
:10407000D8A43DEFA0F03FEFA0F010EF9CF0000EB1
:10408000D56F010ED46F90EFA0F0600053F3D9FF0D
:10409000600057F3DAFF6F0078FFD6F06F0074FF0F
:1040A000D7F0D751000AD8B45CEFA0F0010AD8B419
:1040B00063EFA0F082EFA0F0D651000AD8B410EF61
:1040C0009CF082EFA0F0D6511A0AD8B41FEF9CF0F2
:1040D000300AD8B4AEEF9CF0100AD8B4C0EF9DF00F
:1040E0007D0AD8B4EFEF9DF01C0AD8B420EF9FF002
:1040F000060AD8B443EF9FF03A0AD8B437EFA0F0DD
:1041000082EFA0F0600053F3D9FF600057F3DAFFAD
:10411000000EDE6E000EDD6E000ED56F030ED46F46
:104120001200E8EFA3F0640E016E030E026EE90EBA
:10413000036EFF0E046E000E066E010E056E71EC2E
:10414000C3F001500210D8A4A8EFA0F0AAEFA0F08D
:10415000D9EFA0F036ECDEF0000E01019E6F000EEC
:104160009D6F60003FF3D9FF600043F3DAFF8F0ECD
:10417000DE6E000EDD6E9D0E0001CA6F010ECB6F6C
:104180001EECC4F00001CBBFD1EFA0F0CB5107E192
:10419000020ECA5DD8B0CFEFA0F0D1EFA0F0D7EFFC
:1041A000A0F0000ED06F000ECF6F45EFA4F0D7EF58
:1041B000A3F0640E016E030E026EEB0E036EFF0E93
:1041C000046E000E066E010E056E71ECC3F0015018
:1041D0000210D8A4EEEFA0F0F0EFA0F019EFA1F0DC
:1041E00046ECDEF0000E01019E6F000E9D6F600038
:1041F0003FF3D9FF600043F3DAFF930EDE6E000E4B
:10420000DD6E9D0E0001CA6F010ECB6F1EECC4F077
:104210000001CBBF17EFA1F0CB5107E1020ECA5D41
:10422000D8B015EFA1F017EFA1F0D7EFA0F0D1EFC4
:10423000A0F0640E016E030E026E580E036EFE0EA9
:10424000046E000E066E010E056E71ECC3F0015097
:104250000210D8A42EEFA1F030EFA1F059EFA1F099
:104260001EECDEF0000E01019E6F000E9D6F6000DF
:104270003FF3D9FF600043F3DAFF970EDE6E000EC6
:10428000DD6E9D0E0001CA6F010ECB6F1EECC4F0F7
:104290000001CBBF57EFA1F0CB5107E1020ECA5D81
:1042A000D8B055EFA1F057EFA1F0D7EFA0F0D1EFC4
:1042B000A0F0640E016E030E026EED0E036EFF0E93
:1042C000046E000E066E010E056E71ECC3F0015017
:1042D0000210D8A46EEFA1F070EFA1F099EFA1F059
:1042E00026ECDEF0000E01019E6F000E9D6F600057
:1042F0003FF3D9FF600043F3DAFF9B0EDE6E000E42
:10430000DD6E9D0E0001CA6F010ECB6F1EECC4F076
:104310000001CBBF97EFA1F0CB5107E1020ECA5DC0
:10432000D8B095EFA1F097EFA1F0D7EFA0F0D1EFC3
:10433000A0F0640E016E030E026E020E036EFF0EFD
:10434000046E000E066E010E056E71ECC3F0015096
:104350000210D8A4AEEFA1F0B0EFA1F0D9EFA1F018
:104360003EECDEF0000E01019E6F000E9D6F6000BE
:104370003FF3D9FF600043F3DAFF9F0EDE6E000EBD
:10438000DD6E9D0E0001CA6F010ECB6F1EECC4F0F6
:104390000001CBBFD7EFA1F0CB5107E1020ECA5D00
:1043A000D8B0D5EFA1F0D7EFA1F0D7EFA0F0D1EFC3
:1043B000A0F0640E016E030E026E350E036EFF0E4A
:1043C000046E000E066E010E056E71ECC3F0015016
:1043D0000210D8A4EEEFA1F0F0EFA1F019EFA2F0D7
:1043E0002EECDEF0000E01019E6F000E9D6F60004E
:1043F0003FF3D9FF600043F3DAFFA30EDE6E000E39
:10440000DD6E9D0E0001CA6F010ECB6F1EECC4F075
:104410000001CBBF17EFA2F0CB5107E1020ECA5D3E
:10442000D8B015EFA2F017EFA2F0D7EFA0F0D1EFC0
:10443000A0F0640E016E030E026EEF0E036EFF0E0F
:10444000046E000E066E010E056E71ECC3F0015095
:104450000210D8A42EEFA2F030EFA2F059EFA2F094
:1044600032ECDEF0000E01019E6F000E9D6F6000C9
:104470003FF3D9FF600043F3DAFFA90EDE6E000EB2
:10448000DD6E9D0E0001CA6F010ECB6F1EECC4F0F5
:104490000001CBBF57EFA2F0CB5107E1020ECA5D7E
:1044A000D8B055EFA2F057EFA2F0D7EFA0F0D1EFC0
:1044B000A0F0640E016E030E026EF10E036EFF0E8D
:1044C000046E000E066E010E056E71ECC3F0015015
:1044D0000210D8A46EEFA2F070EFA2F099EFA2F054
:1044E00042ECDEF0000E01019E6F000E9D6F600039
:1044F0003FF3D9FF600043F3DAFFAD0EDE6E000E2E
:10450000DD6E9D0E0001CA6F010ECB6F1EECC4F074
:104510000001CBBF97EFA2F0CB5107E1020ECA5DBD
:10452000D8B095EFA2F097EFA2F0D7EFA0F0D1EFBF
:10453000A0F0640E016E030E026EF30E036EFF0E0A
:10454000046E000E066E010E056E71ECC3F0015094
:104550000210D8A4AEEFA2F0B0EFA2F0D9EFA2F013
:104560001AECDEF0000E01019E6F000E9D6F6000E0
:104570003FF3D9FF600043F3DAFFB10EDE6E000EA9
:10458000DD6E9D0E0001CA6F010ECB6F1EECC4F0F4
:104590000001CBBFD7EFA2F0CB5107E1020ECA5DFD
:1045A000D8B0D5EFA2F0D7EFA2F0D7EFA0F0D1EFBF
:1045B000A0F0640E016E030E026EF50E036EFF0E88
:1045C000046E000E066E010E056E71ECC3F0015014
:1045D0000210D8A4EEEFA2F0F0EFA2F019EFA3F0D2
:1045E00022ECDEF0000E01019E6F000E9D6F600058
:1045F0003FF3D9FF600043F3DAFFB50EDE6E000E25
:10460000DD6E9D0E0001CA6F010ECB6F1EECC4F073
:104610000001CBBF17EFA3F0CB5107E1020ECA5D3B
:10462000D8B015EFA3F017EFA3F0D7EFA0F0D1EFBC
:10463000A0F0640E016E030E026EF70E036EFF0E05
:10464000046E000E066E010E056E71ECC3F0015093
:104650000210D8A42EEFA3F030EFA3F059EFA3F08F
:104660003AECDEF0000E01019E6F000E9D6F6000BF
:104670003FF3D9FF600043F3DAFFB90EDE6E000EA0
:10468000DD6E9D0E0001CA6F010ECB6F1EECC4F0F3
:104690000001CBBF57EFA3F0CB5107E1020ECA5D7B
:1046A000D8B055EFA3F057EFA3F0D7EFA0F0D1EFBC
:1046B000A0F0640E016E030E026EF90E036EFF0E83
:1046C000046E000E066E010E056E71ECC3F0015013
:1046D0000210D8A46EEFA3F070EFA3F099EFA3F04F
:1046E0002AECDEF0000E01019E6F000E9D6F60004F
:1046F0003FF3D9FF600043F3DAFFBD0EDE6E000E1C
:10470000DD6E9D0E0001CA6F010ECB6F1EECC4F072
:104710000001CBBF97EFA3F0CB5107E1020ECA5DBA
:10472000D8B095EFA3F097EFA3F0D7EFA0F0D1EFBB
:10473000A0F0640E016E030E026EC20E036EFF0E39
:10474000046E000E066E010E056E71ECC3F0015092
:104750000210D8A4AEEFA3F0B0EFA3F0D7EFA0F013
:10476000000E01019E6F000E9D6F60003FF3D9FFA8
:10477000600043F3DAFFC00EDE6E000EDD6E9D0EAC
:104780000001CA6F010ECB6F1EECC4F00001CBBF5D
:10479000D5EFA3F0CB5107E1020ECA5DD8B0D3EF3D
:1047A000A3F0D5EFA3F0D7EFA0F0D1EFA0F0600019
:1047B0003FF3D9FF600043F3DAFF000EDE6E000E18
:1047C000DD6E000E0001D06F020ECF6F45EFA4F03A
:1047D00060003FF3D9FF600043F3DAFF6F0078FF1A
:1047E000D1F06F0074FFD2F00001D251000AD8B4AA
:1047F000FCEFA3F037EFA4F0D151000AD8B493EF47
:10480000A0F08F0AD8B4BBEFA0F01C0AD8B401EF17
:10481000A1F0040AD8B441EFA1F00C0AD8B481EF9A
:10482000A1F0040AD8B4C1EFA1F03C0AD8B401EF5A
:10483000A2F00A0AD8B441EFA2F0040AD8B481EF7A
:10484000A2F01C0AD8B4C1EFA2F0040AD8B401EF58
:10485000A3F00C0AD8B441EFA3F0040AD8B481EF56
:10486000A3F07D0AD8B4BFEFA3F037EFA4F0600047
:104870003FF3D9FF600043F3DAFF000EDE6E000E57
:10488000DD6E000ED06F030ECF6F1200E6EFA6F0C4
:1048900004010805D8A44FEFA4F051EFA4F080EF75
:1048A000A4F036ECDEF0BEECC2F0000E0001FF6FAB
:1048B000000EFE6F600077F1D9FF60007BF1DAFF38
:1048C0004C0EDE6E000EDD6EFE0E096E000E0A6EE0
:1048D0007BECCAF00ABE78EFA4F00A5007E1020EA2
:1048E000095CD8B076EFA4F078EFA4F07EEFA4F0E6
:1048F000000E5E6E000E5D6E43EFA7F0D6EFA6F0E1
:10490000020E0819D8A487EFA4F089EFA4F0B2EF43
:10491000A4F046ECDEF0BEECC2F0000E0001FF6F2A
:10492000000EFE6F600077F1D9FF60007BF1DAFFC7
:10493000500EDE6E000EDD6EFE0E096E000E0A6E6B
:104940007BECCAF00ABEB0EFA4F00A5007E1020EF9
:10495000095CD8B0AEEFA4F0B0EFA4F07EEFA4F005
:1049600078EFA4F0030E0819D8A4B9EFA4F0BBEFB8
:10497000A4F0E4EFA4F01EECDEF0BEECC2F0000EFA
:104980000001FF6F000EFE6F600077F1D9FF60003D
:104990007BF1DAFF550EDE6E000EDD6EFE0E096E47
:1049A000000E0A6E7BECCAF00ABEE2EFA4F00A50D9
:1049B00007E1020E095CD8B0E0EFA4F0E2EFA4F04A
:1049C0007EEFA4F078EFA4F0040E0819D8A4EBEF62
:1049D000A4F0EDEFA4F016EFA5F026ECDEF0BEECAF
:1049E000C2F0000E0001FF6F000EFE6F600077F155
:1049F000D9FF60007BF1DAFF5A0EDE6E000EDD6E2D
:104A0000FE0E096E000E0A6E7BECCAF00ABE14EFB1
:104A1000A5F00A5007E1020E095CD8B012EFA5F02C
:104A200014EFA5F07EEFA4F078EFA4F0050E0819BE
:104A3000D8A41DEFA5F01FEFA5F048EFA5F03EECC0
:104A4000DEF0BEECC2F0000E0001FF6F000EFE6F44
:104A5000600077F1D9FF60007BF1DAFF5F0EDE6E58
:104A6000000EDD6EFE0E096E000E0A6E7BECCAF0C3
:104A70000ABE46EFA5F00A5007E1020E095CD8B065
:104A800044EFA5F046EFA5F07EEFA4F078EFA4F098
:104A9000060E0819D8A44FEFA5F051EFA5F07AEF54
:104AA000A5F02EECDEF0BEECC2F0000E0001FF6FB0
:104AB000000EFE6F600077F1D9FF60007BF1DAFF36
:104AC000640EDE6E000EDD6EFE0E096E000E0A6EC6
:104AD0007BECCAF00ABE78EFA5F00A5007E1020E9F
:104AE000095CD8B076EFA5F078EFA5F07EEFA4F0E2
:104AF00078EFA4F0070E0819D8A481EFA5F083EF92
:104B0000A5F0ACEFA5F032ECDEF0BEECC2F0000E8A
:104B10000001FF6F000EFE6F600077F1D9FF6000AB
:104B20007BF1DAFF6A0EDE6E000EDD6EFE0E096EA0
:104B3000000E0A6E7BECCAF00ABEAAEFA5F00A507E
:104B400007E1020E095CD8B0A8EFA5F0AAEFA5F026
:104B50007EEFA4F078EFA4F0080E0819D8A4B3EF04
:104B6000A5F0B5EFA5F0DEEFA5F042ECDEF0BEEC6F
:104B7000C2F0000E0001FF6F000EFE6F600077F1C3
:104B8000D9FF60007BF1DAFF6F0EDE6E000EDD6E86
:104B9000FE0E096E000E0A6E7BECCAF00ABEDCEF58
:104BA000A5F00A5007E1020E095CD8B0DAEFA5F0D3
:104BB000DCEFA5F07EEFA4F078EFA4F00A0E081960
:104BC000D8A4E5EFA5F0E7EFA5F010EFA6F01AECFA
:104BD000DEF0BEECC2F0000E0001FF6F000EFE6FB3
:104BE000600077F1D9FF60007BF1DAFF730EDE6EB3
:104BF000000EDD6EFE0E096E000E0A6E7BECCAF032
:104C00000ABE0EEFA6F00A5007E1020E095CD8B00A
:104C10000CEFA6F00EEFA6F07EEFA4F078EFA4F074
:104C20000B0E0819D8A417EFA6F019EFA6F042EF63
:104C3000A6F022ECDEF0BEECC2F0000E0001FF6F29
:104C4000000EFE6F600077F1D9FF60007BF1DAFFA4
:104C5000770EDE6E000EDD6EFE0E096E000E0A6E21
:104C60007BECCAF00ABE40EFA6F00A5007E1020E44
:104C7000095CD8B03EEFA6F040EFA6F07EEFA4F0BE
:104C800078EFA4F00C0E0819D8A449EFA6F04BEF6A
:104C9000A6F074EFA6F03AECDEF0BEECC2F0000E27
:104CA0000001FF6F000EFE6F600077F1D9FF60001A
:104CB0007BF1DAFF7B0EDE6E000EDD6EFE0E096EFE
:104CC000000E0A6E7BECCAF00ABE72EFA6F00A5024
:104CD00007E1020E095CD8B070EFA6F072EFA6F003
:104CE0007EEFA4F078EFA4F00D0E0819D8A47BEFA6
:104CF000A6F07DEFA6F0A6EFA6F02AECDEF0BEEC63
:104D0000C2F0000E0001FF6F000EFE6F600077F131
:104D1000D9FF60007BF1DAFF7F0EDE6E000EDD6EE4
:104D2000FE0E096E000E0A6E7BECCAF00ABEA4EFFE
:104D3000A6F00A5007E1020E095CD8B0A2EFA6F077
:104D4000A4EFA6F07EEFA4F078EFA4F00E0E081901
:104D5000D8A4ADEFA6F0AFEFA6F07EEFA4F0BEECC6
:104D6000C2F0000E0001FF6F000EFE6F600077F1D1
:104D7000D9FF60007BF1DAFF820EDE6E000EDD6E81
:104D8000FE0E096E000E0A6E7BECCAF00ABED4EF6E
:104D9000A6F00A5007E1020E095CD8B0D2EFA6F0E7
:104DA000D4EFA6F07EEFA4F078EFA4F0600077F1E6
:104DB000D9FF60007BF1DAFF000EDE6E000EDD6EC3
:104DC000000E5E6E020E5D6E43EFA7F0600077F19D
:104DD000D9FF60007BF1DAFF6F0078FF60F06F00B1
:104DE00074FF61F000016151000AD8B4FAEFA6F037
:104DF00035EFA7F06051000AD8B448EFA4F04C0A90
:104E0000D8B464EFA4F01C0AD8B49CEFA4F0050A4F
:104E1000D8B4CEEFA4F00F0AD8B400EFA5F0050A7D
:104E2000D8B432EFA5F03B0AD8B464EFA5F00E0A6F
:104E3000D8B496EFA5F0050AD8B4C8EFA5F01C0ABF
:104E4000D8B4FAEFA5F0040AD8B42CEFA6F00C0AF7
:104E5000D8B45EEFA6F0040AD8B490EFA6F0FD0A2D
:104E6000D8B4C0EFA6F035EFA7F0600077F1D9FF16
:104E700060007BF1DAFF000EDE6E000EDD6E000ECC
:104E80005E6E030E5D6E12003150800B3A6E315033
:104E900031243C6E30AE4FEFA7F051EFA7F052EF48
:104EA000A7F03C803C50D8B458EFA7F05AEFA7F0D9
:104EB0006FEFA7F03C28D8A460EFA7F062EFA7F04F
:104EC0006AEFA7F0000E2E6E000E2F6E000E306EF1
:104ED000000E316E308E000E316E77EFA7F0000EAF
:104EE0002E6E000E2F6E000E306E000E316E35509D
:104EF000800B3B6E3A503B18D8B481EFA7F083EF9C
:104F0000A7F084EFA7F03A8C355035243B6E34AED1
:104F10008CEFA7F08EEFA7F08FEFA7F03B803B5010
:104F2000D8B495EFA7F097EFA7F0ACEFA7F03B2828
:104F3000D8A49DEFA7F09FEFA7F0A7EFA7F0000E72
:104F4000326E000E336E000E346E000E356E348EEF
:104F5000000E356EB4EFA7F0000E326E000E336E09
:104F6000000E346E000E356E3C503B5CD8B0BBEF8B
:104F7000A7F0BDEFA7F0F3EFA7F03AACC2EFA7F0B0
:104F8000C4EFA7F0C6EFA7F0800E3A1A6000F0F069
:104F90003DF06000ECF03CF06000F4F03BF06000AD
:104FA000B8F03DF06000C8F02EF06000F4F032F090
:104FB0006000BCF03DF06000CCF02FF06000F4F039
:104FC00033F06000C0F03DF06000D0F030F06000E1
:104FD000F4F034F06000C4F03DF06000D4F031F043
:104FE0006000F4F035F0000E3D6E3C506000ECF0D7
:104FF00036F0376A365E000E375A37BE09EFA8F032
:10500000375009E11A0E365CD8A009EFA8F00BEF73
:10501000A8F043EFA8F02E502F1030103110D8A474
:1050200014EFA8F017EFA8F0010E18EFA8F0000E8B
:105030003D6E000E2E6E000E2F6E000E306E000EB6
:10504000316E6000ECF03CF04CEFA8F03DA02BEF8F
:10505000A8F02DEFA8F033EFA8F0D8903D3001096B
:105060003D6E35EFA8F0D8903D322EA03AEFA8F073
:105070003CEFA8F03DEFA8F03D8E313431323032B4
:105080002F322E323C2A3B503C5CD8A04AEFA8F08D
:105090004CEFA8F026EFA8F03ABC51EFA8F053EF80
:1050A000A8F093EFA8F03C50D8A459EFA8F05BEF1C
:1050B000A8F065EFA8F0000E2E6E000E2F6E000E09
:1050C000306E000E316EC1EFA9F032502E263350F3
:1050D0002F22345030223550312231A072EFA8F007
:1050E00074EFA8F020EFA9F03DA079EFA8F07BEFD6
:1050F000A8F081EFA8F0D8903D3001093D6E83EF14
:10510000A8F0D8903D322EA088EFA8F08AEFA8F042
:105110008BEFA8F03D8E3134313230322F322E32C7
:105120003C2A20EFA9F032502E5C33502F583450D7
:1051300030583150800A366E3550800A3658D8B013
:10514000A4EFA8F0A6EFA8F0D1EFA8F02E50325CA3
:10515000366E2F503358376E30503458386E3150C9
:105160003558396EFF0E36242E6EFF0E37202F6E07
:10517000FF0E3820306EFF0E3920316E800E3A1A45
:105180003D6C3D50D8A4C7EFA8F0C9EFA8F0D9EF07
:10519000A8F0010E2E26000E2F2230223122D9EF48
:1051A000A8F032502E5E33502F5A3450305A3550BA
:1051B000315A2E502F1030103110D8A4E2EFA8F041
:1051C000E4EFA8F019EFA9F03D50D8A4EAEFA8F059
:1051D000ECEFA8F019EFA9F0000E2E6E000E2F6E66
:1051E000000E306E000E316EC1EFA9F0D8902E3651
:1051F0002F36303631363DAE00EFA9F002EFA9F080
:1052000003EFA9F02E803DA008EFA9F00AEFA9F066
:105210000EEFA9F0D8803D3610EFA9F0D8903D36BA
:105220003C50D8B416EFA9F018EFA9F019EFA9F087
:105230003C0630AE1EEFA9F020EFA9F0F6EFA8F083
:10524000000E3B6E3DAE27EFA9F029EFA9F042EF2B
:10525000A9F06000F4F036F07F0E3616D8B433EFC4
:10526000A9F035EFA9F039EFA9F0010E3B6E42EF3E
:10527000A9F02EA03EEFA9F040EFA9F042EFA9F06F
:1052800035EFA9F03B50D8B448EFA9F04AEFA9F0A8
:105290007DEFA9F0010E2E26000E2F2230223122A2
:1052A00031A055EFA9F057EFA9F07DEFA9F060000C
:1052B000B8F036F06000BCF037F06000C0F038F0B5
:1052C0006000C4F039F0393439323832373236328E
:1052D0006000D8F02EF06000DCF02FF06000E0F00D
:1052E00030F06000E4F031F03C28D8B47AEFA9F057
:1052F0007CEFA9F07DEFA9F03C2A3C28D8B483EFDD
:10530000A9F085EFA9F08DEFA9F03C50D8A48BEF60
:10531000A9F08DEFA9F09FEFA9F0000E2E6E000E00
:105320002F6E000E306E000E316E3C50D8A49BEFF5
:10533000A9F09DEFA9F09FEFA9F0000E3A6E3CA0F6
:10534000A4EFA9F0A6EFA9F0A9EFA9F0308EAAEF7B
:10535000A9F0309ED8903C30316E3AAEB2EFA9F051
:10536000B4EFA9F0B5EFA9F0318E6000B8F02EF0DF
:105370006000BCF02FF06000C0F030F06000C4F0BE
:1053800031F012001850800B216E18501824276E2F
:1053900017AECDEFA9F0CFEFA9F0D0EFA9F027809D
:1053A0002750D8B4D6EFA9F0D8EFA9F0EBEFA9F0C9
:1053B0002728D8A4DEEFA9F0E0EFA9F0E8EFA9F0E4
:1053C000000E156E000E166E000E176E000E186E93
:1053D000178EF3EFA9F0000E156E000E166E000E7C
:1053E000176E000E186E1C50800B211A1C501C24C6
:1053F000266E1BAEFEEFA9F000EFAAF001EFAAF0B7
:1054000026802650D8B407EFAAF009EFAAF01CEFC7
:10541000AAF02628D8A40FEFAAF011EFAAF019EFEE
:10542000AAF0000E196E000E1A6E000E1B6E000E12
:105430001C6E1B8E24EFAAF0000E196E000E1A6E61
:10544000000E1B6E000E1C6E2650D8B42AEFAAF078
:105450002CEFAAF034EFAAF02750D8A432EFAAF02C
:1054600034EFAAF03EEFAAF0000E156E000E166E95
:10547000000E176E000E186E06EFACF01B501502F2
:105480006F00CCFF2CF06F00D0FF2DF02C50226E5F
:10549000236A246A256A2D50286E296A2A6A2B6A93
:1054A0001A5016026F00CCFF2CF06F00D0FF2DF0C9
:1054B0002C502226000E2322242225222D5028267D
:1054C000000E29222A222B22195017026F00CCFF2E
:1054D0002CF06F00D0FF2DF02C502226000E23223E
:1054E000242225222D502826000E29222A222B2272
:1054F000600090F025F060008CF024F0600088F0EF
:1055000023F0226A195016026F00CCFF2CF06F00B6
:10551000D0FF2DF02C5022262D502322000E2422C5
:10552000000E25221A5015026F00CCFF2CF06F00E0
:10553000D0FF2DF02C5022262D502322000E2422A5
:10554000000E2522600090F025F060008CF024F021
:10555000600088F023F0226A195015026F00CCFF1A
:105560002CF06F00D0FF2DF02C5022262D5023223E
:10557000000E2422000E25221B5016026F00CCFFC5
:105580002CF06F00D0FF2DF02C5028262D50292212
:10559000000E2A22000E2B221A5017026F00CCFF99
:1055A0002CF06F00D0FF2DF02C5028262D502922F2
:1055B000000E2A22000E2B221B5017026F00CCFF78
:1055C0002CF06F00D0FF2DF02C501D6E2D501E6E54
:1055D0001F6A206A60007CF020F0600078F01FF005
:1055E000600074F01EF01D6A1D5028261E502922EE
:1055F0001F502A2220502B22600088F01DF06000EE
:105600008CF01EF0600090F01FF0600094F020F02D
:10561000190E10EFABF0D89020321F321E321D321F
:10562000E82E0BEFABF01D5028261E5029221F50EC
:105630002A2220502B22600090F025F060008CF090
:1056400024F0600088F023F0226A265060009CF06D
:105650001DF01E6A1D26000E1E22820E1D242C6EB9
:10566000FF0E1E202D6E4AEFABF0D890283629365B
:105670002A362B3625AE3FEFABF041EFABF042EFD1
:10568000ABF02880D89022362336243625362C06D7
:10569000D8A02D062AAE4FEFABF051EFABF035EFAF
:1056A000ABF0000E266E25AE58EFABF05AEFABF024
:1056B0007EEFABF0FF0E22141D6EFF0E23141E6E44
:1056C000FF0E24141F6E7F0E2514206E1D501E1019
:1056D0001F102010D8B46FEFABF071EFABF075EF87
:1056E000ABF0010E266E7EEFABF028A07AEFABF0A8
:1056F0007CEFABF07EEFABF071EFABF02650D8B49F
:1057000084EFABF086EFABF0B2EFABF0010E2826E2
:10571000000E29222A222B222BA091EFABF093EF2F
:10572000ABF0B2EFABF06000A0F01DF06000A4F0B1
:105730001EF06000A8F01FF06000ACF020F02034F4
:1057400020321F321E321D32600074F028F06000DB
:1057500078F029F060007CF02AF0600080F02BF0F7
:105760002C4A2D2A2DBEBDEFABF02D5008E12C2880
:10577000D8A0BDEFABF0BFEFABF0C9EFABF0000EC0
:10578000286E000E296E800E2A6E7F0E2B6EF8EFAB
:10579000ABF02DBED6EFABF02D5006E12C04D8B007
:1057A000D4EFABF0D6EFABF0E2EFABF0000E286E2B
:1057B000000E296E000E2A6E000E2B6E000E216E5A
:1057C000F8EFABF06000B0F027F0FF0E2816FF0EE8
:1057D00029167F0E2A16000E2B1627A0F2EFABF02B
