:020000040000FA
:040000000DEF00F010
:0400080023EFD0F022
:06001800FF003AEFD1F0F9
:10FD1E00004A616E4665624D61724170724D617945
:10FD2E004A756E4A756C4175675365704F63744EB4
:10FD3E006F764465630030313233343536373839B7
:10FD4E00414243444546003132333435363738610B
:10FD5E006263646042A20D56333601000000005803
:10FD6E007DB5B892A21E3F008097C32DC49CB3955B
:10FD7E001D9439381BFE3D000002C319052F34F1C6
:10FD8E005C46BA43489B3F0000DDC30DD71D349936
:10FD9E00462FBAE38B8A3F0080C4C39B56DF32FEE8
:10FDAE005D9AB76B35D13D000044C200000000D60D
:10FDBE0046BE38F4808B3A0000A8C100000000AAAD
:10FDCE004CB738B31C5F3C0000D8C100AFB83397B6
:10FDDE00C69CB921A5E43E000021C319052F34F1BC
:10FDEE005C46BA43489B3F0000DDC300000000079D
:10FDFE002FED3844EA9BBD000020419B56DF32FEBA
:10FE0E005D9AB76B35D13D000044C200000000D6AC
:10FE1E0046BE38F4808B3A0000A8C1202020202056
:10FE2E002020202020202020202020002345525258
:10FE3E002C424C4F51554541444F2300484F524997
:10FE4E005A4F4E54414C2056332E33002043414DD1
:10FE5E0042494F205445524D49434F0020205245B0
:10FE6E00464C4543544F4D4554524F002020524569
:10FE7E002D43414C494252415221004E4956454C68
:10FE8E0020424154455249413A002050524F504968
:10FE9E00454441442044453A00234552522C464F96
:10FEAE00524D41544F23004D696469656E646F2055
:10FEBE002E2E2E2E00234552522C454550524F4D7C
:10FECE00230043415247414E444F202E2E2E004DCB
:10FEDE00696469656E646F202E2E2E0047454F4D66
:10FEEE0045545249412033300047454F4D455452F9
:10FEFE004941203135002020202020534C482D3000
:10FF0E00343600202020202053455249414C3A00DF
:10FF1E004D49444120424C414E434F3A0053657087
:10FF2E0020313920323032360053454C4543434957
:10FF3E004F4E453A004D494441204E4547524F3AA7
:10FF4E00002020202020202041494D0023455252E0
:10FF5E002C50494E2300494E46494E49545900698A
:10FF6E006E66696E6974790023562C332E362C001A
:10FF7E002C4445462C002C43414C2C00234F4B2344
:10FF8E00002347542C00252E3845002530345800C8
:10FF9E00494E46004E414E00696E66006E616E001F
:10FFAE0023452C0023472C00234B2C00256C750079
:10FFBE006C58006C65006C66006C78004B43004713
:10FFCE0054005354003A3A002575002A0047004B5E
:10FFDE00004C0050005100530056003100320034E6
:10FFEE0000370038006100620063006400250039AC
:02FFFE00000001
:020000040001F9
:100000005D505E10D8B407EF80F009EF80F019EF73
:1000100080F0600077F1D9FF60007BF1DAFF6000CB
:100020006FF1DEFF600073F1DDFF19EF80F05B4AD6
:100030005C2A010E0001766F60006FF1D9FF60004D
:1000400073F1DAFF200EDE18D8B429EF80F02CEF20
:1000500080F0010E2DEF80F0000E7B6F7C6B7B51EA
:100060007C11D8A436EF80F038EF80F05EEF80F09E
:10007000F70E606FFF0E616F60006FF1D9FF6000D7
:1000800073F1DAFFDF50626F62517B6F7C6B60004F
:10009000ECF163F06000F0F164F0605163276151AE
:1000A0006423645109E1050E635DD8A05AEF80F026
:1000B0005CEF80F05EEF80F0000E766F6000D8F1AC
:1000C00066F0676B66516711D8A469EF80F06BEF3B
:1000D00080F017EF80F0000E786F2D0E7B197C11E9
:1000E000D8A475EF80F077EF80F07DEF80F0010EFF
:1000F000786F5B4A5C2A89EF80F02B0E7B197C11AC
:10010000D8A485EF80F087EF80F089EF80F079EF59
:1001100080F0000E816F8EEF80F0812B81515B2487
:10012000D96E000E5C20DA6EDF50D8B49AEF80F002
:100130009CEF80F0D2EF80F081515B24D96E000EED
:100140005C20DA6EDF50606F6D0E8125F66EF76A07
:10015000FF0EF722F86A000EF8220800F550601929
:10016000D8B4B5EF80F0B7EF80F08DEF80F081511B
:100170005B24D96E000E5C20DA6EDF50606F640E77
:100180008125F66EF76AFF0EF722F86A000EF82254
:100190000800F5506019D8B4D0EF80F0D2EF80F0AD
:1001A0008DEF80F0020E8165D8EF80F0DAEF80F0FD
:1001B0000AEF81F0000E7D6F000E7E6F800E7F6F64
:1001C0007F0E806F5D505E10D8B4E9EF80F0EBEFEA
:1001D00080F02BEF89F0080E8119D8B4F2EF80F08F
:1001E000F4EF80F0F6EF80F0030E816F81515B2415
:1001F000606F000E5C20616F600077F1D9FF6000D6
:100200007BF1DAFF600083F1DEFF600087F1DDFF44
:100210002BEF89F0000E816F0FEF81F0812B815160
:100220005B24D96E000E5C20DA6EDF50D8B41BEF71
:1002300081F01DEF81F053EF81F081515B24D96E85
:10024000000E5C20DA6EDF50606FAA0E8125F66E1C
:10025000F76AFF0EF722F86A000EF8220800F55040
:100260006019D8B436EF81F038EF81F00EEF81F0ED
:1002700081515B24D96E000E5C20DA6EDF50606F16
:10028000A20E8125F66EF76AFF0EF722F86A000EBD
:10029000F8220800F5506019D8B451EF81F053EFFF
:1002A00081F00EEF81F0030E8119D8A45AEF81F08E
:1002B0005CEF81F0D5EF81F0390E016EFE0E026E1B
:1002C000F2ECE5F0600004F07DF0600008F07EF0F4
:1002D00060000CF07FF0600010F080F05D505E1068
:1002E000D8B475EF81F077EF81F02BEF89F0000142
:1002F00081515B26000E5C2260006FF1D9FF600027
:1003000073F1DAFF280EDE18D8A489EF81F08BEFA5
:1003100081F0C7EF81F0000E816F90EF81F0812BAB
:1003200081515B24D96E000E5C20DA6EDF50D8B4A8
:100330009CEF81F09EEF81F0ADEF81F081515B2465
:10034000D96E000E5C20DA6E290EDE18D8A4ABEF51
:1003500081F0ADEF81F08FEF81F081515B24D96E98
:10036000000E5C20DA6E290EDE18D8A4BAEF81F0F8
:10037000BCEF81F0C7EF81F08151606F616B010EBE
:100380006027000E612360515B2661515C22600092
:1003900077F1D9FF60007BF1DAFF60006FF1DEFFDB
:1003A000600073F1DDFF2BEF89F0000E7C6F000E13
:1003B0007B6F000E7D6F000E7E6F000E7F6F000E54
:1003C000806F000E7A6F000E796F000E816FEAEF7A
:1003D00081F0812B81515B24D96E000E5C20DA6E96
:1003E000300EDE18D8B4F7EF81F0F9EF81F0E9EFC5
:1003F00081F08151D8B4FFEF81F001EF82F0A8EFD6
:1004000085F081515B24D96E000E5C20DA6E780E87
:10041000DE18D8B40EEF82F010EF82F01FEF82F0FA
:1004200081515B24D96E000E5C20DA6E580EDE1806
:10043000D8A41DEF82F01FEF82F0A8EF85F0815164
:10044000606F616B010E6027000E612360515B26B7
:1004500061515C22000E816F2FEF82F0812B815160
:100460005B24D96E000E5C20DA6E300EDE18D8B434
:100470003CEF82F03EEF82F02EEF82F0000E816FB3
:1004800081515B24D96E000E5C20DA6E700EDE188E
:10049000D8B44DEF82F04FEF82F0E2EF83F081515C
:1004A0005B24D96E000E5C20DA6E500EDE18D8A4E4
:1004B0005CEF82F05EEF82F060EF82F0E2EF83F0BB
:1004C00081515B24D96E000E5C20DA6E2E0EDE1890
:1004D000D8A46DEF82F06FEF82F073EF82F078892D
:1004E000812BE2EF83F081515B24D96E000E5C20FA
:1004F000DA6EDF50606F6051016E026A6DECDEF003
:1005000001500210D8B487EF82F089EF82F007EF34
:1005100083F0000E0001776FD00E606FFF0E616FE9
:1005200081515B24D96E000E5C20DA6EDF50626F61
:10053000636B605162276151632363510AE10A0EC4
:10054000625DD8A0A6EF82F0A9EF82F0010EAAEFBB
:1005500082F0000E686F696B68516911D8B4B3EF0F
:1005600082F0B5EF82F0C0EF82F081515B24D96E4A
:10057000000E5C20DA6EDF50D00F776FD1EF82F083
:1005800081515B24D96E000E5C20DA6EDF50606F03
:100590006051076E086AEFECDFF00750C90F0001E9
:1005A000776F7CBFDFEF82F07C5107E1080E7B5D47
:1005B000D8B0DDEF82F0DFEF82F0FFEF82F07B5109
:1005C0000708606FD8906037D89060376000DCF122
:1005D00061F0626B636B646B602BF4EF82F0D89018
:1005E0006137623763376437602FEFEF82F0615114
:1005F0007D1362517E1363517F13645180137B4BD3
:100600007C2B040E7927000E7A2311EF83F0000E65
:100610005B6E000E5C6E000E5D6E000E5E6E59EF3E
:1006200089F0812B40EF82F081515B24D96E000E5E
:100630005C20DA6E700EDE18D8B421EF83F023EF61
:1006400083F0E9EF83F081515B24D96E000E5C20CA
:10065000DA6E500EDE18D8A430EF83F032EF83F05C
:1006600034EF83F0E9EF83F081515B24D96E000E03
:100670005C20DA6E300EDE18D8A441EF83F043EF31
:1006800083F052EF83F07B517C11D8A44AEF83F0C2
:100690004CEF83F052EF83F0FC0E7927FF0E7A23A4
:1006A000E0EF83F081515B24D96E000E5C20DA6E9E
:1006B000DF50606F6051016E026A6DECDEF0015038
:1006C0000210D8B466EF83F068EF83F0E0EF83F0B8
:1006D000000E0001776FD00E606FFF0E616F8151C9
:1006E0005B24D96E000E5C20DA6EDF50626F636BA4
:1006F000605162276151632363510AE10A0E625D12
:10070000D8A085EF83F088EF83F0010E89EF83F0A6
:10071000000E6A6F6B6B6A516B11D8B492EF83F065
:1007200094EF83F09FEF83F081515B24D96E000E2C
:100730005C20DA6EDF50D00F776FB0EF83F081511D
:100740005B24D96E000E5C20DA6EDF50606F605162
:10075000076E086AEFECDFF00750C90F0001776FF2
:100760007CBFBEEF83F07C5107E1080E7B5DD8B003
:10077000BCEF83F0BEEF83F0DEEF83F07B51070820
:10078000606FD8906037D89060376000DCF161F01E
:10079000626B636B646B602BD3EF83F0D89061372F
:1007A000623763376437602FCEEF83F061517D137A
:1007B00062517E1363517F13645180137B4B7C2BFA
:1007C0000001812B78B9E7EF83F0E9EF83F014EFB4
:1007D00083F081515B24D96E000E5C20DA6E700EBE
:1007E000DE18D8B4F6EF83F0F8EF83F011EF84F061
:1007F00081515B24D96E000E5C20DA6E500EDE183B
:10080000D8B405EF84F007EF84F011EF84F0000E08
:100810005B6E000E5C6E000E5D6E000E5E6E59EF3C
:1008200089F0812B81515B24D96E000E5C20DA6E39
:100830002B0EDE18D8A41FEF84F021EF84F024EFF4
:1008400084F0812B35EF84F081515B24D96E000E4A
:100850005C20DA6E2D0EDE18D8A431EF84F033EF71
:1008600084F035EF84F07887812B81515B26000E70
:100870005C22000E816F3EEF84F0812B81515B245E
:10088000D96E000E5C20DA6E300EDE18D8B44BEF55
:1008900084F04DEF84F03DEF84F0000E7C6F000E8D
:1008A0007B6F84EF84F08151D8B459EF84F05BEF13
:1008B00084F06DEF84F06000ECF101F06000F0F185
:1008C00002F0000E046E0A0E036E96ECE5F0600076
:1008D00004F07BF0600008F07CF0D00E0001606F47
:1008E000FF0E616F81515B24D96E000E5C20DA6EC1
:1008F000DF50626F636B6051622761516323625105
:100900007B2763517C23812BD00E606FFF0E616FBC
:1009100081515B24D96E000E5C20DA6EDF50626F6D
:10092000636B605162276151632363510AE10A0ED0
:10093000625DD8A09EEF84F0A1EF84F0010EA2EFDB
:1009400084F0000E6C6F6D6B6C516D11D8A4ABEF21
:1009500084F0ADEF84F053EF84F08151D8A4B3EF6D
:1009600084F0B5EF84F0BFEF84F0000E5B6E000EF4
:100970005C6E000E5D6E000E5E6E59EF89F078A71A
:10098000C4EF84F0C6EF84F0CAEF84F07B6D7C1F67
:10099000D8B07C2B7B5179277C517A235D505E1037
:1009A000D8B4D5EF84F0D7EF84F0E9EF84F081512B
:1009B0005B24606F000E5C20616F600077F1D9FFEF
:1009C00060007BF1DAFF600083F1DEFF600087F1F9
:1009D000DDFF7D517E117F118011D8A4F2EF84F0EC
:1009E000F4EF84F0FEEF84F0000E5B6E000E5C6EA0
:1009F000000E5D6E000E5E6E59EF89F0FF0E7D15E4
:100A0000606F000E7E15616F000E7F15626F000E25
:100A10008015636F63516211611109E1810E605DA0
:100A2000D8A015EF85F017EF85F029EF85F0000EBF
:100A30007D27010E7E23000E7F23000E802329EFE9
:100A400085F0D8907D377E377F3780377907D8A0FB
:100A50007A0780AF2EEF85F030EF85F021EF85F03B
:100A60007AAF3CEF85F0830E795DFF0E7A59D8B0EE
:100A70003CEF85F03EEF85F04AEF85F0FF0E7A6F90
:100A8000810E796F000E7D6F000E7E6F000E7F6FFE
:100A9000000E806F810E791908E17A29D8B453EFDE
:100AA00085F055EF85F05DEF85F0D8907D377E3786
:100AB0007F3780377907D8A07A077ABF69EF85F04A
:100AC0007A5109E1800E795DD8A069EF85F06BEF6E
:100AD00085F077EF85F0000E7D6F000E7E6F000EC3
:100AE0007F6F000E806F000E7A6F800E796F090E97
:100AF000606FD89080337F337E337D33602F79EF02
:100B000085F0FF0E7D17FF0E7E177F0E7F17000EFC
:100B100080177F0E7925606F000E7A21616FFF0EBE
:100B20006015626F636B646B656B170ED8906237EC
:100B3000633764376537E82E96EF85F062517D1391
:100B400063517E1364517F13655180132BEF89F03D
:100B500078B9ADEF85F0AFEF85F0C3EF85F06000B9
:100B60006FF1D9FF600073F1DAFF2E0EDE18D8A402
:100B7000BCEF85F0BEEF85F0C3EF85F078895B4A66
:100B80005C2AA8EF85F0D00E606FFF0E616F6000E9
:100B90006FF1D9FF600073F1DAFFDF50626F636BB2
:100BA000605162276151632363510AE10A0E625D5D
:100BB000D8A0DDEF85F0E0EF85F0010EE1EF85F0E4
:100BC000000E6E6F6F6B6E516F11D8A4EAEF85F057
:100BD000ECEF85F0EEEF85F047EF86F07883090EB5
:100BE0007B197C11D8B4F7EF85F0F9EF85F03AEF77
:100BF00086F078A9FEEF85F000EF86F003EF86F02F
:100C00007907D8A07A077B4B7C2B6000F4F101F0C8
:100C10006000F8F102F06000FCF103F0600000F207
:100C200004F00A0E056E000E066E000E076E000E32
:100C3000086EA8ECDEF0600004F07DF0600008F0C3
:100C40007EF060000CF07FF0600010F080F060003B
:100C50006FF1D9FF600073F1DAFFDF500001606FC0
:100C6000D00E602760517D27000E7E237F238023D6
:100C700043EF86F078B93FEF86F041EF86F043EF1F
:100C800086F0794B7A2B5B4A5C2AA8EF85F0000E40
:100C90007C6F000E7B6F60006FF1D9FF600073F115
:100CA000DAFF650EDE18D8B458EF86F05AEF86F0FA
:100CB00069EF86F060006FF1D9FF600073F1DAFF31
:100CC000450EDE18D8A467EF86F069EF86F071EF65
:100CD00087F05B4A5C2A60006FF1D9FF600073F116
:100CE000DAFF2D0EDE18D8A478EF86F07AEF86F0C2
:100CF0007FEF86F078875B4A5C2A90EF86F0600091
:100D00006FF1D9FF600073F1DAFF2B0EDE18D8A463
:100D10008CEF86F08EEF86F090EF86F05B4A5C2ACF
:100D200060006FF1D9FF600073F1DAFF300EDE185A
:100D3000D8B49DEF86F09FEF86F08EEF86F0D00E50
:100D40000001606FFF0E616F60006FF1D9FF6000FE
:100D500073F1DAFFDF50626F636B6051622761519C
:100D6000632363510AE10A0E625DD8A0BAEF86F0F0
:100D7000BDEF86F0010EBEEF86F0000E706F716B56
:100D800070517111D8B4C7EF86F0C9EF86F066EFE5
:100D900087F060006FF1D9FF600073F1DAFFDF5078
:100DA000606FD00E602760517B6F7C6B5B4A5C2A62
:100DB000D00E606FFF0E616F60006FF1D9FF6000B1
:100DC00073F1DAFFDF50626F636B6051622761512C
:100DD000632363510AE10A0E625DD8A0F2EF86F048
:100DE000F5EF86F0010EF6EF86F0000E726F736B72
:100DF00072517311D8B4FFEF86F001EF87F066EF00
:100E000087F060006FF1D9FF600073F1DAFFDF5007
:100E1000606FD00E60276000ECF101F06000F0F12F
:100E200002F0000E046E0A0E036E96ECE5F000016F
:100E3000605101247B6F000E02207C6F5B4A5C2AAC
:100E4000D00E606FFF0E616F60006FF1D9FF600020
:100E500073F1DAFFDF50626F636B6051622761519B
:100E6000632363510AE10A0E625DD8A03AEF87F06E
:100E70003DEF87F0010E3EEF87F0000E746F756B4B
:100E800074517511D8B447EF87F049EF87F066EFDA
:100E900087F060006FF1D9FF600073F1DAFFDF5077
:100EA000606FD00E60276000ECF101F06000F0F19F
:100EB00002F0000E046E0A0E036E96ECE5F00001DF
:100EC000605101247B6F000E02207C6F78A76BEFCE
:100ED00087F06DEF87F071EF87F07B6D7C1FD8B0E6
:100EE0007C2B7B5179277C517A235D505E10D8B4DE
:100EF0007CEF87F07EEF87F091EF87F078A383EFA8
:100F000087F085EF87F091EF87F0600077F1D9FFE8
:100F100060007BF1DAFF60006FF1DEFF600073F1CB
:100F2000DDFF6000F4F107F06000F8F108F0600008
:100F3000FCF109F0600000F20AF0000E97ECC8F036
:100F400060001CF07DF0600020F07EF0600024F076
:100F50007FF0600028F080F06000F4F101F06000A4
:100F6000F8F102F06000FCF103F0600000F204F020
:100F7000000E056E000E066E000E076E000E086E67
:100F800074ECDAF0D8A0C7EF87F0C9EF87F0D3EFA1
:100F900087F0000E5B6E000E5C6E000E5D6E000E44
:100FA0005E6E59EF89F000017ABFDBEF87F0D9EF71
:100FB00087F080EF88F0796D7A1FD8B07A2B08EF30
:100FC00088F06000F4F142F06000F8F143F0600056
:100FD000FCF144F0600000F245F0F90E466E020E9E
:100FE000476E150E486E500E496E90ECB1F06000E1
:100FF00008F17DF060000CF17EF0600010F17FF0F0
:10100000600014F180F00001F60E7927FF0E7A23BC
:101010007ABF16EF88F07A5107E10A0E795DD8B0F1
:1010200014EF88F016EF88F0E1EF87F03EEF88F0DC
:101030006000F4F142F06000F8F143F06000FCF170
:1010400044F0600000F245F0000E466E000E476E60
:10105000200E486E410E496E90ECB1F0600008F130
:101060007DF060000CF17EF0600010F17FF0600018
:1010700014F180F000017907D8A07A0779517A112C
:10108000D8A445EF88F047EF88F018EF88F06000AB
:10109000F4F12EF06000F8F12FF06000FCF130F078
:1010A000600000F231F0000E326E000E336E800EE2
:1010B000346E000E356E43ECD2F0D8B062EF88F09B
:1010C00064EF88F02BEF89F0000178A16AEF88F0D7
:1010D0006CEF88F076EF88F0000E5B6E000E5C6EB1
:1010E000800E5D6E800E5E6E59EF89F0000E5B6EB5
:1010F000000E5C6E800E5D6E000E5E6E59EF89F024
:101100007ABF8BEF88F07A5108E17905D8A08BEF90
:1011100088F08DEF88F02BEF89F0B6EF88F0600053
:10112000F4F115F06000F8F116F06000FCF117F032
:10113000600000F218F0F90E196E020E1A6E150E0C
:101140001B6E500E1C6E4BECAFF0600054F07DF047
:10115000600058F07EF060005CF07FF0600060F0AE
:1011600080F00001F60E7927FF0E7A237A5107E10D
:101170000A0E795DD8B0BFEF88F0C1EF88F08FEF2D
:1011800088F0E9EF88F06000F4F115F06000F8F104
:1011900016F06000FCF117F0600000F218F0000E8D
:1011A000196E000E1A6E200E1B6E410E1C6E4BEC5B
:1011B000AFF0600054F07DF0600058F07EF0600009
:1011C0005CF07FF0600060F080F000017907D8A04B
:1011D0007A0779517A11D8A4F0EF88F0F2EF88F00D
:1011E000C3EF88F0FF0E2E6EFF0E2F6E7F0E306E57
:1011F0007F0E316E6000F4F132F06000F8F133F0F0
:101200006000FCF134F0600000F235F043ECD2F005
:10121000D8B00DEF89F00FEF89F02BEF89F00001C6
:1012200078A115EF89F017EF89F021EF89F0000E12
:101230005B6E000E5C6E800E5D6E800E5E6E59EF12
:1012400089F0000E5B6E000E5C6E800E5D6E000E0F
:101250005E6E59EF89F0000178A131EF89F033EF2C
:1012600089F04DEF89F06000F4F13EF06000F8F194
:101270003FF06000FCF140F0600000F241F006EC4D
:10128000E4F06000F8F07DF06000FCF07EF06000BB
:1012900000F17FF0600004F180F06000F4F15BF099
:1012A0006000F8F15CF06000FCF15DF0600000F2BD
:1012B0005EF01200000E0001976F000E966F600046
:1012C000C8F1A8F06000CCF1A9F06000D0F1AAF05C
:1012D0006000D4F1ABF0ABBF72EF89F070EF89F032
:1012E00090EF89F0000E976F010E966F6000A0F2EC
:1012F0003EF06000A4F23FF06000A8F240F0600011
:10130000ACF241F006ECE4F06000F8F0A8F0600008
:10131000FCF0A9F0600000F1AAF0600004F1ABF06D
:10132000000E0001AF6F000EAE6F60008CF49BF0FA
:10133000600090F49CF096519711D8A4A2EF89F028
:10134000A4EF89F0ACEF89F0010127A5AAEF89F09D
:10135000ACEF89F0C8EF89F0000196519711D8A43D
:10136000B4EF89F0B6EF89F0BCEF89F0000E816F21
:101370002B0E806FC0EF89F0000E816F2D0E806FF5
:10138000600000F266F4AE4BAF2B9B07D8A09C0721
:101390006000A0F201F06000A4F202F06000A8F288
:1013A00003F06000ACF204F07AECCEF0010402101D
:1013B000D8A4DDEF89F0DFEF89F03CEF8AF0BF0EB3
:1013C0000001776FFF0E786F7651796F7A6B7751E6
:1013D000792778517A237A510AE11A0E795DD8A0DB
:1013E000F4EF89F0F7EF89F0010EF8EF89F0000EC5
:1013F000826F836B82518311D8B401EF8AF003EFBF
:101400008AF011EF8AF0660EAE25056E040EAF214C
:10141000066E9E0E076EFF0E086EE1ECDEF01DEF0D
:101420008AF0660EAE25056E040EAF21066EA60E7E
:10143000076EFF0E086EE1ECDEF00001FD0E9B274B
:10144000FF0E9C236000C0F111F06000C4F112F0A7
:10145000660E136E040E146E60006CF215F06000E0
:1014600070F216F02BECD4F0600044F070F06000E5
:1014700048F071F027EF90F06000A0F201F06000FA
:10148000A4F202F06000A8F203F06000ACF204F0F5
:101490007AECCEF001500210D8A451EF8AF053EF4D
:1014A0008AF093EF8AF0BF0E0001776FFF0E786F1E
:1014B0007651796F7A6B7751792778517A237A51FF
:1014C0000AE11A0E795DD8A068EF8AF06BEF8AF016
:1014D000010E6CEF8AF0000E846F856B84518511CC
:1014E000D8B475EF8AF077EF8AF085EF8AF0660E50
:1014F000AE25056E040EAF21066EA20E076EFF0E1E
:10150000086EE1ECDEF01DEF8AF0660EAE25056E8A
:10151000040EAF21066EAA0E076EFF0E086EE1ECF8
:10152000DEF01DEF8AF0000E0001B06F000EB16F0B
:10153000800EB26F3F0EB36F000EAD6F000EAC6F3A
:101540006000A0F201F06000A4F202F06000A8F2D6
:1015500003F06000ACF204F0000E056E000E066EA3
:10156000000E076E000E086E74ECDAF0D8B0BBEF18
:101570008AF0BDEF8AF064EF8BF0E4EF8AF0600050
:10158000C0F215F06000C4F216F06000C8F217F067
:101590006000CCF218F0000E196E000E1A6E200ECC
:1015A0001B6E410E1C6E4BECAFF0600054F0B0F0BF
:1015B000600058F0B1F060005CF0B2F0600060F0E4
:1015C000B3F00001AC4BAD2B6000A0F22EF0600038
:1015D000A4F22FF06000A8F230F06000ACF231F01D
:1015E000000E196E000E1A6E200E1B6E410E1C6E40
:1015F0006000C0F215F06000C4F216F06000C8F29E
:1016000017F06000CCF218F04BECAFF0600054F033
:1016100032F0600058F033F060005CF034F06000AD
:1016200060F035F043ECD2F0D8B019EF8BF01BEF3F
:101630008BF0BFEF8AF043EF8BF06000C0F242F016
:101640006000C4F243F06000C8F244F06000CCF2E5
:1016500045F0000E466E000E476E200E486E410E9D
:10166000496E90ECB1F0600008F1B0F060000CF150
:10167000B1F0600010F1B2F0600014F1B3F00001BD
:10168000AC07D8A0AD076000A0F22EF06000A4F275
:101690002FF06000A8F230F06000ACF231F0600092
:1016A000C0F232F06000C4F233F06000C8F234F0EF
:1016B0006000CCF235F043ECD2F0D8A062EF8BF0B2
:1016C00064EF8BF01DEF8BF06000D8F107F0086A33
:1016D000BBECDFF0075000019D6F600074F29AF0E0
:1016E000670E9D19D8A477EF8BF079EF8BF0A3EFFD
:1016F0008BF0010125512611D8A481EF8BF083EFE7
:101700008BF087EF8BF0000E266F010E256F26BF42
:1017100094EF8BF0265106E12505D8B092EF8BF0BF
:1017200094EF8BF09BEF8BF0000E0001996F060E8B
:10173000986FADEF8BF0600094F498F0600098F42F
:1017400099F0ADEF8BF0010126BFA9EF8BF0ABEF65
:101750008BF094EF8BF09BEF8BF0670E00019D19DF
:10176000D8A4B5EF8BF0B7EF8BF0E8EF8BF0ADAF0F
:10177000C5EF8BF0FC0EAC5DFF0EAD59D8A0C3EFEA
:101780008BF0C5EF8BF0E6EF8BF0FF0E776FFF0E5F
:10179000786F600060F279F0600064F27AF077515F
:1017A000792778517A23AC51795D7A51800A7B6F21
:1017B000AD51800A7B59D8A0E0EF8BF0E2EF8BF0BF
:1017C000E6EF8BF0660E9A6FE8EF8BF0650E9A6F7E
:1017D000600060F290F0600064F291F0670E9D1975
:1017E000D8A4F5EF8BF0F7EF8BF007EF8CF0660ED7
:1017F0009A19D8A4FEEF8BF000EF8CF009EF8CF073
:10180000ADBF07EF8CF005EF8CF009EF8CF0904B3B
:10181000912B660E9A19D8A410EF8CF012EF8CF071
:1018200032EF8CF0ADBF19EF8CF017EF8CF025EF95
:101830008CF0000EB06F000EB16F800EB26F3F0ED5
:10184000B36F000EAD6F000EAC6F670E9D19D8B46C
:101850002CEF8CF02EEF8CF032EF8CF0AC51902707
:10186000AD519123000EA76F000EA66F6000A0F28D
:101870009EF06000A4F29FF06000A8F2A0F060006B
:10188000ACF2A1F06000C0F27CF06000C4F27DF028
:101890006000C8F27EF06000CCF27FF0FDEF8CF0CB
:1018A000600078F242F060007CF243F0600080F269
:1018B00044F0600084F245F06000C0F246F0600041
:1018C000C4F247F06000C8F248F06000CCF249F082
:1018D00090ECB1F0600008F15BF060000CF15CF09E
:1018E000600010F15DF0600014F15EF0FBECC0F000
:1018F00060006CF1A2F0600070F1A3F0600074F180
:10190000A4F0600078F1A5F0600088F23EF060007D
:101910008CF23FF0600090F240F0600094F241F0F1
:10192000AFECD0F06000F8F094F06000FCF095F0BF
:10193000600078F23EF060007CF23FF0600080F2E0
:1019400040F0600084F241F06000C0F219F06000E5
:10195000C4F21AF06000C8F21BF06000CCF21CF078
:10196000600088F215F060008CF216F0600090F2D2
:1019700017F0600094F218F04BECAFF0600054F0F8
:1019800042F0600058F043F060005CF044F060000A
:1019900060F045F0B5ECE0F06000F8F09EF060001B
:1019A000FCF09FF0600000F1A0F0600004F1A1F0F5
:1019B0006000C0F242F06000C4F243F06000C8F280
:1019C00044F06000CCF245F0000E466E000E476E0B
:1019D000200E486E410E496E90ECB1F0600008F1A7
:1019E000B0F060000CF1B1F0600010F1B2F06000F6
:1019F00014F1B3F00001A64BA72B9051A65DA7519F
:101A0000800A776F9151800A7759D8A00AEF8DF03C
:101A10000CEF8DF050EF8CF06000C0F215F060001C
:101A2000C4F216F06000C8F217F06000CCF218F0B3
:101A3000000E196E000E1A6EA00E1B6E400E1C6E6C
:101A40004BECAFF0600054F0A2F0600058F0A3F04F
:101A500060005CF0A4F0600060F0A5F0600078F237
:101A60002EF060007CF22FF0600080F230F0600019
:101A700084F231F0600088F232F060008CF233F0D2
:101A8000600090F234F0600094F235F043ECD2F054
:101A9000D8B04DEF8DF04FEF8DF05AEF8DF0000E76
:101AA0000001A26F000EA36F000EA46F000EA56FC1
:101AB0008BEF8DF0600078F201F060007CF202F0B4
:101AC000600080F203F0600084F204F0600088F2AD
:101AD00005F060008CF206F0600090F207F0600004
:101AE00094F208F074ECDAF0D8A079EF8DF07BEF87
:101AF0008DF08BEF8DF0000194B181EF8DF083EFCD
:101B00008DF08BEF8DF0000EA26F000EA36F000E14
:101B1000A46F000EA56F6000A0F22EF06000A4F28A
:101B20002FF06000A8F230F06000ACF231F06000FD
:101B300088F232F060008CF233F0600090F234F002
:101B4000600094F235F0CDECACF06000B8F09EF09F
:101B50006000BCF09FF06000C0F0A0F06000C4F036
:101B6000A1F06000F0F1B0F06000F4F1B1F06000BD
:101B7000F8F1B2F06000FCF1B3F0650E00019A19C3
:101B8000D8B4C5EF8DF0C7EF8DF0CFEF8DF06000CA
:101B9000B0F292F06000B4F293F0D3EF8DF0000E4B
:101BA000936F000E926F000E8F6F000E8E6F000EFF
:101BB0008D6F000E8C6F000EA76F000EA66F02EFE8
:101BC0008FF0600078F242F060007CF243F0600039
:101BD00080F244F0600084F245F06000C0F246F00C
:101BE0006000C4F247F06000C8F248F06000CCF238
:101BF00049F090ECB1F0600008F15BF060000CF18E
:101C00005CF0600010F15DF0600014F15EF0FBEC40
:101C1000C0F060006CF1A2F0600070F1A3F0600011
:101C200074F1A4F0600078F1A5F0600088F23EF055
:101C300060008CF23FF0600090F240F0600094F29F
:101C400041F0AFECD0F06000F8F094F06000FCF0F0
:101C500095F0010127B92FEF8EF031EF8EF04FEFA5
:101C60008EF0000194519511D8A439EF8EF03BEF1E
:101C70008EF04FEF8EF0670E9D19D8A442EF8EF0D4
:101C800044EF8EF04FEF8EF093BF4BEF8EF049EFA5
:101C90008EF04FEF8EF08C4B8D2B9AEF8EF0000173
:101CA0008E518F11D8A457EF8EF059EF8EF083EF3D
:101CB0008EF093BF60EF8EF05EEF8EF083EF8EF0CC
:101CC000660EAE25D96E040EAF21DA6E2E0EDF6ED3
:101CD000AE4BAF2B9B07D8A09C07000E8F6F010E59
:101CE0008E6F83EF8EF0660EAE25D96E040EAF2197
:101CF000DA6E300EDF6EAE4BAF2B9B07D8A09C0781
:101D00008C07D8A08D078C518D11D8A48AEF8EF046
:101D10008CEF8EF073EF8EF0660EAE25D96E040E4A
:101D2000AF21DA6E9451300FDF6EAE4BAF2B9B07B5
:101D3000D8A09C07600078F23EF060007CF23FF093
:101D4000600080F240F0600084F241F06000C0F278
:101D500019F06000C4F21AF06000C8F21BF06000D5
:101D6000CCF21CF0600088F215F060008CF216F0E6
:101D7000600090F217F0600094F218F04BECAFF0B6
:101D8000600054F042F0600058F043F060005CF0F6
:101D900044F0600060F045F0B5ECE0F06000F8F071
:101DA0009EF06000FCF09FF0600000F1A0F0600089
:101DB00004F1A1F06000C0F242F06000C4F243F010
:101DC0006000C8F244F06000CCF245F0000E466EB0
:101DD000000E476E200E486E410E496E90ECB1F039
:101DE000600008F1B0F060000CF1B1F0600010F19B
:101DF000B2F0600014F1B3F000019207D8A093078D
:101E0000A64BA72B9051A65DA751800A776F9151E1
:101E1000800A7759D8B00FEF8FF011EF8FF01FEFD6
:101E20008FF0AFBF1DEF8FF0AF5109E14B0EAE5DEC
:101E3000D8A01DEF8FF01FEF8FF0E1EF8DF08E51E6
:101E40008F11D8A426EF8FF028EF8FF03BEF8FF0A3
:101E5000010127A92EEF8FF030EF8FF03BEF8FF0CD
:101E6000660E0001AE25D96E040EAF21DA6E2E0E7D
:101E7000DF6EAE4BAF2B660E0001AE25D96E040EA1
:101E8000AF21DA6E000EDF6E650E9A19D8A44BEF03
:101E90008FF04DEF8FF022EF8AF0000EA76F4F0EFC
:101EA000A66F660EA625D96E040EA721DA6E000E67
:101EB000DF6E000E976F000E966FADBF64EF8FF070
:101EC00062EF8FF06CEF8FF0000E976F010E966F40
:101ED000AC6DAD1FD8B0AD2B000E996F020E986F90
:101EE000A3EF8FF0A607D8A0A707660EA625D96E88
:101EF000040EA721DA6E6000B0F201F06000B4F2C7
:101F000002F0000E046E0A0E036E14ECD9F00150BC
:101F1000300FDF6E6000B0F201F06000B4F202F04A
:101F2000000E046E0A0E036EF8ECD7F0600004F0A9
:101F3000ACF0600008F0ADF000019807D8A0990758
:101F40009B07D8A09C07AC51AD11D8A4AAEF8FF085
:101F5000ACEF8FF072EF8FF099BFB9EF8FF099511E
:101F600006E19805D8B0B7EF8FF0B9EF8FF072EFB8
:101F70008FF0A607D8A0A70796519711D8A4C3EF52
:101F80008FF0C5EF8FF0CBEF8FF0000E876F2B0E29
:101F9000866FCFEF8FF0000E876F2D0E866F660E67
:101FA000A625D96E040EA721DA6E60001BF2DFFFB2
:101FB0009B07D8A09C07A607D8A0A707BF0E776FDE
:101FC000FF0E786F7651796F7A6B77517927785158
:101FD0007A237A510AE11A0E795DD8A0F2EF8FF0D8
:101FE000F5EF8FF0010EF6EF8FF0000E8A6F8B6B1E
:101FF0008A518B11D8A4FFEF8FF001EF90F007EF1B
:1020000090F0000E896F650E886F0BEF90F0000E58
:10201000896F450E886F660EA625D96E040EA7211E
:10202000DA6E600023F2DFFF9B07D8A09C07660EE4
:10203000AE25056E040EAF21066E660EA625076E50
:10204000040EA721086EE1ECDEF022EF8AF0120008
:10205000000E0101F36F2FECE5F0600004F024F2B4
:10206000600008F025F260000CF026F2600010F02D
:1020700027F20001F851F6250101BC6F000E0001A6
:10208000F7210101BD6FFF0EBC25D96EFF0EBD21EA
:10209000DA6E000EDF6E010E0001F6250101EE6F13
:1020A000000E0001F7210101EF6F6000B8F7E2F1C7
:1020B0006000BCF7E3F1F32B98EF90F06000BBF702
:1020C000D9FF6000BFF7DAFF2C0EDE18D8A46BEF43
:1020D00090F06DEF90F096EF90F06000BBF7D9FFB5
:1020E0006000BFF7DAFF000EDF6E050EF3657BEFD1
:1020F00090F07DEF90F081EF90F08DECE7F018EF2D
:1021000096F0010EEE25BC6F000EEF21BD6FF3516E
:10211000020DE20EF324D96E010EF420DA6E600097
:10212000F3F6DEFF6000F7F6DDFFF32BEE4BEF2B4F
:102130006000BBF7D9FF6000BFF7DAFFDF50D8A41B
:10214000A4EF90F0A6EF90F05EEF90F0600088F7BB
:1021500001F060008CF702F0E70E036EFF0E046ED4
:10216000ECECDCF001500210D8A4B9EF90F0BBEF1A
:1021700090F00CEF91F00101F305D8A4C2EF90F0BC
:10218000C4EF90F00CEF91F0CAECBFF0600004F0E7
:10219000F0F1600008F0F1F1760E0C6EFF0E0D6E9E
:1021A00063ECE7F059ECBDF00101F051F111D8A456
:1021B000DCEF90F0DEEF90F0E4EF90F07E0ED06F69
:1021C000FF0ED16FE8EF90F0840ED06FFF0ED16F4D
:1021D000600040F70CF0600044F70DF063ECE7F0AE
:1021E000C60E0001E06F010EE16F990EE26FFF0E67
:1021F000E36F6000C0F7E4F06000C4F7E5F06EEC58
:10220000E1F0C60E056E010E066EB3ECDDF0230E96
:1022100084ECE0F018EF96F0600088F701F06000C1
:102220008CF702F0DF0E036EFF0E046EECECDCF0B8
:1022300001500210D8A41FEF91F021EF91F066EF4A
:1022400091F0020E0101F319D8A429EF91F02BEFC0
:1022500091F066EF91F0040E4B6531EF91F033EFA2
:1022600091F03DEF91F0000E4C6F3A0E0C6EFE0EA9
:102270000D6E63ECE7F018EF96F0600090F70DF04C
:10228000600094F70EF022ECE0F00009D8B44BEFB8
:1022900091F04DEF91F05AEF91F0000E01014B6F6C
:1022A000010E4C6F8A0E0C6EFF0E0D6E63ECE7F0A4
:1022B00018EF96F001014B2B000E4C6F5A0E0C6E6E
:1022C000FF0E0D6E63ECE7F018EF96F0600088F7F4
:1022D00001F060008CF702F0E30E036EFF0E046E57
:1022E000ECECDCF001500210D8A479EF91F07BEF18
:1022F00091F08EEF91F00101F305D8A482EF91F0F7
:1023000084EF91F08EEF91F0000E4C6F8A0E0C6E00
:10231000FF0E0D6E63ECE7F018EF96F0600088F7A3
:1023200001F060008CF702F0DB0E036EFF0E046E0E
:10233000ECECDCF001500210D8A4A1EF91F0A3EF77
:1023400091F015EF92F0020E0101F319D8A4ABEF52
:1023500091F0ADEF91F015EF92F0600090F701F081
:10236000600094F702F05CECDCF00101F26FF229FE
:10237000D8A4BDEF91F0BFEF91F0C1EF91F07DEFE8
:1023800090F0B20E0C6EFF0E0D6E63ECE7F0550E82
:102390000101F225F66EF76AFD0EF722F86A000ECB
:1023A000F8220800F55084ECE0F0000E0101F46F13
:1023B000030EF465DEEF91F0E0EF91F0E2EF91F0C3
:1023C00010EF92F02C0E84ECE0F00101F451040DBA
:1023D0006F00CCFFBCF16F00D0FFBDF1F251100DCA
:1023E000340EBE6F050EBF6FF350BE27F450BF23EF
:1023F000BC51BE25D96EBD51BF21DA6E6F0078FF8A
:10240000F2F06F0078FFF3F06F0078FFF4F06F00E8
:1024100078FFF5F026ECE4F00101F42BD8EF91F011
:10242000230E84ECE0F018EF96F0600088F701F0DE
:1024300060008CF702F0970E036EFF0E046EECEC5A
:10244000DCF001500210D8A428EF92F02AEF92F0AD
:10245000ADEF92F0030E0101F319D8A432EF92F020
:1024600034EF92F0ADEF92F0600090F701F0600071
:1024700094F702F05CECDCF00101F26FF229D8B4C1
:1024800044EF92F046EF92F07DEF90F0600098F705
:102490000DF060009CF70EF0F00E0F6E010E106E46
:1024A000E3ECCDF00009D8A458EF92F05AEF92F087
:1024B0005CEF92F07DEF90F060000CF5CEF16000E3
:1024C00010F5CFF16000C0F743F16000C4F744F1AC
:1024D0000101F2519CECB8F052ECE6F060000CF512
:1024E000F0F1600010F5F1F1600038F743F16000A1
:1024F0003CF744F1AE0E0C6EFF0E0D6E63ECE7F090
:10250000550E0101F225F66EF76AFD0EF722F86A04
:10251000000EF8220800F55084ECE0F02C0E84EC5C
:10252000E0F0C60E0001E06F010EE16FD60EE26F23
:10253000FF0EE36F6000C0F7E4F06000C4F7E5F061
:102540006EECE1F0C60E056E010E066EB3ECDDF02A
:10255000230E84ECE0F018EF96F0600088F701F0AD
:1025600060008CF702F0E50E036EFF0E046EECECDB
:10257000DCF001500210D8A4C0EF92F0C2EF92F04C
:102580007DEF93F0060E0101F319D8A4CAEF92F083
:10259000CCEF92F07DEF93F04C51D8A4D2EF92F0B3
:1025A000D4EF92F0DCEF92F03A0E0C6EFE0E0D6E50
:1025B00063ECE7F018EF96F0600090F701F0600030
:1025C00094F702F05CECDCF00101F26FF229D8A480
:1025D000ECEF92F0EEEF92F0F0EF92F07DEF90F0F2
:1025E000000EF46F030EF465F8EF92F0FAEF92F03C
:1025F000FCEF92F02BEF93F0F451BC6FBD6BD890D1
:10260000BC37BD37040EBC27000EBD23E20EBC252F
:10261000D96E010EBD21DA6E6F0078FF82F06F0077
:1026200074FF83F0F451040DD20EF3240001846F83
:10263000010EF420856F0CECD5F00009D8A423EF2F
:1026400093F025EF93F027EF93F07DEF90F00101E9
:10265000F42BF2EF92F0D20E5D6E010E5E6E2EEC58
:10266000A7F00009D8A437EF93F039EF93F03BEFD0
:1026700093F07DEF90F086ECDFF0000E0101F46F37
:10268000030EF46546EF93F048EF93F04AEF93F0B2
:1026900079EF93F0F451040DD20EF324D96E010EAC
:1026A000F420DA6EF451040D6F00CCFFBCF16F0022
:1026B000D0FFBDF1F251100D340EBE6F050EBF6F8D
:1026C000F350BE27F450BF23BC51BE25E16EBD516F
:1026D000BF21E26E6F007BFFE6FF6F007BFFE6FF2E
:1026E0006F007BFFE6FF6F007BFFE6FFF42B40EF00
:1026F00093F06FECDBF018EF96F0600088F701F0D4
:1027000060008CF702F0A00E036EFF0E046EECEC7E
:10271000DCF001500210D8A490EF93F092EF93F008
:1027200045EF94F0020E0101F319D8A49AEF93F04B
:102730009CEF93F045EF94F04C51D8A4A2EF93F0A6
:10274000A4EF93F0ACEF93F03A0E0C6EFE0E0D6E0C
:1027500063ECE7F018EF96F0600090F701F060008E
:1027600094F702F0D90E036EFF0E046EECECDCF071
:1027700001500210D8A4BFEF93F0C1EF93F0D3EF54
:1027800093F086ECDFF0340E016E050E026E690EDA
:10279000036EFD0E046E000E066EC00E056EF2ECAA
:1027A000DDF079EF93F0600090F701F0600094F7AE
:1027B00002F05CECDCF00101F26FF229D8A4E3EF47
:1027C00093F0E5EF93F0E7EF93F07DEF90F086EC78
:1027D000DFF0000E0101F46F030EF465F2EF93F0E9
:1027E000F4EF93F0F6EF93F079EF93F0F251100DD0
:1027F000690EBC6FFD0EBD6FF350BC27F450BD23B6
:10280000F451040DF350BC27F450BD236000F3F6DF
:10281000F6FF6000F7F6F7FF000EF86E09006F0094
:10282000D4FFBEF109006F00D4FFBFF109006F00B3
:10283000D4FFC0F109006F00D4FFC1F1F451040DC1
:102840006F00CCFFC2F16F00D0FFC3F1F251100D49
:10285000340EC46F050EC56FF350C427F450C52362
:10286000C251C425D96EC351C521DA6E6000FBF692
:10287000DEFF6000FFF6DEFF600003F7DEFF6000B2
:1028800007F7DEFFF42BECEF93F0600088F701F020
:1028900060008CF702F0CD0E036EFF0E046EECECC0
:1028A000DCF001500210D8A458EF94F05AEF94F0E5
:1028B0009EEF94F00101F305D8A461EF94F063EF6B
:1028C00094F09EEF94F08F0E0C6EFF0E0D6E63EC85
:1028D000E7F0600064F4F2F0600068F4F3F0600088
:1028E0006CF4F4F0600070F4F5F026ECE4F02C0EDB
:1028F00084ECE0F06000E4F7F2F06000E8F7F3F059
:102900006000ECF7F4F06000F0F7F5F026ECE4F08E
:102910002C0E84ECE0F06000D4F7F2F06000D8F701
:10292000F3F06000DCF7F4F06000E0F7F5F026EC7F
:10293000E4F0230E84ECE0F018EF96F0600088F7E6
:1029400001F060008CF702F0D00E036EFF0E046EF3
:10295000ECECDCF001500210D8A4B1EF94F0B3EF2E
:1029600094F040EF95F0040E0101F319D8A4BBEFE9
:1029700094F0BDEF94F040EF95F04C51D8A4C3EF24
:1029800094F0C5EF94F0CDEF94F03A0E0C6EFE0E7D
:102990000D6E63ECE7F018EF96F0000EF46F020E88
:1029A000F465D5EF94F0D7EF94F0D9EF94F008EFF9
:1029B00095F0F451BC6FBD6BD890BC37BD37020E9B
:1029C000BC27000EBD23E20EBC25D96E010EBD2131
:1029D000DA6E6F0078FF82F06F0074FF83F0F451BD
:1029E000040DD20EF3240001846F010EF420856FD4
:1029F0000CECD5F00009D8A400EF95F002EF95F0AB
:102A000004EF95F07DEF90F00101F42BCFEF94F0FF
:102A1000D20E5B6E010E5C6E91ECC7F00009D8A47B
:102A200014EF95F016EF95F018EF95F07DEF90F01C
:102A300086ECDFF0600048F719F160004CF71AF1FE
:102A4000600050F71BF1600054F71CF1600058F76C
:102A5000F9F160005CF7FAF1600060F7FBF16000EB
:102A600064F7FCF1600068F7F5F160006CF7F6F1CF
:102A7000600070F7F7F1600074F7F8F179EF93F008
:102A8000600088F701F060008CF702F0E10E036E41
:102A9000FF0E046EECECDCF001500210D8A453EFF2
:102AA00095F055EF95F0CEEF95F0030E0101F31977
:102AB000D8A45DEF95F05FEF95F0CEEF95F04C5117
:102AC000D8A465EF95F067EF95F06FEF95F03A0EAB
:102AD0000C6EFE0E0D6E63ECE7F018EF96F0040E30
:102AE0004B6575EF95F077EF95F081EF95F0000E5F
:102AF0004C6F3A0E0C6EFE0E0D6E63ECE7F018EFA5
:102B000096F0600090F70DF0600094F70EF022EC64
:102B1000E0F00009D8A48FEF95F091EF95F0A5EFC4
:102B200095F001014B2B040E4B6599EF95F09BEF4F
:102B300095F09DEF95F0000E4C6F5A0E0C6EFF0E47
:102B40000D6E63ECE7F018EF96F0000E01014B6F8D
:102B5000600098F705F060009CF706F073ECDDF07C
:102B60000009D8A4B6EF95F0B8EF95F0BAEF95F05C
:102B70007DEF90F086ECDFF0700E016E010E026EBC
:102B8000600098F703F060009CF704F0000E066EFA
:102B9000040E056EF2ECDDF079EF93F0600088F73B
:102BA00001F060008CF702F0DD0E036EFF0E046E84
:102BB000ECECDCF001500210D8A4E1EF95F0E3EF6B
:102BC00095F0F0EF95F00101F305D8A4EAEF95F048
:102BD000ECEF95F0F0EF95F0C1ECD1F018EF96F036
:102BE000600088F701F060008CF702F0CA0E036EF7
:102BF000FF0E046EECECDCF001500210D8A403EFE1
:102C000096F005EF96F07DEF90F00101F305D8A462
:102C10000CEF96F00EEF96F07DEF90F0000E496FFE
:102C2000000E4A6F8A0E0C6EFF0E0D6E63ECE7F01D
:102C300012006000DBF2D9FF6000DFF2DAFF6F0004
:102C40007BFFF6FF6F0077FFF7FF000EF86E0800BE
:102C5000F550250AD8A42FEF96F031EF96F0D0EF7B
:102C60009BF06000DBF2D9FF6000DFF2DAFFDE2AC2
:102C7000000EDD22000E0101246F000E236F23C120
:102C800027F124C128F125692669000E0001C16FD2
:102C9000000EC06F9FEF96F0010127816000DBF20C
:102CA000D9FF6000DFF2DAFFDE2A000EDD229FEF9F
:102CB00096F0010127834EEF96F0010127854EEF34
:102CC00096F0010127874EEF96F0010127894EEF1C
:102CD00096F0000EC16F010EC06F9FEF96F060007E
:102CE000DBF2D9FF6000DFF2DAFF6F007BFFF6FF57
:102CF0006F0077FFF7FF000EF86E0800F550BA6F0F
:102D0000BB6BBB51000AD8B488EF96F069EF96F020
:102D1000BA51200AD8B461EF96F0030AD8B465EF2F
:102D200096F0080AD8B45DEF96F0060AD8B44CEFD6
:102D300096F01D0AD8B459EF96F069EF96F00001AD
:102D4000C051C111D8B4A7EF96F0A9EF96F06FEF7C
:102D500096F0010127A1AFEF96F0B1EF96F0B2EF38
:102D600096F027936000DBF2D9FF6000DFF2DAFF14
:102D70006F007BFFF6FF6F0077FFF7FF000EF86E26
:102D80000800F5502A0AD8A4C8EF96F0CAEF96F0CA
:102D9000FDEF96F06000DBF2D9FF6000DFF2DAFFB2
:102DA000DE2A000EDD226000E3F2D9FF6000E7F2C8
:102DB000DAFF6F007CFFBAF0020EDE266F007CFFA8
:102DC000BBF0000EDD226000EBF2D9FF6000EFF2F5
:102DD000DAFF6F0078FF23F16F0074FF24F124BF46
:102DE000F6EF96F0F4EF96F04FEF97F02781236D12
:102DF000241FD8B0242B4FEF97F06000DBF2D9FFEF
:102E00006000DFF2DAFF6F0078FF08F06F0074FFF8
:102E100009F083ECC9F0600020F023F1600024F099
:102E200024F11CEF97F06000DBF2D9FF6000DFF2C5
:102E3000DAFFDE2A000EDD22D00E0001BA6FFF0E8F
:102E4000BB6F6000DBF2D9FF6000DFF2DAFF6F00DA
:102E50007BFFF6FF6F0077FFF7FF000EF86E0800AC
:102E6000F550BC6FBD6BBA51BC27BB51BD23BD51E2
:102E70000AE10A0EBC5DD8A040EF97F043EF97F04F
:102E8000010E44EF97F0000EC26FC36BC251C31125
:102E9000D8A44DEF97F04FEF97F013EF97F0600045
:102EA000DBF2D9FF6000DFF2DAFF6F007BFFF6FF95
:102EB0006F0077FFF7FF000EF86E0800F5502E0A3E
:102EC000D8A465EF97F067EF97F006EF98F0000E43
:102ED0000101266F000E256F6000DBF2D9FF600054
:102EE000DFF2DAFFDE2A000EDD226000DBF2D9FF1E
:102EF0006000DFF2DAFF6F007BFFF6FF6F0077FF05
:102F0000F7FF000EF86E0800F5502A0AD8A48BEFE0
:102F100097F08DEF97F0B4EF97F06000DBF2D9FFF8
:102F20006000DFF2DAFFDE2A000EDD226000E3F24D
:102F3000D9FF6000E7F2DAFF6F007CFFBAF0020E03
:102F4000DE266F007CFFBBF0000EDD226000EBF29E
:102F5000D9FF6000EFF2DAFF6F0078FF25F16F0014
:102F600074FF26F106EF98F06000DBF2D9FF6000F5
:102F7000DFF2DAFF6F0078FF08F06F0074FF09F0EE
:102F800083ECC9F0600020F025F1600024F026F108
:102F9000D3EF97F06000DBF2D9FF6000DFF2DAFFD9
:102FA000DE2A000EDD22D00E0001BA6FFF0EBB6FCD
:102FB0006000DBF2D9FF6000DFF2DAFF6F007BFF19
:102FC000F6FF6F0077FFF7FF000EF86E0800F55070
:102FD000BC6FBD6BBA51BC27BB51BD23BD510AE1CB
:102FE0000A0EBC5DD8A0F7EF97F0FAEF97F0010E4C
:102FF000FBEF97F0000EC46FC56BC451C511D8A488
:1030000004EF98F006EF98F0CAEF97F06000DBF25B
:10301000D9FF6000DFF2DAFF6F007BFFF6FF6F0081
:1030200077FFF7FF000EF86E0800F550076E086A8C
:10303000BBECDFF007500001CC6FCC51D8B423EFCC
:1030400098F025EF98F06FEF98F06000DBF2D9FF71
:103050006000DFF2DAFF6F0078FFBAF06F0074FFF4
:10306000BBF0010EBA27000EBB236000EBF2F6FFA7
:103070006000EFF2F7FF000EF86E0800F550076EE3
:10308000086ABBECDFF007500001CD6FCD51D8B41A
:103090004CEF98F04EEF98F06FEF98F06000DBF295
:1030A000D9FF6000DFF2DAFF6F0078FFBAF06F003F
:1030B00074FFBBF0020EBA27000EBB236000EBF2D8
:1030C000F6FF6000EFF2F7FF000EF86E0800F55013
:1030D000076E086ABBECDFF007500001CE6F650E8B
:1030E000CC19D8A476EF98F078EF98F0D4EF98F058
:1030F0006000DBF2D9FF6000DFF2DAFF6F007BFFD8
:10310000F6FF6F0077FFF7FF000EF86E08006F0004
:10311000D4FFD7F06000DBF2D9FF6000DFF2DAFF06
:10312000DE2A000EDD226000E3F2D9FF6000E7F244
:10313000DAFF6F007CFFBAF0040EDE266F007CFF22
:10314000BBF0000EDD226000EBF2D9FF6000EFF271
:10315000DAFF6F0078FFC8F06F0078FFC9F06F00EA
:1031600078FFCAF06F0078FFCBF06000D0F270F00B
:103170006000D4F271F0600020F372F0600024F37C
:1031800073F0600028F374F060002CF375F06000B9
:103190005CF376F05AEC89F06000C0F1B4F06000A6
:1031A000C4F1B5F0F5EF9BF0CC0E016E000E026E8F
:1031B000C10E036EFF0E046E000E066E020E056E4B
:1031C0009EECCCF001500210D8A4E9EF98F0EBEFA0
:1031D00098F08CEF99F06000DBF2D9FF6000DFF22D
:1031E000DAFF6F0078FFBAF06F0074FFBBF0010EDA
:1031F0000001BA27000EBB236000EBF2F6FF60006F
:10320000EFF2F7FF000EF86E08006F00D4FFD7F062
:10321000BF0EBA6FFF0EBB6F6000DBF2D9FF60001C
:10322000DFF2DAFF6F007BFFF6FF6F0077FFF7FF3B
:10323000000EF86E0800F550BC6FBD6BBA51BC278C
:10324000BB51BD23BD510AE11A0EBC5DD8A02BEFC6
:1032500099F02EEF99F0010E2FEF99F0000EC66F46
:10326000C76BC651C711D8B438EF99F03AEF99F04F
:103270005EEF99F06000E3F2D9FF6000E7F2DAFF59
:103280006F007CFFBAF0040EDE266F007CFFBBF0FF
:10329000000EDD226000EBF2D9FF6000EFF2DAFFF2
:1032A0006F0078FFC8F06F0078FFC9F06F0078FFFB
:1032B000CAF06F0078FFCBF080EF99F06000E3F286
:1032C000D9FF6000E7F2DAFF6F007CFFBAF0040E6E
:1032D000DE266F007CFFBBF0000EDD226000EBF20B
:1032E000D9FF6000EFF2DAFF6F0078FFC8F06F00DF
:1032F00078FFC9F06F0078FFCAF06F0078FFCBF05D
:10330000020E6000DBF2D9FF6000DFF2DAFFDE269A
:10331000000EDD22B5EF98F06000DBF2D9FF60000F
:10332000DFF2DAFF6F007BFFF6FF6F0077FFF7FF3A
:10333000000EF86E0800F550750AD8A4A2EF99F0B7
:10334000A4EF99F0FEEF99F06000DBF2D9FF600086
:10335000DFF2DAFFDE2A000EDD226000E3F2D9FFA1
:103360006000E7F2DAFF6F007CFFBAF0020EDE26A3
:103370006F007CFFBBF0000EDD226000EBF2D9FF96
:103380006000EFF2DAFF6F0078FFBCF06F0074FFAF
:10339000BDF06000F0F2CFF06000F4F2D0F0000178
:1033A000D16BD26BD36BD46BD56BD66B6000D0F284
:1033B0001CF06000D4F21DF060003CF31EF06000D1
:1033C00040F31FF0600044F320F0600048F321F068
:1033D00060004CF322F0600050F323F0600054F3DF
:1033E00024F0600058F325F096ECBEF0600070F019
:1033F000B4F0600074F0B5F0F5EF9BF06000DBF224
:10340000D9FF6000DFF2DAFF6F0078FF01F06F0094
:1034100074FF02F0BB0E036EFF0E046E000E066E0C
:10342000020E056E9EECCCF001500210D8A41BEFEA
:103430009AF01DEF9AF058EF9AF0020E6000DBF25E
:10344000D9FF6000DFF2DAFFDE26000EDD22600029
:10345000E3F2D9FF6000E7F2DAFF6F007CFFBAF019
:10346000040EDE266F007CFFBBF0000EDD22600044
:10347000EBF2D9FF6000EFF2DAFF6F0078FFBCF0EB
:103480006F0078FFBDF06F0078FFBEF06F0078FF2F
:10349000BFF00001BC51CF6FBD51D06FBE51D16F95
:1034A000BF51D26FD36BD46BD56BD66BD6EF99F07F
:1034B0006000DBF2D9FF6000DFF2DAFF6F007BFF14
:1034C000F6FF6F0077FFF7FF000EF86E0800F5506B
:1034D000780AD8B46EEF9AF070EF9AF088EF9AF00D
:1034E0006000DBF2D9FF6000DFF2DAFF6F007BFFE4
:1034F000F6FF6F0077FFF7FF000EF86E0800F5503B
:10350000580AD8A486EF9AF088EF9AF0F7EF9AF06D
:103510006000DBF2D9FF6000DFF2DAFF6F007BFFB3
:10352000F6FF6F0077FFF7FF000EF86E08006F00E0
:10353000D4FFD7F06000DBF2D9FF6000DFF2DAFFE2
:10354000DE2A000EDD226000E3F2D9FF6000E7F220
:10355000DAFF6F007CFFBAF0020EDE266F007CFF00
:10356000BBF0000EDD226000EBF2D9FF6000EFF24D
:10357000DAFF6F0078FFBCF06F0074FFBDF06000F1
:10358000F0F2CFF06000F4F2D0F00001D16BD26B1A
:10359000D36BD46BD56BD66B6000D0F21CF060009F
:1035A000D4F21DF060003CF31EF0600040F31FF009
:1035B000600044F320F0600048F321F060004CF319
:1035C00022F0600050F323F0600054F324F0600018
:1035D00058F325F060005CF326F03AECBAF0600096
:1035E00070F0B4F0600074F0B5F0F5EF9BF060009F
:1035F000DBF2D9FF6000DFF2DAFF6F0078FF01F045
:103600006F0074FF02F0C70E036EFF0E046E000E13
:10361000066E020E056E9EECCCF001500210D8B47E
:1036200014EF9BF016EF9BF035EF9BF06000DBF2A0
:10363000D9FF6000DFF2DAFF6F0078FF01F06F0062
:1036400074FF02F0BE0E036EFF0E046E000E066ED7
:10365000020E056E9EECCCF001500210D8A433EFA0
:103660009BF035EF9BF08CEF9BF06000DBF2D9FF15
:103670006000DFF2DAFF6F0078FFBAF06F0074FFCE
:10368000BBF0010E0001BA27000EBB236000EBF275
:10369000F6FF6000EFF2F7FF000EF86E08006F0013
:1036A000D4FFD7F0020E6000DBF2D9FF6000DFF23A
:1036B000DAFFDE26000EDD226000E3F2D9FF6000B3
:1036C000E7F2DAFF6F007CFFBAF0040EDE266F002F
:1036D0007CFFBBF0000EDD226000EBF2D9FF600042
:1036E000EFF2DAFF6F0078FFBCF06F0078FFBDF0FB
:1036F0006F0078FFBEF06F0078FFBFF0BC51CF6F56
:10370000BD51D06FBE51D16FBF51D26FD36BD46B4F
:10371000D56BD66BCCEF9AF06000DBF2D9FF60007E
:10372000DFF2DAFF6F007BFFF6FF6F0077FFF7FF36
:10373000000EF86E0800F550250AD8A4A2EF9BF001
:10374000A4EF9BF0C0EF9BF06000DBF2D9FF6000BC
:10375000DFF2DAFFDE2A000EDD22000E026E250EF9
:10376000016E6000D0F203F06000D4F204F0E6ECE9
:10377000D5F0000E0001B56F010EB46FF5EF9BF0B0
:103780006000DBF2D9FF6000DFF2DAFFDE2A000E14
:10379000DD22000E0001B56F000EB46FF5EF9BF057
:1037A0006000DBF2D9FF6000DFF2DAFF6F007BFF21
:1037B000F6FF6F0077FFF7FF000EF86E0800F55078
:1037C000016E026A6000D0F203F06000D4F204F0EF
:1037D000E6ECD5F06000DBF2D9FF6000DFF2DAFF43
:1037E000DE2A000EDD22B9EF9BF01200000E01016F
:1037F000B26F010EB36F2EEFA0F0000E01019B6FB0
:10380000000E9A6F6000EFF3D9FF6000F3F3DAFF68
:103810001A0EDE6E010EDD6E9A0E5B6E010E5C6E90
:103820004EECC3F05CBE20EF9CF05C5007E1020E52
:103830005B5CD8B01EEF9CF020EF9CF027EF9CF073
:10384000000E0001FC6F000EFB6F7AEFA0F080EC21
:10385000E6F0600004F011F1600008F012F1600081
:103860000CF013F1600010F014F101014551461104
:10387000D8B43DEF9CF03FEF9CF070EF9CF0000E51
:10388000496E000E486E000E4B6EC70E4A6EE5EC98
:10389000E3F0000E496E000E486E000E4B6ECD0E2A
:1038A0004A6EE5ECE3F0000E496E000E486E000E25
:1038B0004B6ED20E4A6EE5ECE3F0000E496E000E40
:1038C000486E000E4B6ED70E4A6EE5ECE3F0000E2C
:1038D00001013E6F000E3D6F000E466F000E456FFA
:1038E000CEA275EF9CF078EF9CF0010E79EF9CF082
:1038F000000E5F6F5F51D8A480EF9CF082EF9CF0C8
:103900008BEF9CF047514811D8B489EF9CF08BEFB6
:103910009CF01CEF9FF0000E9B6F000E9A6F6000F2
:10392000EFF3D9FF6000F3F3DAFF2A0EDE6E010E2B
:10393000DD6E9A0E5B6E010E5C6EF8ECB6F05CBE4E
:10394000ADEF9CF05C5007E1020E5B5CD8B0ABEFD2
:103950009CF0ADEF9CF0AFEF9CF020EF9CF0A2EC60
:10396000E7F0600004F043F1600008F044F160000B
:1039700044F419F0600048F41AF060004CF41BF0B5
:10398000600050F41CF0600064F415F0600068F40E
:1039900016F060006CF417F0600070F418F04BEC57
:1039A000AFF0600054F0AAF1600058F0ABF1600095
:1039B0005CF0ACF1600060F0ADF1600044F419F02F
:1039C000600048F41AF060004CF41BF0600050F402
:1039D0001CF06000E4F715F06000E8F716F06000F6
:1039E000ECF717F06000F0F718F04BECAFF0600068
:1039F00054F032F0600058F033F060005CF034F0C6
:103A0000600060F035F0600044F419F0600048F4A4
:103A10001AF060004CF41BF0600050F41CF06000E1
:103A2000A8F615F06000ACF616F06000B0F617F0DE
:103A30006000B4F618F04BECAFF0600054F02EF0DC
:103A4000600058F02FF060005CF030F0600060F033
:103A500031F0CDECACF06000B8F0AEF16000BCF03D
:103A6000AFF16000C0F0B0F16000C4F0B1F16000EF
:103A70000CF507F0600010F508F0096A0A6A000EFC
:103A800097ECC8F060001CF019F0600020F01AF00C
:103A9000600024F01BF0600028F01CF06000D4F7F8
:103AA00032F06000D8F733F06000DCF734F06000EB
:103AB000E0F735F06000B8F62EF06000BCF62FF0AD
:103AC0006000C0F630F06000C4F631F0CDECACF030
:103AD0006000B8F015F06000BCF016F06000C0F0B7
:103AE00017F06000C4F018F04BECAFF0600054F039
:103AF0003EF0600058F03FF060005CF040F0600085
:103B000060F041F0AFECD0F06000F8F043F16000FD
:103B1000FCF044F101015F51D8B491EF9DF093EFB7
:103B20009DF0BFEF9DF0B251D8A499EF9DF09BEFAF
:103B30009DF0BFEF9DF0000E9B6F000E9A6F60002E
:103B4000EFF3D9FF6000F3F3DAFF3A0EDE6E010EF9
:103B5000DD6E9A0E5D6E010E5E6E30ECA4F05EBE00
:103B6000BDEF9DF05E5007E1020E5D5CD8B0BBEF8B
:103B70009DF0BDEF9DF0BFEF9DF020EF9CF00101A7
:103B800047514811D8B4C7EF9DF0C9EF9DF0EFEF52
:103B90009DF0000E9B6F000E9A6F6000EFF3D9FF4F
:103BA0006000F3F3DAFF470EDE6E010EDD6E9A0E53
:103BB0000001F66F010EF76F7BECA0F00001F7BF7C
:103BC000EDEF9DF0F75107E1020EF65DD8B0EBEF97
:103BD0009DF0EDEF9DF0EFEF9DF020EF9CF0B60E25
:103BE000016E040E026EFD0E036EFF0E046E000EDB
:103BF000066E010E056E9EECCCF001500210D8A4AA
:103C000004EF9EF006EF9EF0DAEF9EF0000E196EC4
:103C1000000E1A6E000E1B6E400E1C6E6000E0F56A
:103C200015F06000E4F516F06000E8F517F06000AC
:103C3000ECF518F04BECAFF0600054F02EF06000A3
:103C400058F02FF060005CF030F0600060F031F070
:103C5000000E326E000E336EA80E346EC10E356E3D
:103C6000CDECACF06000B8F078F16000BCF079F118
:103C70006000C0F07AF16000C4F07BF1000E2E6E9F
:103C8000000E2F6EA00E306E400E316E6000E0F51B
:103C900032F06000E4F533F06000E8F534F06000E5
:103CA000ECF535F043ECD2F0D8B059EF9EF05BEF75
:103CB0009EF081EF9EF06000E0F52EF06000E4F5EC
:103CC0002FF06000E8F530F06000ECF531F0000E08
:103CD000326E000E336E200E346E410E356E43ECA4
:103CE000D2F0D8B076EF9EF078EF9EF081EF9EF0A4
:103CF000000E0101786F000E796FA00E7A6F400EF2
:103D00007B6F01017BBF89EF9EF087EF9EF091EF03
:103D10009EF0000E786F000E796F000E7A6F000E25
:103D20007B6F6000E0F53EF06000E4F53FF060007E
:103D3000E8F540F06000ECF541F0AFECD0F0600049
:103D4000F8F035F16000FCF036F1A40E0001E06FF0
:103D5000010EE16FD60EE26FFF0EE36F6000D4F448
:103D6000E4F06000D8F4E5F06EECE1F0E80E056EEA
:103D7000020E066ED40E076EFF0E086EE1ECDEF04A
:103D8000E80E0F6E020E106EA40E116E010E126E72
:103D90007FECE5F0E80E0F6E020E106ED40E116E81
:103DA000FF0E126E7FECE5F0E80E056E020E066E59
:103DB000B3ECDDF007ECE6F0000E0101486F000EF9
:103DC000476FE80E016E020E026E000E046E000ECA
:103DD000036E000E066E080E056E68ECCAF02FEC3E
:103DE000E5F0F40E01240201746F010E0220756FDC
:103DF000000E0320766F000E0420776F6000EFF353
:103E0000D9FF6000F3F3DAFF5B0EDE6E010EDD6EAC
:103E10002FECE5F001500201745D0250755903501A
:103E2000765904507759D8A018EF9FF01AEF9FF0F9
:103E30001CEF9FF020EF9CF0000E01019B6F000E25
:103E40009A6F6000EFF3D9FF6000F3F3DAFF5D0EC5
:103E5000DE6E010EDD6E9A0E2E6E010E2F6E7AEC66
:103E6000C5F02FBE3FEF9FF02F5007E1020E2E5CF2
:103E7000D8B03DEF9FF03FEF9FF041EF9FF020EF74
:103E80009CF08DECE6F0600004F02EF0600008F08D
:103E90002FF060000CF030F0600010F031F0000EF8
:103EA000326E000E336E200E346EC10E356ECDECC8
:103EB000ACF06000B8F078F16000BCF079F160001F
:103EC000C0F07AF16000C4F07BF1EC0E196ED10EF7
:103ED0001A6E350E1B6E420E1C6E6000E0F515F07A
:103EE0006000E4F516F06000E8F517F06000ECF50E
:103EF00018F04BECAFF0600054F02EF0600058F07A
:103F00002FF060005CF030F0600060F031F0BC0E2B
:103F1000326E740E336E910E346EC00E356ECDEC73
:103F2000ACF06000B8F078F16000BCF079F16000AE
:103F3000C0F07AF16000C4F07BF1010E01010D25A3
:103F40000D6F000E0E210E6F000E0F210F6F000E71
:103F50001021106F10BFB8EF9FF010510F110E110C
:103F600009E1C90E0D5DD8A0B8EF9FF0BAEF9FF040
:103F700012EFA0F07BBFC1EF9FF0BFEF9FF0C9EF42
:103F80009FF0000E786F000E796F000E7A6F000EB2
:103F90007B6F000E2E6E000E2F6EC60E306E420E20
:103FA000316E6000E0F532F06000E4F533F060005F
:103FB000E8F534F06000ECF535F043ECD2F0D8B021
:103FC000E4EF9FF0E6EF9FF0EFEF9FF0000E0101AE
:103FD000786F000E796FC60E7A6F420E7B6F6000AD
:103FE000E0F53EF06000E4F53FF06000E8F540F0F9
:103FF0006000ECF541F0AFECD0F06000F8F048F074
:104000006000FCF049F0000E4B6ECF0E4A6EE5ECFE
:10401000E3F0000E01010D6F000E0E6F000E0F6F2A
:10402000000E106F000EB36F6000EFF3D9FF600059
:10403000F3F3DAFF670EDE6E010EDD6E0101B351A0
:10404000D8A425EFA0F027EFA0F0FDEF9BF0000E25
:104050000001FC6F010EFB6F7AEFA0F06000EFF340
:10406000D9FF6000F3F3DAFF6F0078FFFDF06F0017
:1040700074FFFEF00001FE51000AD8B446EFA0F034
:10408000010AD8B44DEFA0F06CEFA0F0FD51000A8A
:10409000D8B4FDEF9BF06CEFA0F0FD511A0AD8B434
:1040A0000CEF9CF0300AD8B499EF9CF0100AD8B409
:1040B000A9EF9DF07D0AD8B4D7EF9DF01C0AD8B4C3
:1040C00008EF9FF0060AD8B42BEF9FF03A0AD8B455
:1040D0001EEFA0F06CEFA0F06000EFF3D9FF6000DE
:1040E000F3F3DAFF000EDE6E000EDD6E000EFC6FE5
:1040F000030EFB6F1200D2EFA3F0B60E016E040E9A
:10410000026EE90E036EFF0E046E000E066E010EC7
:10411000056E9EECCCF001500210D8A492EFA0F0F6
:1041200094EFA0F0C3EFA0F0E2ECE7F0000E010185
:104130007D6F000E7C6F6000DBF3D9FF6000DFF362
:10414000DAFF8F0EDE6E000EDD6E7C0E0001F26F68
:10415000010EF36F4BECCDF00001F3BFBBEFA0F00D
:10416000F35107E1020EF25DD8B0B9EFA0F0BBEF5A
:10417000A0F0C1EFA0F0000EF76F000EF66F2FEF6A
:10418000A4F0C1EFA3F0B60E016E040E026EEB0EAA
:10419000036EFF0E046E000E066E010E056E9EECA1
:1041A000CCF001500210D8A4D8EFA0F0DAEFA0F0C4
:1041B00003EFA1F0F2ECE7F0000E01017D6F000EBD
:1041C0007C6F6000DBF3D9FF6000DFF3DAFF930E52
:1041D000DE6E000EDD6E7C0E0001F26F010EF36FDD
:1041E0004BECCDF00001F3BF01EFA1F0F35107E17B
:1041F000020EF25DD8B0FFEFA0F001EFA1F0C1EF29
:10420000A0F0BBEFA0F0B60E016E040E026E580EC9
:10421000036EFE0E046E000E066E010E056E9EEC21
:10422000CCF001500210D8A418EFA1F01AEFA1F0C1
:1042300043EFA1F0CAECE7F0000E01017D6F000E24
:104240007C6F6000DBF3D9FF6000DFF3DAFF970ECD
:10425000DE6E000EDD6E7C0E0001F26F010EF36F5C
:104260004BECCDF00001F3BF41EFA1F0F35107E1BA
:10427000020EF25DD8B03FEFA1F041EFA1F0C1EF27
:10428000A0F0BBEFA0F0B60E016E040E026EED0EB4
:10429000036EFF0E046E000E066E010E056E9EECA0
:1042A000CCF001500210D8A458EFA1F05AEFA1F0C1
:1042B00083EFA1F0D2ECE7F0000E01017D6F000E5C
:1042C0007C6F6000DBF3D9FF6000DFF3DAFF9B0E49
:1042D000DE6E000EDD6E7C0E0001F26F010EF36FDC
:1042E0004BECCDF00001F3BF81EFA1F0F35107E1FA
:1042F000020EF25DD8B07FEFA1F081EFA1F0C1EF27
:10430000A0F0BBEFA0F0B60E016E040E026E020E1E
:10431000036EFF0E046E000E066E010E056E9EEC1F
:10432000CCF001500210D8A498EFA1F09AEFA1F0C0
:10433000C3EFA1F0EAECE7F0000E01017D6F000E83
:104340007C6F6000DBF3D9FF6000DFF3DAFF9F0EC4
:10435000DE6E000EDD6E7C0E0001F26F010EF36F5B
:104360004BECCDF00001F3BFC1EFA1F0F35107E139
:10437000020EF25DD8B0BFEFA1F0C1EFA1F0C1EF26
:10438000A0F0BBEFA0F0B60E016E040E026E350E6B
:10439000036EFF0E046E000E066E010E056E9EEC9F
:1043A000CCF001500210D8A4D8EFA1F0DAEFA1F0C0
:1043B00003EFA2F0DAECE7F0000E01017D6F000ED2
:1043C0007C6F6000DBF3D9FF6000DFF3DAFFA30E40
:1043D000DE6E000EDD6E7C0E0001F26F010EF36FDB
:1043E0004BECCDF00001F3BF01EFA2F0F35107E178
:1043F000020EF25DD8B0FFEFA1F001EFA2F0C1EF25
:10440000A0F0BBEFA0F0B60E016E040E026EEF0E30
:10441000036EFF0E046E000E066E010E056E9EEC1E
:10442000CCF001500210D8A418EFA2F01AEFA2F0BD
:1044300043EFA2F0DEECE7F0000E01017D6F000E0D
:104440007C6F6000DBF3D9FF6000DFF3DAFFA90EB9
:10445000DE6E000EDD6E7C0E0001F26F010EF36F5A
:104460004BECCDF00001F3BF41EFA2F0F35107E1B7
:10447000020EF25DD8B03FEFA2F041EFA2F0C1EF23
:10448000A0F0BBEFA0F0B60E016E040E026EF10EAE
:10449000036EFF0E046E000E066E010E056E9EEC9E
:1044A000CCF001500210D8A458EFA2F05AEFA2F0BD
:1044B00083EFA2F0EEECE7F0000E01017D6F000E3D
:1044C0007C6F6000DBF3D9FF6000DFF3DAFFAD0E35
:1044D000DE6E000EDD6E7C0E0001F26F010EF36FDA
:1044E0004BECCDF00001F3BF81EFA2F0F35107E1F7
:1044F000020EF25DD8B07FEFA2F081EFA2F0C1EF23
:10450000A0F0BBEFA0F0B60E016E040E026EF30E2B
:10451000036EFF0E046E000E066E010E056E9EEC1D
:10452000CCF001500210D8A498EFA2F09AEFA2F0BC
:10453000C3EFA2F0C6ECE7F0000E01017D6F000EA4
:104540007C6F6000DBF3D9FF6000DFF3DAFFB10EB0
:10455000DE6E000EDD6E7C0E0001F26F010EF36F59
:104560004BECCDF00001F3BFC1EFA2F0F35107E136
:10457000020EF25DD8B0BFEFA2F0C1EFA2F0C1EF22
:10458000A0F0BBEFA0F0B60E016E040E026EF50EA9
:10459000036EFF0E046E000E066E010E056E9EEC9D
:1045A000CCF001500210D8A4D8EFA2F0DAEFA2F0BC
:1045B00003EFA3F0CEECE7F0000E01017D6F000EDB
:1045C0007C6F6000DBF3D9FF6000DFF3DAFFB50E2C
:1045D000DE6E000EDD6E7C0E0001F26F010EF36FD9
:1045E0004BECCDF00001F3BF01EFA3F0F35107E175
:1045F000020EF25DD8B0FFEFA2F001EFA3F0C1EF21
:10460000A0F0BBEFA0F0B60E016E040E026EF70E26
:10461000036EFF0E046E000E066E010E056E9EEC1C
:10462000CCF001500210D8A418EFA3F01AEFA3F0B9
:1046300043EFA3F0E6ECE7F0000E01017D6F000E02
:104640007C6F6000DBF3D9FF6000DFF3DAFFB90EA7
:10465000DE6E000EDD6E7C0E0001F26F010EF36F58
:104660004BECCDF00001F3BF41EFA3F0F35107E1B4
:10467000020EF25DD8B03FEFA3F041EFA3F0C1EF1F
:10468000A0F0BBEFA0F0B60E016E040E026EF90EA4
:10469000036EFF0E046E000E066E010E056E9EEC9C
:1046A000CCF001500210D8A458EFA3F05AEFA3F0B9
:1046B00083EFA3F0D6ECE7F0000E01017D6F000E52
:1046C0007C6F6000DBF3D9FF6000DFF3DAFFBD0E23
:1046D000DE6E000EDD6E7C0E0001F26F010EF36FD8
:1046E0004BECCDF00001F3BF81EFA3F0F35107E1F4
:1046F000020EF25DD8B07FEFA3F081EFA3F0C1EF1F
:10470000A0F0BBEFA0F0B60E016E040E026EC20E5A
:10471000036EFF0E046E000E066E010E056E9EEC1B
:10472000CCF001500210D8A498EFA3F09AEFA3F0B8
:10473000C1EFA0F0000E01017D6F000E7C6F6000E4
:10474000DBF3D9FF6000DFF3DAFFC00EDE6E000E90
:10475000DD6E7C0E0001F26F010EF36F4BECCDF0BD
:104760000001F3BFBFEFA3F0F35107E1020EF25DCA
:10477000D8B0BDEFA3F0BFEFA3F0C1EFA0F0BBEF47
:10478000A0F06000DBF3D9FF6000DFF3DAFF000E7A
:10479000DE6E000EDD6E000E0001F76F020EF66F8A
:1047A0002FEFA4F06000DBF3D9FF6000DFF3DAFF46
:1047B0006F0078FFF8F06F0074FFF9F00001F95115
:1047C000000AD8B4E6EFA3F021EFA4F0F851000AF4
:1047D000D8B47DEFA0F08F0AD8B4A5EFA0F01C0AE2
:1047E000D8B4EBEFA0F0040AD8B42BEFA1F00C0A78
:1047F000D8B46BEFA1F0040AD8B4ABEFA1F03C0A37
:10480000D8B4EBEFA1F00A0AD8B42BEFA2F0040A57
:10481000D8B46BEFA2F01C0AD8B4ABEFA2F0040A34
:10482000D8B4EBEFA2F00C0AD8B42BEFA3F0040A33
:10483000D8B46BEFA3F07D0AD8B4A9EFA3F021EFB1
:10484000A4F06000DBF3D9FF6000DFF3DAFF000EB5
:10485000DE6E000EDD6E000EF76F030EF66F1200B7
:10486000D0EFA6F004010805D8A439EFA4F03BEF7F
:10487000A4F06AEFA4F0E2ECE7F0EBECCBF0000E72
:1048800001017F6F000E7E6F600077F1D9FF60003D
:104890007BF1DAFF4C0EDE6E000EDD6E7E0E096ED1
:1048A000010E0A6EB9ECD3F00ABE62EFA4F00A5012
:1048B00007E1020E095CD8B060EFA4F062EFA4F04B
:1048C00068EFA4F0000E5E6E000E5D6E2DEFA7F097
:1048D000C0EFA6F0020E0819D8A471EFA4F073EF90
:1048E000A4F09CEFA4F0F2ECE7F0EBECCBF0000EC0
:1048F00001017F6F000E7E6F600077F1D9FF6000CD
:104900007BF1DAFF500EDE6E000EDD6E7E0E096E5C
:10491000010E0A6EB9ECD3F00ABE9AEFA4F00A5069
:1049200007E1020E095CD8B098EFA4F09AEFA4F06A
:1049300068EFA4F062EFA4F0030E0819D8A4A3EF67
:10494000A4F0A5EFA4F0CEEFA4F0CAECE7F0EBECF6
:10495000CBF0000E01017F6F000E7E6F600077F1DB
:10496000D9FF60007BF1DAFF550EDE6E000EDD6EC2
:104970007E0E096E010E0A6EB9ECD3F00ABECCEFC2
:10498000A4F00A5007E1020E095CD8B0CAEFA4F007
:10499000CCEFA4F068EFA4F062EFA4F0040E0819C5
:1049A000D8A4D5EFA4F0D7EFA4F000EFA5F0D2EC97
:1049B000E7F0EBECCBF0000E01017F6F000E7E6F95
:1049C000600077F1D9FF60007BF1DAFF5A0EDE6EEE
:1049D000000EDD6E7E0E096E010E0A6EB9ECD3F08C
:1049E0000ABEFEEFA4F00A5007E1020E095CD8B03F
:1049F000FCEFA4F0FEEFA4F068EFA4F062EFA4F0E7
:104A0000050E0819D8A407EFA5F009EFA5F032EFBD
:104A1000A5F0EAECE7F0EBECCBF0000E01017F6FC4
:104A2000000E7E6F600077F1D9FF60007BF1DAFF46
:104A30005F0EDE6E000EDD6E7E0E096E010E0A6EDA
:104A4000B9ECD3F00ABE30EFA5F00A5007E1020E30
:104A5000095CD8B02EEFA5F030EFA5F068EFA4F018
:104A600062EFA4F0060E0819D8A439EFA5F03BEFC9
:104A7000A5F064EFA5F0DAECE7F0EBECCBF0000E7C
:104A800001017F6F000E7E6F600077F1D9FF60003B
:104A90007BF1DAFF640EDE6E000EDD6E7E0E096EB7
:104AA000010E0A6EB9ECD3F00ABE62EFA5F00A500F
:104AB00007E1020E095CD8B060EFA5F062EFA5F047
:104AC00068EFA4F062EFA4F0070E0819D8A46BEF0A
:104AD000A5F06DEFA5F096EFA5F0DEECE7F0EBECBE
:104AE000CBF0000E01017F6F000E7E6F600077F14A
:104AF000D9FF60007BF1DAFF6A0EDE6E000EDD6E1C
:104B00007E0E096E010E0A6EB9ECD3F00ABE94EF68
:104B1000A5F00A5007E1020E095CD8B092EFA5F0AB
:104B200094EFA5F068EFA4F062EFA4F0080E081966
:104B3000D8A49DEFA5F09FEFA5F0C8EFA5F0EEEC8F
:104B4000E7F0EBECCBF0000E01017F6F000E7E6F03
:104B5000600077F1D9FF60007BF1DAFF6F0EDE6E47
:104B6000000EDD6E7E0E096E010E0A6EB9ECD3F0FA
:104B70000ABEC6EFA5F00A5007E1020E095CD8B0E4
:104B8000C4EFA5F0C6EFA5F068EFA4F062EFA4F0C3
:104B90000A0E0819D8A4CFEFA5F0D1EFA5F0FAEFCF
:104BA000A5F0C6ECE7F0EBECCBF0000E01017F6F57
:104BB000000E7E6F600077F1D9FF60007BF1DAFFB5
:104BC000730EDE6E000EDD6E7E0E096E010E0A6E35
:104BD000B9ECD3F00ABEF8EFA5F00A5007E1020ED7
:104BE000095CD8B0F6EFA5F0F8EFA5F068EFA4F0F7
:104BF00062EFA4F00B0E0819D8A401EFA6F003EFA2
:104C0000A6F02CEFA6F0CEECE7F0EBECCBF0000E2C
:104C100001017F6F000E7E6F600077F1D9FF6000A9
:104C20007BF1DAFF770EDE6E000EDD6E7E0E096E12
:104C3000010E0A6EB9ECD3F00ABE2AEFA6F00A50B4
:104C400007E1020E095CD8B028EFA6F02AEFA6F023
:104C500068EFA4F062EFA4F00C0E0819D8A433EFAB
:104C6000A6F035EFA6F05EEFA6F0E6ECE7F0EBEC91
:104C7000CBF0000E01017F6F000E7E6F600077F1B8
:104C8000D9FF60007BF1DAFF7B0EDE6E000EDD6E79
:104C90007E0E096E010E0A6EB9ECD3F00ABE5CEF0F
:104CA000A6F00A5007E1020E095CD8B05AEFA6F050
:104CB0005CEFA6F068EFA4F062EFA4F00D0E081907
:104CC000D8A465EFA6F067EFA6F090EFA6F0D6ECBB
:104CD000E7F0EBECCBF0000E01017F6F000E7E6F72
:104CE000600077F1D9FF60007BF1DAFF7F0EDE6EA6
:104CF000000EDD6E7E0E096E010E0A6EB9ECD3F069
:104D00000ABE8EEFA6F00A5007E1020E095CD8B089
:104D10008CEFA6F08EEFA6F068EFA4F062EFA4F09F
:104D20000E0E0819D8A497EFA6F099EFA6F068EF39
:104D3000A4F0EBECCBF0000E01017F6F000E7E6F54
:104D4000600077F1D9FF60007BF1DAFF820EDE6E42
:104D5000000EDD6E7E0E096E010E0A6EB9ECD3F008
:104D60000ABEBEEFA6F00A5007E1020E095CD8B0F9
:104D7000BCEFA6F0BEEFA6F068EFA4F062EFA4F0DF
:104D8000600077F1D9FF60007BF1DAFF000EDE6E84
:104D9000000EDD6E000E5E6E020E5D6E2DEFA7F052
:104DA000600077F1D9FF60007BF1DAFF6F0078FFD8
:104DB00060F06F0074FF61F000016151000AD8B427
:104DC000E4EFA6F01FEFA7F06051000AD8B432EF6D
:104DD000A4F04C0AD8B44EEFA4F01C0AD8B486EF65
:104DE000A4F0050AD8B4B8EFA4F00F0AD8B4EAEFDB
:104DF000A4F0050AD8B41CEFA5F03B0AD8B44EEFD6
:104E0000A5F00E0AD8B480EFA5F0050AD8B4B2EF29
:104E1000A5F01C0AD8B4E4EFA5F0040AD8B416EF44
:104E2000A6F00C0AD8B448EFA6F0040AD8B47AEF7A
:104E3000A6F0FD0AD8B4AAEFA6F01FEFA7F0600015
:104E400077F1D9FF60007BF1DAFF000EDE6E000E15
:104E5000DD6E000E5E6E030E5D6E1200600074F17A
:104E60003EF0600078F13FF0000E406E000E416EA3
:104E7000160E426E440E436ECFECBBF00009D8B460
:104E800044EFA7F046EFA7F05EEFA7F0600074F1E3
:104E90003EF0600078F13FF0000E406E600E416E13
:104EA000860E426E450E436ECFECBBF00009D8A4CF
:104EB0005CEFA7F05EEFA7F061EFA7F0000E1FEF29
:104EC000AAF0600077F1D9FF60007BF1DAFF6F0094
:104ED00078FF01F06F0078FF02F06F0078FF03F0B9
:104EE0006F0078FF04F0000E056E000E066E000ED7
:104EF000076E000E086E74ECDAF0D8A082EFA7F00F
:104F000084EFA7F01EEFA8F020EE04F05D50D92644
:104F10005E50DA226F0078FF01F06F0078FF02F038
:104F20006F0078FF03F06F0078FF04F0000E056E4D
:104F3000000E066E000E076E000E086E74ECDAF0BE
:104F4000D8B0A5EFA7F0A7EFA7F01BEFA8F020EED1
:104F500008F05D50D9265E50DA226F0078FF3EF0EF
:104F60006F0078FF3FF06F0078FF40F06F0078FF30
:104F700041F006ECE4F06000F8F042F06000FCF074
:104F800043F0600000F144F0600004F145F0000ED1
:104F9000196E000E1A6E000E1B6E400E1C6E20EE77
:104FA00004F05D50D9265E50DA226F0078FF15F0CC
:104FB0006F0078FF16F06F0078FF17F06F0078FF32
:104FC00018F04BECAFF0600054F046F0600058F081
:104FD00047F060005CF048F0600060F049F090EC51
:104FE000B1F0600008F190F060000CF191F0600009
:104FF00010F192F0600014F193F0600074F160F031
:10500000600078F161F0600040F262F0600044F20C
:1050100063F0600048F264F060004CF265F01DEC53
:10502000DBF00009D8A417EFA8F019EFA8F01BEFE8
:10503000A8F05EEFA7F0010E1FEFAAF0000E196EA8
:10504000000E1A6E400E1B6E400E1C6E600077F153
:10505000D9FF60007BF1DAFF6F0078FF15F06F0079
:1050600078FF16F06F0078FF17F06F0078FF18F0E8
:105070004BECAFF0600054F08CF0600058F08DF015
:1050800060005CF08EF0600060F08FF020EE04F0C5
:105090005D50D9265E50DA226F0078FF19F06F005C
:1050A00078FF1AF06F0078FF1BF06F0078FF1CF09C
:1050B00020EE04F05D50D9265E50DA226F0078FFB2
:1050C00015F06F0078FF16F06F0078FF17F06F0093
:1050D00078FF18F04BECAFF0600054F03EF0600049
:1050E00058F03FF060005CF040F0600060F041F08C
:1050F00020EE08F05D50D9265E50DA226F0078FF6E
:1051000019F06F0078FF1AF06F0078FF1BF06F0046
:1051100078FF1CF0600030F215F0600034F216F0F9
:10512000600038F217F060003CF218F04BECAFF082
:10513000600054F042F0600058F043F060005CF012
:1051400044F0600060F045F0B5ECE0F06000F8F08D
:1051500094F06000FCF095F0600000F196F06000C3
:1051600004F197F0600050F201F0600054F202F098
:10517000600058F203F060005CF204F09FECE3F092
:105180000009D8A4C6EFA8F0C8EFA8F0CAEFA8F0AD
:105190005EEFA7F0000197BFD2EFA8F0D0EFA8F024
:1051A000D4EFA8F01BEFA8F0600050F23EF06000D2
:1051B00054F23FF0600058F240F060005CF241F0C1
:1051C00020ECAAF06000F8F098F06000FCF099F094
:1051D000600000F19AF0600004F19BF020EE04F012
:1051E0005D50D9265E50DA22030EDBBEFAEFA8F03E
:1051F000FCEFA8F038EFA9F0600060F232F0600038
:1052000064F233F0600068F234F060006CF235F064
:1052100020EE04F05D50D9265E50DA226F0078FF50
:105220002EF06F0078FF2FF06F0078FF30F06F00E6
:1052300078FF31F0CDECACF06000B8F03EF06000EB
:10524000BCF03FF06000C0F040F06000C4F041F0FE
:1052500006ECE4F06000F8F098F06000FCF099F0E3
:10526000600000F19AF0600004F19BF064EFA9F097
:10527000600060F23EF0600064F23FF0600068F2AF
:1052800040F060006CF241F020EE04F05D50D92651
:105290005E50DA226F0078FF42F06F0078FF43F033
:1052A0006F0078FF44F06F0078FF45F0B5ECE0F058
:1052B0006000F8F098F06000FCF099F0600000F1F8
:1052C0009AF0600004F19BF0600060F242F0600030
:1052D00064F243F0600068F244F060006CF245F064
:1052E000000E196E000E1A6E400E1B6E400E1C6EE4
:1052F000600077F1D9FF60007BF1DAFF6F0078FF83
:1053000015F06F0078FF16F06F0078FF17F06F0050
:1053100078FF18F04BECAFF0600054F046F06000FE
:1053200058F047F060005CF048F0600060F049F031
:1053300090ECB1F0600008F190F060000CF191F099
:10534000600010F192F0600014F193F0600074F1CD
:1053500060F0600078F161F0600040F262F060009F
:1053600044F263F0600048F264F060004CF265F0D3
:105370001DECDBF00009D8A4C0EFA9F0C2EFA9F042
:10538000C4EFA9F05EEFA7F0600060F201F06000EA
:1053900064F202F0600068F203F060006CF204F066
:1053A000000E056E000E066E000E076E000E086EF3
:1053B00074ECDAF0D8B0DFEFA9F0E1EFA9F01BEF61
:1053C000A8F0600074F160F0600078F161F020EE08
:1053D00008F05D50D9265E50DA226F0078FF42F067
:1053E0006F0078FF43F06F0078FF44F06F0078FFA4
:1053F00045F0600060F246F0600064F247F0600043
:1054000068F248F060006CF249F090ECB1F0600096
:1054100008F162F060000CF163F0600010F164F0DC
:10542000600014F165F01DECDBF00009D8A41BEF5F
:10543000AAF01DEFAAF01BEFA8F05EEFA7F0120094
:105440006000F8F06CF06000FCF06DF0600000F1BE
:105450006EF0600004F16FF06000B0F184F0600065
:10546000B4F185F06000B8F186F06000BCF187F01F
:10547000000E00018415426E000E8515436E800EED
:105480008615446E7F0E8715456E800E441809E11F
:105490007F0E451842104310D8A451EFAAF053EFE5
:1054A000AAF095EFAAF06000F8F019F06000FCF0A7
:1054B0001AF0600000F11BF0600004F11CF06000C5
:1054C000F8F015F06000FCF016F0600000F117F045
:1054D000600004F118F04BECAFF0600054F02EF0D7
:1054E000600058F02FF060005CF030F0600060F079
:1054F00031F06000F8F032F06000FCF033F0600052
:1055000000F134F0600004F135F0CDECACF0600057
:10551000B8F03EF06000BCF03FF06000C0F040F03A
:105520006000C4F041F0CCEFACF087BFA4EFAAF06C
:1055300087518611851106E18405D8B0A2EFAAF043
:10554000A4EFAAF0E9EFAAF0FF0E8415426EFF0E59
:105550008515436EFF0E8615446E7F0E8715456ECA
:105560004250431044104510D8A4B9EFAAF0BBEF45
:10557000AAF0C9EFAAF06000F8F03EF06000FCF07D
:105580003FF0600000F140F0600004F141F0CCEF2A
:10559000ACF087BFD0EFAAF0CEEFAAF0E9EFAAF007
:1055A000000E0201B56F210EB46F390E016EFE0EB2
:1055B000026EF2ECE5F0600004F03EF0600008F0EE
:1055C0003FF060000CF040F0600010F041F0CCEFD4
:1055D000ACF0170E426E600010F243F0600014F25F
:1055E00044F0600018F245F060001CF246F042669C
:1055F000FCEFAAF004EFABF04634463245324432B9
:105600004332422EF7EFAAF060000CF17CF060000C
:1056100010F17DF0600014F17EF0600018F17FF071
:1056200000017C517D117E117F11D8A41AEFABF0DF
:105630001CEFABF04CEFABF0000E686F000E696F23
:10564000000E6A6F000E6B6F31EFABF0D8908437AD
:10565000853786378737010E6827000E69236A234E
:105660006B2386AF36EFABF038EFABF026EFABF045
:10567000FF0E6825426EFF0E6921436EFF0E6A2100
:10568000446EFF0E6B21456E42507C5F43507D5B44
:1056900044507E5B45507F5B810E7C27FF0E7D234F
:1056A000FF0E7E23FF0E7F23FF0E8415426EFF0E3A
:1056B0008515436E7F0E8615446E000E8715456E68
:1056C000000E4210846F000E4310856F800E441050
:1056D000866F000E4510876F7CA171EFABF073EF02
:1056E000ABF07BEFABF08451842785518523865145
:1056F0008623875187237F357F337E337D337C3309
:105700008451842785518523865186238751872399
:10571000000E646F000E656F000E666F000E676FFF
:10572000600090F170F0600094F171F0600098F109
:1057300072F060009CF173F0000E806F000E816FBC
:10574000000E826F010E836FEEEFABF08051642587
:10575000746F81516521756F82516621766F835117
:105760006721776F7451845D7551855976518659DB
:105770008751800A426E7751800A4258D8A0C3EF01
:10578000ABF0C5EFABF0E1EFABF080517425646F87
:1057900081517521656F82517621666F8351772122
:1057A000676F7451845F7551855B7651865B775165
:1057B000875B8051702781517123825172238351FD
:1057C00073238451842785518523865186238751ED
:1057D0008723D89083338233813380338051811182
