:020000040000FA
:100000000DEF00F0FFFFFFFF9BEFB7F0FFFFFFFFDB
:10001000FFFFFFFFFFFFFFFFFF00F7EFB7F0FFFF5E
:10002000FFFFFFFFFFFFFFFFFFFFFFFFFFFFFFFFE0
:10003000FFFFFFFFFFFFFFFFFFFFFFFFFFFFFFFFD0
:10004000FFFFFFFFFFFFFFFFFFFFFFFFFFFFFFFFC0
:10005000FFFFFFFFFFFFFFFFFFFFFFFFFFFFFFFFB0
:10F3C000FFFFFFFF0053543C7B22636D645F636F5C
:10F3D0006465223A227365745F74657874222C2206
:10F3E00074797065223A226C6162656C222C2277F6
:10F3F0006964676574223A226C6162656C313022FF
:10F400002C2274657874223A222564227D3E45546C
:10F410000053543C7B22636D645F636F6465223AE2
:10F42000227365745F74657874222C227479706518
:10F43000223A226C6162656C222C227769646765CE
:10F4400074223A226C6162656C3131222C2274651F
:10F450007874223A222564227D3E45540053543C60
:10F460007B22636D645F636F6465223A2273657407
:10F470005F74657874222C2274797065223A226C4C
:10F480006162656C222C22776964676574223A2276
:10F490006C6162656C3132222C2274657874223A78
:10F4A000222564227D3E45540053543C7B22636DEB
:10F4B000645F636F6465223A227365745F74657874
:10F4C00074222C2274797065223A226C6162656C18
:10F4D000222C22776964676574223A226C61626526
:10F4E0006C3133222C2274657874223A22256422EE
:10F4F0007D3E45540053543C7B22636D645F636FD3
:10F500006465223A227365745F74657874222C22D4
:10F5100074797065223A226C6162656C222C2277C4
:10F520006964676574223A226C6162656C313422C9
:10F530002C2274657874223A222564227D3E45543B
:10F540000053543C7B22636D645F636F6465223AB1
:10F55000227365745F74657874222C2274797065E7
:10F56000223A226C6162656C222C2277696467659D
:10F5700074223A226C6162656C3131222C227465EE
:10F580007874223A2230227D3E45540053543C7B0D
:10F5900022636D645F636F6465223A227365745FF2
:10F5A00074657874222C2274797065223A226C6119
:10F5B00062656C222C22776964676574223A226C3A
:10F5C0006162656C3133222C2274657874223A2290
:10F5D00030227D3E45540053543C7B22636D645F72
:10F5E000636F6465223A227365745F746578742270
:10F5F0002C2274797065223A226C6162656C222C2F
:10F6000022776964676574223A226C6162656C31A5
:10F61000222C2274657874223A222564227D3E458C
:10F62000540053543C7B22636D645F636F646522B6
:10F630003A227365745F74657874222C2274797031
:10F6400065223A226C6162656C222C2277696467BC
:10F650006574223A226C6162656C32222C227465D8
:10F660007874223A222564227D3E45540053543C4E
:10F670007B22636D645F636F6465223A22736574F5
:10F680005F74657874222C2274797065223A226C3A
:10F690006162656C222C22776964676574223A2264
:10F6A0006C6162656C33222C2274657874223A2274
:10F6B0002564227D3E45540053543C7B22636D6497
:10F6C0005F636F6465223A227365745F7465787452
:10F6D000222C2274797065223A226C6162656C2258
:10F6E0002C22776964676574223A226C6162656CCA
:10F6F00034222C2274657874223A222564227D3EBD
:10F7000045540053543C7B22636D645F636F6465B2
:10F71000223A227365745F74657874222C2274799E
:10F720007065223A226C6162656C222C22776964D2
:10F73000676574223A226C6162656C35222C2274F2
:10F74000657874223A222564227D3E455400535444
:10F750003C7B22636D645F636F6465223A2273654C
:10F76000745F74657874222C2274797065223A2251
:10F770006C6162656C222C22776964676574223A39
:10F78000226C6162656C36222C2274657874223A90
:10F79000222564227D3E45540053543C7B22636DF8
:10F7A000645F636F6465223A227365745F74657881
:10F7B00074222C2274797065223A226C6162656C25
:10F7C000222C22776964676574223A226C61626533
:10F7D0006C37222C2274657874223A222564227DAB
:10F7E0003E45540053543C7B22636D645F636F64F9
:10F7F00065223A227365745F74657874222C2274D2
:10F80000797065223A226C6162656C222C227769DC
:10F8100064676574223A226C6162656C38222C221E
:10F8200074657874223A222564227D3E4554005343
:10F83000543C7B22636D645F636F6465223A22737C
:10F8400065745F74657874222C2274797065223A2D
:10F85000226C6162656C222C227769646765742270
:10F860003A226C6162656C39222C227465787422AC
:10F870003A222564227D3E45540053543C7B22634A
:10F880006D645F636F6465223A227365745F7465AB
:10F890007874222C2274797065223A226C61626538
:10F8A0006C222C22776964676574223A226C61624B
:10F8B000656C33222C2274657874223A2230227DC2
:10F8C0003E45540053543C7B22636D645F636F6418
:10F8D00065223A227365745F74657874222C2274F1
:10F8E000797065223A226C6162656C222C227769FC
:10F8F00064676574223A226C6162656C35222C2241
:10F9000074657874223A2230227D3E455400535467
:10F910003C7B22636D645F636F6465223A2273658A
:10F92000745F74657874222C2274797065223A228F
:10F930006C6162656C222C22776964676574223A77
:10F94000226C6162656C37222C2274657874223ACD
:10F950002230227D3E45540053543C7B22636D642B
:10F960005F636F6465223A227365745F74657874AF
:10F97000222C2274797065223A226C6162656C22B5
:10F980002C22776964676574223A226C6162656C27
:10F9900039222C2274657874223A2230227D3E4529
:10F9A000540053543C7B22636D645F636F64652233
:10F9B0003A227365745F6272696768746E65737307
:10F9C000222C2274797065223A2273797374656DE2
:10F9D000222C226272696768746E657373223A25FD
:10F9E000647D3E45540053543C7B22636D645F63E9
:10F9F0006F6465223A226F70656E5F77696E222CA4
:10FA00002274797065223A2277696E646F77222CAE
:10FA100022776964676574223A2277696E646F772A
:10FA20003130227D3E45540053543C7B22636D644B
:10FA30005F636F6465223A226F70656E5F77696EEF
:10FA4000222C2274797065223A2277696E646F776E
:10FA5000222C22776964676574223A2277696E6482
:10FA60006F7731227D3E45540053543C7B22636DB9
:10FA7000645F636F6465223A226F70656E5F7769B9
:10FA80006E222C2274797065223A2277696E646F37
:10FA900077222C22776964676574223A2277696E2F
:10FAA000646F7732227D3E45540053543C7B226381
:10FAB0006D645F636F6465223A226F70656E5F7775
:10FAC000696E222C2274797065223A2277696E64FD
:10FAD0006F77222C22776964676574223A227769EE
:10FAE0006E646F7733227D3E45540053543C7B2235
:10FAF000636D645F636F6465223A226F70656E5F49
:10FB000077696E222C2274797065223A2277696EA9
:10FB1000646F77222C22776964676574223A2277B2
:10FB2000696E646F7734227D3E45540053543C7BAC
:10FB300022636D645F636F6465223A226F70656E45
:10FB40005F77696E222C2274797065223A22776978
:10FB50006E646F77222C22776964676574223A227B
:10FB600077696E646F7735227D3E45540053543C6F
:10FB70007B22636D645F636F6465223A226F7065F8
:10FB80006E5F77696E222C2274797065223A227733
:10FB9000696E646F77222C22776964676574223AF4
:10FBA0002277696E646F7736227D3E455400535448
:10FBB0003C7B22636D645F636F6465223A226F70E1
:10FBC000656E5F77696E222C2274797065223A2205
:10FBD00077696E646F77222C227769646765742277
:10FBE0003A2277696E646F7737227D3E4554005321
:10FBF000543C7B22636D645F636F6465223A226FBD
:10FC000070656E5F77696E222C2274797065223A76
:10FC10002277696E646F77222C2277696467657436
:10FC2000223A2277696E646F7738227D3E45540010
:10FC300053543C7B22636D645F636F6465223A2298
:10FC40006F70656E5F77696E222C22747970652201
:10FC50003A2277696E646F77222C22776964676530
:10FC600074223A2277696E646F7739227D3E45545B
:10FC70000025302E326620544F2C2025302E32663F
:10FC80002054432C2025302E316620564261742C9E
:10FC90002025302E3266204F66667365740D0A0D7E
:10FCA0000A0053543C7B22636D645F636F6465227A
:10FCB0003A226261636B5F686F6D65222C227479F2
:10FCC0007065223A2277696E646F77227D3E4554D3
:10FCD000002A2A2A2A2A20524554524F5245464C7D
:10FCE0004543544F4D4554524F2056455254494375
:10FCF000414C202A2A2A2A2A0D0A004E4557204F15
:10FD00004646534554204C4F4144204445564943B0
:10FD1000452121210D0A0D0A0044495341424C4519
:10FD20002044454255472044455649434521212119
:10FD30000D0A0D0A0025302E336620414443202B46
:10FD40002044656320416A7573746520540D0A0070
:10FD5000454E41424C452044454255472044455676
:10FD60004943452121210D0A0D0A002A2A2A2A2A5F
:10FD7000204E45572053414D504C45202A2A2A2ACF
:10FD80002A0D0A0025302E33662041444320524577
:10FD900044202A204F46465345540D0A0025302E54
:10FDA00033662044656320416A7573746520540D81
:10FDB0000A004F46465345543D2025302E32660DED
:10FDC0000A0D0A0025302E336620414443204F524D
:10FDD00049470D0A005449504F20504150454C3A74
:10FDE0002025730D0A00414D4152494C4C4F5F4F45
:10FDF00054524F535000414D4152494C4C4F5F5467
:10FE000049504F31004E4152414E4A415F4F54528A
:10FE10004F535000404C454552562C2564402F6EA0
:10FE20002F72004E4152414E4A415F5449504F316A
:10FE300000424C414E434F5F4F54524F535000428B
:10FE40004C414E434F5F5449504F31005645524448
:10FE5000455F4F54524F53500025302E3266204399
:10FE6000616E640D0A0056455244455F5449504F37
:10FE70003100415A554C5F4F54524F535000524F2E
:10FE80004A4F5F4F54524F535000436F6C6F723A5A
:10FE90002025730D0A00415A554C5F5449504F318B
:10FEA00000524F4A4F5F5449504F31003C627574C5
:10FEB000746F6E31303E003C627574746F6E313118
:10FEC0003E003C627574746F6E31323E003C627568
:10FED00074746F6E31333E003C627574746F6E31B2
:10FEE000343E003C627574746F6E31353E003C6286
:10FEF0007574746F6E31363E003C627574746F6E4B
:10FF000031373E003C627574746F6E31383E003C90
:10FF1000627574746F6E31393E003C627574746F33
:10FF20006E313E003C627574746F6E323E003C620E
:10FF30007574746F6E333E003C627574746F6E340A
:10FF40003E003C627574746F6E353E003C627574A1
:10FF5000746F6E363E003C627574746F6E373E008F
:10FF60003C627574746F6E383E003C627574746FD9
:10FF70006E393E00414D4152494C4C4F005041506A
:10FF8000454C20543100454E4144454255470044BC
:10FF900049534445425547004E4152414E4A410063
:10FFA0004F54524F53205000286E756C6C290042FC
:10FFB0004C414E434F004F46465345540056455220
:10FFC0004445004C4545525600415A554C00524F4D
:10FFD0004A4F00696E66006E616E00424C410041FE
:10FFE0004D4100524F4A004E415200564552004189
:10FFF0005A55002566002C003C003D00400000FFE3
:020000040001F9
:10000000000E0001876F61C088F062C089F063C094
:100010008AF064C08BF08BBF12EF80F010EF80F09D
:1000200026EF80F0010E876F88C003F089C004F0CE
:100030008AC005F08BC006F0F0ECBDF003C088F07C
:1000400004C089F005C08AF006C08BF0000E0001E4
:100050008D6F000E8C6FD4C07BF0D5C07CF08751C3
:10006000D8B435EF80F037EF80F04BEF80F0875158
:10007000D8A43DEF80F03FEF80F045EF80F0000E18
:100080006D6F2B0E6C6F49EF80F0000E6D6F2D0EB3
:100090006C6F6CC087F088C003F089C004F08AC020
:1000A00005F08BC006F0E6ECB3F003040410D8A40E
:1000B0005CEF80F05EEF80F08FEF80F00001875101
:1000C000D8B465EF80F067EF80F070EF80F087C004
:1000D00032F37B07D8A07C07000E8D6F010E8C6F6A
:1000E000320E8C25036E030E8D21046ED30E056E29
:1000F000FF0E066E49ECBDF00001FD0E7B27FF0EE2
:100100007C2360C011F0320E126E030E136E7BC0A2
:1001100014F07CC015F01BECBCF02DEF85F088C00E
:1001200003F089C004F08AC005F08BC006F0E6EC4D
:10013000B3F003500410D8A4A0EF80F0A2EF80F039
:10014000C2EF80F000018751D8B4A9EF80F0ABEF87
:1001500080F0B4EF80F087C032F37B07D8A07C0733
:10016000000E8D6F010E8C6F320E8C25036E030E08
:100170008D21046ED70E056EFF0E066E49ECBDF0A4
:100180007CEF80F0000E00018E6F000E8F6F800EEE
:10019000906F3F0E916F000E766F000E756F88C0E6
:1001A00003F089C004F08AC005F08BC006F0000E91
:1001B000076E000E086E000E096E000E0A6E57ECF8
:1001C000B9F0D8B0E6EF80F0E8EF80F0C7EF81F04B
:1001D000F5EF80F077C08EF078C08FF079C090F0A6
:1001E0007AC091F00001754B762B8EC011F08FC054
:1001F00012F090C013F091C014F0000E156E000EB6
:10020000166E200E176E410E186E32ECA4F011C05F
:1002100077F012C078F013C079F014C07AF00001C2
:100220007751885D036E78518959046E79518A59E6
:10023000056E7A518B59066EA8ECBCF006BE2CEF09
:1002400081F006500510041009E1020E035CD8A0ED
:100250002CEF81F02EEF81F0EAEF80F077C02AF0EA
:1002600078C02BF079C02CF07AC02DF088C02EF029
:1002700089C02FF08AC030F08BC031F064ECB3F04D
:10028000D8A045EF81F047EF81F0EAEF80F0000160
:100290008E51885D036E8F518959046E90518A5931
:1002A000056E91518B59066EA8ECBCF006BE66EF48
:1002B00081F006500510041007E1020E035CD8B06F
:1002C00064EF81F066EF81F0AEEF81F08EC088F0D0
:1002D0008FC089F090C08AF091C08BF0C7EF81F099
:1002E0008EC02AF08FC02BF090C02CF091C02DF062
:1002F000000E2E6E000E2F6E200E306E410E316EEF
:100300002BECA8F02AC08EF02BC08FF02CC090F000
:100310002DC091F000017507D8A076078E51885D39
:10032000036E8F518959046E90518A59056E91510F
:100330008B59066EA8ECBCF006BEACEF81F00650FF
:100340000510041007E1020E035CD8B0AAEF81F09B
:10035000ACEF81F0AEEF81F066EF81F088C02AF05B
:1003600089C02BF08AC02CF08BC02DF08EC02EF0EF
:100370008FC02FF090C030F091C031F064ECB3F03A
:10038000D8A0C5EF81F0C7EF81F070EF81F065C0B4
:100390006FF06FC070F00001D7BFD1EF81F0D3EFE5
:1003A00081F0D9EF81F0D6C068F0D7C069F0DDEFF9
:1003B00081F0000E696F060E686F68C073F069C047
:1003C00074F0734B742B660E7019D8A4EAEF81F0A9
:1003D000ECEF81F00CEF82F076BFF3EF81F0F1EFFC
:1003E00081F0FFEF81F0000E8E6F000E8F6F800E98
:1003F000906F3F0E916F000E766F000E756F670E57
:100400006F19D8B406EF82F008EF82F00CEF82F09B
:100410007551732776517423000E866F000E856F19
:1004200088C07DF089C07EF08AC07FF08BC080F0EC
:100430008EC077F08FC078F090C079F091C07AF0DC
:100440009DEF82F07DC02AF07EC02BF07FC02CF0A3
:1004500080C02DF08EC02EF08FC02FF090C030F0F5
:1004600091C031F02BECA8F02AC043F02BC044F02F
:100470002CC045F02DC046F060ECADF043C081F0DB
:1004800044C082F045C083F046C084F081C03AF099
:1004900082C03BF083C03CF084C03DF0E1ECB2F0A0
:1004A0003AC071F03BC072F07DC03AF07EC03BF0C4
:1004B0007FC03CF080C03DF081C015F082C016F0D6
:1004C00083C017F084C018F08EC011F08FC012F0F6
:1004D00090C013F091C014F032ECA4F011C03EF0C3
:1004E00012C03FF013C040F014C041F06CECBDF0FE
:1004F0003AC07DF03BC07EF03CC07FF03DC080F054
:100500008EC02AF08FC02BF090C02CF091C02DF03F
:10051000000E2E6E000E2F6E200E306E410E316ECC
:100520002BECA8F02AC08EF02BC08FF02CC090F0DE
:100530002DC091F00001854B862B7351855D86514E
:10054000800A576E7451800A5758D8A0AAEF82F0DB
:10055000ACEF82F022EF82F08EC011F08FC012F06B
:1005600090C013F091C014F0000E156E000E166EC0
:10057000A00E176E400E186E32ECA4F011C081F080
:1005800012C082F013C083F014C084F07DC02AF042
:100590007EC02BF07FC02CF080C02DF081C02EF0EB
:1005A00082C02FF083C030F084C031F064ECB3F02F
:1005B000D8B0DDEF82F0DFEF82F0EAEF82F0000EDC
:1005C0000001816F000E826F000E836F000E846F3A
:1005D00013EF83F07DC003F07EC004F07FC005F010
:1005E00080C006F081C007F082C008F083C009F027
:1005F00084C00AF057ECB9F0D8A001EF83F003EF04
:1006000083F013EF83F0000171B109EF83F00BEF7A
:1006100083F013EF83F0000E816F000E826F000EE7
:10062000836F000E846F88C02AF089C02BF08AC0C7
:100630002CF08BC02DF081C02EF082C02FF083C033
:1006400030F084C031F092EC9FF02AC07DF02BC0D6
:100650007EF02CC07FF02DC080F07DC02AF07EC0DF
:100660002BF07FC02CF080C02DF0000E156E000E18
:10067000166E200E176E410E186E77C011F078C0FE
:1006800012F079C013F07AC014F032ECA4F011C06B
:100690002EF012C02FF013C030F014C031F064EC13
:1006A000B3F0D8A056EF83F058EF83F081EF83F0DA
:1006B0000001754B762B77C011F078C012F079C02D
:1006C00013F07AC014F0000E156E000E166E200E98
:1006D000176E410E186E32ECA4F011C077F012C004
:1006E00078F013C079F014C07AF0660E000170192A
:1006F000D8A47DEF83F07FEF83F081EF83F0734B1D
:10070000742B77C08EF078C08FF079C090F07AC0EB
:1007100091F075C066F076C067F0000E00016E6F54
:10072000000E6B6F000E6A6F000E866F000E856FF5
:100730007FEF84F07DC02AF07EC02BF07FC02CF0CC
:1007400080C02DF08EC02EF08FC02FF090C030F002
:1007500091C031F02BECA8F02AC043F02BC044F03C
:100760002CC045F02DC046F060ECADF043C081F0E8
:1007700044C082F045C083F046C084F081C03AF0A6
:1007800082C03BF083C03CF084C03DF0E1ECB2F0AD
:100790003BBED6EF83F03B5007E10A0E3A5CD8B07F
:1007A000D4EF83F0D6EF83F0E6EF83F081C03AF028
:1007B00082C03BF083C03CF084C03DF0E1ECB2F07D
:1007C0003AC071F03BC072F0EBEF83F0000E000115
:1007D000726F090E716F00016E51D8A4F2EF83F0B1
:1007E000F4EF83F01CEF84F067BFFBEF83F0F9EFC9
:1007F00083F01CEF84F0320E8C25D96E030E8D2110
:10080000DA6E2E0EDF6E8C4B8D2B7B07D8A07C070B
:10081000010E6E6F1CEF84F0320E8C25D96E030E24
:100820008D21DA6E300EDF6E8C4B8D2B7B07D8A0BE
:100830007C076A07D8A06B076A516B11D8A423EF15
:1008400084F025EF84F00CEF84F0320E8C25D96E05
:10085000030E8D21DA6E7151300FDF6E8C4B8D2BB4
:100860007B07D8A07C077DC03AF07EC03BF07FC0FC
:100870003CF080C03DF081C015F082C016F083C00E
:1008800017F084C018F08EC011F08FC012F090C025
:1008900013F091C014F032ECA4F011C03EF012C07D
:1008A0003FF013C040F014C041F06CECBDF03AC012
:1008B0007DF03BC07EF03CC07FF03DC080F08EC03C
:1008C0002AF08FC02BF090C02CF091C02DF0000EBC
:1008D0002E6E000E2F6E200E306E410E316E2BEC00
:1008E000A8F02AC08EF02BC08FF02CC090F02DC045
:1008F00091F000016607D8A06707854B862B7351DE
:10090000855D8651800A576E7451800A5758D8B059
:100910008CEF84F08EEF84F09CEF84F08DBF9AEF23
:1009200084F08D5109E14B0E8C5DD8A09AEF84F0D4
:100930009CEF84F09AEF83F0000E866F4F0E856F68
:10094000320E8525D96E030E8621DA6EDF6A320EED
:10095000576E030E586E8C51575E8D51585A855103
:100960005724076E86515820086E320E096E030E0A
:100970000A6E8CC00BF08DC00CF076ECBBF0000161
:100980008C51855D8C6F8D5186598D6F8751D8A4A0
:10099000CCEF84F0CFEF84F0010ED0EF84F0000EA6
:1009A000856F866BDCA3D7EF84F0D9EF84F007EF77
:1009B00085F0E9EF84F08C07D8A08D07320E8C25E6
:1009C000D96E030E8D21DA6E300EDF6E7B07D8A054
:1009D0007C077B51855D8651800A576E7C51800A69
:1009E0005758D8B0F6EF84F0F8EF84F007EF85F0B1
:1009F0008C51855D8651800A576E8D51800A5758FB
:100A0000D8A005EF85F007EF85F0DBEF84F0875184
:100A1000D8B40DEF85F00FEF85F01BEF85F08C0754
:100A2000D8A08D07320E8C25D96E030E8D21DA6E7B
:100A300060001FF2DFFF85517B5F86517C5B60C0E9
:100A400011F0320E8C25126E030E8D21136E7BC0B9
:100A500014F07CC015F01BECBCF0120028EF8AF0FB
:100A60000A0EC1ECBFF003240101086F000E042040
:100A7000096F000E05200A6F000E06200B6F600044
:100A800023F3D9FF600027F3DAFF2A0EDE6E000E93
:100A9000DD6EC1ECBFF001010851035C095104583F
:100AA0000A5105580B510658D8B059EF85F05BEF45
:100AB00085F0EAEF89F04FEF8AF0020114A163EFAD
:100AC00085F065EF85F030EF85F0010E0001DD6FF8
:100AD00030EF85F001015C4B5D2B5D5109E1320E79
:100AE0005C5DD8A076EF85F078EF85F030EF85F08B
:100AF000000E5D6F000E5C6F460E676F690E076E2D
:100B0000010E086E000E0A6E000E096E000E0C6ECD
:100B1000500E0B6ED1ECBDF0690E0001A36F010EFB
:100B2000A46FA20EA56FF90EA66F67C1A7F0A86B00
:100B30008FECBDF0690E126E010E136E00ECBAF070
:100B4000020E0001DD6F30EF85F0010160B1ABEF07
:100B500085F0ADEF85F0B6EF85F06081A20E126EE4
:100B6000FC0E136E00ECBAF030EF85F05C4B5D2BA1
:100B70005D5109E1960E5C5DD8A0C1EF85F0C3EF31
:100B800085F030EF85F0000E5D6F000E5C6F5E4B00
:100B90005F2B5F5109E1020E5E5DD8A0D2EF85F0B8
:100BA000D4EF85F030EF85F0000E5F6F000E5E6FC2
:100BB000280E126EFA0E136E00ECBAF0010160916D
:100BC000030E0001DD6F30EF85F001015C4B5D2B02
:100BD0002C0E5C5D010E5D59D8A0F1EF85F0F3EFAE
:100BE00085F030EF85F0000E5D6F000E5C6F690ED2
:100BF000126EFA0E136E00ECBAF0040E0001DD6FF7
:100C000030EF85F001015C4B5D2B2C0E5C5D010E1D
:100C10005D59D8A00EEF86F010EF86F030EF85F02A
:100C2000000E5D6F000E5C6FAA0E126EFA0E136E50
:100C300000ECBAF0050E0001DD6F30EF85F0010128
:100C40005C4B5D2B5D5109E1640E5C5DD8A02BEF20
:100C500086F02DEF86F030EF85F0000E5D6F000E10
:100C60005C6F0401DF51CBECC0F0060E0001DD6FBC
:100C700030EF85F0010160A340EF86F042EF86F08F
:100C800048EF86F06093070E0001DD6F30EF85F0CE
:100C900065AD4DEF86F04FEF86F055EF86F0659D20
:100CA000090E0001DD6F30EF85F060A55AEF86F088
:100CB0005CEF86F062EF86F060950A0E0001DD6F52
:100CC00030EF85F063A167EF86F069EF86F030EFD3
:100CD00085F063910B0E0001DD6F30EF85F00101AF
:100CE00065A175EF86F077EF86F07FEF86F07A0EDC
:100CF000126EF80E136E00ECBAF0CAEF86F065A320
:100D000084EF86F086EF86F08EEF86F0C40E126ECA
:100D1000F80E136E00ECBAF0CAEF86F065A593EFFB
:100D200086F095EF86F09DEF86F00E0E126EF90EAE
:100D3000136E00ECBAF0CAEF86F065A7A2EF86F05A
:100D4000A4EF86F0ACEF86F0580E126EF90E136E1B
:100D500000ECBAF0CAEF86F065A9B1EF86F0B3EF08
:100D600086F0BBEF86F0410E126EF50E136E00ECAE
:100D7000BAF0CAEF86F065ABC0EF86F0C2EF86F03E
:100D8000CAEF86F08C0E126EF50E136E00ECBAF000
:100D9000CAEF86F0080E0001DD6F30EF85F001012B
:100DA00060B1D5EF86F0D7EF86F0E8EF86F060818E
:100DB000B90E076E010E086E000E0A6E000E096E67
:100DC000000E0C6E0A0E0B6ED1ECBDF030EF85F00C
:100DD0005C4B5D2B5D5109E1320E5C5DD8A0F3EFF9
:100DE00086F0F5EF86F030EF85F0000E5D6F000EB7
:100DF0005C6F609165A1FFEF86F001EF87F019EF5E
:100E000087F0EB0E126EFA0E136E00ECBAF00101D1
:100E10006885B90E076E010E086E740E096EFF0E1E
:100E20000A6E000E0C6E090E0B6E76ECBBF0C6EF70
:100E300087F065A31EEF87F020EF87F038EF87F08B
:100E40002C0E126EFB0E136E00ECBAF001016885D9
:100E5000B90E076E010E086EAF0E096EFF0E0A6E18
:100E6000000E0C6E070E0B6E76ECBBF0C6EF87F033
:100E700065A53DEF87F03FEF87F057EF87F06D0EE8
:100E8000126EFB0E136E00ECBAF001016885B90E0C
:100E9000076E010E086ECE0E096EFF0E0A6E000E72
:100EA0000C6E050E0B6E76ECBBF0C6EF87F065A7F7
:100EB0005CEF87F05EEF87F076EF87F0AE0E126E94
:100EC000FB0E136E00ECBAF001016895B90E076EC7
:100ED000010E086EC90E096EFF0E0A6E000E0C6E32
:100EE000050E0B6E76ECBBF0C6EF87F065A97BEFC5
:100EF00087F07DEF87F095EF87F0EF0E126EFB0E17
:100F0000136E00ECBAF001016895B90E076E010E80
:100F1000086EBD0E096EFF0E0A6E000E0C6E060EF8
:100F20000B6E76ECBBF0C6EF87F065AB9AEF87F0FF
:100F30009CEF87F0B4EF87F0300E126EFC0E136E4C
:100F400000ECBAF001016885B90E076E010E086E5B
:100F5000980E096EFF0E0A6E000E0C6E080E0B6ED8
:100F600076ECBBF0C6EF87F065AFB9EF87F0BBEF6B
:100F700087F0C6EF87F0659F68916893AA0E126E9E
:100F8000FA0E136E00ECBAF0C6EF87F00401DF51E1
:100F9000CBECC0F035EF86F0010160B1D2EF87F005
:100FA000D4EF87F0DDEF87F06081E60E126EF90E68
:100FB000136E00ECBAF030EF85F066A1E2EF87F037
:100FC000E4EF87F036EF88F06691690E076E010E48
:100FD000086E000E0A6E000E096E000E0C6E500EAA
:100FE0000B6ED1ECBDF0640E01016761FAEF87F082
:100FF000FCEF87F030EF85F0050E6727690E0001E2
:10100000A36F010EA46FA20EA56FF90EA66F67C1A4
:10101000A7F0A86B8FECBDF0690E126E010E136E77
:1010200000ECBAF0690E076E010E086E000E0A6E33
:10103000000E096E000E0C6E500E0B6ED1ECBDF062
:10104000690E0001A36F010EA46FF50EA56FF40EDB
:10105000A66F67C1A7F0A86B8FECBDF0690E126E8A
:10106000010E136E00ECBAF030EF85F066A33BEF93
:1010700088F03DEF88F089EF88F06693690E076E7F
:10108000010E086E000E0A6E000E096E000E0C6E48
:10109000500E0B6ED1ECBDF01E0E0101676553EFD3
:1010A00088F055EF88F030EF85F0050E675F690E28
:1010B0000001A36F010EA46FA20EA56FF90EA66F1B
:1010C00067C1A7F0A86B8FECBDF0690E126E010E20
:1010D000136E00ECBAF0690E076E010E086E000E7A
:1010E0000A6E000E096E000E0C6E500E0B6ED1ECE7
:1010F000BDF0690E0001A36F010EA46FF50EA56F80
:10110000F40EA66F67C1A7F0A86B8FECBDF02EEFB1
:1011100088F066A58EEF88F090EF88F030EF85F0CC
:1011200060916695AA0E126EFA0E136E00ECBAF07C
:1011300035EF86F0690E076E010E086E000E0A6E1E
:10114000000E096E000E0C6E500E0B6ED1ECBDF051
:10115000010165A1AEEF88F0B0EF88F0C1EF88F033
:10116000690E0001A36F010EA46F6D0EA56FF60E40
:10117000A66F61C1A7F062C1A8F08FECBDF039EF96
:1011800089F065A3C6EF88F0C8EF88F0D9EF88F042
:10119000690E0001A36F010EA46F030EA56FF70E79
:1011A000A66F61C1A7F062C1A8F08FECBDF039EF66
:1011B00089F065A5DEEF88F0E0EF88F0F1EF88F0C8
:1011C000690E0001A36F010EA46F990EA56FF70EB3
:1011D000A66F61C1A7F062C1A8F08FECBDF039EF36
:1011E00089F065A7F6EF88F0F8EF88F009EF89F04D
:1011F000690E0001A36F010EA46F2F0EA56FF80EEC
:10120000A66F61C1A7F062C1A8F08FECBDF039EF05
:1012100089F065A90EEF89F010EF89F021EF89F0D0
:10122000690E0001A36F010EA46F110EA56FF40EDD
:10123000A66F61C1A7F062C1A8F08FECBDF039EFD5
:1012400089F065AB26EF89F028EF89F039EF89F056
:10125000690E0001A36F010EA46FA90EA56FF40E15
:10126000A66F61C1A7F062C1A8F08FECBDF039EFA5
:1012700089F0690E126E010E136E00ECBAF035EFB4
:1012800086F0690E076E010E086E000E0A6E000EE3
:10129000096E000E0C6E500E0B6ED1ECBDF001010C
:1012A00065A155EF89F057EF89F067EF89F0690E76
:1012B0000001A36F010EA46F220EA56FF60EA66F9C
:1012C00064C1A7F0A86B8FECBDF039EF89F065A37E
:1012D0006CEF89F06EEF89F07EEF89F0690E000106
:1012E000A36F010EA46FB80EA56FF60EA66F64C1B2
:1012F000A7F0A86B8FECBDF039EF89F065A583EFFF
:1013000089F085EF89F095EF89F0690E0001A36FF0
:10131000010EA46F4E0EA56FF70EA66F64C1A7F065
:10132000A86B8FECBDF039EF89F065A79AEF89F0D3
:101330009CEF89F0ACEF89F0690E0001A36F010EFC
:10134000A46FE40EA56FF70EA66F64C1A7F0A86B9B
:101350008FECBDF039EF89F065A9B1EF89F0B3EFFB
:1013600089F0C3EF89F0690E0001A36F010EA46F2D
:10137000C50EA56FF30EA66F64C1A7F0A86B8FEC26
:10138000BDF039EF89F065ABC8EF89F0CAEF89F09D
:10139000DAEF89F0690E0001A36F010EA46F5D0EF4
:1013A000A56FF40EA66F64C1A7F0A86B8FECBDF01B
:1013B00039EF89F0690E0001A36F010EA46FD70EFB
:1013C000A56FF50EA66F64C1A7F0A86B8FECBDF0FA
:1013D00039EF89F00001DD51CA6FCB6BCB51000AA8
:1013E000D8B4F5EF89F030EF85F0CA51000AD8B4CF
:1013F0005DEF85F0010AD8B46AEF85F0030AD8B42E
:10140000A5EF85F0010AD8B4E5EF85F0070AD8B456
:1014100002EF86F0010AD8B41FEF86F0030AD8B4B1
:101420003AEF86F0010AD8B46FEF86F00F0AD8B40D
:10143000CFEF86F0010AD8B4CCEF87F0030AD8B416
:101440009AEF88F0010AD8B441EF89F030EF85F0C7
:10145000600023F3D9FF600027F3DAFF6F0078FF05
:10146000CAF06F0074FFCBF00001CB51000AD8B472
:101470003CEF8AF047EF8AF0CA51000AD8B430EF47
:1014800085F02A0AD8B449EF85F047EF8AF060006A
:1014900023F3D9FF600027F3DAFFDE6ADD6A12006A
:1014A000000E406E000E416E000E426E000E436E46
:1014B0003F04D8A45EEF8AF060EF8AF003EF8EF06D
:1014C0003E04D8A466EF8AF068EF8AF0A6EF8BF0AE
:1014D0003DBE6DEF8AF06FEF8AF0B6EF8AF0000E36
:1014E0002A6E000E2B6EB80E2C6E420E2D6E3AC078
:1014F0002EF03BC02FF03CC030F03DC031F064EC2A
:10150000B3F0D8A086EF8AF088EF8AF0B6EF8AF0C1
:101510000A0E156ED70E166E130E176E400E186E4D
:101520003AC011F03BC012F03CC013F03DC014F0C3
:1015300032ECA4F011C02AF012C02BF013C02CF032
:1015400014C02DF01F0E2E6E850E2F6E390E306ECC
:10155000C20E316E92EC9FF02AC040F02BC041F0D9
:101560002CC042F02DC043F04AEF8FF0000E2A6EDF
:10157000000E2B6EB80E2C6E420E2D6E3AC02EF061
:101580003BC02FF03CC030F03DC031F064ECB3F014
:10159000D8B0CDEF8AF0CFEF8AF016EF8BF0000EC7
:1015A0002A6E000E2B6ED80E2C6E420E2D6E3AC097
:1015B0002EF03BC02FF03CC030F03DC031F064EC69
:1015C000B3F0D8A0E6EF8AF0E8EF8AF016EF8BF0E0
:1015D000C30E156EF50E166E040E176E410E186EC4
:1015E0003AC011F03BC012F03CC013F03DC014F003
:1015F00032ECA4F011C02AF012C02BF013C02CF072
:1016000014C02DF0000E2E6E700E2F6E150E306E63
:10161000C40E316E92EC9FF02AC040F02BC041F016
:101620002CC042F02DC043F04AEF8FF0000E2A6E1E
:10163000000E2B6ED80E2C6E420E2D6E3AC02EF080
:101640003BC02FF03CC030F03DC031F064ECB3F053
:10165000D8B02DEF8BF02FEF8BF076EF8BF0000EE4
:101660002A6E000E2B6E050E2C6E430E2D6E3AC0A8
:101670002EF03BC02FF03CC030F03DC031F064ECA8
:10168000B3F0D8A046EF8BF048EF8BF076EF8BF0FD
:10169000A40E156E700E166E9D0E176E400E186E0F
:1016A0003AC011F03BC012F03CC013F03DC014F042
:1016B00032ECA4F011C02AF012C02BF013C02CF0B1
:1016C00014C02DF0290E2E6E5C0E2F6E670E306E3C
:1016D000C30E316E92EC9FF02AC040F02BC041F057
:1016E0002CC042F02DC043F04AEF8FF0850E156EEE
:1016F000EB0E166E510E176E400E186E3AC011F0BA
:101700003BC012F03CC013F03DC014F032ECA4F02A
:1017100011C02AF012C02BF013C02CF014C02DF011
:10172000290E2E6E5C0E2F6E630E306EC10E316E62
:1017300092EC9FF02AC040F02BC041F02CC042F048
:101740002DC043F04AEF8FF04AEF8FF0020E3E18A3
:10175000D8A4ADEF8BF0AFEF8BF08BEF8CF03DBEEC
:10176000B4EF8BF0B6EF8BF0FDEF8BF0000E2A6E2E
:10177000000E2B6EC20E2C6E420E2D6E3AC02EF055
:101780003BC02FF03CC030F03DC031F064ECB3F012
:10179000D8A0CDEF8BF0CFEF8BF0FDEF8BF00A0EE2
:1017A000156ED70E166E430E176E400E186E3AC0A9
:1017B00011F03BC012F03CC013F03DC014F032EC0D
:1017C000A4F011C02AF012C02BF013C02CF014C0EA
:1017D0002DF0F60E2E6E280E2F6E750E306EC20E88
:1017E000316E92EC9FF02AC040F02BC041F02CC02B
:1017F00042F02DC043F04AEF8FF0000E2A6E000E2B
:101800002B6EC20E2C6E420E2D6E3AC02EF03BC0D7
:101810002FF03CC030F03DC031F064ECB3F0D8B0F4
:1018200014EF8CF016EF8CF05DEF8CF0000E2A6E4A
:10183000000E2B6E0C0E2C6E430E2D6E3AC02EF049
:101840003BC02FF03CC030F03DC031F064ECB3F051
:10185000D8A02DEF8CF02FEF8CF05DEF8CF0D70E31
:10186000156EA30E166E1C0E176E410E186E3AC042
:1018700011F03BC012F03CC013F03DC014F032EC4C
:10188000A4F011C02AF012C02BF013C02CF014C029
:101890002DF0290E2E6E6C0E2F6E320E306EC40E91
:1018A000316E92EC9FF02AC040F02BC041F02CC06A
:1018B00042F02DC043F04AEF8FF0520E156EB80E75
:1018C000166E5E0E176E3F0E186E3AC011F03BC0DA
:1018D00012F03CC013F03DC014F032ECA4F011C083
:1018E0002AF012C02BF013C02CF014C02DF0CD0E36
:1018F0002E6ECC0E2F6E050E306E440E316E92ECB5
:101900009FF02AC040F02BC041F02CC042F02DC007
:1019100043F04AEF8FF0030E3E18D8A492EF8CF0FC
:1019200094EF8CF010EF8DF03DBE99EF8CF09BEFB3
:101930008CF0E2EF8CF0000E2A6E000E2B6EA00EE3
:101940002C6E420E2D6E3AC02EF03BC02FF03CC0E4
:1019500030F03DC031F064ECB3F0D8A0B2EF8CF0C1
:10196000B4EF8CF0E2EF8CF0C30E156EF50E166E30
:10197000E80E176E3F0E186E3AC011F03BC012F021
:101980003CC013F03DC014F032ECA4F011C02AF0BA
:1019900012C02BF013C02CF014C02DF0000E2E6ED0
:1019A000000E2F6E120E306EC20E316E92EC9FF052
:1019B0002AC040F02BC041F02CC042F02DC043F0B3
:1019C0004AEF8FF0C30E156EF50E166E880E176E69
:1019D0003F0E186E3AC011F03BC012F03CC013F03D
:1019E0003DC014F032ECA4F011C02AF012C02BF06C
:1019F00013C02CF014C02DF0330E2E6E330E2F6E4C
:101A00001B0E306E420E316E92EC9FF02AC040F0F9
:101A10002BC041F02CC042F02DC043F04AEF8FF0B4
:101A2000040E3E18D8A417EF8DF019EF8DF047EF94
:101A30008DF0F60E156E280E166EFC0E176E3F0E0C
:101A4000186E3AC011F03BC012F03CC013F03DC01C
:101A500014F032ECA4F011C02AF012C02BF013C025
:101A60002CF014C02DF0660E2E6E460E2F6E990EC1
:101A7000306EC30E316E92EC9FF02AC040F02BC046
:101A800041F02CC042F02DC043F04AEF8FF0050E1C
:101A90003E18D8A44EEF8DF050EF8DF0CCEF8DF0C6
:101AA0003DBE55EF8DF057EF8DF09EEF8DF0000E9F
:101AB0002A6E000E2B6E340E2C6E430E2D6E3AC025
:101AC0002EF03BC02FF03CC030F03DC031F064EC54
:101AD000B3F0D8A06EEF8DF070EF8DF09EEF8DF02B
:101AE000B80E156E1E0E166EE50E176E400E186EB1
:101AF0003AC011F03BC012F03CC013F03DC014F0EE
:101B000032ECA4F011C02AF012C02BF013C02CF05C
:101B100014C02DF09A0E2E6EB90E2F6E8A0E306EF6
:101B2000C40E316E92EC9FF02AC040F02BC041F001
:101B30002CC042F02DC043F04AEF8FF0000E156E1E
:101B4000000E166E800E176E3E0E186E3AC011F023
:101B50003BC012F03CC013F03DC014F032ECA4F0D6
:101B600011C02AF012C02BF013C02CF014C02DF0BD
:101B7000000E2E6EC00E2F6E030E306E430E316EB1
:101B800092EC9FF02AC040F02BC041F02CC042F0F4
:101B90002DC043F04AEF8FF0060E3E18D8A4D3EFC5
:101BA0008DF0D5EF8DF04AEF8FF07B0E156E140E91
:101BB000166EAE0E176E3F0E186E3AC011F03BC097
:101BC00012F03CC013F03DC014F032ECA4F011C090
:101BD0002AF012C02BF013C02CF014C02DF0E10E2F
:101BE0002E6E7A0E2F6EDA0E306EC10E316E92ECC2
:101BF0009FF02AC040F02BC041F02CC042F02DC015
:101C000043F04AEF8FF03E04D8A409EF8EF00BEFBB
:101C10008EF039EF8EF0B80E156E1E0E166EA50EF4
:101C2000176E3F0E186E3AC011F03BC012F03CC068
:101C300013F03DC014F032ECA4F011C02AF012C031
:101C40002BF013C02CF014C02DF0520E2E6EB80ED7
:101C50002F6ECE0E306EC10E316E92EC9FF02AC008
:101C600040F02BC041F02CC042F02DC043F04AEFB1
:101C70008FF0020E3E18D8A440EF8EF042EF8EF0A7
:101C800070EF8EF0B80E156E1E0E166EA50E176E46
:101C90003F0E186E3AC011F03BC012F03CC013F07A
:101CA0003DC014F032ECA4F011C02AF012C02BF0A9
:101CB00013C02CF014C02DF0520E2E6EB80E2F6EE5
:101CC000CE0E306EC10E316E92EC9FF02AC040F005
:101CD0002BC041F02CC042F02DC043F04AEF8FF0F2
:101CE000030E3E18D8A477EF8EF079EF8EF0A7EFB1
:101CF0008EF0B80E156E1E0E166EA50E176E3F0EE8
:101D0000186E3AC011F03BC012F03CC013F03DC059
:101D100014F032ECA4F011C02AF012C02BF013C062
:101D20002CF014C02DF0520E2E6EB80E2F6ECE0E6B
:101D3000306EC10E316E92EC9FF02AC040F02BC085
:101D400041F02CC042F02DC043F04AEF8FF0040E5A
:101D50003E18D8A4AEEF8EF0B0EF8EF0DEEF8EF02E
:101D60008F0E156EC20E166EF50E176E3D0E186EA6
:101D70003AC011F03BC012F03CC013F03DC014F06B
:101D800032ECA4F011C02AF012C02BF013C02CF0DA
:101D900014C02DF0B80E2E6E1E0E2F6EA50E306ED6
:101DA000C10E316E92EC9FF02AC040F02BC041F082
:101DB0002CC042F02DC043F04AEF8FF0050E3E18C4
:101DC000D8A4E5EF8EF0E7EF8EF015EF8FF08F0ED1
:101DD000156EC20E166EF50E176E3D0E186E3AC0D9
:101DE00011F03BC012F03CC013F03DC014F032ECD7
:101DF000A4F011C02AF012C02BF013C02CF014C0B4
:101E00002DF0B80E2E6E1E0E2F6EA50E306EC10E6A
:101E1000316E92EC9FF02AC040F02BC041F02CC0F4
:101E200042F02DC043F04AEF8FF0060E3E18D8A4C2
:101E30001CEF8FF01EEF8FF0A4EF8BF0B80E156E35
:101E40001E0E166EA50E176E3F0E186E3AC011F0DC
:101E50003BC012F03CC013F03DC014F032ECA4F0D3
:101E600011C02AF012C02BF013C02CF014C02DF0BA
:101E7000520E2E6EB80E2F6ECE0E306EC10E316E1B
:101E800092EC9FF02AC040F02BC041F02CC042F0F1
:101E90002DC043F043BE51EF8FF04FEF8FF059EF5D
:101EA0008FF0000E406E000E416E000E426E000E6E
:101EB000436E40C03AF041C03BF042C03CF043C0EA
:101EC0003DF0120026EF94F00A0EC1ECBFF003249F
:101ED0000101106F000E0420116F000E0520126F1B
:101EE000000E0620136F600023F3D9FF600027F374
:101EF000DAFF4E0EDE6E000EDD6EC1ECBFF00101AA
:101F00001051035C115104581251055813510658D1
:101F1000D8B08DEF8FF08FEF8FF0F8EF93F04DEF9B
:101F200094F00201174B182BBC0E175D020E1859C6
:101F3000D8A09DEF8FF09FEF8FF064EF8FF01481AA
:101F4000000E046E000E036E16ECBFF00201B66FB9
:101F5000100EB619D8B4AFEF8FF0B1EF8FF0DBEF02
:101F60008FF0F3ECBFF0000E046E000E036E100E47
:101F7000056E24ECBDF0000E046E030E036E640EBD
:101F8000056E24ECBDF0000E046E040E036E000E10
:101F9000056E24ECBDF0000E046E050E036E000EFF
:101FA000056E24ECBDF0170E036E020E046E94EC69
:101FB000BFF064EF8FF0000E046E030E036E16EC9C
:101FC000BFF00201BB6F000E046E040E036E16EC30
:101FD000BFF00201BC6F000E046E050E036E16EC1E
:101FE000BFF00001CA6F0201C3510001CA19FE0B04
:101FF000CA190201C36FBCC2BDF2BE6BBD51BE6F38
:10200000BD6BBB51BD13BDC203F0BEC204F0056A77
:10201000066A000E39ECB0F003C0B7F204C0B8F2A3
:1020200005C0B9F206C0BAF2B7C22AF0B8C22BF0A6
:10203000B9C22CF0BAC22DF0000E2E6E000E2F6E1B
:10204000C80E306E420E316E2BECA8F02AC0B7F2EB
:102050002BC0B8F22CC0B9F22DC0BAF2D1ECC0F04E
:102060004A0E0F6E020E106E8DECBEF04A0E00018D
:10207000A36F020EA46FD10EA56FFC0EA66F8FEC9E
:10208000BDF04A0E126E020E136E53ECBAF04A0EF9
:102090000F6E020E106E8DECBEF04A0E0001A36FA3
:1020A000020EA46FB20EA56FFD0EA66FB7C2A7F009
:1020B000B8C2A8F0B9C2A9F0BAC2AAF08FECBDF0BC
:1020C0004A0E126E020E136E53ECBAF0030E0201AA
:1020D0001C6FE80E1B6F030E1E6F200E1D6F2E0E61
:1020E000206FAE0E1F6F000E046E020E036EDDEC4D
:1020F000C0F064EF8FF0000E046E020E036E77ECFA
:10210000BEF00009D8B487EF90F089EF90F08DEF22
:1021100090F0EEECC0F0D3EF8FF076ECBFF000095A
:10212000D8B495EF90F097EF90F064EF8FF0020144
:10213000174B182B185109E1320E175DD8A0A3EFE9
:1021400090F0A5EF90F064EF8FF0000E046E010E9A
:10215000036EDDECC0F064EF8FF0000E046E010E34
:10216000036E77ECBEF00009D8B4B9EF90F0BBEF86
:1021700090F0BFEF90F0EBECC0F0D3EF8FF06BEC92
:10218000BFF00009D8B4C7EF90F0C9EF90F064EF4A
:102190008FF00201174B182B185109E1320E175D11
:1021A000D8A0D5EF90F0D7EF90F064EF8FF0000E4D
:1021B000046E030E036EDDECC0F064EF8FF0000ED2
:1021C000046E030E036E77ECBEF00009D8B4EBEF9B
:1021D00090F0EDEF90F0EFEF90F0D3EF8FF081EC17
:1021E000BFF00009D8A4F7EF90F0F9EF90F003EFFB
:1021F00091F060ECBFF00009D8B401EF91F003EF6B
:1022000091F00DEF91F0D1ECC0F0000E046E070ECE
:10221000036EDDECC0F064EF8FF002011D4B1E2B4E
:10222000E80E1D5D030E1E59D8A019EF91F01BEFAB
:1022300091F029EF91F01D0E036E020E046E94ECE6
:10224000BFF0000E046E050E036EDDECC0F064EF0F
:102250008FF01F4B202BE00E1F5D2E0E2059D8A0B3
:1022600034EF91F036EF91F064EF8FF01F0E036EB4
:10227000020E046E94ECBFF0000E046E060E036EA8
:10228000DDECC0F064EF8FF0000E046E040E036E00
:1022900077ECBEF00009D8B450EF91F052EF91F016
:1022A0005CEF91F0E7ECC0F04A0E0F6E020E106E7C
:1022B0008DECBEF0D3EF8FF032ECBFF00009D8B454
:1022C00064EF91F066EF91F064EF8FF0AFECBFF048
:1022D00003C022F204C023F205C024F206C025F296
:1022E0004A0E0001A36F020EA46FF30EA56FFF0E3E
:1022F000A66F22C2A7F023C2A8F024C2A9F025C26B
:10230000AAF08FECBDF0D7EF90F0000E046E050E32
:10231000036E77ECBEF00009D8B491EF91F093EF23
:1023200091F095EF91F0BBEF90F06BECBFF00009EE
:10233000D8B49DEF91F09FEF91F064EF8FF0A6EC91
:10234000BFF003C026F204C027F205C028F206C081
:1023500029F2D7EF90F0000E046E060E036E77ECB4
:10236000BEF00009D8B4B7EF91F0B9EF91F0BBEF30
:1023700091F089EF90F076ECBFF00009D8B4C3EF8C
:1023800091F0C5EF91F064EF8FF0F4ECC0F0000134
:10239000CA6FCA51036E046A056A066A000E39ECF8
:1023A000B0F003C02EF204C02FF205C030F206C018
:1023B00031F22EC23AF02FC23BF030C23CF031C2B3
:1023C0003DF0E1ECB2F03A50CBECC0F09DECBFF048
:1023D00003C046F204C047F205C048F206C049F205
:1023E000D7EF90F0000E046E070E036E77ECBEF090
:1023F0000009D8B4FEEF91F000EF92F004EF92F0F4
:10240000F1ECC0F054EF91F0CBECBEF00009D8B481
:102410000CEF92F00EEF92F064EF8FF0B8ECBFF09B
:1024200003C032F204C033F205C034F206C035F204
:1024300032C211F033C212F034C213F035C214F0BC
:10244000000E156E000E166EC80E176E420E186E38
:1024500032ECA4F011C0B7F212C0B8F213C0B9F256
:1024600014C0BAF2B7C2BFF2B8C2C0F2B9C2C1F268
:10247000BAC2C2F2E6ECBBF00201216F000EAE6FF1
:10248000000EAF6F000EB06F000EB16FBFC2B2F2A0
:10249000C0C2B3F2C1C2B4F2C2C2B5F260ECBFF0C6
:1024A0000009D8A456EF92F058EF92F0A8EF93F0FD
:1024B000B2C23AF0B3C23BF0B4C23CF0B5C23DF098
:1024C00021C23EF0B7ECBEF03F6E50EC8AF03AC04D
:1024D00000F23BC001F23CC002F23DC003F200C278
:1024E0003AF001C23BF002C23CF003C23DF0E1EC25
:1024F000B2F03AC044F03BC045F03CECC0F0020101
:10250000C3A185EF92F087EF92F0F4EF93F04A0EBB
:102510000F6E020E106E8DECBEF04A0E0001A36F1E
:10252000020EA46F6B0EA56FFD0EA66F8FECBDF0B3
:102530004A0E126E020E136E53ECBAF04A0E0F6E74
:10254000020E106E8DECBEF04A0E0001A36F020E5B
:10255000A46FC40EA56FFD0EA66F32C2A7F033C2E2
:10256000A8F034C2A9F035C2AAF08FECBDF04A0E33
:10257000126E020E136E53ECBAF04A0E0F6E020E7C
:10258000106E8DECBEF04A0E0001A36F020EA46F18
:10259000840EA56FFD0EA66FBFC2A7F0C0C2A8F043
:1025A000C1C2A9F0C2C2AAF08FECBDF04A0E126EF1
:1025B000020E136E53ECBAF04A0E0F6E020E106E3E
:1025C0008DECBEF04A0E0001A36F020EA46F9D0EAB
:1025D000A56FFD0EA66FAEC2A7F0AFC2A8F0B0C245
:1025E000A9F0B1C2AAF08FECBDF04A0E126E020E35
:1025F000136E53ECBAF04A0E0F6E020E106E8DEC95
:10260000BEF04A0E0001A36F020EA46F350EA56F37
:10261000FD0EA66FB2C2A7F0B3C2A8F0B4C2A9F073
:10262000B5C2AAF08FECBDF04A0E126E020E136E08
:1026300053ECBAF04A0E0F6E020E106E8DECBEF027
:102640004A0E0001A36F020EA46FD50EA56FFD0EFA
:10265000A66FC30EA76F010EA86F8FECBDF04A0ED8
:10266000126E020E136E53ECBAF04A0E0F6E020E8B
:10267000106E8DECBEF04A0E0001A36F020EA46F27
:102680008A0EA56FFE0EA66FB90EA76F010EA86F7A
:102690008FECBDF04A0E126E020E136E53ECBAF0C0
:1026A0004A0E0F6E020E106E8DECBEF04A0E000147
:1026B000A36F020EA46F590EA56FFE0EA66F00C287
:1026C000A7F001C2A8F002C2A9F003C2AAF08FECE1
:1026D000BDF04A0E126E020E136E53ECBAF04A0EA3
:1026E0000F6E020E106E8DECBEF04A0E0001A36F4D
:1026F000020EA46F710EA56FFC0EA66F26C2A7F086
:1027000027C2A8F028C2A9F029C2AAF022C2ABF0C1
:1027100023C2ACF024C2ADF025C2AEF046C2AFF089
:1027200047C2B0F048C2B1F049C2B2F0B7C2B3F08C
:10273000B8C2B4F0B9C2B5F0BAC2B6F08FECBDF011
:102740004A0E126E020E136E53ECBAF0F4EF93F0D1
:10275000D7ECC0F0E6ECBBF00201216FB2C23AF058
:10276000B3C23BF0B4C23CF0B5C23DF021C23EF072
:10277000B7ECBEF03F6E50EC8AF03AC000F23BC0BE
:1027800001F23CC002F23DC003F200C23AF001C2C5
:102790003BF002C23CF003C23DF0E1ECB2F03AC0C3
:1027A00044F03BC045F03CECC0F000C23AF001C23E
:1027B0003BF002C23CF003C23DF0E1ECB2F03AC0A3
:1027C000F2F33BC0F3F34A0E0001A36F020EA46FB5
:1027D000140EA56FFE0EA66FF2C3A7F0F3C3A8F008
:1027E0008FECBDF0A0EF93F0F3ECBFF0D7EF90F0DB
:1027F0000001E251CA6FCB6BCB51000AD8B403EF92
:1028000094F064EF8FF0CA51000AD8B491EF8FF0C2
:10281000010AD8B4ADEF90F0030AD8B47BEF90F082
:10282000010AD8B4DFEF90F0070AD8B444EF91F072
:10283000010AD8B485EF91F0030AD8B4ABEF91F058
:10284000010AD8B4F2EF91F064EF8FF0600023F347
:10285000D9FF600027F3DAFF6F0078FFCAF06F003E
:1028600074FFCBF00001CB51000AD8B43AEF94F0DA
:1028700045EF94F0CA51000AD8B464EF8FF04E0AC5
:10288000D8B47DEF8FF045EF94F0600023F3D9FFCB
:10289000600027F3DAFFDE6ADD6A120075EF97F059
:1028A000010EC1ECBFF003240101446F000E0420AF
:1028B000456F000E0520466F000E0620476F600032
:1028C00023F3D9FF600027F3DAFF6B0EDE6E000EF4
:1028D000DD6EC1ECBFF001014451035C4551045869
:1028E0004651055847510658D8B079EF94F07BEF20
:1028F00094F057EF97F09CEF97F0FE51D8B483EF28
:1029000094F085EF94F050EF94F0FD2B040EFD65EC
:102910008CEF94F08EEF94F050EF94F0000EFE6F79
:10292000500E126E080E136E3AECBBF0010E000151
:10293000F26F50EF94F0500E0A6E080E0B6EFC0E04
:102940000C6EFF0E0D6EACECB5F00A500B10D8B447
:10295000ACEF94F0AEEF94F0F6EF94F0500E0A6EF8
:10296000080E0B6EC30E0C6EFF0E0D6EACECB5F0C8
:102970000A500B10D8B4BFEF94F0C1EF94F050EFB1
:1029800094F0C70E0F6E020E106E8DECBEF0DB0ED3
:102990000F6E020E106E8DECBEF0C70E106E020EA2
:1029A000116E500E126E080E136EF60E146EFF0EA0
:1029B000156EF60E166EFF0E176EFFECB8F0DB0EFE
:1029C000106E020E116E500E126E080E136EF60E81
:1029D000146EFF0E156EFC0E166EFF0E176EA7EC32
:1029E000B8F0020E0001F26F50EF94F0500E0A6E34
:1029F000080E0B6EF80E0C6EFF0E0D6EACECB5F003
:102A00000A500B10D8B407EF95F009EF95F019EFC5
:102A100096F0500E0A6E080E0B6EB50E0C6EFE0E82
:102A20000D6EACECB5F00A500B10D8B41AEF95F05F
:102A30001CEF95F019EF96F0500E0A6E080E0B6E13
:102A4000860E0C6EFF0E0D6EACECB5F00A500B103E
:102A5000D8B42DEF95F02FEF95F05BEF95F00201D4
:102A6000E081000E046E050E036E000EE0B1010E53
:102A7000056E24ECBDF00201E0A102D0C38102D0BA
:102A80000201C391E50E0F6E020E106E8DECBEF0CA
:102A9000E50E0001A36F020EA46F500EA56FFD0E90
:102AA000A66F8FECBDF0E50E126E020E136E53ECA6
:102AB000BAF019EF96F0500E0A6E080E0B6E8F0EDC
:102AC0000C6EFF0E0D6EACECB5F00A500B10D8B4C6
:102AD0006CEF95F06EEF95F094EF95F00201E091B8
:102AE000000E046E050E036E000EE0B1010E056EC1
:102AF00024ECBDF00201E0A102D0C38102D00201AA
:102B0000C391E50E0F6E020E106E8DECBEF0E50E59
:102B10000001A36F020EA46F190EA56FFD0EA66F24
:102B20008FECBDF053EF95F0500E0A6E080E0B6E51
:102B3000B60E0C6EFF0E0D6EACECB5F00A500B101D
:102B4000D8B4A5EF95F0A7EF95F019EF96F0E50E44
:102B5000106E020E116E500E126E080E136EFA0EEB
:102B6000146EFF0E156EB50E166EFE0E176EFFEC90
:102B7000B8F0E50E096E020E0A6EBBECB1F009C0AA
:102B8000E1F20AC0E2F20201E151E36FE46B000EF0
:102B9000046E030E036EE3C205F024ECBDF00201E7
:102BA000E251E36FE46B000E046E040E036EE3C2A9
:102BB00005F024ECBDF0E1C203F0E2C204F0056AC6
:102BC000066A000E39ECB0F003C0B7F204C0B8F2E8
:102BD00005C0B9F206C0BAF2B7C22AF0B8C22BF0EB
:102BE000B9C22CF0BAC22DF0000E2E6E000E2F6E60
:102BF000C80E306E420E316E2BECA8F02AC0B7F230
:102C00002BC0B8F22CC0B9F22DC0BAF2E50E0F6E8F
:102C1000020E106E8DECBEF0E50E0001A36F020EE9
:102C2000A46FFB0EA56FFC0EA66F8FECBDF053EFEB
:102C300095F0000E0001F26F50EF94F0CAECBFF077
:102C40000101689368916083DB0E0A6E020E0B6EC1
:102C50002F0E0C6EFE0E0D6EACECB5F00A500B1084
:102C6000D8B435EF96F037EF96F0BAEF96F0010151
:102C70006883C70E0A6E020E0B6EEB0E0C6EFF0E13
:102C80000D6EACECB5F00A500B10D8B44AEF96F0CC
:102C90004CEF96F050EF96F0010165893AEF97F00E
:102CA000C70E0A6E020E0B6EDF0E0C6EFF0E0D6E5F
:102CB000ACECB5F00A500B10D8B461EF96F063EFAE
:102CC00096F067EF96F0010165813AEF97F0C70E35
:102CD0000A6E020E0B6EEF0E0C6EFF0E0D6EACEC5C
:102CE000B5F00A500B10D8B478EF96F07AEF96F062
:102CF0007EEF96F0010165873AEF97F0C70E0A6EF6
:102D0000020E0B6EDB0E0C6EFF0E0D6EACECB5F012
:102D10000A500B10D8B48FEF96F091EF96F095EF24
:102D200096F0010165833AEF97F0C70E0A6E020E26
:102D30000B6EE70E0C6EFF0E0D6EACECB5F00A508C
:102D40000B10D8B4A6EF96F0A8EF96F0ACEF96F083
:102D50000101658B3AEF97F0C70E0A6E020E0B6EFB
:102D6000E30E0C6EFF0E0D6EACECB5F03AEF97F083
:102D70003AEF97F001016881C70E0A6E020E0B6EE2
:102D8000EB0E0C6EFF0E0D6EACECB5F00A500B1096
:102D9000D8B4CDEF96F0CFEF96F0D1EF96F04CEFA0
:102DA00096F0C70E0A6E020E0B6EDF0E0C6EFF0E53
:102DB0000D6EACECB5F00A500B10D8B4E2EF96F003
:102DC000E4EF96F0E6EF96F063EF96F0C70E0A6E2A
:102DD000020E0B6EEF0E0C6EFF0E0D6EACECB5F02E
:102DE0000A500B10D8B4F7EF96F0F9EF96F0FBEF1E
:102DF00096F07AEF96F0C70E0A6E020E0B6EDB0E9F
:102E00000C6EFF0E0D6EACECB5F00A500B10D8B482
:102E10000CEF97F00EEF97F010EF97F091EF96F020
:102E2000C70E0A6E020E0B6EE70E0C6EFF0E0D6ED5
:102E3000ACECB5F00A500B10D8B421EF97F023EFAB
:102E400097F025EF97F0A8EF96F0C70E0A6E020EE6
:102E50000B6EE30E0C6EFF0E0D6EACECB5F00A506F
:102E60000B10D8B436EF97F038EF97F0B8EF96F034
:102E700001016585030E0001F26F50EF94F002012D
:102E8000C44BC52BE80EC45D030EC559D8A04BEF4B
:102E900097F04DEF97F050EF94F0000EC56F000ED5
:102EA000C46FC681000E0001F26F50EF94F0000174
:102EB000F251CA6FCB6BCB51000AD8B462EF97F0D6
:102EC00050EF94F0CA51000AD8B47DEF94F0010A93
:102ED000D8B49BEF94F0030AD8B41EEF96F0010A21
:102EE000D8B43FEF97F050EF94F0600023F3D9FF90
:102EF000600027F3DAFF6F0078FFCAF06F0074FFFD
:102F0000CBF00001CB51000AD8B489EF97F094EFD1
:102F100097F0CA51000AD8B450EF94F06B0AD8B4B5
:102F200069EF94F094EF97F0600023F3D9FF60000D
:102F300027F3DAFFDE6ADD6A12003BEF9AF0010E3A
:102F4000C1ECBFF003240101146F000E0420156FC3
:102F5000000E0520166F000E0620176F600013F19B
:102F6000D9FF600017F1DAFF1E0EDE6E000EDD6E77
:102F7000C1ECBFF001011451035C15510458165106
:102F8000055817510658D8B0C8EF97F0CAEF97F018
:102F900015EF9AF061EF9AF0040100A1D2EF97F0DB
:102FA000D4EF97F09FEF97F0010E0001E36F9FEFD2
:102FB00097F0120EE3ECBFF04AECBFF00009D8A482
:102FC000E4EF97F0E6EF97F0DCEF97F055ECBFF009
:102FD00003C0E0F404C0E1F4660E156E660E166ED2
:102FE000660E176E3F0E186EE2C403F0E3C404F0E1
:102FF000056A066A000E39ECB0F003C011F004C097
:1030000012F005C013F006C014F032ECA4F011C0A9
:103010002EF012C02FF013C030F014C031F0CD0EDE
:10302000156ECC0E166ECC0E176E3D0E186EE0C4EB
:1030300003F0E1C404F0056A066A000E39ECB0F052
:1030400003C011F004C012F005C013F006C014F064
:1030500032ECA4F011C02AF012C02BF013C02CF0F7
:1030600014C02DF092EC9FF02AC03AF02BC03BF038
:103070002CC03CF02DC03DF0E1ECB2F03AC0E2F4DF
:103080003BC0E3F4D8900401CD35D96ECE35DA6E6D
:10309000010ED926040EDA2261008BF3DEFF6100F7
:1030A0008FF3DDFFCD4BCE2BD890CB35D96ECC3501
:1030B000DA6E010ED926040EDA226F0078FF46F090
:1030C0006F0074FF47F046C003F047C004F0056A84
:1030D000066A000E39ECB0F003C02AF004C02BF0F1
:1030E00005C02CF006C02DF0CFC42EF0D0C42FF0B8
:1030F000D1C430F0D2C431F092EC9FF02AC0CFF4AA
:103100002BC0D0F42CC0D1F42DC0D2F40401CB4B91
:10311000CC2BCC5109E1640ECB5DD8A092EF98F096
:1031200094EF98F09FEF98F0000ECC6F000ECB6FED
:10313000000ECE6F000ECD6F020E0001E36F040192
:1031400000A3A5EF98F0A7EF98F09FEF97F00093FA
:103150000091000E0001E36F9FEF97F0CFC42AF0BB
:10316000D0C42BF0D1C42CF0D2C42DF0000E2E6EA2
:10317000000E2F6EC80E306E420E316E2BECA8F092
:103180002AC0CFF42BC0D0F42CC0D1F42DC0D2F47F
:10319000030E0001E36F9FEF97F0CFC411F0D0C48E
:1031A00012F0D1C413F0D2C414F06F0E156E120ECB
:1031B000166E830E176E3A0E186E32ECA4F011C024
:1031C000D3F412C0D4F413C0D5F414C0D6F4CCA6F2
:1031D000ECEF98F0EEEF98F0F5EF98F0040E0001A8
:1031E000E36F040100959FEF97F0050E0001E36F78
:1031F000040100859FEF97F0000E156E000E166E0D
:10320000C00E176E400E186ED3C411F0D4C412F065
:10321000D5C413F0D6C414F032ECA4F011C02AF0D7
:1032200012C02BF013C02CF014C02DF0CD0E2E6E5A
:10323000CC0E2F6ECC0E306E3E0E316E92EC9FF0A7
:103240002AC0D7F42BC0D8F42CC0D9F42DC0DAF49E
:10325000000E156E000E166EC80E176E410E186E1B
:10326000D7C411F0D8C412F0D9C413F0DAC414F0E2
:1032700032ECA4F011C02AF012C02BF013C02CF0D5
:1032800014C02DF0000E2E6E000E2F6E480E306E04
:10329000C30E316E92EC9FF02AC0DBF42BC0DCF43D
:1032A0002CC0DDF42DC0DEF4000E2A6E000E2B6E55
:1032B000C80E2C6E420E2D6EDBC42EF0DCC42FF037
:1032C000DDC430F0DEC431F064ECB3F0D8B06BEFA5
:1032D00099F06DEF99F078EF99F0000E0401DB6F33
:1032E000000EDC6FC80EDD6F420EDE6F88EF99F0C6
:1032F0000401DEBF80EF99F07EEF99F088EF99F03E
:10330000000EDB6F000EDC6F000EDD6F000EDE6F57
:10331000DBC43AF0DCC43BF0DDC43CF0DEC43DF07D
:10332000E1ECB2F03A500401DF6F00910093A9EF95
:1033300098F0D3C411F0D4C412F0D5C413F0D6C49D
:1033400014F0000E156E000E166EC00E176E400EB5
:10335000186E32ECA4F011C0D7F412C0D8F413C028
:10336000D9F414C0DAF4000E156E000E166E200E9D
:10337000176E420E186ED7C411F0D8C412F0D9C41B
:1033800013F0DAC414F032ECA4F011C02AF012C029
:103390002BF013C02CF014C02DF0000E2E6E000E7A
:1033A0002F6EC80E306EC30E316E92EC9FF02AC0A5
:1033B000DBF42BC0DCF42CC0DDF42DC0DEF4000EF9
:1033C0002A6E000E2B6EC80E2C6E420E2D6EDBC4C4
:1033D0002EF0DCC42FF0DDC430F0DEC431F064EC3C
:1033E000B3F0D8B0F6EF99F0F8EF99F003EF9AF058
:1033F000000E0401DB6F000EDC6FC80EDD6F420EA5
:10340000DE6F88EF99F00401DEBF0BEF9AF009EF51
:103410009AF088EF99F0000EDB6F000EDC6F000E63
:10342000DD6F000EDE6F88EF99F00001E351466E0C
:10343000476A4750000AD8B420EF9AF09FEF97F000
:103440004650000AD8B4CCEF97F0010AD8B4D9EFAF
:1034500097F0030AD8B4AEEF98F0010AD8B4CDEFD4
:1034600098F0070AD8B4FCEF98F0010AD8B499EFA5
:1034700099F09FEF97F0600013F1D9FF600017F10A
:10348000DAFF6F0078FF46F06F0074FF47F0475097
:10349000000AD8B44EEF9AF059EF9AF04650000A5D
:1034A000D8B49FEF97F01E0AD8B4B8EF97F059EF51
:1034B0009AF0600013F1D9FF600017F1DAFFDE6ABD
:1034C000DD6A1200F8EF9CF0010EC1ECBFF003249E
:1034D00001010C6F000E04200D6F000E05200E6F11
:1034E000000E06200F6F600053F0D9FF600057F008
:1034F000DAFF7F0EDE6E000EDD6EC1ECBFF0010163
:103500000C51035C0D5104580E5105580F510658CB
:10351000D8B08DEF9AF08FEF9AF0DAEF9CF01EEFB3
:103520009DF0020114A197EF9AF099EF9AF064EFE1
:103530009AF0010E0001E06F64EF9AF0F951D8B4EF
:10354000A4EF9AF0A6EF9AF064EF9AF0F82B040E2D
:10355000F865ADEF9AF0AFEF9AF064EF9AF0000ED5
:10356000F96F820E0F6E030E106EDAECB4F0020EDD
:103570000001E06F64EF9AF0820E0A6E030E0B6E8C
:103580001A0E0C6EFF0E0D6EACECB5F00A500B105F
:10359000D8B4CDEF9AF0CFEF9AF0D5EF9AF0CAEC0D
:1035A000BFF00101658DBEEF9CF0820E0A6E030E26
:1035B0000B6EEE0E0C6EFE0E0D6EACECB5F00A50FE
:1035C0000B10D8B4E6EF9AF0E8EF9AF0ECEF9AF02F
:1035D00001016681BEEF9CF0820E0A6E030E0B6E37
:1035E000F90E0C6EFE0E0D6EACECB5F00A500B1021
:1035F000D8B4FDEF9AF0FFEF9AF003EF9BF00101D2
:103600006683BEEF9CF0820E0A6E030E0B6E040EF4
:103610000C6EFF0E0D6EACECB5F00A500B10D8B46A
:1036200014EF9BF016EF9BF01AEF9BF001016685FB
:10363000BEEF9CF0820E0A6E030E0B6E0F0E0C6E28
:10364000FF0E0D6EACECB5F00A500B10D8B42BEF9A
:103650009BF02DEF9BF02FEF9BF016EF9BF0820E6F
:103660000A6E030E0B6E240E0C6EFF0E0D6EACEC8C
:10367000B5F00A500B10D8B440EF9BF042EF9BF02E
:1036800067EF9BF0CAECBFF0010160836581688140
:103690006893C30E076E010E086E000E0A6E000ED0
:1036A000096E000E0C6E0A0E0B6ED1ECBDF0C30E4F
:1036B000076E010E086EA00E096EFF0E0A6E000E58
:1036C0000C6E080E0B6E76ECBBF0BEEF9CF0820E1B
:1036D0000A6E030E0B6E2E0E0C6EFF0E0D6EACEC12
:1036E000B5F00A500B10D8B478EF9BF07AEF9BF04E
:1036F0009FEF9BF0CAECBFF0010160836581689188
:103700006883C30E076E010E086E000E0A6E000E6F
:10371000096E000E0C6E0A0E0B6ED1ECBDF0C30EDE
:10372000076E010E086E7D0E096EFF0E0A6E000E0A
:103730000C6E090E0B6E76ECBBF0BEEF9CF0820EA9
:103740000A6E030E0B6E380E0C6EFF0E0D6EACEC97
:10375000B5F00A500B10D8B4B0EF9BF0B2EF9BF06D
:10376000B9EF9BF0CAECBFF0010160836583BEEF47
:103770009CF0820E0A6E030E0B6E4C0E0C6EFF0E4A
:103780000D6EACECB5F00A500B10D8B4CAEF9BF03C
:10379000CCEF9BF0D3EF9BF0CAECBFF0010160834C
:1037A0006585BEEF9CF0820E0A6E030E0B6E600EF6
:1037B0000C6EFF0E0D6EACECB5F00A500B10D8B4C9
:1037C000E4EF9BF0E6EF9BF0EDEF9BF0CAECBFF06F
:1037D000010160836587BEEF9CF0820E0A6E030EC6
:1037E0000B6EAC0E0C6EFE0E0D6EACECB5F00A500E
:1037F0000B10D8B4FEEF9BF000EF9CF007EF9CF0AD
:10380000CAECBFF0010160836589BEEF9CF0820EB7
:103810000A6E030E0B6EC20E0C6EFE0E0D6EACEC3D
:10382000B5F00A500B10D8B418EF9CF01AEF9CF0CA
:1038300021EF9CF0CAECBFF001016083658BBEEF05
:103840009CF0820E0A6E030E0B6ED80E0C6EFE0EEE
:103850000D6EACECB5F00A500B10D8B432EF9CF002
:1038600034EF9CF03BEF9CF0CAECBFF001016083A9
:103870006581BEEF9CF0820E0A6E030E0B6E420E47
:103880000C6EFF0E0D6EACECB5F00A500B10D8B4F8
:103890004CEF9CF04EEF9CF055EF9CF0CAECBFF063
:1038A00001016083658FBEEF9CF0820E0A6E030EED
:1038B0000B6E560E0C6EFF0E0D6EACECB5F00A5092
:1038C0000B10D8B466EF9CF068EF9CF06AEF9CF0A8
:1038D0004EEF9CF0820E0A6E030E0B6E6A0E0C6E9B
:1038E000FF0E0D6EACECB5F00A500B10D8B47BEFA8
:1038F0009CF07DEF9CF07FEF9CF04EEF9CF0820EF1
:103900000A6E030E0B6EB70E0C6EFE0E0D6EACEC57
:10391000B5F00A500B10D8B490EF9CF092EF9CF0E9
:1039200094EF9CF04EEF9CF0820E0A6E030E0B6E2D
:10393000CD0E0C6EFE0E0D6EACECB5F00A500B10F9
:10394000D8B4A5EF9CF0A7EF9CF0A9EF9CF04EEF48
:103950009CF0820E0A6E030E0B6EE30E0C6EFE0ED2
:103960000D6EACECB5F00A500B10D8B4BAEF9CF069
:10397000BCEF9CF0BEEF9CF04EEF9CF0030E0001FC
:10398000E06F64EF9AF00101544B552B555109E15A
:10399000640E545DD8A0CFEF9CF0D1EF9CF064EFA3
:1039A0009AF0000E556F000E546F010E0001E06F8B
:1039B00064EF9AF00001E051166E176A1750000A82
:1039C000D8B4E5EF9CF064EF9AF01650000AD8B432
:1039D00091EF9AF0010AD8B49EEF9AF0030AD8B496
:1039E000BCEF9AF0010AD8B4C3EF9CF064EF9AF0F0
:1039F000600053F0D9FF600057F0DAFF6F0078FFE6
:103A000016F06F0074FF17F01750000AD8B40BEFD0
:103A10009DF016EF9DF01650000AD8B464EF9AF0AE
:103A20007F0AD8B47DEF9AF016EF9DF0600053F056
:103A3000D9FF600057F0DAFFDE6ADD6A12006BEF33
:103A40009FF0010EC1ECBFF0032401011C6F000EBA
:103A500004201D6F000E05201E6F000E06201F6F34
:103A6000600013F1D9FF600017F1DAFF2A0EDE6E55
:103A7000000EDD6EC1ECBFF001011C51035C1D5155
:103A800004581E5105581F510658D8B04AEF9DF0F2
:103A90004CEF9DF045EF9FF091EF9FF0050100A1E5
:103AA00054EF9DF056EF9DF0CBEF9DF0E3ECC0F0AE
:103AB00025ECBFF00009D8B460EF9DF062EF9DF0F7
:103AC00088EF9DF0000E2A6E000E2B6E5C0E2C6EA1
:103AD000420E2D6EDDC52EF0DEC52FF0DFC530F0B5
:103AE000E0C531F064ECB3F0D8A079EF9DF07BEF46
:103AF0009DF081EF9DF0BE82BE90BA9ABA9085EF9C
:103B00009DF0BA8ABA90BE92BE90BC82ACEF9DF096
:103B1000000E2A6E000E2B6E340E2C6E420E2D6E91
:103B2000DDC52EF0DEC52FF0DFC530F0E0C531F089
:103B300064ECB3F0D8A09FEF9DF0A1EF9DF0A7EF4C
:103B40009DF0BA9ABE92BA90BE80ABEF9DF0BA805B
:103B5000BA9ABE92BE90BC820101584B592BE80E16
:103B6000585D030E5959D8A0B8EF9DF0BAEF9DF0FB
:103B700021EF9DF005010095000E0101596F000E27
:103B8000586F000E0501CC6F000ECB6F010E0001C7
:103B9000E56F21EF9DF000A3D0EF9DF0D2EF9DF0F7
:103BA00021EF9DF0E3ECC0F0BE9205010085000E10
:103BB000CC6F000ECB6F050E0001E56F21EF9DF07D
:103BC000060EE3ECBFF04AECBFF00009D8A4EBEF1F
:103BD0009DF0EDEF9DF0E3EF9DF055ECBFF003C0DD
:103BE000CBF504C0CCF5CBC503F0CCC504F0056A19
:103BF000066A000E39ECB0F003C02AF004C02BF0C6
:103C000005C02CF006C02DF0CFC52EF0D0C52FF08A
:103C1000D1C530F0D2C531F092EC9FF02AC0CFF57B
:103C20002BC0D0F52CC0D1F52DC0D2F50501D34B5A
:103C3000D42BD45109E1640ED35DD8A022EF9EF0BD
:103C400024EF9EF021EF9DF0000ECE6F000ECD6FA1
:103C5000000ED46F000ED36F030E0001E56F21EF4D
:103C60009DF0060EE3ECBFF04AECBFF00009D8A4CB
:103C70003CEF9EF03EEF9EF034EF9EF055ECBFF02F
:103C800003C0D9F504C0DAF5000E156E000E166EED
:103C9000000E176E3F0E186EDBC503F0DCC504F096
:103CA000056A066A000E39ECB0F003C011F004C0DA
:103CB00012F005C013F006C014F032ECA4F011C0ED
:103CC0002EF012C02FF013C030F014C031F0000EEF
:103CD000156E000E166E000E176E3F0E186ED9C5CB
:103CE00003F0DAC504F0056A066A000E39ECB0F09C
:103CF00003C011F004C012F005C013F006C014F0A8
:103D000032ECA4F011C02AF012C02BF013C02CF03A
:103D100014C02DF092EC9FF02AC03AF02BC03BF07B
:103D20002CC03CF02DC03DF0E1ECB2F03AC0DBF528
:103D30003BC0DCF5DBC503F0DCC504F0056A066AB0
:103D4000000E39ECB0F003C02AF004C02BF005C01F
:103D50002CF006C02DF0CFC52EF0D0C52FF0D1C568
:103D600030F0D2C531F092EC9FF02AC0CFF52BC0D5
:103D7000D0F52CC0D1F52DC0D2F50501D34BD42BF5
:103D8000E80ED35D030ED459D8A0C9EF9EF0CBEF57
:103D90009EF021EF9DF0BE92BE90BA9ABC92000EAA
:103DA000D46F000ED36F030E0001E56F21EF9DF07D
:103DB000050100B5DEEF9EF0E0EF9EF0FFEF9EF014
:103DC000CFC52AF0D0C52BF0D1C52CF0D2C52DF02F
:103DD000000E2E6E000E2F6E7A0E306E440E316E77
:103DE0002BECA8F02AC0CFF52BC0D0F52CC0D1F514
:103DF0002DC0D2F5040E0001E56F21EF9DF0CFC577
:103E00002AF0D0C52BF0D1C52CF0D2C52DF0000E74
:103E10002E6E000E2F6EC80E306E420E316E2BECE1
:103E2000A8F02AC0CFF52BC0D0F52CC0D1F52DC0FD
:103E3000D2F5FAEF9EF0CFC511F0D0C512F0D1C582
:103E400013F0D2C514F06F0E156E120E166E830E9F
:103E5000176E3A0E186E32ECA4F011C0D5F512C0F0
:103E6000D6F513C0D7F514C0D8F5000E0501CF6FF5
:103E7000000ED06F000ED16F000ED26F0091009334
:103E8000000E0001E56F21EF9DF00001E551466E47
:103E9000476A4750000AD8B450EF9FF021EF9DF0D9
:103EA0004650000AD8B44EEF9DF0010AD8B431EF65
:103EB0009EF0030AD8B421EF9DF0010AD8B4D8EFE0
:103EC0009EF0070AD8B41BEF9FF0010AD8B4E0EFC8
:103ED0009DF021EF9DF0600013F1D9FF600017F114
:103EE000DAFF6F0078FF46F06F0074FF47F047502D
:103EF000000AD8B47EEF9FF089EF9FF04650000A89
:103F0000D8B421EF9DF02A0AD8B43AEF9DF089EF9A
:103F10009FF0600013F1D9FF600017F1DAFFDE6A4D
:103F2000DD6A12002D50800B366E2D502D24386E18
:103F30002CAE9DEF9FF09FEF9FF0A0EF9FF0388099
:103F40003850D8B4A6EF9FF0A8EF9FF0BDEF9FF0D8
:103F50003828D8A4AEEF9FF0B0EF9FF0B8EF9FF0F5
:103F6000000E2A6E000E2B6E000E2C6E000E2D6EB3
:103F70002C8E000E2D6EC5EF9FF0000E2A6E000EE7
:103F80002B6E000E2C6E000E2D6E3150800B376E96
:103F900036503718D8B4CFEF9FF0D1EF9FF0D2EF63
:103FA0009FF0368C31503124376E30AEDAEF9FF00F
:103FB000DCEF9FF0DDEF9FF037803750D8B4E3EFB0
:103FC0009FF0E5EF9FF0FAEF9FF03728D8A4EBEFD2
:103FD0009FF0EDEF9FF0F5EF9FF0000E2E6E000EBC
:103FE0002F6E000E306E000E316E308E000E316E70
:103FF00002EFA0F0000E2E6E000E2F6E000E306E3F
:10400000000E316E3850375CD8B009EFA0F00BEFDE
:10401000A0F032EFA0F036AC10EFA0F012EFA0F05D
:1040200014EFA0F0800E361A38C039F037C038F0DF
:1040300039C037F02AC039F02EC02AF039C02EF02E
:104040002BC039F02FC02BF039C02FF02CC039F025
:1040500030C02CF039C030F02DC039F031C02DF017
:1040600039C031F0000E396E385037C032F0336A43
:10407000325E000E335A33BE47EFA0F0335009E1F1
:104080001A0E325CD8A047EFA0F049EFA0F080EF05
:10409000A0F02A502B102C102D10D8A452EFA0F015
:1040A00055EFA0F0010E56EFA0F0000E396E000E95
:1040B0002A6E000E2B6E000E2C6E000E2D6E37C079
:1040C00038F089EFA0F039A068EFA0F06AEFA0F017
:1040D00070EFA0F0D89039300109396E72EFA0F07E
:1040E000D89039322AA077EFA0F079EFA0F07AEFDC
:1040F000A0F0398E2D342D322C322B322A32382A30
:104100003750385CD8A087EFA0F089EFA0F063EFBC
:10411000A0F036BC8EEFA0F090EFA0F0D0EFA0F0B2
:104120003850D8A496EFA0F098EFA0F0A2EFA0F03E
:10413000000E2A6E000E2B6E000E2C6E000E2D6EE1
:10414000F1EFA1F02E502A262F502B2230502C2296
:1041500031502D222DA0AFEFA0F0B1EFA0F05DEF18
:10416000A1F039A0B6EFA0F0B8EFA0F0BEEFA0F03C
:10417000D89039300109396EC0EFA0F0D8903932AB
:104180002AA0C5EFA0F0C7EFA0F0C8EFA0F0398ECD
:104190002D342D322C322B322A32382A5DEFA1F009
:1041A0002E502A5C2F502B5830502C582D50800AFE
:1041B000326E3150800A3258D8B0E1EFA0F0E3EF10
:1041C000A0F00EEFA1F02A502E5C326E2B502F582B
:1041D000336E2C503058346E2D503158356EFF0EE2
:1041E00032242A6EFF0E33202B6EFF0E34202C6EED
:1041F000FF0E35202D6E800E361A396C3950D8A43A
:1042000004EFA1F006EFA1F016EFA1F0010E2A26AF
:10421000000E2B222C222D2216EFA1F02E502A5E0A
:104220002F502B5A30502C5A31502D5A2A502B10C7
:104230002C102D10D8A41FEFA1F021EFA1F056EF04
:10424000A1F03950D8A427EFA1F029EFA1F056EF43
:10425000A1F0000E2A6E000E2B6E000E2C6E000ECA
:104260002D6EF1EFA1F0D8902A362B362C362D3654
:1042700039AE3DEFA1F03FEFA1F040EFA1F02A8071
:1042800039A045EFA1F047EFA1F04BEFA1F0D880A6
:1042900039364DEFA1F0D89039363850D8B453EFB5
:1042A000A1F055EFA1F056EFA1F038062CAE5BEF70
:1042B000A1F05DEFA1F033EFA1F0000E376E39AE43
:1042C00064EFA1F066EFA1F07EEFA1F039C032F00B
:1042D0007F0E3216D8B46FEFA1F071EFA1F075EF39
:1042E000A1F0010E376E7EEFA1F02AA07AEFA1F0C7
:1042F0007CEFA1F07EEFA1F071EFA1F03750D8B4C0
:1043000084EFA1F086EFA1F0B1EFA1F0010E2A2613
:10431000000E2B222C222D222DA091EFA1F093EF45
:10432000A1F0B1EFA1F02AC032F02BC033F02CC0C5
:1043300034F02DC035F03534353234323332323248
:1043400032C02AF033C02BF034C02CF035C02DF031
:104350003828D8B4AEEFA1F0B0EFA1F0B1EFA1F0E2
:10436000382A3828D8B4B7EFA1F0B9EFA1F0C1EFDF
:10437000A1F03850D8A4BFEFA1F0C1EFA1F0D3EF66
:10438000A1F0000E2A6E000E2B6E000E2C6E000E99
:104390002D6E3850D8A4CFEFA1F0D1EFA1F0D3EF1C
:1043A000A1F0000E366E38A0D8EFA1F0DAEFA1F040
:1043B000DDEFA1F02C8EDEEFA1F02C9ED8903830EE
:1043C0002D6E36AEE6EFA1F0E8EFA1F0E9EFA1F037
:1043D0002D8E2AC02AF02BC02BF02CC02CF02DC023
:1043E0002DF0120000019351D96EDA6A6F007BFF45
:1043F000F6FF6F0077FFF7FF000EF86E0800F5502C
:10440000250AD8A406EFA2F008EFA2F01CEFA4F052
:104410009351D96EDA6ADE2A000EDD22000ED56FC6
:10442000000ED46FD4C0DCF0D669D769000E9A6F45
:104430003AEFA2F0DC839351D96EDA6ADE2A000EDD
:10444000DD223AEFA2F0010E9A6F3AEFA2F09351FB
:10445000D96EDA6A6F007BFFF6FF6F0077FFF7FF18
:10446000000EF86E0800F550300AD8B41AEFA2F02A
:1044700023EFA2F09A51D8B440EFA2F042EFA2F09D
:1044800027EFA2F09351D96EDA6A6F007BFFF6FF37
:104490006F0077FFF7FF000EF86E0800F5502E0A48
:1044A000D8A455EFA2F057EFA2F067EFA2F0935116
:1044B000D96EDA6ADE2A000EDD2293C009F094C0BC
:1044C0000AF03AECB7F009C0D6F00AC0D7F0000104
:1044D0009351D96EDA6A6F0078FF9BF06F0074FF1A
:1044E0009CF060006FF2F6FF600073F2F7FF000EC1
:1044F000F86E0800F550640AD8B481EFA2F083EF9B
:10450000A2F095EFA2F060006FF2F6FF600073F288
:10451000F7FF000EF86E0800F550690AD8A493EF73
:10452000A2F095EFA2F0BCEFA2F09451D96EDA6A36
:10453000020EDF26DF5CD96EDA6A6F0078FF95F035
:104540006F0078FF96F0010E9B25596E000E9C219E
:104550005A6E9351D96EDA6A600067F1DEFF60002F
:104560006BF1DDFF92C019F095C01AF096C01BF0F8
:104570005EECAFF031EFA4F0000E9A6F9351D96E5C
:10458000DA6A6F007BFFF6FF6F0077FFF7FF000E20
:10459000F86E0800F550730AD8A4D1EFA2F0D3EF5B
:1045A000A2F0DDEFA2F09351D96EDA6ADE2A000E96
:1045B000DD22010E9A6F39EFA3F09351D96EDA6ABA
:1045C0006F007BFFF6FF6F0077FFF7FF000EF86EBE
:1045D0000800F5506C0AD8A4F0EFA2F0F2EFA2F0B8
:1045E00039EFA3F09351D96EDA6A6F0078FF59F072
:1045F0006F0074FF5AF0010E5926000E5A22600017
:1046000067F1F6FF60006BF1F7FF000EF86E08002F
:10461000F5506C0AD8A40FEFA3F011EFA3F039EF17
:10462000A3F09351D96EDA6A6F0078FF59F06F00EA
:1046300074FF5AF0020E5926000E5A22600067F1EC
:10464000F6FF60006BF1F7FF000EF86E0800F55002
:10465000730AD8A42EEFA3F030EFA3F039EFA3F044
:104660009351D96EDA6A030EDE26000EDD22D9EFF1
:10467000A2F09A51D8B43FEFA3F041EFA3F055EF69
:10468000A3F092C00BF09451D96EDA6A020EDF26C5
:10469000DF5CD96EDA6A6F0078FF0CF06F0078FF8C
:1046A0000DF057ECB2F031EFA4F09351D96EDA6A05
:1046B0006F0078FF9BF06F0074FF9CF060006FF25A
:1046C000F6FF600073F2F7FF000EF86E08006F004F
:1046D000D4FF99F078EFA3F09B4B9C2B87EFA3F0CE
:1046E0006C0E996F87EFA3F0000E996F87EFA3F020
:1046F00099514C0AD8B46CEFA3F02A0AD8B470EFE1
:10470000A3F00A0AD8B46CEFA3F074EFA3F0600032
:104710006FF2F6FF600073F2F7FF000EF86E08000C
:10472000F550660AD8A497EFA3F099EFA3F013EF22
:10473000A4F0CDEFA3F09451D96EDA6A6F007CFF3C
:1047400059F0040EDF265950D96EDA6A6F0078FFEF
:1047500095F06F0078FF96F06F0078FF97F06F008C
:1047600078FF98F0D8EFA3F09451D96EDA6A6F0011
:104770007CFF59F0040EDF265950D96EDA6A6F00BB
:1047800078FF95F06F0078FF96F06F0078FF97F054
:104790006F0078FF98F0D8EFA3F099514C0AD8B485
:1047A000B4EFA3F0200AD8B49BEFA3F0D8EFA3F0A6
:1047B000010E9B25596E000E9C215A6E9351D96EA5
:1047C000DA6A600067F1DEFF60006BF1DDFF03EF86
:1047D000A4F092C060F095C061F096C062F097C0FE
:1047E00063F098C064F060006FF2F6FF600073F24F
:1047F000F7FF000EF86E08006F00D4FF65F000ECC4
:1048000080F031EFA4F060006FF2F6FF600073F209
:10481000F7FF000EF86E0800F550660AD8B4E9EF0D
:10482000A3F013EFA4F000019351D96EDA6ADE2AE7
:10483000000EDD2231EFA4F09351D96EDA6A6F00D9
:104840007BFFF6FF6F0077FFF7FF000EF86E0800A2
:10485000F550036E046A92C005F076ECB6F013EFE3
:10486000A4F012001450800B1D6E14501424236EFB
:1048700013AE3DEFA4F03FEFA4F040EFA4F023808F
:104880002350D8B446EFA4F048EFA4F05BEFA4F0B7
:104890002328D8A44EEFA4F050EFA4F058EFA4F0D2
:1048A000000E116E000E126E000E136E000E146ECE
:1048B000138E63EFA4F0000E116E000E126E000E48
:1048C000136E000E146E1850800B1D1A1850182409
:1048D0001E6E17AE6EEFA4F070EFA4F071EFA4F0AF
:1048E0001E801E50D8B477EFA4F079EFA4F08CEFBF
:1048F000A4F01E28D8A47FEFA4F081EFA4F089EFE4
:10490000A4F0000E156E000E166E000E176E000E4F
:10491000186E178E94EFA4F0000E156E000E166E32
:10492000000E176E000E186E1E50D8B49AEFA4F049
:104930009CEFA4F0A4EFA4F02350D8A4A2EFA4F01D
:10494000A4EFA4F0AEEFA4F0000E116E000E126EF4
:10495000000E136E000E146E58EFA6F017501102E1
:104960006F00CCFF28F06F00D0FF29F028501F6E99
:10497000206A216A226A2950246E256A266A276ADB
:10498000165012026F00CCFF28F06F00D0FF29F004
:1049900028501F26000E20222122222229502426C0
:1049A000000E252226222722155013026F00CCFF6D
:1049B00028F06F00D0FF29F028501F26000E20227B
:1049C0002122222229502426000E252226222722B7
:1049D00021C022F020C021F01FC020F01F6A155016
:1049E00012026F00CCFF28F06F00D0FF29F0285092
:1049F0001F2629502022000E2122000E22221650AE
:104A000011026F00CCFF28F06F00D0FF29F0285072
:104A10001F2629502022000E2122000E222221C012
:104A200022F020C021F01FC020F01F6A1550110293
:104A30006F00CCFF28F06F00D0FF29F028501F2610
:104A400029502022000E2122000E2222175012028D
:104A50006F00CCFF28F06F00D0FF29F028502426EB
:104A600029502522000E2622000E2722165013025E
:104A70006F00CCFF28F06F00D0FF29F028502426CB
:104A800029502522000E2622000E2722175013023D
:104A90006F00CCFF28F06F00D0FF29F02850196E6E
:104AA00029501A6E1B6A1C6A1BC01CF01AC01BF02E
:104AB00019C01AF0196A195024261A5025221B50C1
:104AC00026221C5027221FC019F020C01AF021C036
:104AD0001BF022C01CF0190E73EFA5F0D8901C3209
:104AE0001B321A321932E82E6EEFA5F01950242627
:104AF0001A5025221B5026221C50272221C022F0AA
:104B000020C021F01FC020F01F6A1E5023C019F0E2
:104B10001A6A1926000E1A22820E1924286EFF0E18
:104B20001A20296EA9EFA5F0D8902436253626360E
:104B3000273622AE9EEFA5F0A0EFA5F0A1EFA5F0DD
:104B40002480D8901F362036213622362806D8A059
:104B5000290626AEAEEFA5F0B0EFA5F094EFA5F0D4
:104B6000000E1E6E22AEB7EFA5F0B9EFA5F0DDEF97
:104B7000A5F0FF0E1F14196EFF0E20141A6EFF0E03
:104B800021141B6E7F0E22141C6E19501A101B105C
:104B90001C10D8B4CEEFA5F0D0EFA5F0D4EFA5F05F
:104BA000010E1E6EDDEFA5F024A0D9EFA5F0DBEF1E
:104BB000A5F0DDEFA5F0D0EFA5F01E50D8B4E3EFDF
:104BC000A5F0E5EFA5F009EFA6F0010E2426000EF2
:104BD00025222622272227A0F0EFA5F0F2EFA5F04C
:104BE00009EFA6F024C019F025C01AF026C01BF06A
:104BF00027C01CF01C341C321B321A32193219C067
:104C000024F01AC025F01BC026F01CC027F0284A4B
:104C1000292A29BE14EFA6F0295008E12828D8A097
:104C200014EFA6F016EFA6F020EFA6F0000E246E0B
:104C3000000E256E800E266E7F0E276E4EEFA6F0BC
:104C400029BE2DEFA6F0295006E12804D8B02BEF9D
:104C5000A6F02DEFA6F039EFA6F0000E246E000EA0
:104C6000256E000E266E000E276E000E1D6E4EEF96
:104C7000A6F028C023F0FF0E2416FF0E25167F0E87
:104C80002616000E271623A048EFA6F04AEFA6F03E
:104C90004BEFA6F0268ED8902330276E1D5027129A
:104CA00024C011F025C012F026C013F027C014F064
:104CB000120004EFA8F0010EC1ECBFF003240101C3
:104CC000186F000E0420196F000E05201A6F000ED9
:104CD00006201B6F600013F1D9FF600017F1DAFFA7
:104CE0001F0EDE6E000EDD6EC1ECBFF0010118512B
:104CF000035C195104581A5105581B510658D8B075
:104D000084EFA6F086EFA6F0E6EFA7F02AEFA8F072
:104D1000060100A18EEFA6F090EFA6F05BEFA6F0E3
:104D2000010E0001E46F5BEFA6F0070EE3ECBFF0AD
:104D30004AECBFF00009D8A4A0EFA6F0A2EFA6F0BD
:104D400098EFA6F055ECBFF003C0D7F604C0D8F634
:104D5000660E156E660E166E660E176E3F0E186E98
:104D6000D9C603F0DAC604F0056A066A000E39EC0B
:104D7000B0F003C011F004C012F005C013F006C07B
:104D800014F032ECA4F011C02EF012C02FF013C0BA
:104D900030F014C031F0CD0E156ECC0E166ECC0E68
:104DA000176E3D0E186ED7C603F0D8C604F0056A1C
:104DB000066A000E39ECB0F003C011F004C012F026
:104DC00005C013F006C014F032ECA4F011C02AF0B4
:104DD00012C02BF013C02CF014C02DF092EC9FF0F9
:104DE0002AC03AF02BC03BF02CC03CF02DC03DF067
:104DF000E1ECB2F03AC0D9F63BC0DAF6D890060141
:104E0000CB35D96ECC35DA6E010ED926060EDA22F4
:104E1000610067FBDEFF61006BFBDDFFCB4BCC2B42
:104E2000D890CD35D96ECE35DA6E010ED926060E64
