:020000040000FA
:100000000DEF00F0FFFFFFFF1FEFC2F0FFFFFFFF4C
:10001000FFFFFFFFFFFFFFFFFF0077EFC1F0FFFFD4
:10002000FFFFFFFFFFFFFFFFFFFFFFFFFFFFFFFFE0
:10003000FFFFFFFFFFFFFFFFFFFFFFFFFFFFFFFFD0
:10004000FFFFFFFFFFFFFFFFFFFFFFFFFFFFFFFFC0
:10005000FFFFFFFFFFFFFFFFFFFFFFFFFFFFFFFFB0
:10FEE000FFFFFFFFFFFF0025302E326620544F2C0E
:10FEF0002025302E316620564261742C2025302E6C
:10FF0000336620446563696D6173416A7573746516
:10FF10002C2025302E3266204F66667365740D0ADC
:10FF20000D0A0025302E336620414443204F5249AC
:10FF3000472C2025302E32662054432C2025302E8D
:10FF400032662043616E642C2025302E33662041BA
:10FF5000646320416A7573746520540D0A002A2A6F
:10FF60002A2A2A20524554524F5245464C45435462
:10FF70004F4D4554524F20564552544943414C2011
:10FF80002A2A2A2A2A0D0A002A2A2A2A2A204E4503
:10FF9000572053414D504C45202A2A2A2A2A0D0A1F
:10FFA000004F46465345543D2025302E32660D0AFB
:10FFB0000D0A00404C454552562C2564402F6E2FAB
:10FFC00072004C4545525600494E46004E414E0087
:10FFD000696E66006E616E00424C4100414D410009
:10FFE000524F4A004E41520056455200415A550068
:10FFF0006C66002566002C0031003C00400000FFCC
:020000040001F9
:10000000000E3F6E000E406E000E416E000E426EFE
:10001000170E3E18D8A40FEF80F011EF80F0C8EF54
:1000200081F03DBE16EF80F018EF80F05FEF80F0BA
:100030003AC02AF03BC02BF03CC02CF03DC02DF064
:10004000AE0E2E6E470E2F6E210E306E3F0E316EAD
:10005000DBECBBF0D8B02FEF80F031EF80F05FEF3A
:1000600080F0C30E156E550E166EC20E176E430E3F
:10007000186E3AC011F03BC012F03CC013F03DC006
:1000800014F075ECA7F011C02AF012C02BF013C0C9
:100090002CF014C02DF0A40E2E6E700E2F6E1B0EC1
:1000A000306EC20E316EE7ECA2F02AC03FF02BC0DA
:1000B00040F02CC041F02DC042F0CDEF88F03AC0A6
:1000C0002AF03BC02BF03CC02CF03DC02DF0AE0E12
:1000D0002E6E470E2F6E210E306E3F0E316EDBEC12
:1000E000BBF0D8A076EF80F078EF80F0BFEF80F023
:1000F0003AC02AF03BC02BF03CC02CF03DC02DF0A4
:100100001F0E2E6E850E2F6E6B0E306E3F0E316EF3
:10011000DBECBBF0D8B08FEF80F091EF80F0BFEF59
:1001200080F0520E156E080E166E350E176E440EC8
:10013000186E3AC011F03BC012F03CC013F03DC045
:1001400014F075ECA7F011C02AF012C02BF013C008
:100150002CF014C02DF0330E2E6E330E2F6E7A0E4F
:10016000306EC30E316EE7ECA2F02AC03FF02BC018
:1001700040F02CC041F02DC042F0CDEF88F03AC0E5
:100180002AF03BC02BF03CC02CF03DC02DF01F0EE0
:100190002E6E850E2F6E6B0E306E3F0E316EDBECC9
:1001A000BBF0D8A0D6EF80F0D8EF80F01FEF81F041
:1001B0003AC02AF03BC02BF03CC02CF03DC02DF0E3
:1001C000710E2E6E3D0E2F6E8A0E306E3F0E316E0A
:1001D000DBECBBF0D8B0EFEF80F0F1EF80F01FEF79
:1001E00081F05C0E156EDF0E166E120E176E440E49
:1001F000186E3AC011F03BC012F03CC013F03DC085
:1002000014F075ECA7F011C02AF012C02BF013C047
:100210002CF014C02DF0000E2E6E000E2F6EF90E75
:10022000306EC20E316EE7ECA2F02AC03FF02BC058
:1002300040F02CC041F02DC042F0CDEF88F03AC024
:100240002AF03BC02BF03CC02CF03DC02DF0710ECD
:100250002E6E3D0E2F6E8A0E306E3F0E316EDBEC31
:10026000BBF0D8A036EF81F038EF81F07FEF81F05E
:100270003AC02AF03BC02BF03CC02CF03DC02DF022
:10028000AE0E2E6E470E2F6E010E306E400E316E8A
:10029000DBECBBF0D8B04FEF81F051EF81F07FEF96
:1002A00081F0EC0E156E910E166EB80E176E430EA1
:1002B000186E3AC011F03BC012F03CC013F03DC0C4
:1002C00014F075ECA7F011C02AF012C02BF013C087
:1002D0002CF014C02DF0540E2E6EA30E2F6EDE0ED9
:1002E000306E420E316EE7ECA2F02AC03FF02BC018
:1002F00040F02CC041F02DC042F0CDEF88F03AC064
:100300002AF03BC02BF03CC02CF03DC02DF0AE0ECF
:100310002E6E470E2F6E010E306E400E316EDBECEE
:10032000BBF0D8A096EF81F098EF81F0C6EF81F096
:10033000330E156E330E166E3E0E176E420E186E8D
:100340003AC011F03BC012F03CC013F03DC014F0B5
:1003500075ECA7F011C02AF012C02BF013C02CF0DE
:1003600014C02DF09A0E2E6E390E2F6E3E0E306E8A
:10037000440E316EE7ECA2F02AC03FF02BC040F0F3
:100380002CC041F02DC042F0CDEF88F0CDEF88F0C9
:10039000060E3E18D8A4CFEF81F0D1EF81F086EFA2
:1003A00083F03DBED6EF81F0D8EF81F01FEF82F0F1
:1003B0003AC02AF03BC02BF03CC02CF03DC02DF0E1
:1003C0008F0E2E6EC20E2F6E350E306E3F0E316EBA
:1003D000DBECBBF0D8B0EFEF81F0F1EF81F01FEF75
:1003E00082F0480E156E210E166EDE0E176E430E4D
:1003F000186E3AC011F03BC012F03CC013F03DC083
:1004000014F075ECA7F011C02AF012C02BF013C045
:100410002CF014C02DF0140E2E6EAE0E2F6E310E79
:10042000306EC20E316EE7ECA2F02AC03FF02BC056
:1004300040F02CC041F02DC042F0CDEF88F03AC022
:100440002AF03BC02BF03CC02CF03DC02DF08F0EAD
:100450002E6EC20E2F6E350E306E3F0E316EDBECFF
:10046000BBF0D8A036EF82F038EF82F07FEF82F059
:100470003AC02AF03BC02BF03CC02CF03DC02DF020
:10048000D70E2E6EA30E2F6E700E306E3F0E316E95
:10049000DBECBBF0D8B04FEF82F051EF82F07FEF92
:1004A00082F0710E156E050E166E900E176E440ECC
:1004B000186E3AC011F03BC012F03CC013F03DC0C2
:1004C00014F075ECA7F011C02AF012C02BF013C085
:1004D0002CF014C02DF08F0E2E6EC20E2F6E080E53
:1004E000306EC40E316EE7ECA2F02AC03FF02BC094
:1004F00040F02CC041F02DC042F0CDEF88F03AC062
:100500002AF03BC02BF03CC02CF03DC02DF0D70EA4
:100510002E6EA30E2F6E700E306E3F0E316EDBEC22
:10052000BBF0D8A096EF82F098EF82F0DFEF82F078
:100530003AC02AF03BC02BF03CC02CF03DC02DF05F
:100540003D0E2E6E0A0E2F6EB70E306E3F0E316EC0
:10055000DBECBBF0D8B0AFEF82F0B1EF82F0DFEFB1
:1005600082F0520E156EF80E166E140E176E430EB4
:10057000186E3AC011F03BC012F03CC013F03DC001
:1005800014F075ECA7F011C02AF012C02BF013C0C4
:100590002CF014C02DF09A0E2E6EF90E2F6EC50E93
:1005A000306E430E316EE7ECA2F02AC03FF02BC054
:1005B00040F02CC041F02DC042F0CDEF88F03AC0A1
:1005C0002AF03BC02BF03CC02CF03DC02DF03D0E7E
:1005D0002E6E0A0E2F6EB70E306E3F0E316EDBECB4
:1005E000BBF0D8A0F6EF82F0F8EF82F03FEF83F097
:1005F0003AC02AF03BC02BF03CC02CF03DC02DF09F
:10060000AE0E2E6E470E2F6E010E306E400E316E06
:10061000DBECBBF0D8B00FEF83F011EF83F03FEFCE
:1006200083F07B0E156E540E166E5C0E176E430E25
:10063000186E3AC011F03BC012F03CC013F03DC040
:1006400014F075ECA7F011C02AF012C02BF013C003
:100650002CF014C02DF07B0E2E6EF40E2F6E920E29
:10066000306E430E316EE7ECA2F02AC03FF02BC093
:1006700040F02CC041F02DC042F0CDEF88F03AC0E0
:100680002AF03BC02BF03CC02CF03DC02DF0AE0E4C
:100690002E6E470E2F6E010E306E400E316EDBEC6B
:1006A000BBF0D8A056EF83F058EF83F0C6EF81F08F
:1006B000660E156E660E166E9C0E176E420E186E46
:1006C0003AC011F03BC012F03CC013F03DC014F032
:1006D00075ECA7F011C02AF012C02BF013C02CF05B
:1006E00014C02DF0480E2E6E410E2F6E110E306E7E
:1006F000440E316EE7ECA2F02AC03FF02BC040F070
:100700002CC041F02DC042F0CDEF88F0080E3E180D
:10071000D8A48DEF83F08FEF83F0E4EF84F03DBE3B
:1007200094EF83F096EF83F0DDEF83F03AC02AF088
:100730003BC02BF03CC02CF03DC02DF0000E2E6EC7
:10074000000E2F6E400E306E3F0E316EDBECBBF0B4
:10075000D8B0ADEF83F0AFEF83F0DDEF83F0000EA4
:10076000156E000E166E340E176E430E186E3AC0DC
:1007700011F03BC012F03CC013F03DC014F075EC1A
:10078000A7F011C02AF012C02BF013C02CF014C037
:100790002DF0000E2E6E000E2F6E900E306EC10EDC
:1007A000316EE7ECA2F02AC03FF02BC040F02CC025
:1007B00041F02DC042F0CDEF88F03AC02AF03BC0A6
:1007C0002BF03CC02CF03DC02DF0000E2E6E000E24
:1007D0002F6E400E306E3F0E316EDBECBBF0D8A0BA
:1007E000F4EF83F0F6EF83F03DEF84F03AC02AF0A7
:1007F0003BC02BF03CC02CF03DC02DF0290E2E6EDE
:100800005C0E2F6E4F0E306E3F0E316EDBECBBF088
:10081000D8B00DEF84F00FEF84F03DEF84F08F0E31
:10082000156E2A0E166E810E176E440E186E3AC0A3
:1008300011F03BC012F03CC013F03DC014F075EC59
:10084000A7F011C02AF012C02BF013C02CF014C076
:100850002DF05C0E2E6E7F0E2F6E240E306EC40EA9
:10086000316EE7ECA2F02AC03FF02BC040F02CC064
:1008700041F02DC042F0CDEF88F03AC02AF03BC0E5
:100880002BF03CC02CF03DC02DF0290E2E6E5C0EDE
:100890002F6E4F0E306E3F0E316EDBECBBF0D8A0EA
:1008A00054EF84F056EF84F09DEF84F03AC02AF0C4
:1008B0003BC02BF03CC02CF03DC02DF0290E2E6E1D
:1008C0005C0E2F6EAF0E306E3F0E316EDBECBBF068
:1008D000D8B06DEF84F06FEF84F09DEF84F0330EAD
:1008E000156EB30E166ED20E176E420E186E3AC00B
:1008F00011F03BC012F03CC013F03DC014F075EC99
:10090000A7F011C02AF012C02BF013C02CF014C0B5
:100910002DF0EC0E2E6E510E2F6EBB0E306E420E71
:10092000316EE7ECA2F02AC03FF02BC040F02CC0A3
:1009300041F02DC042F0CDEF88F03AC02AF03BC024
:100940002BF03CC02CF03DC02DF0290E2E6E5C0E1D
:100950002F6EAF0E306E3F0E316EDBECBBF0D8A0C9
:10096000B4EF84F0B6EF84F0C6EF81F0EC0E156EB4
:10097000510E166E690E176E420E186E3AC011F0C7
:100980003BC012F03CC013F03DC014F075ECA7F072
:1009900011C02AF012C02BF013C02CF014C02DF09F
:1009A0007B0E2E6E140E2F6E1E0E306E430E316EA9
:1009B000E7ECA2F02AC03FF02BC040F02CC041F081
:1009C0002DC042F0CDEF88F0050E3E18D8A4EBEF15
:1009D00084F0EDEF84F082EF85F03DBEF2EF84F01D
:1009E000F4EF84F03BEF85F03AC02AF03BC02BF0E7
:1009F0003CC02CF03DC02DF0BC0E2E6E740E2F6E40
:100A0000930E306E3E0E316EDBECBBF0D8B00BEFC8
:100A100085F00DEF85F03BEF85F0850E156EEB0E42
:100A2000166E100E176E420E186E3AC011F03BC0D3
:100A300012F03CC013F03DC014F075ECA7F011C0EB
:100A40002AF012C02BF013C02CF014C02DF08F0E22
:100A50002E6EC20E2F6EAD0E306EC00E316EE7ECF4
:100A6000A2F02AC03FF02BC040F02CC041F02DC0B6
:100A700042F0CDEF88F03AC02AF03BC02BF03CC0EA
:100A80002CF03DC02DF0BC0E2E6E740E2F6E930E0A
:100A9000306E3E0E316EDBECBBF0D8A052EF85F02D
:100AA00054EF85F0CDEF88F0CD0E156ECC0E166E9E
:100AB000C50E176E420E186E3AC011F03BC012F010
:100AC0003CC013F03DC014F075ECA7F011C02AF043
:100AD00012C02BF013C02CF014C02DF00A0E2E6E95
:100AE000D70E2F6EBB0E306EC10E316EE7ECA2F04A
:100AF0002AC03FF02BC040F02CC041F02DC042F086
:100B0000CDEF88F0090E3E18D8A489EF85F08BEF61
:100B100085F080EF86F03DBE90EF85F092EF85F096
:100B2000D9EF85F03AC02AF03BC02BF03CC02CF046
:100B30003DC02DF05E0E2E6EBA0E2F6E490E306E39
:100B40003E0E316EDBECBBF0D8B0A9EF85F0ABEF19
:100B500085F0D9EF85F09A0E156ED90E166E340E0B
:100B6000176E440E186E3AC011F03BC012F03CC034
:100B700013F03DC014F075ECA7F011C02AF012C0BC
:100B80002BF013C02CF014C02DF0000E2E6E000EB2
:100B90002F6ED90E306EC20E316EE7ECA2F02AC075
:100BA0003FF02BC040F02CC041F02DC042F0CDEF03
:100BB00088F03AC02AF03BC02BF03CC02CF03DC07E
:100BC0002DF05E0E2E6EBA0E2F6E490E306E3E0E5A
:100BD000316EDBECBBF0D8A0F0EF85F0F2EF85F0E2
:100BE00039EF86F03AC02AF03BC02BF03CC02CF025
:100BF0003DC02DF0D70E2E6EA30E2F6E800E306EE0
:100C00003F0E316EDBECBBF0D8B009EF86F00BEF96
:100C100086F039EF86F0660E156E660E166EFC0EC7
:100C2000176E410E186E3AC011F03BC012F03CC076
:100C300013F03DC014F075ECA7F011C02AF012C0FB
:100C40002BF013C02CF014C02DF0710E2E6E3D0E43
:100C50002F6EDE0E306E410E316EE7ECA2F02AC030
:100C60003FF02BC040F02CC041F02DC042F0CDEF42
:100C700088F03AC02AF03BC02BF03CC02CF03DC0BD
:100C80002DF0D70E2E6EA30E2F6E800E306E3F0EFF
:100C9000316EDBECBBF0D8A050EF86F052EF86F05F
:100CA000C6EF81F08F0E156E420E166E820E176E15
:100CB000420E186E3AC011F03BC012F03CC013F067
:100CC0003DC014F075ECA7F011C02AF012C02BF053
:100CD00013C02CF014C02DF0520E2E6EB80E2F6ED5
:100CE000BE0E306EC00E316EE7ECA2F02AC03FF0AF
:100CF0002BC040F02CC041F02DC042F0CDEF88F069
:100D0000070E3E18D8A487EF86F089EF86F01EEF15
:100D100087F03DBE8EEF86F090EF86F0D7EF86F03D
:100D20003AC02AF03BC02BF03CC02CF03DC02DF067
:100D3000140E2E6EAE0E2F6EA70E306E3F0E316E5D
:100D4000DBECBBF0D8B0A7EF86F0A9EF86F0D7EFC9
:100D500086F0C30E156EB50E166E6A0E176E430E34
:100D6000186E3AC011F03BC012F03CC013F03DC009
:100D700014F075ECA7F011C02AF012C02BF013C0CC
:100D80002CF014C02DF08F0E2E6EC20E2F6EBB0EE7
:100D9000306EC10E316EE7ECA2F02AC03FF02BC0DE
:100DA00040F02CC041F02DC042F0CDEF88F03AC0A9
:100DB0002AF03BC02BF03CC02CF03DC02DF0140EAF
:100DC0002E6EAE0E2F6EA70E306E3F0E316EDBEC28
:100DD000BBF0D8A0EEEF86F0F0EF86F0CDEF88F014
:100DE0001F0E156E050E166EE30E176E420E186E70
:100DF0003AC011F03BC012F03CC013F03DC014F0FB
:100E000075ECA7F011C02AF012C02BF013C02CF023
:100E100014C02DF03D0E2E6E4A0E2F6E070E306E52
:100E2000430E316EE7ECA2F02AC03FF02BC040F039
:100E30002CC041F02DC042F0CDEF88F00A0E3E18D4
:100E4000D8A425EF87F027EF87F0BCEF87F03DBEF1
:100E50002CEF87F02EEF87F075EF87F03AC02AF07D
:100E60003BC02BF03CC02CF03DC02DF0E10E2E6EAF
:100E70007A0E2F6E140E306E3F0E316EDBECBBF02F
:100E8000D8B045EF87F047EF87F075EF87F07B0E1E
:100E9000156E940E166E6F0E176E430E186E3AC0D6
:100EA00011F03BC012F03CC013F03DC014F075ECE3
:100EB000A7F011C02AF012C02BF013C02CF014C000
:100EC0002DF09A0E2E6E990E2F6EBF0E306EC10E43
:100ED000316EE7ECA2F02AC03FF02BC040F02CC0EE
:100EE00041F02DC042F0CDEF88F03AC02AF03BC06F
:100EF0002BF03CC02CF03DC02DF0E10E2E6E7A0E92
:100F00002F6E140E306E3F0E316EDBECBBF0D8A0AE
:100F10008CEF87F08EEF87F0CDEF88F0EC0E156E3A
:100F2000510E166EAD0E176E420E186E3AC011F0CD
:100F30003BC012F03CC013F03DC014F075ECA7F0BC
:100F400011C02AF012C02BF013C02CF014C02DF0E9
:100F5000C30E2E6E750E2F6E810E306E420E316EE8
:100F6000E7ECA2F02AC03FF02BC040F02CC041F0CB
:100F70002DC042F0CDEF88F00C0E3E18D8A4C3EF80
:100F800087F0C5EF87F0F3EF87F0000E156EC00E07
:100F9000166E800E176E430E186E3AC011F03BC0ED
:100FA00012F03CC013F03DC014F075ECA7F011C076
:100FB0002AF012C02BF013C02CF014C02DF0000E3C
:100FC0002E6E000E2F6ECE0E306EC10E316EE7EC1F
:100FD000A2F02AC03FF02BC040F02CC041F02DC041
:100FE00042F0CDEF88F00E0E3E18D8A4FAEF87F04D
:100FF000FCEF87F02AEF88F0000E156E000E166EDB
:101000008E0E176E410E186E3AC011F03BC012F0F2
:101010003CC013F03DC014F075ECA7F011C02AF0ED
:1010200012C02BF013C02CF014C02DF0710E2E6ED8
:101030003D0E2F6E2A0E306EC00E316EE7ECA2F020
:101040002AC03FF02BC040F02CC041F02DC042F030
:10105000CDEF88F00B0E3E18D8A431EF88F033EFB7
:1010600088F061EF88F0660E156EE60E166E470E7C
:10107000176E430E186E3AC011F03BC012F03CC020
:1010800013F03DC014F075ECA7F011C02AF012C0A7
:101090002BF013C02CF014C02DF0000E2E6E000E9D
:1010A0002F6EF00E306EC10E316EE7ECA2F02AC04A
:1010B0003FF02BC040F02CC041F02DC042F0CDEFEE
:1010C00088F00F0E3E18D8A468EF88F06AEF88F019
:1010D00098EF88F0B80E156EFE0E166EC70E176EDE
:1010E000430E186E3AC011F03BC012F03CC013F032
:1010F0003DC014F075ECA7F011C02AF012C02BF01F
:1011000013C02CF014C02DF0000E2E6E000E2F6EAA
:10111000700E306EC20E316EE7ECA2F02AC03FF0C6
:101120002BC040F02CC041F02DC042F0CDEF88F034
:101130000D0E3E18D8A49FEF88F0A1EF88F0C6EFFF
:1011400081F0AE0E156E470E166E400E176E420EF3
:10115000186E3AC011F03BC012F03CC013F03DC015
:1011600014F075ECA7F011C02AF012C02BF013C0D8
:101170002CF014C02DF0520E2E6EB80E2F6EE60E0F
:10118000306EC00E316EE7ECA2F02AC03FF02BC0EB
:1011900040F02CC041F02DC042F042BED4EF88F0A8
:1011A000D2EF88F0DCEF88F0000E3F6E000E406E4C
:1011B000000E416E000E426E3FC03AF040C03BF060
:1011C00041C03CF042C03DF01200600007F0D9FF82
:1011D00060000BF0DAFFA50EDE18D8A4F2EF88F05D
:1011E000F4EF88F070EF89F020EE01F00150D9267D
:1011F0000250DA225A0EDE18D8A401EF89F003EF6C
:1012000089F070EF89F020EE02F00150D9260250EB
:10121000DA22060EDE18D8A410EF89F012EF89F05A
:1012200070EF89F020EE03F00150D9260250DA2247
:10123000830EDE18D8A41FEF89F021EF89F070EF3C
:1012400089F020EE04F00150D9260250DA22100E67
:10125000DE18D8A42EEF89F030EF89F070EF89F016
:1012600020EE05F00150D9260250DA22020EDE18D7
:10127000D8A43DEF89F03FEF89F070EF89F020EEC0
:1012800006F00150D9260250DA22DE04D8A44BEF32
:1012900089F04DEF89F070EF89F020EE07F00150F2
:1012A000D9260250DA22100EDE18D8A45AEF89F09F
:1012B0005CEF89F070EF89F020EE08F00150D9263C
:1012C0000250DA22020EDE18D8A469EF89F06BEF23
:1012D00089F070EF89F004010087170E68EF8FF036
:1012E000600007F0D9FF60000BF0DAFFA50EDE18F2
:1012F000D8A47DEF89F07FEF89F0F9EF89F020EE37
:1013000001F00150D9260250DA225A0EDE18D8A474
:101310008CEF89F08EEF89F0F9EF89F020EE02F082
:101320000150D9260250DA22060EDE18D8A49BEF0F
:1013300089F09DEF89F0F9EF89F020EE03F001507C
:10134000D9260250DA22830EDE18D8A4AAEF89F03B
:10135000ACEF89F0F9EF89F020EE04F00150D926C6
:101360000250DA22100EDE18D8A4B9EF89F0BBEFD4
:1013700089F0F9EF89F020EE05F00150D9260250EE
:10138000DA22DE04D8A4C7EF89F0C9EF89F0F9EFBB
:1013900089F020EE06F00150D9260250DA22DE0450
:1013A000D8A4D5EF89F0D7EF89F0F9EF89F020EED6
:1013B00007F00150D9260250DA22100EDE18D8A408
:1013C000E4EF89F0E6EF89F0F9EF89F020EE08F01C
:1013D0000150D9260250DA22DE04D8A4F2EF89F0B7
:1013E000F4EF89F0F9EF89F004010087060E68EF49
:1013F0008FF0600007F0D9FF60000BF0DAFFA50E58
:10140000DE18D8A406EF8AF008EF8AF084EF8AF09D
:1014100020EE01F00150D9260250DA225A0EDE18D1
:10142000D8A415EF8AF017EF8AF084EF8AF020EE47
:1014300002F00150D9260250DA22060EDE18D8A496
:1014400024EF8AF026EF8AF084EF8AF020EE03F092
:101450000150D9260250DA22830EDE18D8A433EFC9
:101460008AF035EF8AF084EF8AF020EE04F0015024
:10147000D9260250DA22100EDE18D8A442EF8AF0E4
:1014800044EF8AF084EF8AF020EE05F00150D9266F
:101490000250DA22040EDE18D8A451EF8AF053EF7E
:1014A0008AF084EF8AF020EE06F00150D92602502F
:1014B000DA22DE04D8A45FEF8AF061EF8AF084EFCD
:1014C0008AF020EE07F00150D9260250DA22100EE1
:1014D000DE18D8A46EEF8AF070EF8AF084EF8AF0FD
:1014E00020EE08F00150D9260250DA22040EDE1850
:1014F000D8A47DEF8AF07FEF8AF084EF8AF00401B0
:101500000087080E68EF8FF0600007F0D9FF6000D9
:101510000BF0DAFFA50EDE18D8A491EF8AF093EF56
:101520008AF00FEF8BF020EE01F00150D926025027
:10153000DA225A0EDE18D8A4A0EF8AF0A2EF8AF0C1
:101540000FEF8BF020EE02F00150D9260250DA2284
:10155000060EDE18D8A4AFEF8AF0B1EF8AF00FEFD5
:101560008BF020EE03F00150D9260250DA22830ED0
:10157000DE18D8A4BEEF8AF0C0EF8AF00FEF8BF030
:1015800020EE04F00150D9260250DA22100EDE18A7
:10159000D8A4CDEF8AF0CFEF8AF00FEF8BF020EEDA
:1015A00005F00150D9260250DA22050EDE18D8A423
:1015B000DCEF8AF0DEEF8AF00FEF8BF020EE06F022
:1015C0000150D9260250DA22DE04D8A4EAEF8AF0CC
:1015D000ECEF8AF00FEF8BF020EE07F00150D926E8
:1015E0000250DA22100EDE18D8A4F9EF8AF0FBEFD1
:1015F0008AF00FEF8BF020EE08F00150D926025050
:10160000DA22050EDE18D8A408EF8BF00AEF8BF073
:101610000FEF8BF004010097050E68EF8FF060006C
:1016200007F0D9FF60000BF0DAFFA50EDE18D8A492
:101630001CEF8BF01EEF8BF09AEF8BF020EE01F099
:101640000150D9260250DA225A0EDE18D8A42BEF08
:101650008BF02DEF8BF09AEF8BF020EE02F0015023
:10166000D9260250DA22060EDE18D8A43AEF8BF003
:101670003CEF8BF09AEF8BF020EE03F00150D9266F
:101680000250DA22830EDE18D8A449EF8BF04BEF1C
:101690008BF09AEF8BF020EE04F00150D926025027
:1016A000DA22100EDE18D8A458EF8BF05AEF8BF028
:1016B0009AEF8BF020EE05F00150D9260250DA2285
:1016C000030EDE18D8A467EF8BF069EF8BF09AEF6A
:1016D0008BF020EE06F00150D9260250DA22DE040B
:1016E000D8A475EF8BF077EF8BF09AEF8BF020EEAC
:1016F00007F00150D9260250DA22100EDE18D8A4C5
:1017000084EF8BF086EF8BF09AEF8BF020EE08F0F1
:101710000150D9260250DA22030EDE18D8A493EF26
:101720008BF095EF8BF09AEF8BF004010097090E88
:1017300068EF8FF0600007F0D9FF60000BF0DAFF70
:10174000A50EDE18D8A4A7EF8BF0A9EF8BF025EF3C
:101750008CF020EE01F00150D9260250DA225A0E08
:10176000DE18D8A4B6EF8BF0B8EF8BF025EF8CF035
:1017700020EE02F00150D9260250DA22060EDE18C1
:10178000D8A4C5EF8BF0C7EF8BF025EF8CF020EEDF
:1017900003F00150D9260250DA22830EDE18D8A4B5
:1017A000D4EF8BF0D6EF8BF025EF8CF020EE04F029
:1017B0000150D9260250DA22100EDE18D8A4E3EF29
:1017C0008BF0E5EF8BF025EF8CF020EE05F001506B
:1017D000D9260250DA22060EDE18D8A4F2EF8BF0DA
:1017E000F4EF8BF025EF8CF020EE06F00150D926B7
:1017F0000250DA22DE04D8A400EF8CF002EF8CF065
:1018000025EF8CF020EE07F00150D9260250DA22A5
:10181000100EDE18D8A40FEF8CF011EF8CF025EF2E
:101820008CF020EE08F00150D9260250DA22060E84
:10183000DE18D8A41EEF8CF020EF8CF025EF8CF092
:1018400004010087070E68EF8FF0600007F0D9FFF2
:1018500060000BF0DAFFA50EDE18D8A432EF8CF092
:1018600034EF8CF0B0EF8CF020EE01F00150D9266F
:101870000250DA225A0EDE18D8A441EF8CF043EF62
:101880008CF0B0EF8CF020EE02F00150D92602501F
:10189000DA22060EDE18D8A450EF8CF052EF8CF04E
:1018A000B0EF8CF020EE03F00150D9260250DA227E
:1018B000830EDE18D8A45FEF8CF061EF8CF0B0EFF0
:1018C0008CF020EE04F00150D9260250DA22100EDE
:1018D000DE18D8A46EEF8CF070EF8CF0B0EF8CF0C7
:1018E00020EE05F00150D9260250DA22080EDE184B
:1018F000D8A47DEF8CF07FEF8CF0B0EF8CF020EE71
:1019000006F00150D9260250DA22DE04D8A48BEF6B
:101910008CF08DEF8CF0B0EF8CF020EE07F00150E2
:10192000D9260250DA22100EDE18D8A49AEF8CF0D5
:101930009CEF8CF0B0EF8CF020EE08F00150D9262F
:101940000250DA22080EDE18D8A4A9EF8CF0ABEF13
:101950008CF0B0EF8CF0040100870A0E68EF8FF076
:10196000600007F0D9FF60000BF0DAFFA50EDE186B
:10197000D8A4BDEF8CF0BFEF8CF03BEF8DF020EEE4
:1019800001F00150D9260250DA225A0EDE18D8A4EE
:10199000CCEF8CF0CEEF8CF03BEF8DF020EE02F030
:1019A0000150D9260250DA22060EDE18D8A4DBEF49
:1019B0008CF0DDEF8CF03BEF8DF020EE03F001506A
:1019C000D9260250DA22830EDE18D8A4EAEF8CF072
:1019D000ECEF8CF03BEF8DF020EE04F00150D926B7
:1019E0000250DA22100EDE18D8A4F9EF8CF0FBEFCB
:1019F0008CF03BEF8DF020EE05F00150D92602501F
:101A0000DA22070EDE18D8A408EF8DF00AEF8DF069
:101A10003BEF8DF020EE06F00150D9260250DA227D
:101A2000DE04D8A416EF8DF018EF8DF03BEF8DF0AB
:101A300020EE07F00150D9260250DA22100EDE18EF
:101A4000D8A425EF8DF027EF8DF03BEF8DF020EE41
:101A500008F00150D9260250DA22070EDE18D8A469
:101A600034EF8DF036EF8DF03BEF8DF00401008701
:101A70000C0E68EF8FF0600007F0D9FF60000BF0EC
:101A8000DAFFA50EDE18D8A448EF8DF04AEF8DF0EE
:101A9000C6EF8DF020EE01F00150D9260250DA2277
:101AA0005A0EDE18D8A457EF8DF059EF8DF0C6EF1F
:101AB0008DF020EE02F00150D9260250DA22060EF7
:101AC000DE18D8A466EF8DF068EF8DF0C6EF8DF0CC
:101AD00020EE03F00150D9260250DA22830EDE18E0
:101AE000D8A475EF8DF077EF8DF0C6EF8DF020EE76
:101AF00004F00150D9260250DA22100EDE18D8A4C4
:101B000084EF8DF086EF8DF0C6EF8DF020EE05F0BE
:101B10000150D9260250DA220B0EDE18D8A493EF1A
:101B20008DF095EF8DF0C6EF8DF020EE06F00150B0
:101B3000D9260250DA22DE04D8A4A1EF8DF0A3EF5B
:101B40008DF0C6EF8DF020EE07F00150D92602503F
:101B5000DA22100EDE18D8A4B0EF8DF0B2EF8DF0BF
:101B6000C6EF8DF020EE08F00150D9260250DA229F
:101B70000B0EDE18D8A4BFEF8DF0C1EF8DF0C6EFCD
:101B80008DF0040100970E0E68EF8FF0600007F0F3
:101B9000D9FF60000BF0DAFFA50EDE18D8A4D3EF52
:101BA0008DF0D5EF8DF051EF8EF020EE01F0015069
:101BB000D9260250DA225A0EDE18D8A4E2EF8DF0B0
:101BC000E4EF8DF051EF8EF020EE02F00150D926B7
:101BD0000250DA22060EDE18D8A4F1EF8DF0F3EFF2
:101BE0008DF051EF8EF020EE03F00150D926025017
:101BF000DA22830EDE18D8A400EF8EF002EF8EF00A
:101C000051EF8EF020EE04F00150D9260250DA2276
:101C1000100EDE18D8A40FEF8EF011EF8EF051EFFA
:101C20008EF020EE05F00150D9260250DA220C0E7B
:101C3000DE18D8A41EEF8EF020EF8EF051EF8EF05C
:101C400020EE06F00150D9260250DA22DE04D8A494
:101C50002CEF8EF02EEF8EF051EF8EF020EE07F08D
:101C60000150D9260250DA22100EDE18D8A43BEF1C
:101C70008EF03DEF8EF051EF8EF020EE08F0015027
:101C8000D9260250DA220C0EDE18D8A44AEF8EF0C4
:101C90004CEF8EF051EF8EF0040100970B0E68EFC1
:101CA0008FF0600007F0D9FF60000BF0DAFFA50E9F
:101CB000DE18D8A45EEF8EF060EF8EF0DCEF8EF0D1
:101CC00020EE01F00150D9260250DA225A0EDE1819
:101CD000D8A46DEF8EF06FEF8EF0DCEF8EF020EE7B
:101CE00002F00150D9260250DA22060EDE18D8A4DE
:101CF0007CEF8EF07EEF8EF0DCEF8EF020EE03F0C6
:101D00000150D9260250DA22830EDE18D8A48BEFB8
:101D10008EF08DEF8EF0DCEF8EF020EE04F00150AF
:101D2000D9260250DA22100EDE18D8A49AEF8EF0CF
:101D30009CEF8EF0DCEF8EF020EE05F00150D926FE
:101D40000250DA220A0EDE18D8A4A9EF8EF0ABEF0B
:101D50008EF0DCEF8EF020EE06F00150D926025016
:101D6000DA22DE04D8A4B7EF8EF0B9EF8EF0DCEF04
:101D70008EF020EE07F00150D9260250DA22100E24
:101D8000DE18D8A4C6EF8EF0C8EF8EF0DCEF8EF030
:101D900020EE08F00150D9260250DA220A0EDE1891
:101DA000D8A4D5EF8EF0D7EF8EF0DCEF8EF00401E3
:101DB00000970F0E68EF8FF0600007F0D9FF60000A
:101DC0000BF0DAFFA50EDE18D8A4E9EF8EF0EBEFEA
:101DD0008EF067EF8FF020EE01F00150D92602500F
:101DE000DA225A0EDE18D8A4F8EF8EF0FAEF8EF051
:101DF00067EF8FF020EE02F00150D9260250DA2270
:101E0000060EDE18D8A407EF8FF009EF8FF067EF0A
:101E10008FF020EE03F00150D9260250DA22830E13
:101E2000DE18D8A416EF8FF018EF8FF067EF8FF061
:101E300020EE04F00150D9260250DA22100EDE18EE
:101E4000D8A425EF8FF027EF8FF067EF8FF020EE0B
:101E500005F00150D9260250DA220D0EDE18D8A462
:101E600034EF8FF036EF8FF067EF8FF020EE06F053
:101E70000150D9260250DA22DE04D8A442EF8FF0B6
:101E800044EF8FF067EF8FF020EE07F00150D92676
:101E90000250DA22100EDE18D8A451EF8FF053EF63
:101EA0008FF067EF8FF020EE08F00150D926025036
:101EB000DA220D0EDE18D8A460EF8FF062EF8FF0FB
:101EC00067EF8FF0040100970D0E68EF8FF0000EA2
:101ED0001200000E0001806F000E7F6F59C091F05C
:101EE0005AC092F05BC093F05CC094F094BF7DEF59
:101EF0008FF07BEF8FF093EF8FF0000E806F010E6D
:101F00007F6F91C001F092C002F093C003F094C0C3
:101F100004F054ECC6F001C091F002C092F003C08E
:101F200093F004C094F0000E0001986F000E976FBC
:101F30006EC183F06FC184F07F518011D8A4A3EFEC
:101F40008FF0A5EF8FF0ACEF8FF0EAA5AAEF8FF03E
:101F5000ACEF8FF0C6EF8FF07F518011D8A4B3EFB4
:101F60008FF0B5EF8FF0BBEF8FF0000E666F2B0E8A
:101F7000656FBFEF8FF0000E666F2D0E656F65C049
:101F8000A7F2974B982B8307D8A0840791C001F044
:101F900092C002F093C003F094C004F05DECBCF07A
:101FA00001040210D8A4D7EF8FF0D9EF8FF030EFF3
:101FB00090F0BF0E0001606FFF0E616F5D50626FA9
:101FC000636B605162276151632363510AE11A0E0A
:101FD000625DD8A0EEEF8FF0F1EF8FF0010EF2EF1F
:101FE0008FF0000E676F686B67516811D8B4FBEF14
:101FF0008FF0FDEF8FF00BEF90F0A70E9725016E9D
:10200000020E9821026EC80E036EFF0E046EF6ECEF
:10201000C3F017EF90F0A70E9725016E020E9821DE
:10202000026ED00E036EFF0E046EF6ECC3F00001DC
:10203000FD0E8327FF0E842357C011F058C012F005
:10204000A70E136E020E146E83C015F084C016F036
:10205000FDECBEF011C057F012C058F096EF95F0AD
:1020600091C001F092C002F093C003F094C004F05C
:102070005DECBCF001500210D8A441EF90F043EFAA
:1020800090F083EF90F0BF0E0001606FFF0E616F64
:102090005D50626F636B60516227615163236351CE
:1020A0000AE11A0E625DD8A058EF90F05BEF90F055
:1020B000010E5CEF90F0000E696F6A6B69516A1156
:1020C000D8B465EF90F067EF90F075EF90F0A70E41
:1020D0009725016E020E9821026ECC0E036EFF0E44
:1020E000046EF6ECC3F017EF90F0A70E9725016E83
:1020F000020E9821026ED40E036EFF0E046EF6ECF3
:10210000C3F017EF90F0000E0001996F000E9A6F68
:10211000800E9B6F3F0E9C6F000E966F000E956FAA
:1021200091C001F092C002F093C003F094C004F09B
:10213000000E056E000E066E000E076E000E086E95
:1021400022ECC1F0D8B0A7EF90F0A9EF90F02CEFFF
:1021500091F0C8EF90F099C011F09AC012F09BC0B6
:1021600013F09CC014F0000E156E000E166E200EBB
:10217000176E410E186E75ECA7F011C099F012C0E1
:102180009AF013C09BF014C09CF00001954B962B65
:1021900091C02AF092C02BF093C02CF094C02DF087
:1021A000000E156E000E166E200E176E410E186E84
:1021B00099C011F09AC012F09BC013F09CC014F0AB
:1021C00075ECA7F011C02EF012C02FF013C030F044
:1021D00014C031F0DBECBBF0D8B0F1EF90F0F3EFCE
:1021E00090F0ABEF90F013EF91F099C02AF09AC005
:1021F0002BF09BC02CF09CC02DF0000E2E6E000E1C
:102200002F6E200E306E410E316E6DECABF02AC099
:1022100099F02BC09AF02CC09BF02DC09CF00001CF
:102220009507D8A0960791C02AF092C02BF093C0D2
:102230002CF094C02DF099C02EF09AC02FF09BC0C6
:1022400030F09CC031F0DBECBBF0D8A02AEF91F06D
:102250002CEF91F0F5EF90F05DC007F0086A5CECB0
:10226000C4F007500001866F86C085F0670E86199E
:10227000D8A43DEF91F03FEF91F065EF91F0E85178
:10228000E911D8A446EF91F048EF91F04CEF91F0AE
:10229000000EE96F010EE86FE9BF59EF91F0E951C7
:1022A00006E1E805D8B057EF91F059EF91F05FEFF4
:1022B00091F0000E826F060E816F6EEF91F0E8C014
:1022C00081F0E9C082F06EEF91F0E9BF6AEF91F022
:1022D0006CEF91F059EF91F05FEF91F0670E861976
:1022E000D8A475EF91F077EF91F0A6EF91F096AF4B
:1022F00085EF91F0FC0E955DFF0E9659D8A083EF07
:1023000091F085EF91F0A4EF91F0FF0E606FFF0E5A
:10231000616F81C062F082C063F0605162276151D9
:1023200063239551625D6351800A646F9651800A00
:102330006459D8A09EEF91F0A0EF91F0A4EF91F036
:10234000660E856FA6EF91F0650E856F81C077F000
:1023500082C078F0670E8619D8A4B1EF91F0B3EF80
:1023600091F0C3EF91F0660E8519D8A4BAEF91F001
:10237000BCEF91F0C5EF91F096BFC3EF91F0C1EFC4
:1023800091F0C5EF91F0774B782B660E8519D8A4A4
:10239000CCEF91F0CEEF91F0EEEF91F096BFD5EF4C
:1023A00091F0D3EF91F0E1EF91F0000E996F000EF4
:1023B0009A6F800E9B6F3F0E9C6F000E966F000E03
:1023C000956F670E8619D8B4E8EF91F0EAEF91F0B7
:1023D000EEEF91F09551772796517823000E906F8C
:1023E000000E8F6F91C087F092C088F093C089F083
:1023F00094C08AF099C079F09AC07AF09BC07BF0C3
:102400009CC07CF07FEF92F087C02AF088C02BF050
:1024100089C02CF08AC02DF099C02EF09AC02FF000
:102420009BC030F09CC031F06DECABF02AC043F0A3
:102430002BC044F02CC045F02DC046F027ECB2F084
:1024400043C08BF044C08CF045C08DF046C08EF088
:102450008BC03AF08CC03BF08DC03CF08EC03DF09C
:1024600058ECBBF03AC07DF03BC07EF087C03AF03C
:1024700088C03BF089C03CF08AC03DF099C015F09F
:102480009AC016F09BC017F09CC018F08BC011F0DA
:102490008CC012F08DC013F08EC014F075ECA7F054
:1024A00011C03EF012C03FF013C040F014C041F024
:1024B000B4ECC5F03AC087F03BC088F03CC089F06E
:1024C0003DC08AF099C02AF09AC02BF09BC02CF036
:1024D0009CC02DF0000E2E6E000E2F6E200E306E62
:1024E000410E316E6DECABF02AC099F02BC09AF022
:1024F0002CC09BF02DC09CF000018F4B902B77518E
:102500008F5D9051800A606F7851800A6059D8A021
:102510008CEF92F08EEF92F004EF92F099C011F0F0
:102520009AC012F09BC013F09CC014F0000E156E00
:10253000000E166EA00E176E400E186E75ECA7F00A
:1025400011C08BF012C08CF013C08DF014C08EF04F
:1025500087C02AF088C02BF089C02CF08AC02DF0EB
:102560008BC02EF08CC02FF08DC030F08EC031F0BB
:10257000DBECBBF0D8B0BFEF92F0C1EF92F0CCEF44
:1025800092F0000E00018B6F000E8C6F000E8D6FAD
:10259000000E8E6FF5EF92F087C001F088C002F058
:1025A00089C003F08AC004F08BC005F08CC006F02F
:1025B0008DC007F08EC008F022ECC1F0D8A0E3EF88
:1025C00092F0E5EF92F0F5EF92F000017DB1EBEFC4
:1025D00092F0EDEF92F0F5EF92F0000E8B6F000E9F
:1025E0008C6F000E8D6F000E8E6F91C02AF092C01E
:1025F0002BF093C02CF094C02DF08BC02EF08CC02B
:102600002FF08DC030F08EC031F0E7ECA2F02AC080
:1026100087F02BC088F02CC089F02DC08AF087C0CD
:102620002AF088C02BF089C02CF08AC02DF0000E53
:10263000156E000E166E200E176E410E186E79C0C4
:1026400011F07AC012F07BC013F07CC014F075EC6E
:10265000A7F011C02EF012C02FF013C030F014C03C
:1026600031F0DBECBBF0D8A038EF93F03AEF93F009
:1026700063EF93F00001954B962B79C011F07AC06F
:1026800012F07BC013F07CC014F0000E156E000E2B
:10269000166E200E176E410E186E75ECA7F011C065
:1026A00079F012C07AF013C07BF014C07CF0660E93
:1026B00000018519D8A45FEF93F061EF93F063EF09
:1026C00093F0774B782B79C099F07AC09AF07BC061
:1026D0009BF07CC09CF0650E00018519D8B473EFA7
:1026E00093F075EF93F07BEF93F095C075F096C083
:1026F00076F07FEF93F0000E766F000E756F000E90
:10270000746F000E736F000E726F000E716F000E0B
:10271000906F000E8F6F7AEF94F087C02AF088C018
:102720002BF089C02CF08AC02DF099C02EF09AC0F1
:102730002FF09BC030F09CC031F06DECABF02AC0A4
:1027400043F02BC044F02CC045F02DC046F027ECE0
:10275000B2F043C08BF044C08CF045C08DF046C051
:102760008EF08BC03AF08CC03BF08DC03CF08EC038
:102770003DF058ECBBF03AC07DF03BC07EF000016C
:10278000EAB9C5EF93F0C7EF93F0E4EF93F07D5112
:102790007E11D8A4CEEF93F0D0EF93F0E4EF93F056
:1027A000670E8619D8A4D7EF93F0D9EF93F0E4EF32
:1027B00093F076BFE0EF93F0DEEF93F0E4EF93F069
:1027C000714B722B2EEF94F073517411D8A4EBEF70
:1027D00093F0EDEF93F017EF94F076BFF4EF93F0F2
:1027E000F2EF93F017EF94F0A70E9725D96E020E33
:1027F0009821DA6E2E0EDF6E974B982B8307D8A0A8
:102800008407000E746F010E736F17EF94F0A70E1C
:102810009725D96E020E9821DA6E300EDF6E974B37
:10282000982B8307D8A084077107D8A0720771512D
:102830007211D8A41EEF94F020EF94F007EF94F0FB
:10284000A70E9725D96E020E9821DA6E7D51300FB2
:10285000DF6E974B982B8307D8A0840787C03AF088
:1028600088C03BF089C03CF08AC03DF099C015F0AB
:102870009AC016F09BC017F09CC018F08BC011F0E6
:102880008CC012F08DC013F08EC014F075ECA7F060
:1028900011C03EF012C03FF013C040F014C041F030
:1028A000B4ECC5F03AC087F03BC088F03CC089F07A
:1028B0003DC08AF099C02AF09AC02BF09BC02CF042
:1028C0009CC02DF0000E2E6E000E2F6E200E306E6E
:1028D000410E316E6DECABF02AC099F02BC09AF02E
:1028E0002CC09BF02DC09CF000017507D8A0760786
:1028F0008F4B902B77518F5D9051800A606F78518C
:10290000800A6059D8B087EF94F089EF94F097EF80
:1029100094F098BF95EF94F0985109E14B0E975DB4
:10292000D8A095EF94F097EF94F08DEF93F073515A
:102930007411D8A49EEF94F0A0EF94F0B1EF94F04E
:10294000EAA9A5EF94F0A7EF94F0B1EF94F0A70EE9
:102950009725D96E020E9821DA6E2E0EDF6E974BF8
:10296000982BA70E9725D96E020E9821DA6E000ECD
:10297000DF6E650E8519D8A4C0EF94F0C2EF94F015
:102980001CEF90F0000E906F4F0E8F6FA70E8F25EB
:10299000D96E020E9021DA6E000EDF6E000E806F8F
:1029A000000E7F6F96BFD9EF94F0D7EF94F0E1EF70
:1029B00094F0000E806F010E7F6F956D961FD8B05A
:1029C000962B000E826F020E816F12EF95F08F072B
:1029D000D8A09007A70E8F25D96E020E9021DA6E2F
:1029E00095C001F096C002F0000E046E0A0E036E50
:1029F0001AECC0F00150300FDF6E95C001F096C0A8
:102A000002F0000E046E0A0E036E60ECBFF001C00F
:102A100095F002C096F000018107D8A082078307D5
:102A2000D8A0840795519611D8A419EF95F01BEF03
:102A300095F0E7EF94F082BF28EF95F0825106E120
:102A40008105D8B026EF95F028EF95F0E7EF94F0E8
:102A50008F07D8A090077F518011D8A432EF95F04E
:102A600034EF95F03AEF95F0000E6C6F2B0E6B6F14
:102A70003EEF95F0000E6C6F2D0E6B6FA70E8F253D
:102A8000D96E020E9021DA6E6000AFF1DFFF83078E
:102A9000D8A084078F07D8A09007BF0E606FFF0EE5
:102AA000616F5D50626F636B605162276151632398
:102AB00063510AE11A0E625DD8A061EF95F064EFF0
:102AC00095F0010E65EF95F0000E6F6F706B6F5112
:102AD0007011D8A46EEF95F070EF95F076EF95F049
:102AE000000E6E6F650E6D6F7AEF95F0000E6E6FD3
:102AF000450E6D6FA70E8F25D96E020E9021DA6EEE
:102B00006000B7F1DFFF8307D8A08407A70E9725E1
:102B1000016E020E9821026EA70E8F25036E020E23
:102B20009021046EF6ECC3F01CEF90F01200EEEF73
:102B300099F00A0E2EECC8F001240101246F000E5A
:102B40000220256F000E0320266F000E0420276F41
:102B5000600087F3D9FF60008BF3DAFF3D0EDE6E75
:102B6000000EDD6E2EECC8F001012451015C2551F0
:102B700002582651035827510458D8B0C2EF95F097
:102B8000C4EF95F0C8EF99F017EF9AF00201034BEC
:102B9000042B2C0E035D010E0459D8A0D2EF95F042
:102BA000D4EF95F099EF95F00081000E026E000EC3
:102BB000016E80ECC7F00201A26F100EA219D8B40A
:102BC000E4EF95F0E6EF95F008EF96F001ECC8F031
:102BD000000E026E000E016E100E036E8FECC5F03B
:102BE000000E026E010E016E000E036E8FECC5F03A
:102BF000000E026E020E016E000E036E8FECC5F029
:102C0000030E016E020E026ECAECC7F099EF95F04A
:102C1000000E026E010E016E80ECC7F00001E36F42
:102C2000E351036E046A056A066A000E0DECB7F004
:102C300003C0A3F204C0A4F205C0A5F206C0A6F228
:102C4000A3C22AF0A4C22BF0A5C22CF0A6C22DF07C
:102C5000000E2E6E000E2F6EC80E306E420E316EBC
:102C60006DECABF02AC0A3F22BC0A4F22CC0A5F2ED
:102C70002DC0A6F2000E026E020E016E80ECC7F0AF
:102C80000009D8B446EF96F048EF96F062EF96F060
:102C9000A3C211F0A4C212F0A5C213F0A6C214F090
:102CA000000E156E000E166E800E176EBF0E186E9B
:102CB00075ECA7F011C0A3F212C0A4F213C0A5F2E4
:102CC00014C0A6F288ECC8F0360E116E020E126E19
:102CD00020ECC7F0360E0001C36F020EC46F5E0E0B
:102CE000C56FFF0EC66F3DECC5F0360E116E020EBD
:102CF000126EC2ECBFF0360E116E020E126E20EC98
:102D0000C7F0360E0001C36F020EC46FA10EC56F6F
:102D1000FF0EC66FA3C2C7F0A4C2C8F0A5C2C9F017
:102D2000A6C2CAF03DECC5F0360E116E020E126E50
:102D3000C2ECBFF0030E0201086FE80E076F030E2E
:102D40000A6FE80E096F2E0E0C6FE00E0B6F000E6F
:102D5000026E040E016E1EECC9F099EF95F0000EA4
:102D6000026E010E016EF5ECC6F00009D8B4BBEF9F
:102D700096F0BDEF96F0BFEF96F000EF96F0E0EC26
:102D8000C7F00009D8A4C7EF96F0C9EF96F0D3EFCB
:102D900096F0D5ECC7F00009D8B4D1EF96F0D3EF98
:102DA00096F0DDEF96F088ECC8F0000E026E050E8E
:102DB000016E1EECC9F099EF95F00201074B082B4C
:102DC000E80E075D030E0859D8A0E9EF96F0EBEF87
:102DD00096F0F9EF96F0070E016E020E026ECAEC45
:102DE000C7F0000E026E020E016E1EECC9F099EFE4
:102DF00095F0094B0A2BE80E095D030E0A59D8A07D
:102E000004EF97F006EF97F014EF97F0090E016EBC
:102E1000020E026ECAECC7F0000E026E030E016EC7
:102E20001EECC9F099EF95F00B4B0C2BE00E0B5DEF
:102E30002E0E0C59D8A01FEF97F021EF97F099EFC5
:102E400095F00B0E016E020E026ECAECC7F0A7EFF2
:102E500096F0000E026E020E016EF5ECC6F000094F
:102E6000D8B435EF97F037EF97F041EF97F028ECB3
:102E7000C9F0360E116E020E126E20ECC7F000EF94
:102E800096F09CECC7F00009D8B449EF97F04BEFEF
:102E900097F099EF95F01CECC8F001C00EF202C05B
:102EA0000FF203C010F204C011F2360E0001C36F1E
:102EB000020EC46FF30EC56FFF0EC66F0EC2C7F0D1
:102EC0000FC2C8F010C2C9F011C2CAF03DECC5F083
:102ED000360E026E020E036E05ECC3F0000E026E9B
:102EE000010E016E1EECC9F099EF95F0000E026E16
:102EF000030E016EF5ECC6F00009D8B482EF97F02E
:102F000084EF97F088EF97F030ECC9F000EF96F07F
:102F1000EBECC7F00009D8B490EF97F092EF97F080
:102F200099EF95F013ECC8F001C012F202C013F251
:102F300003C014F204C015F26EEF97F0000E026E9B
:102F4000040E016EF5ECC6F00009D8B4AAEF97F0B4
:102F5000ACEF97F0B0EF97F033ECC9F000EF96F0DC
:102F6000F6ECC7F00009D8B4B8EF97F0BAEF97F0D5
:102F700099EF95F03FECC9F00001E36FE351036E68
:102F8000046A056A066A000E0DECB7F003C01AF277
:102F900004C01BF205C01CF206C01DF21AC23AF0B2
:102FA0001BC23BF01CC23CF01DC23DF058ECBBF014
:102FB0003AC044F03BC045F0000E476ECF0E466E5F
:102FC00019ECC6F00AECC8F001C032F202C033F2CC
:102FD00003C034F204C035F26EEF97F0000E026EBB
:102FE000050E016EF5ECC6F00009D8B4FAEF97F0C3
:102FF000FCEF97F000EF98F036ECC9F039EF97F05E
:1030000035ECC7F00009D8B408EF98F00AEF98F053
:1030100099EF95F025ECC8F001C01EF202C01FF236
:1030200003C020F204C021F21EC22AF01FC22BF0FE
:1030300020C22CF021C22DF0A3C22EF0A4C22FF08A
:10304000A5C230F0A6C231F0E7ECA2F02AC01EF211
:103050002BC01FF22CC020F22DC021F239ECC9F098
:1030600002010D6F050E0D19D8B439EF98F03BEF42
:1030700098F08AEF98F0090E0D19D8B442EF98F045
:1030800044EF98F08AEF98F01EC211F01FC212F0C0
:1030900020C213F021C214F0000E156E000E166E41
:1030A000C80E176E420E186E75ECA7F011C01EF216
:1030B00012C01FF213C020F214C021F21EC201F090
:1030C0001FC202F020C203F021C204F030ECB3F0C2
:1030D00001C01EF202C01FF203C020F204C021F2A0
:1030E0001EC22AF01FC22BF020C22CF021C22DF0EC
:1030F000000E2E6E000E2F6EC80E306E420E316E18
:103100006DECABF02AC01EF22BC01FF22CC020F2D7
:103110002DC021F212C23AF013C23BF014C23CF0AF
:1031200015C23DF01EC23EF01FC23FF020C240F06B
:1031300021C241F00DC242F03DECB5F03AC09AF226
:103140003BC09BF23CC09CF23DC09DF29AC22AF06B
:103150009BC22BF09CC22CF09DC22DF01EC22EF003
:103160001FC22FF020C230F021C231F0E7ECA2F0F4
:103170002AC09EF22BC09FF22CC0A0F22DC0A1F25B
:10318000D5ECC7F00009D8A4C8EF98F0CAEF98F0C2
:1031900077EF99F039ECC9F002010D6F9EC23AF059
:1031A0009FC23BF0A0C23CF0A1C23DF00DC23EF078
:1031B00000EC80F03AC000F13BC001F13CC002F1EC
:1031C0003DC003F100C13AF001C13BF002C13CF047
:1031D00003C13DF058ECBBF03AC044F03BC045F0B1
:1031E000000E476EC70E466E19ECC6F0360E000193
:1031F000C36F020EC46F880EC56FFF0EC66F3DEC25
:10320000C5F0360E116E020E126EC2ECBFF0360E15
:10321000116E020E126E20ECC7F0360E0001C36F65
:10322000020EC46F230EC56FFF0EC66F1EC2C7F01D
:103230001FC2C8F020C2C9F021C2CAF00EC2CBF032
:103240000FC2CCF010C2CDF011C2CEF000C1CFF051
:1032500001C1D0F002C1D1F003C1D2F09EC2D3F0BF
:103260009FC2D4F0A0C2D5F0A1C2D6F03DECC5F00B
:10327000360E116E020E126EC2ECBFF0360E116EDB
:10328000020E126E20ECC7F0360E0001C36F020E64
:10329000C46FE70EC56FFE0EC66F12C2C7F013C231
:1032A000C8F014C2C9F015C2CAF032C2CBF033C2A2
:1032B000CCF034C2CDF035C2CEF09AC2CFF09BC272
:1032C000D0F09CC2D1F09DC2D2F0A3C2D3F0A4C270
:1032D000D4F0A5C2D5F0A6C2D6F03DECC5F0360EAE
:1032E000116E020E126EC2ECBFF0C4EF99F018EC32
:1032F000C9F03CECC9F002010D6F9EC23AF09FC2CA
:103300003BF0A0C23CF0A1C23DF00DC23EF000EC8B
:1033100080F03AC000F13BC001F13CC002F13DC079
:1033200003F100C13AF001C13BF002C13CF003C11E
:103330003DF058ECBBF03AC044F03BC045F0000E05
:10334000476EC70E466E19ECC6F000C13AF001C1D7
:103350003BF002C13CF003C13DF058ECBBF03AC079
:10336000E6F03BC0E7F0360E0001C36F020EC46FFB
:10337000B30EC56FFF0EC66FE6C0C7F0E7C0C8F05A
:103380003DECC5F06FEF99F001ECC8F06EEF97F0EF
:1033900081510001E36FE46BE451000AD8B4D3EF2C
:1033A00099F099EF95F0E351000AD8B4C6EF95F083
:1033B000010AD8B4AFEF96F0030AD8B429EF97F01A
:1033C000010AD8B476EF97F0070AD8B49EEF97F0C9
:1033D000010AD8B4EEEF97F099EF95F0600087F30B
:1033E000D9FF60008BF3DAFF6F0078FFE3F06F0026
:1033F00074FFE4F00001E451000AD8B402EF9AF03F
:103400000DEF9AF0E351000AD8B499EF95F03D0A18
:10341000D8B4B2EF95F00DEF9AF0600087F3D9FFC2
:1034200060008BF3DAFF000EDE6E000EDD6E120020
:1034300060007FF2D9FF600083F2DAFF6F007BFF4C
:10344000F6FF6F0077FFF7FF000EF86E0800F550EB
:10345000250AD8A42EEF9AF030EF9AF097EF9DF05E
:1034600060007FF2D9FF600083F2DAFFDE2A000EEF
:10347000DD22000E01016F6F000E6E6F6EC1EAF06B
:103480006FC1EBF00001E869E969000EB06F000E52
:10349000AF6F99EF9AF0EA8160007FF2D9FF600088
:1034A00083F2DAFFDE2A000EDD2299EF9AF0EA833A
:1034B0004CEF9AF0EA854CEF9AF0EA874CEF9AF0DD
:1034C000EA894CEF9AF0000EB06F010EAF6F99EFE2
:1034D0009AF060007FF2D9FF600083F2DAFF6F009C
:1034E0007BFFF6FF6F0077FFF7FF000EF86E080016
:1034F000F550A36FA46BA451000AD8B482EF9AF0E0
:1035000063EF9AF0A351200AD8B45DEF9AF0030A52
:10351000D8B460EF9AF0080AD8B45AEF9AF0060AC5
:10352000D8B44BEF9AF01D0AD8B457EF9AF063EF76
:103530009AF0AF51B011D8B4A0EF9AF0A2EF9AF080
:1035400069EF9AF0EAA1A7EF9AF0A9EF9AF0AAEF33
:103550009AF0EA9360007FF2D9FF600083F2DAFF0D
:103560006F007BFFF6FF6F0077FFF7FF000EF86E2E
:103570000800F5502E0AD8A4C0EF9AF0C2EF9AF0D6
:103580005EEF9BF0000EE96F000EE86F60007FF2C7
:10359000D9FF600083F2DAFFDE2A000EDD22600030
:1035A0007FF2D9FF600083F2DAFF6F007BFFF6FF46
:1035B0006F0077FFF7FF000EF86E0800F5502A0A3B
:1035C000D8A4E5EF9AF0E7EF9AF00EEF9BF06000D9
:1035D0007FF2D9FF600083F2DAFFDE2A000EDD22DF
:1035E000600087F2D9FF60008BF2DAFF6F007CFF8A
:1035F000A3F0020EDE266F007CFFA4F0000EDD2299
:1036000060008FF2D9FF600093F2DAFF6F0078FF5D
:10361000E8F06F0074FFE9F05EEF9BF060007FF26E
:10362000D9FF600083F2DAFF6F0078FF08F06F00C7
:1036300074FF09F031ECB6F008C0E8F009C0E9F019
:103640002BEF9BF060007FF2D9FF600083F2DAFF7E
:10365000DE2A000EDD22D00E0001A36FFF0EA46F44
:1036600060007FF2D9FF600083F2DAFF6F007BFF1A
:10367000F6FF6F0077FFF7FF000EF86E0800F550B9
:10368000A56FA66BA351A527A451A623A6510AE1B5
:103690000A0EA55DD8A04FEF9BF052EF9BF0010EF4
:1036A00053EF9BF0000EB16FB26BB151B211D8A4C1
:1036B0005CEF9BF05EEF9BF022EF9BF060007FF2EF
:1036C000D9FF600083F2DAFF6F007BFFF6FF6F0027
:1036D00077FFF7FF000EF86E0800F550076E086AD6
:1036E0005CECC4F007500001B96FB951D8B47BEF5E
:1036F0009BF07DEF9BF0C7EF9BF060007FF2D9FF5E
:10370000600083F2DAFF6F0078FFA3F06F0074FFB0
:10371000A4F0010EA327000EA42360008FF2F6FF91
:10372000600093F2F7FF000EF86E0800F550076E88
:10373000086A5CECC4F007500001BA6FBA51D8B403
:10374000A4EF9BF0A6EF9BF0C7EF9BF060007FF229
:10375000D9FF600083F2DAFF6F0078FFA3F06F00FB
:1037600074FFA4F0020EA327000EA42360008FF2C2
:10377000F6FF600093F2F7FF000EF86E0800F550B8
:10378000076E086A5CECC4F007500001BB6F600074
:103790007FF2D9FF600083F2DAFF6F007BFFF6FF54
:1037A0006F0077FFF7FF000EF86E0800F550640A0F
:1037B000D8B4DDEF9BF0DFEF9BF0F7EF9BF06000FC
:1037C0007FF2D9FF600083F2DAFF6F007BFFF6FF24
:1037D0006F0077FFF7FF000EF86E0800F550690ADA
:1037E000D8A4F5EF9BF0F7EF9BF041EF9CF0600061
:1037F0007FF2D9FF600083F2DAFFDE2A000EDD22BD
:10380000600087F2D9FF60008BF2DAFF6F007CFF67
:10381000A3F0020EDE266F007CFFA4F0000EDD2276
:1038200060008FF2D9FF600093F2DAFF6F0078FF3B
:10383000A7F06F0074FFA8F0000EA8BFFF0EA96FDD
:10384000AA6FAB6FAC6FAD6FAE6F9DC01CF09EC02A
:103850001DF0A7C01EF0A8C01FF0A9C020F0AAC08C
:1038600021F0ABC022F0ACC023F0ADC024F0AEC05C
:1038700025F0B4ECB0F01CC09DF01DC09EF0BAEF76
:103880009DF0660EB919D8A448EF9CF04AEF9CF061
:103890009DEF9CF060007FF2D9FF600083F2DAFFB9
:1038A0006F007BFFF6FF6F0077FFF7FF000EF86EEB
:1038B00008006F00D4FFBCF060007FF2D9FF600009
:1038C00083F2DAFFDE2A000EDD22600087F2D9FFE4
:1038D00060008BF2DAFF6F007CFFA3F0040EDE269F
:1038E0006F007CFFA4F0000EDD2260008FF2D9FF94
:1038F000600093F2DAFF6F0078FFB5F06F0078FF99
:10390000B6F06F0078FFB7F06F0078FFB8F09DC099
:1039100057F09EC058F0B5C059F0B6C05AF0B7C0C5
:103920005BF0B8C05CF0BCC05DF069EC8FF057C0D4
:103930009DF058C09EF0BAEF9DF0B90E016E000EDA
:10394000026EF00E036EFF0E046E000E066E020E87
:10395000056EDCECBCF001500210D8A4B2EF9CF074
:10396000B4EF9CF055EF9DF060007FF2D9FF60004E
:1039700083F2DAFF6F0078FFA3F06F0074FFA4F00A
:10398000010E0001A327000EA42360008FF2F6FFB2
:10399000600093F2F7FF000EF86E08006F00D4FF8E
:1039A000BCF0BF0EA36FFF0EA46F60007FF2D9FFC3
:1039B000600083F2DAFF6F007BFFF6FF6F0077FF96
:1039C000F7FF000EF86E0800F550A56FA66BA35127
:1039D000A527A451A623A6510AE11A0EA55DD8A0D9
:1039E000F4EF9CF0F7EF9CF0010EF8EF9CF0000E66
:1039F000B36FB46BB351B411D8B401EF9DF003EFC2
:103A00009DF027EF9DF0600087F2D9FF60008BF2F8
:103A1000DAFF6F007CFFA3F0040EDE266F007CFF50
:103A2000A4F0000EDD2260008FF2D9FF600093F257
:103A3000DAFF6F0078FFB5F06F0078FFB6F06F0027
:103A400078FFB7F06F0078FFB8F049EF9DF06000A5
:103A500087F2D9FF60008BF2DAFF6F007CFFA3F0E2
:103A6000040EDE266F007CFFA4F0000EDD22600055
:103A70008FF2D9FF600093F2DAFF6F0078FFB5F0A4
:103A80006F0078FFB6F06F0078FFB7F06F0078FF37
:103A9000B8F0020E60007FF2D9FF600083F2DAFF17
:103AA000DE26000EDD2287EF9CF060007FF2D9FF5A
:103AB000600083F2DAFF6F007BFFF6FF6F0077FF95
:103AC000F7FF000EF86E0800F550250AD8A46BEF3A
:103AD0009DF06DEF9DF087EF9DF060007FF2D9FFC4
:103AE000600083F2DAFFDE2A000EDD22000E026E95
:103AF000250E016E9DC003F09EC004F059ECBDF090
:103B0000000E00019E6F010E9D6FBAEF9DF06000E8
:103B10007FF2D9FF600083F2DAFFDE2A000EDD2299
:103B2000000E00019E6F000E9D6FBAEF9DF06000C9
:103B30007FF2D9FF600083F2DAFF6F007BFFF6FFB0
:103B40006F0077FFF7FF000EF86E0800F550016E6A
:103B5000026A9DC003F09EC004F059ECBDF0600005
:103B60007FF2D9FF600083F2DAFFDE2A000EDD2249
:103B700080EF9DF0120058EFA0F0010E2EECC8F07F
:103B800001240101286F000E0220296F000E03207E
:103B90002A6F000E04202B6F600013F1D9FF600024
:103BA00017F1DAFF1E0EDE6E000EDD6E2EECC8F091
:103BB00001012851015C295102582A5103582B5107
:103BC0000458D8B0E6EF9DF0E8EF9DF033EFA0F099
:103BD00080EFA0F0030100A1F0EF9DF0F2EF9DF067
:103BE000BDEF9DF0010E0101826FBDEF9DF0120E41
:103BF0003FECC8F0B4ECC7F00009D8A402EF9EF087
:103C000004EF9EF0FAEF9DF0BFECC7F001C0E0F3C7
:103C100002C0E1F3660E156E660E166E660E176E26
:103C20003F0E186EE2C303F0E3C304F0056A066AB0
:103C3000000E0DECB7F003C011F004C012F005C087
:103C400013F006C014F075ECA7F011C02EF012C0EE
:103C50002FF013C030F014C031F0CD0E156ECC0E25
:103C6000166ECC0E176E3D0E186EE0C303F0E1C366
:103C700004F0056A066A000E0DECB7F003C011F0FF
:103C800004C012F005C013F006C014F075ECA7F0E4
:103C900011C02AF012C02BF013C02CF014C02DF06C
:103CA000E7ECA2F02AC03AF02BC03BF02CC03CF06D
:103CB0002DC03DF058ECBBF03AC0E2F33BC0E3F35B
:103CC000D8900301CD35D96ECE35DA6E010ED926E6
:103CD000030EDA2260008BFFDEFF60008FFFDDFF46
:103CE000CD4BCE2BD890CB35D96ECC35DA6E010EBC
:103CF000D926030EDA226F0078FF46F06F0074FFBA
:103D000047F046C003F047C004F0056A066A000E9B
:103D10000DECB7F003C02AF004C02BF005C02CF066
:103D200006C02DF0CFC32EF0D0C32FF0D1C330F09A
:103D3000D2C331F0E7ECA2F02AC0CFF32BC0D0F30E
:103D40002CC0D1F32DC0D2F30301CB4BCC2BCC51E3
:103D500009E1640ECB5DD8A0B0EF9EF0B2EF9EF00B
:103D6000BDEF9EF0000ECC6F000ECB6F000ECE6F3D
:103D7000000ECD6F020E0101826F030100A3C3EF9D
:103D80009EF0C5EF9EF0BDEF9DF000930091000EF8
:103D90000101826FBDEF9DF0CFC32AF0D0C32BF09D
:103DA000D1C32CF0D2C32DF0000E2E6E000E2F6E5C
:103DB000C80E306E420E316E6DECABF02AC0CFF300
:103DC0002BC0D0F32CC0D1F32DC0D2F3030E0101D0
:103DD000826FBDEF9DF0CFC311F0D0C312F0D1C3FD
:103DE00013F0D2C314F06F0E156E120E166E830E02
:103DF000176E3A0E186E75ECA7F011C0D3F312C00F
:103E0000D4F313C0D5F314C0D6F3CCA60AEF9FF0B9
:103E10000CEF9FF013EF9FF0040E0101826F03017E
:103E20000095BDEF9DF0050E0101826F0301008535
:103E3000BDEF9DF0000E156E000E166EC00E176ED3
:103E4000400E186ED3C311F0D4C312F0D5C313F0D3
:103E5000D6C314F075ECA7F011C02AF012C02BF0F5
:103E600013C02CF014C02DF0CD0E2E6ECC0E2F6E84
:103E7000CC0E306E3E0E316EE7ECA2F02AC0D7F3C6
:103E80002BC0D8F32CC0D9F32DC0DAF3000E156E79
:103E9000000E166EC80E176E410E186ED7C311F0C5
:103EA000D8C312F0D9C313F0DAC314F075ECA7F03D
:103EB00011C02AF012C02BF013C02CF014C02DF04A
:103EC000000E2E6E000E2F6E480E306EC30E316E39
:103ED000E7ECA2F02AC0DBF32BC0DCF32CC0DDF34F
:103EE0002DC0DEF3000E2A6E000E2B6EC80E2C6E57
:103EF000420E2D6EDBC32EF0DCC32FF0DDC330F09D
:103F0000DEC331F0DBECBBF0D8B089EF9FF08BEF74
:103F10009FF096EF9FF0000E0301DB6F000EDC6F49
:103F2000C80EDD6F420EDE6FA6EF9FF00301DEBF0D
:103F30009EEF9FF09CEF9FF0A6EF9FF0000EDB6FCF
:103F4000000EDC6F000EDD6F000EDE6FDBC33AF09B
:103F5000DCC33BF0DDC33CF0DEC33DF058ECBBF00E
:103F60003A500301DF6F00910093C7EF9EF0D3C377
:103F700011F0D4C312F0D5C313F0D6C314F0000E61
:103F8000156E000E166EC00E176E400E186E75EC94
:103F9000A7F011C0D7F312C0D8F313C0D9F314C0DF
:103FA000DAF3000E156E000E166E200E176E420E1E
:103FB000186ED7C311F0D8C312F0D9C313F0DAC307
:103FC00014F075ECA7F011C02AF012C02BF013C04A
:103FD0002CF014C02DF0000E2E6E000E2F6EC80EA9
:103FE000306EC30E316EE7ECA2F02AC0DBF32BC0BB
:103FF000DCF32CC0DDF32DC0DEF3000E2A6E000EC4
:104000002B6EC80E2C6E420E2D6EDBC32EF0DCC361
:104010002FF0DDC330F0DEC331F0DBECBBF0D8B005
:1040200014EFA0F016EFA0F021EFA0F0000E0301B6
:10403000DB6F000EDC6FC80EDD6F420EDE6FA6EF89
:104040009FF00301DEBF29EFA0F027EFA0F0A6EF5D
:104050009FF0000EDB6F000EDC6F000EDD6F000EB8
:10406000DE6FA6EF9FF08251466E476A4750000A06
:10407000D8B43DEFA0F0BDEF9DF04650000AD8B493
:10408000EAEF9DF0010AD8B4F7EF9DF0030AD8B427
:10409000CCEF9EF0010AD8B4EBEF9EF0070AD8B43B
:1040A0001AEF9FF0010AD8B4B7EF9FF0BDEF9DF073
:1040B000600013F1D9FF600017F1DAFF6F0078FF9D
:1040C00046F06F0074FF47F04750000AD8B46BEF1A
:1040D000A0F076EFA0F04650000AD8B4BDEF9DF0F6
:1040E0001E0AD8B4D6EF9DF076EFA0F0600013F171
:1040F000D9FF600017F1DAFF000EDE6E000EDD6EF4
:104100001200BEEFA2F0010E2EECC8F00124010156
:10411000606F000E0220616F000E0320626F000EC0
:104120000420636F600027F1D9FF60002BF1DAFFF4
:10413000680EDE6E000EDD6E2EECC8F001016051DF
:10414000015C615102586251035863510458D8B060
:10415000ACEFA0F0AEEFA0F0A4EFA2F0E6EFA2F07B
:10416000FF51D8B4B6EFA0F0B8EFA0F083EFA0F005
:10417000FE2B040EFE65BFEFA0F0C1EFA0F083EFB1
:10418000A0F0000EFF6F960E116E070E126E81ECFE
:10419000C3F0010E0001F46F83EFA0F0960E0C6ED9
:1041A000070E0D6EFC0E0E6EFF0E0F6E97ECBEF03E
:1041B0000C500D10D8B4DFEFA0F0E1EFA0F029EF24
:1041C000A1F0960E0C6E070E0D6EC20E0E6EFF0E57
:1041D0000F6E97ECBEF00C500D10D8B4F2EFA0F0BB
:1041E000F4EFA0F083EFA0F08D0E116E010E126EB1
:1041F00020ECC7F0A10E116E010E126E20ECC7F07C
:104200008D0E126E010E136E960E146E070E156E45
:10421000F60E166EFF0E176EF60E186EFF0E196E66
:10422000CAECC0F0A10E126E010E136E960E146E43
:10423000070E156EF60E166EFF0E176EFC0E186E3C
:10424000FF0E196E72ECC0F0020E0001F46F83EFE6
:10425000A0F0960E0C6E070E0D6EFA0E0E6EFF0E8F
:104260000F6E97ECBEF00C500D10D8B43AEFA1F0E1
:104270003CEFA1F03EEFA1F083EFA0F0000E0001B3
:10428000F46F83EFA0F0A10E0C6E010E0D6EF80E10
:104290000E6EFF0E0F6E97ECBEF00C500D10D8B4E2
:1042A00054EFA1F056EFA1F0F6EFA1F00401009752
:1042B0008D0E0C6E010E0D6EE80E0E6EFF0E0F6E63
:1042C00097ECBEF00C500D10D8B469EFA1F06BEF75
:1042D000A1F075EFA1F00F0E0101A46FA4C102F0CF
:1042E000036ADDECC6F0F1EFA1F08D0E0C6E010E4D
:1042F0000D6EDC0E0E6EFF0E0F6E97ECBEF00C50C6
:104300000D10D8B486EFA1F088EFA1F08FEFA1F0E7
:10431000040100870A0E0101A46F6EEFA1F08D0E5B
:104320000C6E010E0D6EEC0E0E6EFF0E0F6E97EC06
:10433000BEF00C500D10D8B4A0EFA1F0A2EFA1F088
:10434000A7EFA1F00B0E0101A46F6EEFA1F08D0E8F
:104350000C6E010E0D6ED80E0E6EFF0E0F6E97ECEA
:10436000BEF00C500D10D8B4B8EFA1F0BAEFA1F028
:10437000C1EFA1F0040100870C0E0101A46F6EEFE4
:10438000A1F08D0E0C6E010E0D6EE40E0E6EFF0E82
:104390000F6E97ECBEF00C500D10D8B4D2EFA1F018
:1043A000D4EFA1F0D9EFA1F00D0E0101A46F6EEFD3
:1043B000A1F08D0E0C6E010E0D6EE00E0E6EFF0E56
:1043C0000F6E97ECBEF00C500D10D8B4EAEFA1F0D0
:1043D000ECEFA1F0F1EFA1F00E0E0101A46F6EEF72
:1043E000A1F0010E0101A56F92EFA2F00401008778
:1043F000020E0101A56F8D0E0C6E010E0D6EE80E02
:104400000E6EFF0E0F6E97ECBEF00C500D10D8B470
:104410000CEFA2F00EEFA2F01AEFA2F0090E0101CC
:10442000A46F04010097A4C102F0036ADDECC6F09A
:1044300092EFA2F08D0E0C6E010E0D6EDC0E0E6E64
:10444000FF0E0F6E97ECBEF00C500D10D8B42BEF92
:10445000A2F02DEFA2F032EFA2F0170E0101A46F2F
:1044600013EFA2F08D0E0C6E010E0D6EEC0E0E6EA3
:10447000FF0E0F6E97ECBEF00C500D10D8B443EF4A
:10448000A2F045EFA2F04AEFA2F0050E0101A46FE1
:1044900011EFA2F08D0E0C6E010E0D6ED80E0E6E89
:1044A000FF0E0F6E97ECBEF00C500D10D8B45BEF02
:1044B000A2F05DEFA2F062EFA2F0060E0101A46F80
:1044C00013EFA2F08D0E0C6E010E0D6EE40E0E6E4B
:1044D000FF0E0F6E97ECBEF00C500D10D8B473EFBA
:1044E000A2F075EFA2F07AEFA2F0070E0101A46F1F
:1044F00013EFA2F08D0E0C6E010E0D6EE00E0E6E1F
:10450000FF0E0F6E97ECBEF00C500D10D8B48BEF71
:10451000A2F08DEFA2F092EFA2F0080E0101A46FBD
:1045200013EFA2F0000E456E000E446E000E476EB3
:10453000C70E466E19ECC6F00101A4512CECC9F06F
:1045400001018C813EEFA1F00001F4514B6E4C6AE9
:104550004C50000AD8B4AFEFA2F083EFA0F04B505C
:10456000000AD8B4B0EFA0F0010AD8B4CEEFA0F0A2
:10457000030AD8B443EFA1F083EFA0F0600027F165
:10458000D9FF60002BF1DAFF6F0078FF4BF06F006E
:1045900074FF4CF04C50000AD8B4D1EFA2F0DCEF1D
:1045A000A2F04B50000AD8B483EFA0F0680AD8B448
:1045B0009CEFA0F0DCEFA2F0600027F1D9FF6000D3
:1045C0002BF1DAFF000EDE6E000EDD6E12002D50B4
:1045D000800B366E2D502D24386E2CAEF2EFA2F0EB
:1045E000F4EFA2F0F5EFA2F038803850D8B4FBEF2A
:1045F000A2F0FDEFA2F012EFA3F03828D8A403EF49
:10460000A3F005EFA3F00DEFA3F0000E2A6E000E4D
:104610002B6E000E2C6E000E2D6E2C8E000E2D6E4D
:104620001AEFA3F0000E2A6E000E2B6E000E2C6EF9
:10463000000E2D6E3150800B376E36503718D8B4BF
:1046400024EFA3F026EFA3F027EFA3F0368C315030
:104650003124376E30AE2FEFA3F031EFA3F032EFFD
:10466000A3F037803750D8B438EFA3F03AEFA3F077
:104670004FEFA3F03728D8A440EFA3F042EFA3F008
:104680004AEFA3F0000E2E6E000E2F6E000E306E5D
:10469000000E316E308E000E316E57EFA3F0000E1B
:1046A0002E6E000E2F6E000E306E000E316E3850E2
:1046B000375CD8B05EEFA3F060EFA3F087EFA3F014
:1046C00036AC65EFA3F067EFA3F069EFA3F0800EBF
:1046D000361A38C039F037C038F039C037F02AC040
:1046E00039F02EC02AF039C02EF02BC039F02FC07F
:1046F0002BF039C02FF02CC039F030C02CF039C06D
:1047000030F02DC039F031C02DF039C031F0000E3D
:10471000396E385037C032F0336A325E000E335A89
:1047200033BE9CEFA3F0335009E11A0E325CD8A0DF
:104730009CEFA3F09EEFA3F0D5EFA3F02A502B102F
:104740002C102D10D8A4A7EFA3F0AAEFA3F0010E10
:10475000ABEFA3F0000E396E000E2A6E000E2B6E2A
:10476000000E2C6E000E2D6E37C038F0DEEFA3F079
:1047700039A0BDEFA3F0BFEFA3F0C5EFA3F0D89031
:1047800039300109396EC7EFA3F0D89039322AA029
:10479000CCEFA3F0CEEFA3F0CFEFA3F0398E2D3402
:1047A0002D322C322B322A32382A3750385CD8A09E
:1047B000DCEFA3F0DEEFA3F0B8EFA3F036BCE3EF3D
:1047C000A3F0E5EFA3F025EFA4F03850D8A4EBEF69
:1047D000A3F0EDEFA3F0F7EFA3F0000E2A6E000EAA
:1047E0002B6E000E2C6E000E2D6E46EFA5F02E5097
:1047F0002A262F502B2230502C2231502D222DA032
:1048000004EFA4F006EFA4F0B2EFA4F039A00BEF90
:10481000A4F00DEFA4F013EFA4F0D8903930010903
:10482000396E15EFA4F0D89039322AA01AEFA4F00F
:104830001CEFA4F01DEFA4F0398E2D342D322C3254
:104840002B322A32382AB2EFA4F02E502A5C2F5095
:104850002B5830502C582D50800A326E3150800A1F
:104860003258D8B036EFA4F038EFA4F063EFA4F0DC
:104870002A502E5C326E2B502F58336E2C503058ED
:10488000346E2D503158356EFF0E32242A6EFF0ED5
:1048900033202B6EFF0E34202C6EFF0E35202D6E34
:1048A000800E361A396C3950D8A459EFA4F05BEF5A
:1048B000A4F06BEFA4F0010E2A26000E2B222C226E
:1048C0002D226BEFA4F02E502A5E2F502B5A305021
:1048D0002C5A31502D5A2A502B102C102D10D8A4A0
:1048E00074EFA4F076EFA4F0ABEFA4F03950D8A4A5
:1048F0007CEFA4F07EEFA4F0ABEFA4F0000E2A6EE4
:10490000000E2B6E000E2C6E000E2D6E46EFA5F0E5
:10491000D8902A362B362C362D3639AE92EFA4F0AD
:1049200094EFA4F095EFA4F02A8039A09AEFA4F0B8
:104930009CEFA4F0A0EFA4F0D8803936A2EFA4F049
:10494000D89039363850D8B4A8EFA4F0AAEFA4F024
:10495000ABEFA4F038062CAEB0EFA4F0B2EFA4F0A9
:1049600088EFA4F0000E376E39AEB9EFA4F0BBEFBC
:10497000A4F0D3EFA4F039C032F07F0E3216D8B4D1
:10498000C4EFA4F0C6EFA4F0CAEFA4F0010E376E96
:10499000D3EFA4F02AA0CFEFA4F0D1EFA4F0D3EF8F
:1049A000A4F0C6EFA4F03750D8B4D9EFA4F0DBEFF1
:1049B000A4F006EFA5F0010E2A26000E2B222C22D1
:1049C0002D222DA0E6EFA4F0E8EFA4F006EFA5F06D
:1049D0002AC032F02BC033F02CC034F02DC035F09B
:1049E0003534353234323332323232C02AF033C0C9
:1049F0002BF034C02CF035C02DF03828D8B403EF9C
:104A0000A5F005EFA5F006EFA5F0382A3828D8B4B0
:104A10000CEFA5F00EEFA5F016EFA5F03850D8A4D6
:104A200014EFA5F016EFA5F028EFA5F0000E2A6E02
:104A3000000E2B6E000E2C6E000E2D6E3850D8A47A
:104A400024EFA5F026EFA5F028EFA5F0000E366EB6
:104A500038A02DEFA5F02FEFA5F032EFA5F02C8EAA
:104A600033EFA5F02C9ED89038302D6E36AE3BEF4C
:104A7000A5F03DEFA5F03EEFA5F02D8E2AC02AF05F
:104A80002BC02BF02CC02CF02DC02DF012004CEFC1
:104A9000A7F0010E2EECC8F001240101306F000ECA
:104AA0000220316F000E0320326F000E0420336F9E
:104AB000600013F1D9FF600017F1DAFF280EDE6EF7
:104AC000000EDD6E2EECC8F001013051015C315159
:104AD00002583251035833510458D8B072EFA5F040
:104AE00074EFA5F027EFA7F074EFA7F0040100A181
:104AF0007CEFA5F07EEFA5F0AFEFA5F024ECC9F0B8
:104B0000040100A786EFA5F088EFA5F08DEFA5F0D2
:104B1000BE82BE90BA9A90EFA5F0BE92BE80BA9ABD
:104B20000101764B772BE80E765D030E7759D8A0FE
:104B30009CEFA5F09EEFA5F049EFA5F004010095CC
:104B4000000E0101776F000E766F000E0401CC6F2E
:104B5000000ECB6F010E0101846F49EFA5F000A399
:104B6000B4EFA5F0B6EFA5F049EFA5F024ECC9F03D
:104B7000BE9204010085000ECC6F000ECB6F050EB7
:104B80000101846F49EFA5F0060E3FECC8F0B4ECCC
:104B9000C7F00009D8A4CFEFA5F0D1EFA5F0C7EF7B
:104BA000A5F0BFECC7F001C0CBF402C0CCF4CBC47D
:104BB00003F0CCC404F0056A066A000E0DECB7F0F1
:104BC00003C02AF004C02BF005C02CF006C02DF065
:104BD000CFC42EF0D0C42FF0D1C430F0D2C431F005
:104BE000E7ECA2F02AC0CFF42BC0D0F42CC0D1F453
:104BF0002DC0D2F40401D34BD42BD45109E1640E5F
:104C0000D35DD8A006EFA6F008EFA6F049EFA5F017
:104C1000000ECE6F000ECD6F000ED46F000ED36F5E
:104C2000030E0101846F49EFA5F0060E3FECC8F0BA
:104C3000B4ECC7F00009D8A420EFA6F022EFA6F04C
:104C400018EFA6F0BFECC7F001C0D9F402C0DAF447
:104C5000000E156E000E166E000E176E3F0E186ECB
:104C6000DBC403F0DCC404F0056A066A000E0DEC38
:104C7000B7F003C011F004C012F005C013F006C075
:104C800014F075ECA7F011C02EF012C02FF013C075
:104C900030F014C031F0000E156E000E166E000ECE
:104CA000176E3F0E186ED9C403F0DAC404F0056A1B
:104CB000066A000E0DECB7F003C011F004C012F04C
:104CC00005C013F006C014F075ECA7F011C02AF06F
:104CD00012C02BF013C02CF014C02DF0E7ECA2F0A2
:104CE0002AC03AF02BC03BF02CC03CF02DC03DF068
:104CF00058ECBBF03AC0DBF43BC0DCF4DBC403F09F
:104D0000DCC404F0056A066A000E0DECB7F003C0BF
:104D10002AF004C02BF005C02CF006C02DF0CFC443
:104D20002EF0D0C42FF0D1C430F0D2C431F0E7EC73
:104D3000A2F02AC0CFF42BC0D0F42CC0D1F42DC0E7
:104D4000D2F40401D34BD42BE80ED35D030ED45917
:104D5000D8A0ADEFA6F0AFEFA6F049EFA5F0BE9258
:104D6000BE90000ED46F000ED36F030E0101846F4E
:104D700049EFA5F0040100B5C0EFA6F0C2EFA6F020
:104D8000E1EFA6F0CFC42AF0D0C42BF0D1C42CF0B0
:104D9000D2C42DF0000E2E6E000E2F6E7A0E306EE5
:104DA000440E316E6DECABF02AC0CFF42BC0D0F4C2
:104DB0002CC0D1F42DC0D2F4040E0101846F49EF50
:104DC000A5F0CFC42AF0D0C42BF0D1C42CF0D2C4AB
:104DD0002DF0000E2E6E000E2F6EC80E306E420E9D
:104DE000316E6DECABF02AC0CFF42BC0D0F42CC0E8
:104DF000D1F42DC0D2F4DCEFA6F0CFC411F0D0C4B2
:104E000012F0D1C413F0D2C414F06F0E156E120E4E
:104E1000166E830E176E3A0E186E75ECA7F011C061
:104E2000D5F412C0D6F413C0D7F414C0D8F4000ED1
:104E30000401CF6F000ED06F000ED16F000ED26F45
:104E400000910093000E0101846F49EFA5F0845199
:104E5000466E476A4750000AD8B431EFA7F049EFD1
:104E6000A5F04650000AD8B476EFA5F0010AD8B4F0
:104E700015EFA6F0030AD8B449EFA5F0010AD8B49B
:104E8000BAEFA6F0070AD8B4FDEFA6F0010AD8B42D
:104E9000C4EFA5F049EFA5F0600013F1D9FF600061
:104EA00017F1DAFF6F0078FF46F06F0074FF47F0EC
:104EB0004750000AD8B45FEFA7F06AEFA7F046505A
:104EC000000AD8B449EFA5F0280AD8B462EFA5F0DB
:104ED0006AEFA7F0600013F1D9FF600017F1DAFF65
:104EE000000EDE6E000EDD6E12001450800B1D6E83
:104EF00014501424236E13AE80EFA7F082EFA7F0B6
:104F000083EFA7F023802350D8B489EFA7F08BEF6D
:104F1000A7F09EEFA7F02328D8A491EFA7F093EF76
:104F2000A7F09BEFA7F0000E116E000E126E000EA0
:104F3000136E000E146E138EA6EFA7F0000E116E06
:104F4000000E126E000E136E000E146E1850800BC1
:104F50001D1A18501824226E17AEB1EFA7F0B3EF48
:104F6000A7F0B4EFA7F022802250D8B4BAEFA7F090
:104F7000BCEFA7F0CFEFA7F02228D8A4C2EFA7F08C
:104F8000C4EFA7F0CCEFA7F0000E156E000E166E62
:104F9000000E176E000E186E178ED7EFA7F0000EDA
:104FA000156E000E166E000E176E000E186E225053
:104FB000D8B4DDEFA7F0DFEFA7F0E7EFA7F02350BD
:104FC000D8A4E5EFA7F0E7EFA7F0F1EFA7F0000E08
:104FD000116E000E126E000E136E000E146E9BEF1B
:104FE000A9F0175011026F00CCFF28F06F00D0FF1E
:104FF00029F028501E6E1F6A206A216A2950246EEB
:10500000256A266A276A165012026F00CCFF28F024
:105010006F00D0FF29F028501E26000E1F222022EC
:10502000212229502426000E25222622272215502F
:1050300013026F00CCFF28F06F00D0FF29F028503A
:105040001E26000E1F222022212229502426000E77
:1050500025222622272220C021F01FC020F01EC0BA
:105060001FF01E6A155012026F00CCFF28F06F006F
:10507000D0FF29F028501E2629501F22000E202282
:10508000000E2122165011026F00CCFF28F06F0095
:10509000D0FF29F028501E2629501F22000E202262
:1050A000000E212220C021F01FC020F01EC01FF0E2
:1050B0001E6A155011026F00CCFF28F06F00D0FF60
:1050C00029F028501E2629501F22000E2022000EF3
:1050D0002122175012026F00CCFF28F06F00D0FF82
:1050E00029F02850242629502522000E2622000EC1
:1050F0002722165013026F00CCFF28F06F00D0FF5C
:1051000029F02850242629502522000E2622000EA0
:105110002722175013026F00CCFF28F06F00D0FF3A
:1051200029F02850196E29501A6E1B6A1C6A1BC080
:105130001CF01AC01BF019C01AF0196A1950242665
:105140001A5025221B5026221C5027221EC019F05F
:105150001FC01AF020C01BF021C01CF0190EB6EFC2
:10516000A8F0D8901C321B321A321932E82EB1EF57
:10517000A8F0195024261A5025221B5026221C5014
:10518000272220C021F01FC020F01EC01FF01E6A81
:10519000225023C019F01A6A1926000E1A22820E14
:1051A0001924286EFF0E1A20296EECEFA8F0D89073
:1051B000243625362636273621AEE1EFA8F0E3EF78
:1051C000A8F0E4EFA8F02480D8901E361F362036D1
:1051D00021362806D8A0290626AEF1EFA8F0F3EF75
:1051E000A8F0D7EFA8F0000E226E21AEFAEFA8F0DB
:1051F000FCEFA8F020EFA9F0FF0E1E14196EFF0EB1
:105200001F141A6EFF0E20141B6E7F0E21141C6ECD
:1052100019501A101B101C10D8B411EFA9F013EF7D
:10522000A9F017EFA9F0010E226E20EFA9F024A03B
:105230001CEFA9F01EEFA9F020EFA9F013EFA9F0E1
:105240002250D8B426EFA9F028EFA9F04CEFA9F02E
:10525000010E2426000E25222622272227A033EF26
:10526000A9F035EFA9F04CEFA9F024C019F025C042
:105270001AF026C01BF027C01CF01C341C321B3255
:105280001A32193219C024F01AC025F01BC026F0BA
:105290001CC027F0284A292A29BE57EFA9F0295017
:1052A00008E12828D8A057EFA9F059EFA9F063EF3B
:1052B000A9F0000E246E000E256E800E266E7F0E65
:1052C000276E91EFA9F029BE70EFA9F0295006E1F1
:1052D0002804D8B06EEFA9F070EFA9F07CEFA9F028
:1052E000000E246E000E256E000E266E000E276E38
:1052F000000E1D6E91EFA9F028C023F0FF0E2416BA
:10530000FF0E25167F0E2616000E271623A08BEF04
:10531000A9F08DEFA9F08EEFA9F0268ED89023305A
:10532000276E1D50271224C011F025C012F026C090
:1053300013F027C014F0120044EFABF00A0E2EEC6D
:10534000C8F001240101346F000E0220356F000EF9
:105350000320366F000E0420376F600017F0D9FF6E
:1053600060001BF0DAFF1F0EDE6E000EDD6E2EEC0D
:10537000C8F001013451015C3551025836510358CF
:1053800037510458D8B0C7EFA9F0C9EFA9F0CBEF57
:10539000A9F06CEFABF00001EC89CDB4EC99EC8B8B
:1053A000CDB6EC9B16EFABF00001ECA9DAEFA9F05B
:1053B000DCEFA9F0E8EFA9F0ECBBE1EFA9F0E3EF37
:1053C000A9F0E8EFA9F0010E0101856F9EEFA9F0A9
:1053D000ECB9EDEFA9F0EFEFA9F0FBEFA9F0ECAB22
:1053E000F4EFA9F0F6EFA9F0FBEFA9F0020E01012E
:1053F000856F9EEFA9F0ECA900EFAAF002EFAAF0EA
:105400009EEFA9F0ECAB07EFAAF009EFAAF09EEF30
:10541000A9F0030E0101856F9EEFA9F00001ECA930
:1054200014EFAAF016EFAAF03DEFAAF0ECBB1BEFC9
:10543000AAF01DEFAAF03DEFAAF0010E01013827F6
:10544000000E39233A233B233B513A11391109E12C
:105450001E0E385DD8A02FEFAAF031EFAAF09EEF14
:10546000A9F0000E386F000E396F000E3A6F000E73
:105470003B6F040E856F9EEFA9F0000E0101386F9F
:10548000000E396F000E3A6F000E3B6F000E856FF5
:105490009EEFA9F00001ECB950EFAAF052EFAAF08C
:1054A0003DEFAAF0ECAB57EFAAF059EFAAF03DEFB1
:1054B000AAF0010E01013827000E39233A233B23BD
:1054C0003B513A11391109E11E0E385DD8A06BEF3E
:1054D000AAF06DEFAAF09EEFA9F0000E386F000E53
:1054E000396F000E3A6F000E3B6F050E856F9EEF11
:1054F000A9F00001ECA97FEFAAF081EFAAF03DEF3F
:10550000AAF0ECAB86EFAAF088EFAAF03DEFAAF084
:10551000010E01013827000E39233A233B23000EE8
:10552000386F000E396F000E3A6F000E3B6F060E9B
:10553000856F9EEFA9F00001ECA9A1EFAAF0A3EFFF
:10554000AAF0B0EFAAF0ECBBA8EFAAF0AAEFAAF07D
:10555000B0EFAAF0EC81070E0101856F9EEFA9F074
:10556000000E0101856F9EEFA9F00001ECB9BBEFC1
:10557000AAF0BDEFAAF0B0EFAAF0ECABC2EFAAF030
:10558000C4EFAAF0B0EFAAF0EC83ABEFAAF00001F1
:10559000ECA9CDEFAAF0CFEFAAF0B0EFAAF0ECABF8
:1055A000D4EFAAF0D6EFAAF0B0EFAAF0EC85ABEFFB
:1055B000AAF0010E3827000E39233A233B233B5132
:1055C0003A11391109E1050E385DD8A0EAEFAAF0C9
:1055D000ECEFAAF008EFABF0000E386F000E396F59
:1055E000000E3A6F000E3B6F0001EC91EC93EC95CE
:1055F000ECB9FDEFAAF0FFEFAAF09EEFA9F0ECBB2B
:1056000004EFABF006EFABF09EEFA9F0B0EFAAF01D
:105610000001ECA70EEFABF010EFABF09EEFA9F09E
:10562000EC97EC91EC93EC959EEFA9F0010185517C
:10563000076E086A0850000AD8B421EFABF09EEF5D
:10564000A9F00750000AD8B4D4EFA9F0010AD8B4E1
:105650000EEFAAF0030AD8B44AEFAAF0010AD8B4B0
:1056600079EFAAF0070AD8B49BEFAAF0010AD8B4E0
:10567000B5EFAAF0030AD8B4C7EFAAF0010AD8B46C
:10568000D9EFAAF09EEFA9F0600017F0D9FF6000F3
:105690001BF0DAFF6F0078FF07F06F0074FF08F06F
:1056A0000850000AD8B457EFABF062EFABF00750E8
:1056B000000AD8B49EEFA9F01F0AD8B4B7EFA9F03A
:1056C00062EFABF0600017F0D9FF60001BF0DAFF6B
:1056D000000EDE6E000EDD6E12002D50800B3A6E55
:1056E0002D502D24416E2CAE78EFABF07AEFABF05D
:1056F0007BEFABF041804150D8B481EFABF083EF4A
:10570000ABF098EFABF04128D8A489EFABF08BEF6A
:10571000ABF093EFABF0000E2A6E000E2B6E000E76
:105720002C6E000E2D6E2C8E000E2D6EA0EFABF0A9
:10573000000E2A6E000E2B6E000E2C6E000E2D6ECB
:105740003150800B3A1A31503124426E30AEABEFFB
:10575000ABF0ADEFABF0AEEFABF042804250D8B45F
:10576000B4EFABF0B6EFABF0CBEFABF04228D8A480
:10577000BCEFABF0BEEFABF0C6EFABF0000E2E6EA1
:10578000000E2F6E000E306E000E316E308E000E49
:10579000316ED3EFABF0000E2E6E000E2F6E000EAA
:1057A000306E000E316E2E502F1030103110D8A4F4
:1057B000DCEFABF0DEEFABF0F6EFABF0000E2A6EF5
:1057C000000E2B6E000E2C6E000E2D6E800E2C1215
:1057D0007F0E2D123A502D122AC02AF02BC02BF02A
:1057E0002CC02CF02DC02DF039EFADF04150D8A4D5
:1057F000FCEFABF0FEEFABF008EFACF0000E2A6E62
:10580000000E2B6E000E2C6E000E2D6E39EFADF0DB
:10581000425041C032F0336A325E000E335A7F0E7E
:1058200032243B6E000E33203C6E2AC036F02BC073
:1058300037F02CC038F02DC039F0000E2A6E000E63
:105840002B6E000E2C6E000E2D6E000E3D6E000EA7
:105850003E6E000E3F6E000E406E000E426E69EF0F
:10586000ACF04250D8B437EFACF039EFACF050EFB9
:10587000ACF0D8903636373638363936D8902A36A6
:105880002B362C362D3640AE48EFACF04AEFACF05C
:105890004BEFACF02A80D8903D363E363F3640364E
:1058A0002E50365C2F5037583050385831503958B8
:1058B000D8A05DEFACF05FEFACF068EFACF0408CDF
:1058C0002E50365E2F50375A3050385A3150395A90
:1058D000422A190E42646FEFACF071EFACF031EF79
:1058E000ACF03650371038103910D8B47AEFACF02D
:1058F0007CEFACF094EFACF03D8094EFACF0D8903E
:105900002A362B362C362D3640AE89EFACF08BEF95
:10591000ACF08CEFACF02A80D8903D363E363F3666
:1059200040363B06D8A03C062CAE99EFACF09BEF7E
:10593000ACF07FEFACF0000E426E40AEA2EFACF0E8
:10594000A4EFACF0C8EFACF0FF0E3D14326EFF0ECA
